:100000000C9468030C94AF030C94AF030C94AF03EF
:100010000C94AF030C94AF030C94AF030C94AF0398
:100020000C94AF030C94AF030C94E3240C94B72509
:100030000C9407200C94AF030C94AF030C94AF0303
:100040000C94AF030C94AF030C94AF030C94AF0368
:100050000C94AF030C945E200C94AF030C94AF038C
:100060000C94AF030C94AF030C94AF030C94AF0348
:100070000C94AF030C94AF030C94AF030C94AF0338
:100080000C94AF030C94AF030C94AF030C94AF0328
:100090000C94AF030C94AF030C94AF030C94AF0318
:1000A0000C94AF030C94AF030C94AF034769742016
:1000B0004C6179657200457863656C204C617965A7
:1000C00072004F75746C6F6F6B204C6179657200B4
:1000D00053534D53204C61796572004E756D7061BC
:1000E00064204C6179657200646972010128000125
:1000F00001E2686E53686F72742044617465010197
:1001000028000101E2617261000101E26876760176
:100110000151000101E2687674010151000101E220
:10012000687666010151000102E0660103E04E5568
:100130004C4C01012B0101290101E2686664720146
:10014000012A01012A010128000101E26E76010164
:1001500028000101E2686E43757272656E63790171
:100160000128000101E2686F7735300101280001A4
:1001700001E2686F69006769742073746174757354
:10018000010128006769742073686F77205B636FD3
:100190006D6D69742D69645D006769742072656DA9
:1001A0006F7465202D7601012800676974207075D1
:1001B0007368206F726967696E207472756E6B0068
:1001C0006769742070756C6C010128006769742080
:1001D0006D657267652000676974206C6F67202DFC
:1001E0002D737461740101280067697420696E6958
:1001F000740101280067697420646966660101283A
:100200000067697420636F6D6D6974202D6D202205
:10021000220101500067697420636F6D6D6974205D
:100220002D2D616D656E640101280067697420637E
:100230006C6F6E65200067697420636865636B6F1F
:1002400075742000676974206272616E63682000B3
:100250006769742072656D6F746520616464200045
:1002600067697420616464202E010128000101285F
:100270000101E26879010128000101E268746D0062
:100280005550444154452020534554203D2020578B
:100290004845524520313D303B0053454C45435481
:1002A00020544F5020313030202A2046524F4D20CC
:1002B000005475726E20636F6D6D656E74206F668D
:1002C00066005475726E20636F6D6D656E74206F7D
:1002D0006E004946204F424A4543545F494428270F
:1002E00074656D7064622E2E232729204953204E99
:1002F0004F54204E554C4C2044524F5020544142B4
:100300004C4520230053454C454354204449535405
:10031000494E4354202046524F4D2000524F575FC4
:100320004E554D4245522829204F564552202850BF
:100330004152544954494F4E20425920204F524473
:10034000455220425920202920415320005249473C
:100350004854204A4F494E20204F4E20203D200037
:100360004C454654204A4F494E20204F4E20203DB8
:100370002000494E5345525420494E544F20205698
:10038000414C5545532028292C28293B00494E4EE5
:100390004552204A4F494E20204F4E20203D2000FC
:1003A00046554C4C204A4F494E20204F4E20203D70
:1003B000200044454C4554452046524F4D20574857
:1003C00045524520313D303B004352454154452084
:1003D0005441424C452028293B00274411505400E9
:1003E0005500570026002500240056002300220057
:1003F0002100015720001F001E00586202572700ED
:1004000037001E401250520618035F5D605D625D4A
:10041000635D645D655D665D675D685D695D6A5DC0
:100420006B5D6C5D6D5D6E5D6F5D1F4113502A00ED
:100430004C005000520051004F00E1001003705D6D
:1004400028002B000403715D725D65001E011F0111
:10045000420020421450735D745D50005200510000
:100460004F00755D765D775D785D1B010601795DF6
:100470007A5D7B5D7C5D7D5D7E5D214310507F5D9F
:10048000805D815D825D835D845D855D865D875D68
:10049000885D895D8A5D8B5D8C5D00578D5D8E5DAD
:1004A0008F5D00000000000000002A2B28000000E3
:1004B0000000000000000000000000000029000013
:1004C00000002C1E3420212224342627252E362DF0
:1004D0003738271E1F202122232425263333362E8A
:1004E00037381F0405060708090A0B0C0D0E0F10FC
:1004F0001112131415161718191A1B1C1D2F313041
:10050000232D350405060708090A0B0C0D0E0F10E4
:100510001112131415161718191A1B1C1D2F313020
:10052000354C00000000000000000000000000004A
:1005300000000000000000000000000000000000BB
:100540000000000000007E0F00D4FFFFFFC7000086
:1005500000780C0353006F00790075007A000000EA
:10056000260361006900300033002000440065006C
:100570007300690067006E0020005300740075006E
:10058000640069006F0000000403090409023B00D5
:10059000020100A0FA090400000103010100092181
:1005A000110100012240000705810308000A090427
:1005B0000100010300000009211101000122B60021
:1005C0000705820320000A12011001000000080341
:1005D000A1180001000102000105010902A1018525
:1005E000020901A100050919012908150025019535
:1005F00008750181020501093009311581257F95B2
:10060000027508810609381581257F9501750881D5
:1006100006050C0A38021581257F950175088106AB
:10062000C0C005010980A101850319012AB7001581
:100630000126B700950175108100C0050C0901A1C4
:1006400001850419012AA002150126A00295017551
:10065000108100C005010906A1018505050719E003
:1006600029E7150025019508750181020507190084
:1006700029EF1500250195F0750181020508190182
:100680002905950575019102950175039101C00534
:10069000010906A101050719E029E71500250195C3
:1006A0000875018102950175088101050719002966
:1006B000FF150026FF009506750881000508190141
:1006C0002905950575019102950175039101C000F9
:1006D00011241FBECFEFDAE0DEBFCDBF04B603FEAC
:1006E00027C08091BE029091BF02A091C002B0913C
:1006F000C1028730904BA740B04BD1F41092BE029C
:100700001092BF021092C0021092C10214BE84B7B0
:10071000877F84BF0FB6F894A895809160008861A8
:1007200080936000109260000FBEE0E0F8E309954E
:1007300011E0A0E0B1E0E0EFF0E502C005900D921D
:10074000AA3DB107D9F722E0AAEDB1E001C01D92A0
:10075000AE3BB207E1F70E941F220C94D9270C94FC
:1007600000000C94AE050C94AF050C94B9030C94E6
:10077000B005CF93DF938F559D458633910570F477
:10078000FC01E552F84DDB0112969C910C947D27FB
:10079000992321F089EC93E00E94AC0781E0DF917E
:1007A000CF9108959923D1F382EB93E00E94AC0797
:1007B000F5CF992399F380EA93E00E94AC07EECF3E
:1007C000992361F38DE490E00E9412068AE492E09E
:1007D0000E9412068EE390E00E941206DFCF99235A
:1007E000E9F28DE893E00E94AC07D8CF9923B1F2EB
:1007F00082E793E00E94AC07D1CF992379F280E69B
:1008000093E00E94AC07CACF992341F28DE493E0B4
:100810000E94AC07C3CF992309F28CE193E00E94B8
:10082000AC07BCCF992309F4B9CF85E093E00E94CF
:10083000AC07B4CF992309F4B1CF82ED92E00E94C6
:10084000AC07ACCF992309F4A9CF82EC92E00E94C7
:10085000AC07A4CF992309F4A1CF81EB92E00E94C9
:10086000AC079CCF992309F499CF8AE992E00E94C2
:10087000AC0794CF992309F491CF80E892E00E94CD
:10088000AC078CCF992309F489CF8FE491E00E94C3
:10089000120684E390E00E94120680E591E00E9437
:1008A000120680E591E00E94120684E390E00E9427
:1008B000120674CF992309F471CF8DE490E00E9461
:1008C000120684E390E00E9412068AE490E00E94FF
:1008D000120684E390E00E94120660CF992309F487
:1008E0005DCF89E792E00E94AC0758CF992309F4C5
:1008F00055CF8DE692E00E94AC0750CF992309F4C2
:100900004DCF8EE095E00E94120648CF992309F45E
:1009100045CF80E692E00E94AC0740CF992309F4CE
:100920003DCF80E592E00E94AC0738CF992309F4CF
:1009300035CF84E492E00E94AC0730CF992309F4CC
:100940002DCF86E392E00E94AC0728CF992309F4CB
:1009500025CF8BE292E00E94AC0720CF992309F4C7
:100960001DCF85E192E00E94AC0718CF992309F4CE
:1009700015CF81E092E00E94AC0710CF992309F4D3
:100980000DCF85EF91E00E94AC0708CF992309F4C1
:1009900005CF89EE91E00E94AC0700CF992309F4BE
:1009A000FDCE87ED91E00E94AC07F8CE992309F4C3
:1009B000F5CE8CEC91E00E94AC07F0CE992309F4BF
:1009C000EDCE80EC91E00E94AC07E8CE992309F4CB
:1009D000E5CE8AEA91E00E94AC07E0CE992309F4C3
:1009E000DDCE89E991E00E94AC07D8CE992309F4C5
:1009F000D5CE84E891E00E94AC07CCE0D0E080E561
:100A000092E00E9412062197D1F7C8CE992309F4EB
:100A1000C5CE86E791E00E94AC07C0CE992309F4C9
:100A2000BDCE8FE691E00E94AC07B8CE992309F4C1
:100A3000B5CE83E691E00E94AC07B0CE992309F4CD
:100A4000ADCE82E591E00E94AC07A8CE992309F4CF
:100A5000A5CE89E491E00E94AC07A0CE992309F4C9
:100A60009DCE87E291E00E94AC0798CE992309F4CD
:100A700095CE89E191E00E94120681E590E00E9406
:100A800012068CCE992309F489CE8DE191E00E9463
:100A9000AC0784CE992309F481CE83E191E00E94D2
:100AA000AC077CCE992309F479CE89E091E00E94CD
:100AB000AC0774CE992309F471CE82E091E00E94D4
:100AC000AC076CCE992309F469CE82E591E00E94CF
:100AD000120680E591E00E9412068FE493E00E94E6
:100AE000120681E593E00E94120658CE992309F47C
:100AF00055CE8FEE90E00E94AC0750CE992309F4BA
:100B00004DCE88EE90E00E94AC0748CE992309F4C0
:100B100045CE8BED90E00E94AC0740CE992309F4BE
:100B20003DCE80ED90E00E94AC0738CE992309F4C9
:100B300035CE82EC90E00E94AC0730CE992309F4C8
:100B40002DCE86EB90E00E94AC0728CE992309F4C5
:100B500025CE8CEA90E00E94AC0720CE089508953F
:100B60000895CF93DF939C013A9521153F4168F595
:100B7000EC01CC27D170DC01AA27B270AC0144276C
:100B800054709C012227387094FF11C080E1CD2B56
:100B900009F480E0AB2B09F08062452B09F08064FA
:100BA000232B09F08068FB01DF91CF91099481E04C
:100BB000CD2B09F480E0AB2B09F08260452B09F0C6
:100BC0008460232B81F38860EECFDF91CF9108956D
:100BD000CF93DF93EC01805E9109089720F068ECD9
:100BE00077E1209711F465E675E1CE010E94B10529
:100BF0008C2FDF91CF910C945914CF93DF93EC019C
:100C00000E94F014CE01805E9109089720F06FECED
:100C100077E1209711F46CE675E1CE01DF91CF9179
:100C20000C94B105CF93DF93EC010E94E805CE014F
:100C3000DF91CF910C94FD0581E0089508950C9407
:100C40001E061F93CF93DF9300D000D00F92CDB735
:100C5000DEB749835A836B833091080289819A8178
:100C600031111DC06623B9F02223A9F00E94D51CC2
:100C7000182F682F89819A810E94821C69817A814C
:100C8000812F0F900F900F900F900F90DF91CF91C9
:100C90001F910C94BF070E94AE1C182FEFCF0E942B
:100CA000D51C69817A81EDCFFC01262F40815181CD
:100CB0006281738184810C942106CF93DF93EC01D0
:100CC00060E00E945406BE01DF91CF910C941F0694
:100CD0000E94CB090C94B1030E9496120C94B303AA
:100CE00008950E94EC170E9470062FEF84E39CE0A9
:100CF000215080409040E1F700C000000C94822019
:100D00000F931F93CF93DF938C0161E00E945406F1
:100D1000EC01B8010E94F411B801CE010E94B503A4
:100D20008823D9F1B801CE010E943C128823A9F191
:100D3000B801CE010E94C50F882379F1B801CE0118
:100D40000E941710882349F1B801CE010E943A1180
:100D5000882319F1F8018281882361F0CB35FDE504
:100D6000DF0721F170F4C115ECE5DE07A1F0CF3DFE
:100D7000DC45C9F0C801DF91CF911F910F910C9410
:100D80001C06CC358DE5D807A1F0CD35DD4591F7B2
:100D90000E947C1DEFCF0E94710680E0DF91CF9111
:100DA0001F910F9108950E94F21EF7CF0E94851D9A
:100DB000E1CF0E94881DDECFDF92EF92FF920F936A
:100DC0001F93CF93DF93E82FF0E0EE55FB4FD490C5
:100DD000282F26952695269530E0F901EE5BFA4FEF
:100DE0000491877010E0082E02C0159507950A94AB
:100DF000E2F701701127F901EE5CFA4FE490F12C53
:100E0000082E02C0F594E7940A94E2F791E0E922F3
:100E1000FF24F901EE5DFA4FC491D0E002C0D595F0
:100E2000C7958A95E2F7C170DD270115110519F004
:100E300081EE0E945914E114F10419F086EE0E942B
:100E400059148D2D0E945D15EF2819F086EE0E9431
:100E5000F014012B19F081EE0E94F014CD2B51F00B
:100E60008CE2DF91CF911F910F91FF90EF90DF9077
:100E70000C945D15DF91CF911F910F91FF90EF9032
:100E8000DF900895EF92FF920F931F93CF93DF931C
:100E90008C01F62E8AE0E82EF8018491882309F46B
:100EA00054C0813009F04DC0E8012196FE018491C3
:100EB000813091F42196FE0184910E945D158E018E
:100EC0000F5F1F4F8F2D815038F3EFE9FFE031970F
:100ED000F1F700C00000F7CF823039F4E801229624
:100EE000FE0184910E945914EACF833039F4E8015D
:100EF0002296FE0184910E94F014E1CF8430F9F62D
:100F0000E8012296FE01249190E080E0FE013196F6
:100F10002053330B2A30310548F0019780F2EFE976
:100F2000FFE03197F1F700C00000F7CFE89EA00185
:100F3000E99E500D1124C901840F951F2491EF01E2
:100F4000E5CF0E94DC06E801BACFDF91CF911F9177
:100F50000F91FF90EF90089560E00C94420781E0BC
:100F600008950C94AF07CF93C82F0E94B7038C2F1E
:100F7000CF910C94B10790E080E008950895E72F99
:100F8000F0E095E0899FE00DF11D1124EE0FFF1FA9
:100F9000EE0FFF1FE60FF11DEE0FFF1FE652FC4F95
:100FA000859194910895FC01EE0FFF1FEE5AFA4FC0
:100FB000859194910895CF93DF930E94BF070E947B
:100FC000F008EC01811520E5920708F042C0811578
:100FD00030E4930708F0BDC0883E910528F5803EB7
:100FE000910508F09DC0883A910588F4853A9105ED
:100FF00008F08FC08130910509F492C0009709F480
:101000008FC0049708F08CC0D0E0C0E089C08F3B4F
:10101000910508F489C0805C9109C03CD105A0F31A
:101020000E94D307EC017CC08115904250F4C11599
:1010300081E0D80708F074C0CD3ED10528F3D06513
:101040006FC0C11590E3D90708F079C0CE019F7039
:10105000E7CF811525E5920758F5811534E593070B
:1010600008F0A6C0811542E5940750F4C11581E54A
:10107000D80708F471C0DC2FCC27C16FD06A50C0EC
:10108000982F969596959E0123703327C115D345C9
:1010900008F07FC0C1E0D0E002C0CC0FDD1F2A9570
:1010A000E2F720E2929FC0011124C82BD92B6FC018
:1010B000C11589E5D807A8F4C11598E5D90708F046
:1010C0007CC0C11526E5D20708F09ECF8C2F0E9468
:1010D0008709C82FD0E0DC2FCC27CC27DF71D06266
:1010E0001FC0C1153AE5D30708F46CC0CE01905675
:1010F0008115904208F088CF8D2F8F710E9487094B
:1011000090E0982F882788279F719C012C2BE9015C
:10111000E6CFC55AD0E0CE56DE4FC881D0E0D064CD
:10112000CE01DF91CF910895C85AD0E0CC0FDD1FDA
:10113000CC59DE4F0990D881C02DD464F1CFCE01B7
:101140009927D3FF03C0EC01D86CEACFEC01D06C37
:10115000E7CFDF70D06AE4CFCE01E4E096958795C3
:10116000EA95E1F783702C2F26952695237090E25F
:10117000299F90011124382B8C2F8370C1E0D0E07F
:1011800002C0CC0FDD1F8A95E2F7C22BD32BDC689F
:10119000C7CFC1E0D0E002C0CC0FDD1F2A95E2F737
:1011A00030E2939FC0011124C82BD92BDA68B8CF45
:1011B000D82FCC27C46FD06AB3CFDC2FCC27C06F19
:1011C000D06AAECF8C2F8F700E94870934E0D695FD
:1011D000C7953A95E1F7CF709C2FEC01D069A0CF6D
:1011E00082389105B1F1B0F48133910509F475C0ED
:1011F00048F48932910509F469C08A32910509F4ED
:1012000073C008958533910509F459C08933910558
:1012100001F10895833E9105A9F138F4803E9105CE
:10122000F9F0823E910549F10895863E9105A9F1B4
:10123000873E9105C9F1843E910519F52091A202DE
:1012400021FF1FC08091A10284FD14C087EE90E0B1
:1012500008952091A1022370A1F080EE90E00895FE
:101260002091A10220FD47C03091A20230FF09C0A9
:1012700024FF44C090E080E004C02091A10222FD40
:10128000F7CF08952091A10222FD3BC03091A20228
:1012900030FDE3CF24FFF5CFEDCF2091A10223FF56
:1012A000F0CF24FDE7CFD2CF2091A10223FD2CC0A7
:1012B0003091A20231FFEECF84EE90E008952091AC
:1012C000A10225FFDECF89E290E008952091A102DE
:1012D00025FFD7CF85E390E008952091A10226FF56
:1012E000D0CF8AE290E008952091A10226FFC9CFD5
:1012F00081E390E0089589E390E0089583EE90E023
:10130000089582EE90E0089586EE90E00895909121
:10131000A10292FF06C0282F28712830F9F4877F98
:10132000846093FF06C0282F28712831F1F4877E4E
:1013300084612091A20220FF06C0382F3871383016
:10134000D9F4877F816021FF06C0282F28712831BA
:10135000D1F4877E816194FD877E0895282F2471C2
:101360002430F9F68B7F8860DCCF282F247124315C
:1013700001F78B7E8861DDCF382F3171313019F75D
:101380008E7F8860E0CF282F2171213121F78E7E5A
:101390008861E1CF08950E944D1E811102C00E9414
:1013A000F21E0E94581E80937D020E94601E909340
:1013B000A2028093A1020E94CA090E945C1E682FAB
:1013C00070E090E080E00E94841B60915002709178
:1013D000510280915202909153020C94BE1BE82F4F
:1013E000F0E0E855FD4F80810895089580EA8A95E0
:1013F000F1F7089500C008950C94F609F894E82FC9
:10140000E295EF70F0E031A1282F2F7081E090E09D
:1014100001C0880F2A95EAF7982F9095932391A3FE
:1014200092A1892B82A37894089584E90E94FE09F1
:1014300086E60E94FE0986E30E94FE0986EC0E9471
:10144000FE0984E30E94FE0984EF0E94FE0983E303
:101450000E94FE0987E90E94FE0985E30E94FE09B9
:10146000A3EAB2E01C92E8EAF2E0108211961C9224
:101470001197118212961C921297128213961C9247
:101480001397138214961C92148285E00E94C10A5D
:101490000C946806CF92DF92EF92FF920F931F9306
:1014A000CF93DF93C9E9D1E003EA12E0D12CEE2417
:1014B000E394F12C8991F894E82FE295EF70F0E035
:1014C00021A18F70A70102C0440F551F8A95E2F732
:1014D000CA01922F982B91A392A18095892382A370
:1014E00078940E94FA09E5E9F1E030E020E0C12CAF
:1014F0004191A42FA295AF70B0E090968C9190E0AE
:101500004F7002C0959587954A95E2F780FD35C0EA
:101510008E2D022E01C0880F0A94EAF7C82A2F5F89
:101520003F4F2430310521F7FE01319780810E9421
:10153000FE090E94FC09F8018081C81601F1C082F1
:1015400081E0D82A0F5F1F4FF1E0CE39DF0709F0A5
:10155000B1CF2D2D45E068EA72E083EA92E00E9467
:10156000C20A0E946C068D2DDF91CF911F910F91C1
:10157000FF90EF90DF90CF90089580E0CFCF80E094
:10158000E0CF0895FF920F931F93CF93DF93F82E30
:10159000092F162FD72FC42F222349F081E08093E3
:1015A000DE010E9437209093DD018093DC01809161
:1015B000DE018823A1F08091DC019091DD010E9481
:1015C0004F20069760F0EF2DF02FA12FBD2FCE0FEB
:1015D000DF2FD11DEC17FD0741F41092DE01DF91E2
:1015E000CF911F910F91FF90089581918D93F2CF2C
:1015F000833081F128F4813059F08230D1F00895A0
:10160000853009F449C0B8F1863009F456C0089510
:1016100080915501482F460F5527551F4F3F5105C3
:1016200024F4680F6093550108958FEF809355015E
:10163000089580915401482F460F5527551F4F3F5D
:10164000510524F4680F6093540108958FEF80933F
:101650005401089580915301482F460F5527551F77
:101660004F3F510524F4680F6093530108958FEFA5
:1016700080935301089580915201482F460F5527BA
:10168000551F4F3F510524F4680F60935201089590
:101690008FEF80935201089580914F01482F460F9C
:1016A0005527551F4F3F510524F4680F60934F0194
:1016B00008958FEF80934F01089580914E01482F38
:1016C000460F5527551F4F3F510524F4680F60936F
:1016D0004E0108958FEF80934E010895833011F1EC
:1016E00028F4813049F0823091F00895853081F1FD
:1016F00020F18630C1F1089580915501681720F4DA
:10170000861B80935501089510925501089580918C
:101710005401681720F4861B809354010895109299
:101720005401089580915301681720F4861B80931B
:101730005301089510925301089580915201681742
:1017400020F4861B8093520108951092520108954F
:1017500080914F01681720F4861B80934F010895F4
:1017600010924F01089580914E01681720F4861B56
:1017700080934E01089510924E0108950F931F9388
:1017800041E050E060E070E08A019B0104C0000F7E
:10179000111F221F331F8A95D2F7C901B8010E9479
:1017A000841B1F910F910C94EC17EBEFE80FEF33B4
:1017B00008F05AC0F0E0EF5EF74D0C947D270E94D0
:1017C000F21E81E0089580917D02807F80937D02EA
:1017D00081E08093E00108950E947106F2CF90911C
:1017E0007D02892F8E7F90FF816080937D0280FD36
:1017F000E8CF817F80937D02E4CF90917D02892F95
:101800008D7F91FF826080937D0281FFDACF80918E
:101810007D028160EFCF90917D02892F8B7F92FFB7
:10182000846080937D0282FDF2CFCBCF90917D02C8
:10183000892F877F93FF886080937D0283FDE7CFA8
:10184000C0CF0E94EC179091A102892F97FB87F9D6
:1018500080588093A102B5CF80E00E94BE0BB1CF2B
:101860008953FBCF8D51F9CF80E0089580E0089532
:101870000C94360C8E518A3030F4E82FF0E0E256AA
:10188000FE4F8081089580E00895CF93C82F809106
:10189000E0018130B9F0882331F08230A1F110925B
:1018A000E00180E00DC00E948B1D8232D1F78C2FA9
:1018B0000E94360C81111BC08C2F0E94D50B8170A9
:1018C000CF9108950E948B1D823289F38C2F0E9444
:1018D000380C81110AC0C43199F060F4CB3029F082
:1018E000C03169F782E08093E00181E0E8CF81E0D8
:1018F00090E0E5CFC93221F0C833B9F380E0DFCF03
:101900001092E001FBCFC93219F188F4C43101F122
:1019100020F4C73081F181E0D3CF82EE8C0F863086
:10192000D0F78C2F0E943A0C8093DF01F4CFCE3495
:1019300001F140F46AE0CB3471F78091DF010E943D
:10194000F80AE9CFC13579F061E0C235B1F3E3CFF0
:101950008091DF01882319F01092DF01DCCF81E054
:101960008093E001ADCF61E08091DF010E946E0BBA
:10197000D2CF6AE0F9CF8EE18093550182E3809364
:1019800054018AE08093530184E18093520188E0FE
:1019900080934F0188E280934E01BDCF8091E70193
:1019A00080FF12C06091530185E0689FB00111244F
:1019B000759567957595679560387105A8F56115FA
:1019C0007105A1F1862F089581FF09C0609153012F
:1019D00085E0689FB001112475956795EDCF609102
:1019E000530182FD0AC08091E6018823D1F09091D5
:1019F000520160915301891728F085E0689FB0017A
:101A00001124DACF869FB001112485E0869F9001D2
:101A1000879F300D1124692F70E0C9010E9469274A
:101A2000CBCF65E070E0CECF8FE7089581E00895D9
:101A30008091E70180FF0CC060914F0170E07595C7
:101A40006795759567956115710549F1862F08951C
:101A500081FF06C060914F0170E075956795F3CFE7
:101A600060914F0182FD0BC09091E5019923A1F097
:101A700060914E0180914F01961738F0682F70E009
:101A80006038710500F38FE70895899FC001112424
:101A900070E00E946927F4CF61E070E0D7CF81E069
:101AA00008958D3E31F40E94CE0C81958093EB0118
:101AB00008958E3E19F40E94CE0CF8CF8F3E31F47B
:101AC0000E94CE0C81958093EA010895803F19F41D
:101AD0000E94CE0CF8CF893F29F40E94180D809304
:101AE000EC0108958A3F21F40E94180D8195F7CFEB
:101AF0008B3F31F40E94180D81958093ED0108957C
:101B00008C3F19F40E94180DF8CF9FE0980F983081
:101B100070F4815F990B21E030E001C0220F8A95BB
:101B2000EAF78091E901822B8093E90108958D3FC6
:101B300031F48091E70181608093E70108958E3F41
:101B400021F48091E7018260F7CF8F3FB9F7809150
:101B5000E7018460F1CF4091EA018D3E59F4809114
:101B6000EB0187FF0DC01092EB0141110BC01092E9
:101B7000E60108C08E3E81F48091EB0118169CF3BB
:101B8000442381F08091EC019091ED01892B09F0C3
:101B90005AC01092E50108958F3E49F447FFF0CFF7
:101BA0001092EA018091EB018111ECCFE0CF803FF0
:101BB00019F41416ACF3E4CF9091EC01893F29F4A9
:101BC0001916F4F61092EC01DBCF8A3F19F497FF57
:101BD000D7CFF8CF9091ED018B3F29F497FFD0CF6D
:101BE0001092ED01CDCF8C3F19F41916CCF3C8CF6C
:101BF0009FE0980F983090F4815F990B21E030E0DE
:101C0000B90102C0660F771F8A95E2F7CB01809574
:101C10009091E90189238093E901B2CF8D3F31F49E
:101C20008091E7018E7F8093E701AACF8E3F21F458
:101C30008091E7018D7FF7CF8F3F09F0A1CF809191
:101C4000E7018B7FF0CF08950E9437209C0190918F
:101C5000EA018091EB01982B21F03093E40120936D
:101C6000E3019091EC018091ED01982B21F03093EC
:101C7000E2012093E10188EE91E00C941013EF92C1
:101C8000FF920F931F93CF93DF9300D000D000D02B
:101C9000CDB7DEB786E0E8EEF1E0DE011196019007
:101CA0000D928A95E1F7E090EA01F090EB01009146
:101CB000EC011091ED011092EA011092EB011092EB
:101CC000EC011092ED018E2D8F2991F08091E301AE
:101CD0009091E4010E944F20AC019091E60199237C
:101CE00009F43FC0809154018417150608F447C0D9
:101CF000802F812B91F08091E1019091E2010E946F
:101D00004F20AC019091E501992309F477C08091AF
:101D100050018417150608F47FC08091EA01909164
:101D2000EB01892B9091EC01892B9091ED01892B8E
:101D300011F00E94240E86E0FE013196A8EEB1E07B
:101D400001900D928A95E1F726960FB6F894DEBFC2
:101D50000FBECDBFDF91CF911F910F91FF90EF90FC
:101D60000895209155018AE0289F9001112424179D
:101D7000350708F0BDCF9F5F9093E60102C09F3FFB
:101D8000D1F7EE2059F00E94CE0C9FEF1E140CF4F8
:101D900091E0899F802D11248093EA01FF2059F062
:101DA0000E94CE0C9FEF1F140CF491E0899F802DB0
:101DB00011248093EB013091EA01332309F498CF89
:101DC0002091EB01222309F493CF45EB3403C001AA
:101DD0001124992359F09093EA0145EB24039001D3
:101DE0001124332339F03093EB0182CF81E08093CB
:101DF000EA01F3CF81E08093EB017ACF209151018A
:101E00008AE0289F900111242417350708F085CF18
:101E10009F5F9093E50102C09F3FD1F7002359F0E7
:101E20000E94180D9FEF10160CF491E0899F802DF1
:101E300011248093EC01112359F00E94180D9FEF9B
:101E400011160CF491E0899F802D11248093ED01EF
:101E50003091EC01332309F460CF2091ED0122236E
:101E600009F45BCF45EB3403C0011124992359F0E9
:101E70009093EC0145EB240390011124332339F0B6
:101E80003093ED014ACF81E08093EC01F3CF81E004
:101E90008093ED0142CF86E0E8EEF1E0DF011D9294
:101EA0008A95E9F71092E6011092E5011092E70198
:101EB00008950F931F93CF93DF93C42FD22FFC016C
:101EC00082818823C9F04093F0010E9437209093CB
:101ED000EF018093EE0180E28C0F883008F050C053
:101EE000C77081E001C0880FCA95EAF7DF91CF91F2
:101EF0001F910F910C9465151091F001141335C0CA
:101F00008091EE019091EF010E944F20883C910555
:101F100060F5C0E2CD0F1D17B9F080E2810F883067
:101F200040F4177081E001C0880F1A95EAF70E940B
:101F30006C15C83048F481E09D2F977001C0880F60
:101F40009A95EAF70E946515802F0E945D15C830AA
:101F5000B8F4D77081E001C0880FDA95EAF7DF9115
:101F6000CF911F910F910C946C1580E28C0F8830EB
:101F700038F4C77081E001C0880FCA95EAF7EFCF47
:101F8000DF91CF911F910F9108950F939C01CB0189
:101F9000243F4CE5340759F1A8F4293DFCE53F07FF
:101FA00001F12A3D4CE53407D1F1283D3C4591F43F
:101FB00006E221EE41EE68ED7CE50E94590F80E0DB
:101FC0000F910895263FFCE53F07E9F0B0F0273F69
:101FD0003C45F9F0FC018281882339F11092F0012F
:101FE000EFCF07E225EE45EE69ED7CE5E6CF06E2B0
:101FF00021EE40EE64EF7CE5E0CF07E225EE44EE13
:1020000065EF7CE5DACF06E221EE42EE66EF7CE595
:10201000D4CF07E225EE46EE67EF7CE5CECF08E2AF
:1020200021E045EE6AED7CE5C8CF81E0C9CFCF93D2
:10203000DF93EC01FB018281882309F419C1C230CE
:10204000FCE5DF07C0F1C6319CE5D90730F09E0101
:102050002B5F3C452930310570F50E94601E90933E
:10206000A2028093A102C031ECE5DE0709F4CFC0E3
:1020700008F05BC0C8308CE5D80709F4B6C088F515
:10208000C430ECE5DE0709F4A8C0C0F4C2308CE52A
:10209000D80709F49CC08091A1028260C330DC455E
:1020A00009F498C08091A1029091A2020E946E1E34
:1020B0000E94EC1780E0DF91CF9108958091A102FA
:1020C0008061C630ECE5DE0709F484C08091A1028E
:1020D0008860C730DC4508F47DC08091A102806231
:1020E00079C0CC308CE5D80709F489C070F48091B0
:1020F000A1028C60CA30ECE5DE0709F46BC008F47D
:1021000078C08091A1028E7F65C0CE308CE5D80763
:1021100009F479C08091A1028B7FCF30DC4508F4AF
:1021200059C08091A1028F7E55C0CC3FECE5DE07FF
:1021300009F457C030F5C3318CE5D80709F46FC0F6
:1021400078F4C131ECE5DE0709F465C0C231DC4545
:1021500009F0A8CF0E94EC178091A1028F773AC0B6
:10216000C5318CE5D80709F462C008F476C08091C7
:10217000A2028160CB3FDC4509F094CF8093A2029C
:1021800091CFC115FDE5DF0709F44DC088F48091BA
:10219000A2028D7FCE3F9CE5D90781F38091A202F8
:1021A0008E7FCF3FDC4550F38091A2028360E6CF63
:1021B000C230FDE5DF0709F459C008F444C080E0EF
:1021C000C330DD4509F06ECF0E94F41E6BCF8091C5
:1021D000A10281608093A10265CF8091A1028460F9
:1021E000F9CF8091A2028260C9CF8091A102806460
:1021F000F1CF0E94EC178091A1028068EBCF809113
:10220000A1028D7FE7CF8091A102877FE3CF8091EC
:10221000A1028F7DDFCF8091A1028F7BDBCF8091E8
:10222000A102837FD7CF8091A2028C7FA7CF80911C
:10223000A10282FB992790F921E0922790FB82F975
:1022400090FB83F9C7CF8091A202982F909591704F
:102250008E7F892B90FB81F991CF0E94EC17909192
:10226000A102892F97FB87F98058B4CF81E0ACCFCA
:1022700081E021CFCF93DF93EB0186319C4511F5AF
:102280000E948B1D9A81992399F08A7A91E009F432
:1022900090E09093F101811109C089E20E94451DEF
:1022A0000E94DE1D80E0DF91CF91089585E3F6CF97
:1022B0008091F101811104C089E20E944C1DF0CF90
:1022C00085E3FBCF81E0EFCFCF93DF93EC0181E09B
:1022D000898B8F810E948E1D88850E94A11D0E947E
:1022E000DE1DEA81FB81309739F06C897D89CE0152
:1022F0000696DF91CF910994DF91CF910895CF9306
:10230000DF93EC018881823039F4FB018281938173
:102310000E94E80581E08B87DF91CF910895FC0151
:102320008081813029F4FB01808191810C94E80542
:10233000823021F4FB0182819381F8CF0895FC0162
:102340008081813029F4FB01808191810C94FD050D
:10235000823021F4FB0182819381F8CF0895EF92BE
:10236000FF920F931F93CF93DF93EC018A85811126
:1023700034C0EB80FC8087E5F81A26E12E9DC00171
:102380002F9D900D1124DC01A050BF4F1496ED91AC
:10239000FC911597309731F054966D917C918A5F3E
:1023A0009E4F099586E18E9D80018F9D100D112411
:1023B00000501F4FF80187810E94941DF80180850D
:1023C0000E94A71D0E94DE1D188219861B861E8290
:1023D0001D821092F3011092F201DF91CF911F91B3
:1023E0000F91FF90EF900895DF92EF92FF920F937D
:1023F0001F93CF93DF937C01FB018281882391F0AF
:10240000809156018F3F71F0C0E0D1E010E000E014
:10241000DD24D39480915601082E000C990B80176F
:10242000910744F4DF91CF911F910F91FF90EF90AE
:10243000DF9008958E818823D9F089859A858E153D
:102440009F0539F48091F2019091F3018E159F055B
:1024500079F0DF86FC86EB868989811103C0CE0185
:102460000E946411CE0106960E94AF110E94AE1D1B
:102470000F5F1F4F6696CECFEF92FF920F931F9381
:10248000CF93DF937C0197558F3F910509F0D8F5E5
:1024900020915601022E000C330B2817390714F433
:1024A00080935601FB01228136E1389F8001399FDC
:1024B000100D1124E801C050DF4F288B92818E81CE
:1024C000992349F1FA86E9868F5F8E830E9437202F
:1024D0009E878D870E94C11D8F830E948B1D8887D8
:1024E0000E949E1D9885892B8887E881F981309705
:1024F00031F06C897D89C8018A5F9E4F0995F09201
:10250000F301E092F20181E0DF91CF911F910F91F1
:10251000FF90EF9008958823B1F38989882399F378
:10252000C8018A5F9E4F0E94AF11EDCFEF92FF92DC
:102530000F931F93CF93DF938091560110E006E134
:102540008F3FC1F5DF91CF911F910F91FF90EF90D9
:102550000895029FF001039FF00D1124E050FF4FFA
:10256000E288F388E114F10419F488ECE82EF12CE8
:10257000029FE001039FD00D1124C050DF4F8E81D8
:102580008823B9F08D859E850E944F20E816F906B4
:1025900080F4109F700111248989811105C0C70141
:1025A00080509F4F0E946411C7018A5F9E4F0E9416
:1025B000AF111F5F212F30E080915601082E000CD3
:1025C000990B821793072CF6BDCF9093F901809356
:1025D000F8010895E091F801F091F901309721F0A8
:1025E0000190F081E02D099480E00895E091F801D8
:1025F000F091F901309799F020916301222359F06D
:102600002091A10227FF07C0DC012C9111962C9389
:10261000119725E02C930280F381E02D0994089511
:10262000E091F801F091F901309739F022E0DC01F6
:102630002C930480F581E02D099408952091F601F2
:102640003091F7012817390771F09093F7018093C3
:10265000F601E091F801F091F901309721F0068040
:10266000F781E02D099408952091F4013091F5014E
:102670002817390771F09093F5018093F401E091E8
:10268000F801F091F901309721F00084F185E02DF7
:10269000099408950E9443206093040270930502F8
:1026A00080930602909307026093000270930102E8
:1026B0008093020290930302089585B7806885BFD6
:1026C00085B7806885BF0895089508950C946413B4
:1026D00008950C9468130E945D138BE49EE10E94A0
:1026E000A6200E9465130C94661381E008950C9453
:1026F0007513089508950E9479130C947A130E941B
:102700002E200E94150A0C946913AF92BF92CF92AB
:10271000DF92EF92FF920F931F93CF93DF93CDB78A
:10272000DEB72A970FB6F894DEBF0FBECDBF0E946A
:102730004A0A81110E944A138BEFA82E81E0B82E1D
:1027400010E000E0C02E802F0E94EF09E82EF50176
:10275000F1905F01F81609F44DC080917D0281FD72
:102760000E94F5098F2D8E25D12CFF24F394982FEC
:102770009F21D9F10E947713882399F0DE82CF82BE
:10278000EF2081E009F480E088870E943720816093
:10279000782F9A8789874E815F8168858A850E9414
:1027A0002214F801E550FE4F8081F826F0820E9445
:1027B0003F0E0E94EA129091FA01891791F10E944E
:1027C000EA128093FA012A960FB6F894DEBF0FBE84
:1027D000CDBFDF91CF911F910F91FF90EF90DF90D0
:1027E000CF90BF90AF900C94B307D394FF0CF4E05C
:1027F000DF12BDCF0F5F1F4F0530110509F0A2CFCB
:102800008FEF89838A831B820E9437208160782F13
:102810009D838C8349815A816B818D810E94221412
:10282000C6CF2A960FB6F894DEBF0FBECDBFDF919C
:10283000CF911F910F91FF90EF90DF90CF90BF90BD
:10284000AF900895DF92EF92FF920F931F93CF9373
:10285000DF93CDB7DEB72B970FB6F894DEBF0FBE70
:10286000CDBF7A878B87F42E052F162FE72ED82E13
:1028700061110E94AE1D1E821D827E2DEC82DD82C2
:102880004F2D502F612F8D2D9E812B960FB6F894D2
:10289000DEBF0FBECDBFDF91CF911F910F91FF9093
:1028A000EF90DF900C94621AFC01808191810C946E
:1028B000171DCF93C82F882309F490C08238C1F424
:1028C0000E94EA1281FD8AC089E30E94451D0E9490
:1028D000DE1D2FEF81EE94E0215080409040E1F723
:1028E00000C0000089E30E944C1DCF910C94DE1DB6
:1028F0008338A1F40E94EA1280FD70C083E50E9433
:10290000451D0E94DE1D2FEF81EE94E02150804096
:102910009040E1F700C0000083E5E5CF8438A1F4E2
:102920000E94EA1282FD5AC087E40E94451D0E945F
:10293000DE1D2FEF81EE94E0215080409040E1F7C2
:1029400000C0000087E4CFCF8CEF8C0F813AB8F441
:102950008C2F0E94450C811141C06C2F8091570132
:10296000909158010E940D1F882329F08C2F0E94FE
:102970004C1D0E94DE1D8C2F0E94451DB6CF80E2AB
:102980008C0F883048F4C77081E001C0880FCA9569
:10299000EAF70E948E1DA9CFEBE5EC0FE33040F47F
:1029A000F0E0EA52FE4F808190E0CF910C941E132C
:1029B000E8E5EC0FE73150F4F0E0EE0FFF1FE855CB
:1029C000FE4F80819181CF910C943413CD3E30F035
:1029D0008C2F0E94510DCF910C94240ECF9108950D
:1029E000882309F452C0823871F40E94EA1281FFF0
:1029F0004CC089E30E94451D0E94DE1D89E30E94B0
:102A00004C1D0C94DE1D833859F40E94EA1280FF9D
:102A10003CC083E50E94451D0E94DE1D83E5EFCF8B
:102A2000843859F40E94EA1282FF2FC087E40E9482
:102A3000451D0E94DE1D87E4E2CF9CEF980F913A7E
:102A4000F0F290E2980F983050F4877091E001C056
:102A5000990F8A95EAF7892F0E94941DD2CF9BE5A2
:102A6000980F933020F490E080E00C941E1398E5CA
:102A7000980F973120F490E080E00C9434138D3E51
:102A800020F00E94AB0D0C94240E08951F93CF9359
:102A9000DF93182FEB010E945914209731F4812FF6
:102AA000DF91CF911F910C94F0148FE99FE0019773
:102AB000F1F700C000002197F0CF70E060E08933AB
:102AC00011F460E570E00C944615882321F00E9413
:102AD0008E1D0C94DE1D0895882321F00E94941D04
:102AE0000C94DE1D0895BF92CF92DF92EF92FF9279
:102AF0000F931F93CF93DF936C01D62FC72FFC0149
:102B00001281058102950F700E94631DE82E8823B3
:102B1000A1F0E12E112389F08C2F807F803429F0E1
:102B200080E28D0FE12C883040F082E00E942F1E61
:102B30000E94631D91E0E82EE926BC2EB2949FE02E
:102B4000B922EB2DF0E0E05BF74D0C947D270C2FC4
:102B50000F70C07F11F00295007F1123A9F00023B0
:102B600059F080E28D0F883010F0D11109C0802F0C
:102B70000E948E1D0E94DE1D8D2F0E94591414C0CC
:102B8000802F0E94A11DF6CF8D2F0E94F0140023EC
:102B900059F080E28D0F883010F0D1112CC0802FB9
:102BA0000E94941D0E94DE1D2B2D2850330B2430D3
:102BB000310520F40E94EA120E94B307EE2009F4C6
:102BC0009EC10E945F1D80FD9AC1F60112820E9483
:102BD000591D0E94E61BC6010E94A0170E94591DA4
:102BE000DF91CF911F910F91FF90EF90DF90CF90E9
:102BF000BF900C94071C802F0E94A71DD3CFFC2FE1
:102C0000FF70FF2EC07FC03219F0F29480EFF822DF
:102C1000DD2369F0D13049F1112391F1002351F105
:102C2000F601858180FFA8CF8F70858323C0112393
:102C300081F0011106C00E94C11D8F290E946515F7
:102C4000B3CF0130C1F70E94C11D8F290E94C71D5B
:102C5000ABCF011106C00E94D41D8F2D0E946C15B0
:102C6000A3CF013009F4A0CFF6CF112329F006300D
:102C700008F09ACF8F2DE2CF053008F095CFEDCF39
:102C8000002359F3D93349F4FFEF27EE33E0F15035
:102C900020403040E1F700C000008D2F0E94F0146A
:102CA00083CF8C2F86958695837069F0813009F0EB
:102CB0007BCF8D2F9C2F9370111102C090E080E08C
:102CC0000E94341371CF8D2F9C2F9370111102C06D
:102CD00090E080E00E941E1367CF8D2F112329F012
:102CE0000E94510D0E94240E5FCF0E94AB0DFACFBF
:102CF0008C2F837009F041C0111156CF4D2F429592
:102D000046954770440F440F0D2F0F7010E030E0D0
:102D100020E0042E04C0000F111F221F331F0A944D
:102D2000D2F760E070E0CB01D4FF0FC06FE070E03D
:102D300080E090E004C0660F771F881F991F4A95B6
:102D4000D2F76095709580959095C695C695C3709D
:102D5000602B712B822B932BC23049F058F4C13079
:102D600019F00E94981B20CF0E94861B1DCF0E9445
:102D7000AA1B1ACF0E94841B17CF8695112311F02E
:102D80008C2F8170882309F40FCF4D2F42954695E3
:102D90004770440F440F0D2F0F7010E030E020E01B
:102DA000042E04C0000F111F221F331F0A94D2F7F4
:102DB00060E070E0CB01D4FF0FC06FE070E080E016
:102DC00090E004C0660F771F881F991F4A95D2F7BD
:102DD0006095709580959095C695C695C370602B4B
:102DE000712B822B932BC23049F058F4C13019F06B
:102DF0000E945D1CD9CE0E944B1CD6CE0E946F1C37
:102E0000D3CE0E94C01BD0CECF70112329F08C2FBF
:102E10000E94E61B8D2F12CF8D2F0E946C158C2FD8
:102E20000E94071CC1CED23F89F160F4D03FC9F0A7
:102E3000D13F29F1112309F442C001119DCE8C2FFD
:102E40008F7121C0D33F39F1D43FA1F7112369F12C
:102E5000CF718C2F0E94E61B63E08C2F0E94141E02
:102E6000A3CE112341F0053008F09ECE8C2F8F7138
:102E70000E942A1C99CE063008F096CEF7CF8C2FF0
:102E80008F71112369F20E94E61B8ECE8C2F8F71F9
:102E90001123C9F3C5CF112329F08C2F8F710E9404
:102EA000D11B82CE0E94CC1B7FCE81E00E942F1EC0
:102EB000023008F479CE82E00E942F1E75CE0023E6
:102EC00059F0D93309F0E9CE8FEF97EEE3E0815066
:102ED0009040E040E1F7DFCE8C2F8F71A1CF4C2FD7
:102EE0004F706D2FC6010E94BB070E94FC1A5CCE7A
:102EF0004C2F4F706D2FC6010E94BE0755CEDF913B
:102F0000CF911F910F91FF90EF90DF90CF90BF90E6
:102F100008950F931F93CF93DF93EC01688179811C
:102F20008A810E94211D8C010E94811C0E94831BAA
:102F3000B801CE01DF91CF911F910F910C947315C1
:102F4000CF93DF93EC018B819C81892B29F08881C1
:102F5000998189238F3F59F4DF91CF910895CE0154
:102F60000E948917CE01DF91CF910C945D06CE01AE
:102F70000E9480068111F3CF0E94631D882361F3B4
:102F80008A81882349F382E0DF91CF910C942F1E30
:102F9000882321F00E94A11D0C94DE1D0895882332
:102FA00021F00E94A71D0C94DE1D089590E080E0A2
:102FB0000E941E1390E080E00E9434130E94AE1D18
:102FC0000E94BE1D0E94DE1D0E944B0F0C94240E19
:102FD0000E94531D0C94D6170E949B1D0C94E81759
:102FE000E92FE295EF70E250EE3070F4F0E0E05A35
:102FF000F74D0C947D27803F19F020F4883E20F493
:1030000081E00895843FE1F380E00895883EC0F3B5
:10301000813FD1F7F5CF93FB882780F908950E946F
:10302000171D0C94F017CF93DF9300D000D00F92B0
:10303000CDB7DEB70F900F900F900F900F90DF91EC
:10304000CF910895CF93DF9300D000D000D0CDB7BB
:10305000DEB726960FB6F894DEBF0FBECDBFDF9168
:10306000CF9108951F93CF93DF93C091090216E08B
:1030700080910A028C1304C0DF91CF911F910895B3
:10308000D0E01C9FF0011D9FF00D1124E55FFD4F66
:103090004081518162817381848195810E942218CF
:1030A0002196C770E5CF40913B0250913C02609160
:1030B0003D0270913E0280913F02909140020C943B
:1030C00022181F93CF93DF9380914002807FA9F451
:1030D00080913D02882389F080910902C0910A0203
:1030E00060913B0270913C02A0913E02B0913F0280
:1030F000D62FD72316E0C81304C0DF91CF911F91BC
:10310000089590E0109711F0DF3F19F40196877051
:10311000F2CF189F9001199F300D1124F901E55F3E
:10312000FD4F41814713F2CF40814613EFCF4281DB
:103130004111ECCF438154814A1B5B0B483C510544
:1031400028F7809140028F70806180934002F901DE
:10315000E05FFD4F80818F70806180838BE392E020
:103160000E94A017DF91CF911F910C943218AF925B
:10317000BF92CF92DF92EF92FF920F931F93CF9364
:10318000DF93CDB7DEB761970FB6F894DEBF0FBE01
:10319000CDBF8C0185E0F801DE011D9601900D92F6
:1031A0008A95E1F7F80140815181E2808BE3C82ED6
:1031B00082E0D82E60913E0270913F026115710548
:1031C00009F461C190913B0220913C02892F822336
:1031D0008F3F09F458C1A380B480F0903D02F501FF
:1031E000E61BF70BFF2009F4FCC080914002382F4A
:1031F000307FE83CF10508F0B2C0311179C0FE2CF7
:10320000251323C0941321C0E1101FC08F7080616B
:10321000809340020E945318C6010E94A01780911B
:103220004002F80185838F2D61960FB6F894DEBFBA
:103230000FBECDBFDF91CF911F910F91FF90EF9007
:10324000DF90CF90BF90AF900895AB2829F0842FE6
:1032500085238F3F09F033C180E0F82FF170DF2E16
:1032600080FF3CC08091090220910A0236E082135F
:1032700015C04D875E878D859E850E94171D292F5D
:1032800022952F702230F0F0243018F59F70F1F065
:10329000F8019581907FD1F4D12C1EC090E0389F29
:1032A000F001399FF00D1124E55FFD4F6181651339
:1032B00006C06081641303C062816E110FC0019665
:1032C0008770D5CF9F7011F0882331F3805E8830EE
:1032D00018F3C8010E94A017FD2CA5CFEE2009F419
:1032E000A2CF80914002816080934002F12C9BCF5D
:1032F000251306C0941304C0F801EE2009F48DC014
:103300004D875E878D859E850E940F18882319F151
:10331000EE2009F180914002803270F020913B0252
:1033200030913C0238872F831986BB86AA868C870A
:10333000CE0107960E94A01786E0F801ABE3B2E049
:1033400001900D928A95E1F70E9461180E9453182E
:10335000FF24F39468CFC8010E94A017F9CF311160
:1033600013C07A2DB98AA88A6E2D89890E941318F4
:103370008BE392E00E94A01786E0F60111928A95F5
:10338000E9F70E945318B2CF25130FC094130DC054
:10339000E1100BC0F8018583C8010E94A01786E0E8
:1033A000F60111928A95E9F73ECF4D875E878D85AC
:1033B0009E850E940F18882371F2EE2061F28091A1
:1033C0004002803208F4B8CF20913B0230913C0299
:1033D0003A8329831B82BD82AC828E83CE01019603
:1033E000A9CFE83CF10508F041C0FE2CEE2009F41D
:1033F000B2CF25132AC0941328C08091400280FDCB
:103400001BC0982F907FC1F0F8018583903F31F069
:10341000982F907F905F8F70892B8583C8010E94C1
:10342000A01786E0F801ABE3B2E001900D928A9517
:10343000E1F70E945318F7CE86E0F801ABE3B2E063
:1034400001900D928A95E1F7EECE4D875E878D85CE
:103450009E850E940F1881116FCF8091400281607C
:1034600080934002C8010E94A017DDCE7A2DB98A50
:10347000A88A6E2D89890E94131886E0F6011192A0
:103480008A95E9F7D6CFEE2009F465CF4D875E87A0
:103490008D859E850E940F18F82E882309F45BCF36
:1034A00086E0F801ABE3B2E001900D928A95E1F776
:1034B0008BE392E00E9454140E946118BACF81E01D
:1034C0008E25CBCE1F93CF93DF93CDB7DEB72C974E
:1034D0000FB6F894DEBF0FBECDBF4F835887698704
:1034E0007A878B879C87CE0107960E94B71888231E
:1034F00069F08A859B85892B39F04F815885842F07
:1035000085238F3F09F071C016E05FC086E0FE01A1
:103510003796DE01119601900D928A95E1F78A8522
:103520009B85892B89F38F81988589238F3F61F350
:1035300020910A0230E0C9010196877099274091D5
:1035400009024817190671F40E94EC1710920A023A
:103550001092090286E0EBE3F2E0DF011D928A950A
:10356000E9F7D2CF96E0929FD001939FB00D11243E
:10357000A55FBD4FFE01319601900D929A95E1F73E
:1035800080930A020E943218BFCF819FC00111248C
:10359000855F9D4F0E94B7188823E9F0E0910902EA
:1035A0001E9FF0011124E55FFD4F40815181628132
:1035B0007381848195810E9422188091090290E094
:1035C0000196877099278093090280910902909152
:1035D0000A028913DACF2C960FB6F894DEBF0FBE1D
:1035E000CDBFDF91CF911F91089569857A858B8535
:1035F0009C850E94221888CFEF92FF920F931F9311
:10360000CF93DF938C01892B81F0F12CEE24E3948E
:10361000E8012196F8018491843770F4843008F031
:103620005FC08130B1F08230A1F1DF91CF911F9165
:103630000F91FF90EF900895853709F44CC008F47E
:103640003DC09CE7980F903780F78F770E94F01469
:1036500049C00E5F1F4FFE01849190E2980F983091
:1036600060F48770FE2D01C0FF0F8A95EAF78F2F57
:103670000E94B11D0E94DE1D02C00E9459148F2DB0
:10368000815030F2EFE9FFE03197F1F700C0000020
:10369000F7CF0E5F1F4FFE01849190E2980F983094
:1036A00050F48770FE2D01C0FF0F8A95EAF78F2F27
:1036B0000E94B71DDFCF0E94F014E1CF0E5F1F4FB5
:1036C000FE01C491C150D8F28FE99FE00197F1F754
:1036D00000C00000F7CF0E5F1F4FFE01F490CFCF68
:1036E0000E9459148E01CBCF08950C94741B0E9434
:1036F000751B609354027093550280935602909309
:1037000057020C94D61708950C94771B0F931F93B0
:1037100000915402109155022091560230915702A7
:10372000602B712B822B932B1F910F910C94771B85
:103730000F931F930091540210915502209156024D
:103740003091570260237123822393231F910F919D
:103750000C94771B0F931F93009154021091550204
:1037600020915602309157026027712782279327B4
:103770001F910F910C94771B0C94741B0C94BC1B21
:103780000E94BE1B609350027093510280935202BC
:10379000909353020C94D61760E070E0CB010C9428
:1037A000C01B0F931F9341E050E060E070E08A017E
:1037B0009B0104C0000F111F221F331F8A95D2F7EF
:1037C000C901B8011F910F910C94C01B0F931F9357
:1037D00041E050E060E070E004C0440F551F661FF8
:1037E000771F8A95D2F78091500290915102A09153
:1037F0005202B09153028A019B01082B192B2A2BEC
:103800003B2BC901B8011F910F910C94C01B0F9362
:103810001F9341E050E060E070E004C0440F551F8A
:10382000661F771F8A95D2F7CB01BA016095709514
:103830008095909500915002109151022091520272
:103840003091530260237123822393231F910F91A0
:103850000C94C01B0F931F9341E050E060E070E0B8
:1038600004C0440F551F661F771F8A95D2F78091B9
:10387000500290915102A0915202B09153028A01DC
:103880009B01082719272A273B27C901B8011F9147
:103890000F910C94C01B0F931F9300915002109135
:1038A00051022091520230915302602B712B822BD6
:1038B000932B1F910F910C94C01B0F931F9300919A
:1038C0005002109151022091520230915302602314
:1038D0007123822393231F910F910C94C01B0F938C
:1038E0001F93009150021091510220915202309189
:1038F000530260277127822793271F910F910C9401
:10390000C01B0895990F990F890F982F977041E068
:1039100001C0440F9A95EAF786958695869595E0BD
:10392000899FF0011124EF5BFD4F30E020E070E053
:103930005191DF011197CB01022E02C09695879518
:103940000A94E2F7817081958527842385278C93DB
:103950002F5F3F4F2530310559F70895990F990F83
:10396000890F982F977086958695869525E0829F7A
:10397000F0011124EF5BFD4F50E040E080E0219129
:1039800030E0092E02C0369527950A94E2F721709F
:103990003327042E01C0220F0A94EAF7822B4F5FCF
:1039A0005F4F4530510559F70895BF92CF92DF928E
:1039B000EF92FF920F931F93CF93DF938C01C090F0
:1039C0005002D0905102E0905202F0905302809148
:1039D000540290915502A0915602B0915702C82A04
:1039E000D92AEA2AFB2ACFE1D0E0BC2ED701C601B2
:1039F0000C2E04C0B695A795979587950A94D2F793
:103A000080FD0EC0219788F7B12C8B2DDF91CF91CF
:103A10001F910F91FF90EF90DF90CF90BF9008958E
:103A2000B8018C2F0E94DB07019761F3EECFCF9393
:103A3000DF93EC010E94D51CBE01DF91CF910C9465
:103A4000DB071F93CF93DF93EB019091080299233B
:103A500031F0CB01DF91CF911F910C94171D88237A
:103A600079F0CB010E94D51C182F682FCE010E943F
:103A7000821CBE01812FDF91CF911F910C94DB0737
:103A8000CB010E94AE1C182FF4CF682F80915701F4
:103A9000909158010C948D1F682F8091570190913F
:103AA00058010C94981F80915701909158010C94E3
:103AB000A31F8091580285958595859508958091DD
:103AC00058028770089590915802977081E009F428
:103AD00080E008959091A20292FB222720F92817F6
:103AE00051F080FB92F99093A2028091A1029091F3
:103AF000A2020C946E1E08958091A20282FB882778
:103B000080F991E089270C946A1D81E00C946A1D6C
:103B100080E00C946A1D80917C02089590917C0253
:103B2000892B80937C020895809590917C02982344
:103B300090937C02089510927C02089580917B02FC
:103B4000089590917B02892B80937B020895809544
:103B500090917B02982390937B02089510927B02B0
:103B6000089590917A02892B80937A020895809526
:103B700090917A02982390937A02089510927A0293
:103B8000089580915902089508950C94C41D909150
:103B9000A20292FD08C090915902981721F08093DB
:103BA00059020C94C51D089580915902882329F06B
:103BB0001092590280E00C94C51D0895E0915701C0
:103BC000F091580180917C028083E0915701F0913F
:103BD0005801808190917B02892B8083E09157016D
:103BE000F0915801808190917A02892B8083909185
:103BF0005902992381F0E0915701F0915801808199
:103C0000892B808380915701909158010E94F91E61
:103C100081110E94D41D80915701909158010C94FC
:103C2000F61208950C94111E9091A20292FD10C0FC
:103C300098E0899F90011124622B609358020E94A2
:103C4000E61B809158028595859585950C94121EEA
:103C50000C94E61B1092580280E00C94121E909176
:103C600058028095892380935802282F277039F4B1
:103C7000282F082E000C330B9217130621F4909175
:103C8000A20292FF07C08595859585950E94071C25
:103C90000C942A1E089580E0089590E080E00E9430
:103CA0009F2721E08A3E9E4F09F020E0822F089551
:103CB00082E090E00C94972783E090E00C949727A3
:103CC000CF9384E090E00E949727C82F82E290E093
:103CD0000E949727982F8C2FCF910895CF93C92FAB
:103CE000682F84E090E00E94A5276C2F82E290E08C
:103CF000CF910C94A527AB01BC018FE090E00C9410
:103D0000B727AB01BC0183E190E00C94B72760E0DA
:103D100070E0CB010C94811E60E070E0CB010E944A
:103D20007B1E0C94871E6AEE7EEF90E080E00E947E
:103D3000C32760E082E090E00E94A52760E083E076
:103D400090E00E94A5271092540210925502109202
:103D500056021092570260E084E090E00E94A5278E
:103D600060E082E290E00E94A52760E085E090E0BC
:103D70000E94A52760E086E090E00E94A5276FEFF3
:103D800087E090E00E94A52740E050E0BA0188E07B
:103D900090E00E94B72760E08DE090E00E94A527A8
:103DA00040E050E0BA0188E190E00E94B72760E06F
:103DB00087E190E00E94A52740E050E0BA018CE145
:103DC00090E00E94B72770E060E080E290E00E94FF
:103DD000C32740E050E0BA0188E190E00E94B72795
:103DE0000C948C1E0C94931E682F8EE090E00C9423
:103DF000A527FC01329680916301882321F08091F0
:103E0000A1029EE187FF96E080E0915008F40895BA
:103E100021912223D1F38F5FF8CF662301F1209106
:103E200063012223F1F02091A10227FF1AC0462F3F
:103E30004695469546954E3190F4677021E030E006
:103E400002C0220F331F6A95E2F7840F911DFC0117
:103E5000828190E02823392381E0232B69F480E0DC
:103E60000895FC01329608962191261721F0E81753
:103E7000F907D1F7F4CF81E008959C01FC01329657
:103E80009FEF80E04191461751F09F3F19F4411197
:103E900001C0982F8F5F8630A9F79F3F09F40895DE
:103EA000290F311D97FD3A95F90162830895FC01B0
:103EB000329608962191261303C0DF0111971C92B8
:103EC000E817F907B9F70895E62FE695E695E69520
:103ED000EE3168F4E80FF92FF11D677021E030E052
:103EE00001C0220F6A95EAF78281822B82830895AE
:103EF000E62FE695E695E695EE3170F4E80FF92F9A
:103F0000F11D677021E030E001C0220F6A95EAF7E9
:103F10002095828128232283089520916301222302
:103F200029F02091A10227FD0C94641F0C943D1FE1
:103F300020916301222329F02091A10227FD0C94F6
:103F4000781F0C94571FFC013296809163018823DF
:103F500051F08091A10287FF06C08EE1DF011D9222
:103F60008A95E9F7089586E0F9CF089508950C94AD
:103F7000B61F8091B502843049F10E94B71F80E0DE
:103F80000E94B30710927E0288E190E020E40FB611
:103F9000F894A895809360000FBE2093600083B7CB
:103FA000817F846083BF83B7816083BF7894889565
:103FB00083B78E7F83BF0FB6F894A8958091600079
:103FC000886180936000109260000FBE089508958C
:103FD000CF930E94B51F0E944A0A0E94E71FC0E0CB
:103FE0008C2F0E94EF09811105C0CF5FC530C1F74A
:103FF000CF91089581E0FCCF08950C94FC1F0E949E
:10400000EC170E94EA120E94B3070C94FD1F1F9246
:104010001FB61F9211248F939F93AF93BF938091EC
:104020007E02811113C08091AD029091AE02A091E9
:10403000AF02B091B0024196A11DB11D8093AD02B7
:104040009093AE02A093AF02B093B002BF91AF9134
:104050009F918F911F901FBE1F90189582E084BD85
:1040600093E095BD9AEF97BD80936E0008952FB7AA
:10407000F8948091AD029091AE02A091AF02B09100
:10408000B0022FBF08952FB7F8946091AD027091E0
:10409000AE028091AF029091B0022FBF08959C01B3
:1040A0004FB7F8948091AD029091AE02A091AF020B
:1040B000B091B0024FBF821B930B089578941F926A
:1040C0001FB61F9211248F939F93AF93BF9380913C
:1040D000AD029091AE02A091AF02B091B0020196F4
:1040E000A11DB11D8093AD029093AE02A093AF02CB
:1040F000B093B002BF91AF919F918F911F901FBE5F
:104100001F90189581E08093E00080E28093D800B2
:104110001092C9008FE19EE40197F1F700C0000002
:1041200087E090EBDC018093BE029093BF02A093E6
:10413000C002B093C10288E19CE00FB6F894A89544
:10414000809360000FBE90936000FFCF9093DB01DF
:104150008093DA01089580919F020895CF93DF93B1
:1041600000D00F92CDB7DEB79091B502943019F51B
:1041700089837B836A8382E08093E9008FEF90914B
:10418000E800815095FD06C095ED9A95F1F7000085
:104190008111F5CF8091E80085FF0DC050E040E02F
:1041A00063E070E0CE0101960E94D8228091E80081
:1041B0008E778093E8000F900F900F90DF91CF9152
:1041C0000895BC0184E00C94AE20BC0183E00C9403
:1041D000AE209C0182E08093E9009FEF8091E8008F
:1041E000915085FD06C085ED8A95F1F7000091118B
:1041F000F5CF8091E80085FF0CC050E040E066E01C
:1042000070E0C9010E94D8228091E8008E778093E7
:10421000E8000895CF93DF93EC0180916301882338
:10422000B1F18091A10287FF32C060E282E0809309
:10423000E9008FEF9091E800815095FD06C095ED63
:104240009A95F1F700008111F5CF8091E80085FF84
:104250001BC08091630170E050E040E0811104C018
:1042600050E040E068E070E0CE010E94D8228091EA
:10427000E8008E778093E80080E2FE01AFE7B2E0CD
:1042800001900D928A95E1F7DF91CF91089568E052
:1042900081E0CDCF8091B402811109C00E946824D1
:1042A0000E94C5248091E20084608093E20008951A
:1042B0001092B402089508950895089542E061ECC3
:1042C00081E00E94E42342E261EC82E00C94E4236A
:1042D0008091B702833009F45FC030F48130C1F1BE
:1042E000823009F49BC008958A3009F487C08B306E
:1042F00009F46DC0893009F04EC08091B602813258
:1043000009F049C08091BA029091BB02029708F06F
:1043100042C08091E800877F8093E8008091E800A8
:1043200082FF35C09091F3008091F200029729F44A
:104330008091F1008B7F813021F48091F100809396
:104340009F028091E8008B778093E8000C941824FA
:104350008091B602813AF9F48091E800877F8093DA
:10436000E8008091BA029091BB02892B61F460E26F
:104370008FE792E070E00E9427238091E8008B771E
:104380008093E800089560E090E080E0F3CF8091B2
:10439000B5028111C3CF08958091B602813AD9F751
:1043A0008091BA029091BB02892BA9F78091E80015
:1043B000877F8093E8008091E80080FFFCCF8091A8
:1043C00063018093F1008091E8008E77BDCF8091EA
:1043D000B602813201F78091BA029091BB02892B1B
:1043E000D1F68091E800877F8093E8000E9418242E
:1043F0008091B802809363010C94EC178091B6020F
:10440000813249F68091E800877F8093E8000E941E
:1044100018248091B9028093A00208958091B60279
:10442000813A09F0B8CF8091E800877F8093E80057
:104430008091E80080FFFCCF8091A002C2CF84B7BA
:10444000877F84BF0FB6F894A8958091600088613B
:1044500080936000109260000FBE80E890E00FB67D
:10446000F89480936100909361000FBE0E946B13DB
:104470000E9468240E94C5248091E2008460809399
:10448000E20078940E944E270E947F1389E591E014
:104490000E94E5128091B502853099F00E94851343
:1044A0000E947B13F7CF0E94B91F8091B30288232B
:1044B00041F00E94E81F882321F00E94C2220E943E
:1044C000EC178091B502853071F30E94FF1FE6CF93
:1044D0000C946A22292F33272330310519F168F40F
:1044E0002130310509F444C02230310509F445C0BA
:1044F00090E080E030E020E025C02132310549F134
:1045000022323105A9F780E490E02FE836E061150A
:104510007105C1F086EB90E029ED35E06130710561
:1045200089F0E6CF99278130910581F0009729F035
:104530000297F1F6E2E5F5E002C0E8E8F5E08491E3
:1045400090E09F01FA01318320830895E0E6F5E0D1
:10455000F6CF89E090E02EE935E06115710591F321
:1045600089E090E027EB35E06130710559F3C0CF69
:1045700082E190E027EC35E0E5CF8BE390E02CE89A
:1045800035E0E0CF80E189BD82E189BD09B400FE5C
:10459000FDCF8091D8008F7D8093D8008091E0007E
:1045A00082608093E0008091E00081FDFCCF08955F
:1045B000AF92BF92CF92DF92FF920F931F93CF9350
:1045C000DF936C01EB018A010E943724F82E8111E0
:1045D00023C00115110539F0F80180819181C81BB4
:1045E000D90BC80ED91EB12CA12C2097A9F080910F
:1045F000E80085FD22C08091E8008E778093E80076
:1046000001151105A1F0F80180819181A80EB91E54
:10461000B182A08285E0F82E8F2DDF91CF911F917E
:104620000F91FF90DF90CF90BF90AF9008950E94C0
:1046300037248823D1F2F82EEFCFF60181916F0154
:104640008093F1002197FFEFAF1ABF0ACECFFC0194
:104650008091BC029091BD0286179707A0F061156A
:10466000710529F49091E8009E779093E80090E01E
:104670006115710551F4911108C08091E80082FF25
:1046800034C080E00895BC01F2CF8091B502882348
:10469000C1F18530C1F18091E80083FD30C0809187
:1046A000E80082FDEACF8091E80080FFE1CF8091B1
:1046B000F3002091F200382F6115710519F02830B0
:1046C000310558F091E02830310509F090E0209153
:1046D000E8002E772093E800CBCF81918093F10002
:1046E000615071092F5F3F4FE7CF8091B50288235A
:1046F00041F0853041F08091E80083FFBECF81E03A
:10470000089582E0089583E00895FC018091BC0241
:104710009091BD0286179707A0F06115710529F4E5
:104720008091E8008E778093E80090E06115710534
:1047300051F4911108C08091E80082FF35C080E0FB
:104740000895BC01F2CF8091B5028823C9F185306C
:10475000C9F18091E80083FD31C08091E80082FDBD
:10476000EACF8091E80080FFE1CF8091F3002091B3
:10477000F200382F6115710519F02830310558F015
:1047800091E02830310509F090E08091E8008E77C3
:104790008093E800CBCF84918093F10031966150F3
:1047A00071092F5F3F4FE6CF8091B502882341F01A
:1047B000853041F08091E80083FFBDCF81E008950E
:1047C00082E0089583E00895982F973028F08F7045
:1047D0008093E90081E008959093E900242F762FDB
:1047E00050E0981731F07091EC002091ED0050915D
:1047F000F00021FD02C09F5FE8CF3091EB003E7FCB
:104800003093EB003091ED003D7F3093ED0030911F
:10481000EB0031603093EB007093EC002093ED00DF
:104820005093F0002091EE0027FDE5CF80E0089541
:104830008091B60287FF13C08091E80082FF06C016
:104840008091E8008B778093E80004C08091B502E6
:104850008111F2CF08958091B5028823D9F3809118
:10486000E80080FFF8CF8091E8008E77ECCF2091B0
:10487000E4003091E50095E6A9012091EC00822F3B
:10488000817020FF06C08091E80080FF06C080E0B4
:1048900008952091E80022FD1AC08091B502882376
:1048A00089F0853089F08091EB0085FD0FC0209163
:1048B000E4003091E50042175307F9F29150E1F618
:1048C00084E0089582E0089583E0089581E00895EA
:1048D0000E94D6240E94DE24E0EEF0E08081816018
:1048E0008083E8EDF0E080818F77808319BCA7EDAD
:1048F000B0E08C918E7F8C9380818F7E808310922C
:10490000B40208950F931F93CF93DF930E94D62490
:104910000E94DE24C8EDD0E088818F77888388816B
:104920008068888388818F7D888319BC1092B50246
:104930001092B1021092B3021092B20200EE10E097
:10494000F80180818B7F808388818160888342E049
:1049500060E080E00E94E423E1EEF0E080818E7F61
:104960008083E2EEF0E080818160808380818860D6
:104970008083F80180818E7F808388818061888335
:10498000DF91CF911F910F910895E8EDF0E08081C4
:104990008F7E8083E7EDF0E080818160808384E01A
:1049A00082BF81E08093B4020C948224E8EDF0E0B1
:1049B00080818E7F80831092E20008951092DA0049
:1049C0001092E10008951F920F920FB60F921124DA
:1049D0002F933F934F935F936F937F938F939F9307
:1049E000AF93BF93EF93FF938091E10082FF0BC0E1
:1049F0008091E20082FF07C08091E1008B7F80936D
:104A0000E1000E944D278091DA0080FF19C080915B
:104A1000D80080FF15C08091DA008E7F8093DA0085
:104A20008091D90080FF96C080E189BD82E189BD77
:104A300009B400FEFDCF81E08093B5020E944A21B7
:104A40008091E10080FF19C08091E20080FF15C0D5
:104A50008091E2008E7F8093E2008091E20080618D
:104A60008093E2008091D80080628093D80019BCC6
:104A700085E08093B5020E945C218091E10084FF73
:104A80002BC08091E20084FF27C080E189BD82E1D4
:104A900089BD89B5982F917080FFFBCF8091D80098
:104AA0008F7D8093D8008091E1008F7E8093E1001C
:104AB0008091E2008F7E8093E2008091E20081602D
:104AC0008093E2008091B102882309F449C084E018
:104AD0008093B5020E945D218091E10083FF29C08F
:104AE0008091E20083FF25C08091E100877F809361
:104AF000E10082E08093B5021092B1028091E10062
:104B00008E7F8093E1008091E2008E7F8093E200AF
:104B10008091E20080618093E20042E060E080E00A
:104B20000E94E4238091F00088608093F0000E944E
:104B30005B21FF91EF91BF91AF919F918F917F91F9
:104B40006F915F914F913F912F910F900FBE0F90FA
:104B50001F90189519BC1092B5020E94582170CF71
:104B60008091E30087FD93E09093B502B3CF1F924D
:104B70000F920FB60F9211242F933F934F935F9391
:104B80006F937F938F939F93AF93BF93CF93DF9355
:104B9000EF93FF93D091E900DF708091EC00C82F74
:104BA000C17080FDC0E81092E9008091F000877F1D
:104BB0008093F00078940E94FB251092E900809188
:104BC000F00088608093F000CD2BCF70C093E90097
:104BD000FF91EF91DF91CF91BF91AF919F918F9115
:104BE0007F916F915F914F913F912F910F900FBEE9
:104BF0000F901F9018951F93CF93DF93CDB7DEB71B
:104C0000AA970FB6F894DEBF0FBECDBF86EB92E039
:104C10002091F100FC012193CF01F2E08E3B9F0730
:104C2000B9F70E9468218091E80083FF1EC180913E
:104C3000B6029091B7029A3008F017C1E92FF0E060
:104C4000E259F74D0C947D27803899F0823809F0AD
:104C50000CC18091BA028F70873008F006C1809332
:104C6000E9008091EB0085FB882780F91092E9002C
:104C700006C08091B2029091B3029111826090912E
:104C8000E800977F9093E8008093F1001092F10084
:104C90008091E8008E77E5C0882309F4D3C0823084
:104CA00009F0E3C08091B8028111D6C08091BA02A8
:104CB0008F702FEF280F263008F0D7C08093E900BF
:104CC0002091EB0020FFC8C0933031F48091EB00BD
:104CD00080628093EB00C0C09091EB009061909354
:104CE000EB0021E030E001C0220F8A95EAF7209323
:104CF000EA001092EA008091EB008860EACF81110F
:104D0000B4C01091B8021F778091E3008078812BA6
:104D10008093E3008091E800877F8093E8000E9401
:104D200018248091E80080FFFCCF8091E300806828
:104D30008093E30082E0111183E08093B50295C077
:104D40008058823008F091C08091B8029091B902E9
:104D50008C3D23E09207A1F583E08A838AE2898370
:104D60004FB7F894DE01139620E03EE051E2E32FC6
:104D7000F0E050935700E49120FF03C0E295EF70FC
:104D80003F5FEF708E2F90E0EA30C0F0C7968D93B2
:104D90009D932F5F243159F74FBF8091E800877FA3
:104DA0008093E8006AE270E0CE0101960E9427231A
:104DB0008091E8008B778093E80057C0C096E7CFDA
:104DC0006091BA027091BB02AE014F5F5F4F0E94CB
:104DD0006822BC01892B09F448C09091E800977FB4
:104DE0009093E80089819A810E948523E1CF8038E1
:104DF000E1F58091E800877F8093E8008091B1021F
:104E00008093F10045CF811130C09091B80292306B
:104E100060F58091E800877F8093E8009093B1026D
:104E20000E9418248091B102882311F084E005C00B
:104E30008091E30087FDFACF81E08093B5020E9464
:104E40005E2113C08091B802813079F481E0933003
:104E500009F080E08093B3021092E9008091E800AD
:104E6000877F8093E8000E9418248091E80083FFE8
:104E70000AC08091E800877F8093E8008091EB0072
:104E800080628093EB00AA960FB6F894DEBF0FBE47
:104E9000CDBFDF91CF911F9108950895CF93809159
:104EA000B5028823A1F0C091E900CF709091EC0089
:104EB000892F817090FD80E8C82B1092E9008091C5
:104EC000E80083FD0E94FB25CF70C093E900CF91DD
:104ED000089597FB072E16F4009407D077FD09D0AC
:104EE0000E94832707FC05D03EF4909581959F4F43
:104EF0000895709561957F4F0895EE0FFF1F0590FF
:104F0000F491E02D0994AA1BBB1B51E107C0AA1F15
:104F1000BB1FA617B70710F0A61BB70B881F991F5A
:104F20005A95A9F780959095BC01CD010895F999FE
:104F3000FECF92BD81BDF89A992780B50895A8E16A
:104F4000B0E042E050E00C94CB27262FF999FECF39
:104F500092BD81BDF89A019700B4021639F01FBACC
:104F600020BD0FB6F894FA9AF99A0FBE08950396E9
:104F7000272F0E94A6270E94A527252F0E94A6273B
:104F8000242F0C94A6270196272F0E94A6270C9465
:104F9000A527DC01CB01FC01F999FECF06C0F2BDCB
:104FA000E1BDF89A319600B40D9241505040B8F7E7
:104FB0000895F894FFCFE00322042A0442045A041F
:104FC000320412040B041A04C803F6033A04D20391
:104FD000FD030404EF03D90376046E047E04760512
:104FE0001E0562050E05160526052E055A05360511
:104FF000520542054A050605BE04F604CE048604A1
:10500000B604D604DE04E604AE0496049E04EE0460
:105010008E04A604C6047E0586058E0596059E05AB
:10502000A605EC0BE30BEF0BE10B340C340CE10B9E
:10503000340C340C0B0C340C160C210C340C340CCA
:10504000340C340CE10B340C340CE10B340CFD0B40
:10505000340C340C320C320C320C320C320C320C5C
:10506000320C320C320C2C0C340CEC0BDF0B340CED
:10507000340C340C340C340C340C340C340C340C30
:10508000340C2C0C340C340CE10B340C300C300C84
:10509000300C300C300C300C300C300C300C2C0C34
:1050A000A715A715FF15FF1551166D16D415D415A4
:1050B00078160417131713176F17D415D41578170C
:1050C000FB17FB1704180418061804180418041812
:1050D000FB17FB170B18041804180B1824264C2672
:1050E00035274C2635277F26A0263527F726032788
:1050F0007F118F119F1100000000000000000000D0
:10510000000000004A017F118F119F110000000074
:105110000000000000000000000046017F118F1118
:105120009F110000000000000000000000000000CF
:1051300042012A0036002E005300280014002808DF
:10514000641E140A321EFF5A02AB200A21E920E530
:1051500020E12001E200E900EA00B500B600B70056
:10516000CD008301CC008A01920194012102230227
:1051700024022502260227022A02B300B4006F008F
:105180007000818283F4339735946636C634010209
:105190000304050607080900E200E900EA00B5007B
:1051A000B600B700CD008301CC008A0192019401C2
:1051B0002102230224022502260227022A02B3002A
:0A51C000B4006F00700081828300CC
:00000001FF
