:100000000C9482010C94C9010C94C9010C94C9018F
:100010000C94C9010C94C9010C94C9010C94C90138
:100020000C94C9010C94C9010C940C1F0C94E01F92
:100030000C94301A0C94C9010C94C9010C94C90198
:100040000C94C9010C94C9010C94C9010C94C90108
:100050000C94C9010C94871A0C94C9010C94C90121
:100060000C94C9010C94C9010C94C9010C94C901E8
:100070000C94C9010C94C9010C94C9010C94C901D8
:100080000C94C9010C94C9010C94C9010C94C901C8
:100090000C94C9010C94C9010C94C9010C94C901B8
:1000A0000C94C9010C94C9010C94C901303000535F
:1000B00000540055002A005F00600061002D005CC4
:1000C000005D005E00570059005A005B002E005F83
:1000D0005D62006300580000000000000000002A7C
:1000E0002B280000000000000000000000000000BD
:1000F000000029000000002C1E3420212224342678
:1001000027252E362D3738271E1F20212223242570
:10011000263333362E37381F0405060708090A0B25
:100120000C0D0E0F101112131415161718191A1B97
:100130001C1D2F3130232D350405060708090A0B35
:100140000C0D0E0F101112131415161718191A1B77
:100150001C1D2F3130354C00000000000000000055
:10016000000000000000000000000000000000008F
:1001700000000000000000000000007E0F00D4FF1F
:10018000FFFFC7000000780C0353006F0079007573
:10019000007A00000026036100690030003300206F
:1001A00000440065007300690067006E0020005382
:1001B0000074007500640069006F0000000403090A
:1001C0000409023B00020100A0FA09040000010337
:1001D00001010009211101000122400007058103EE
:1001E00008000A09040100010300000009211101AF
:1001F000000122B6000705820320000A1201100147
:100200000000000803A1180001000102000105011F
:100210000902A10185020901A100050919012908A6
:100220001500250195087501810205010930093184
:100230001581257F95027508810609381581257F6E
:10024000950175088106050C0A38021581257F95F0
:100250000175088106C0C005010980A10185031947
:10026000012AB700150126B700950175108100C05D
:10027000050C0901A101850419012AA00215012616
:10028000A002950175108100C005010906A1018534
:1002900005050719E029E715002501950875018175
:1002A000020507190029EF1500250195F075018158
:1002B0000205081901290595057501910295017539
:1002C000039101C005010906A101050719E029E70D
:1002D00015002501950875018102950175088101B8
:1002E0000507190029FF150026FF009506750881EE
:1002F00000050819012905950575019102950175FB
:10030000039101C011241FBECFEFDAE0DEBFCDBFE5
:1003100004B603FE27C080916C0290916D02A091FB
:100320006E02B0916F028730904BA740B04BD1F472
:1003300010926C0210926D0210926E0210926F0277
:1003400014BE84B7877F84BF0FB6F894A8958091B8
:100350006000886180936000109260000FBEE0E052
:10036000F8E3099511E0A0E0B1E0E6EDF4E402C0A5
:1003700005900D92AA38B107D9F722E0AAE8B1E0BA
:1003800001C01D92AC36B207E1F70E94481C0C94E4
:1003900002220C9400000C94E0010C94E1010C94F6
:1003A000D3010C94E2018F359D4541F4FB0182811C
:1003B000882321F08CEA90E00E94670381E0089591
:1003C00008950895089581E0089508950C94E50135
:1003D0001F93CF93DF9300D000D00F92CDB7DEB73D
:1003E00049835A836B833091B60189819A81311197
:1003F0001DC06623B9F02223A9F00E940117182F0F
:10040000682F89819A810E94AE1669817A81812F35
:100410000F900F900F900F900F90DF91CF911F9141
:100420000C947A030E94DA16182FEFCF0E9401175E
:1004300069817A81EDCFFC01262F40815181628153
:10044000738184810C94E801CF93DF93EC0160E029
:100450000E941B02BE01DF91CF910C94E6010E9425
:1004600086050C94CB010C94CD0108950E941812BE
:100470000E9435022FEF84E39CE0215080409040A1
:10048000E1F700C000000C94AB1A0F931F93CF93B9
:10049000DF938C0161E00E941B02EC01B8010E9415
:1004A000CF018823A9F1B801CE010E94800B8823D7
:1004B00079F1B801CE010E94D20B882349F1B8012D
:1004C000CE010E94F50C882319F1F801828188235E
:1004D00061F0CB35FDE5DF0721F170F4C115ECE5E6
:1004E000DE07A1F0CF3DDC45C9F0C801DF91CF9117
:1004F0001F910F910C94E301CC358DE5D807A1F045
:10050000CD35DD4591F70E94A817EFCF0E94360246
:1005100080E0DF91CF911F910F9108950E941B19E8
:10052000F7CF0E94B117E1CF0E94B417DECFDF9260
:10053000EF92FF920F931F93CF93DF93E82FF0E09A
:10054000E952FF4FD490282F26952695269530E026
:10055000F901E958FE4F0491877010E0082E02C09F
:10056000159507950A94E2F701701127F901E959E9
:10057000FE4FE490F12C082E02C0F594E7940A9403
:10058000E2F791E0E922FF24F901E95AFE4FC49114
:10059000D0E002C0D595C7958A95E2F7C170DD27F6
:1005A0000115110519F081EE0E94930EE114F1047A
:1005B00019F086EE0E94930E8D2D0E94970FEF2862
:1005C00019F086EE0E942A0F012B19F081EE0E948D
:1005D0002A0FCD2B51F08CE2DF91CF911F910F911B
:1005E000FF90EF90DF900C94970FDF91CF911F91C8
:1005F0000F91FF90EF90DF900895EF92FF920F938D
:100600001F93CF93DF938C01F62E8AE0E82EF8013A
:100610008491882309F454C0813009F04DC0E80169
:100620002196FE018491813091F42196FE018491FE
:100630000E94970F8E010F5F1F4F8F2D815038F34F
:10064000EFE9FFE03197F1F700C00000F7CF82300B
:1006500039F4E8012296FE0184910E94930EEACFBC
:10066000833039F4E8012296FE0184910E942A0F1A
:10067000E1CF8430F9F6E8012296FE01249190E062
:1006800080E0FE0131962053330B2A30310548F0CB
:10069000019780F2EFE9FFE03197F1F700C0000029
:1006A000F7CFE89EA001E99E500D1124C901840FE7
:1006B000951F2491EF01E5CF0E949702E801BACF80
:1006C000DF91CF911F910F91FF90EF90089560E01F
:1006D0000C94FD0281E008950C946A03CF93C82F17
:1006E0000E94D1018C2FCF910C946C0390E080E09C
:1006F00008950895E72FF0E095E0899FE00DF11D42
:100700001124EE0FFF1FEE0FFF1FE60FF11DEE0F7E
:10071000FF1FE155FF4F859194910895FC01EE0F65
:10072000FF1FE957FE4F859194910895CF93DF9372
:100730000E947A030E94AB04EC01811520E5920728
:1007400008F042C0811530E4930708F0BDC0883E30
:10075000910528F5803E910508F09DC0883A9105E5
:1007600088F4853A910508F08FC08130910509F42D
:1007700092C0009709F48FC0049708F08CC0D0E0B5
:10078000C0E089C08F3B910508F489C0805C910965
:10079000C03CD105A0F30E948E03EC017CC0811502
:1007A000904250F4C11581E0D80708F074C0CD3EE6
:1007B000D10528F3D0656FC0C11590E3D90708F0C3
:1007C00079C0CE019F70E7CF811525E5920758F5D6
:1007D000811534E5930708F0A6C0811542E594071A
:1007E00050F4C11581E5D80708F471C0DC2FCC277F
:1007F000C16FD06A50C0982F969596959E01237030
:100800003327C115D34508F07FC0C1E0D0E002C056
:10081000CC0FDD1F2A95E2F720E2929FC001112440
:10082000C82BD92B6FC0C11589E5D807A8F4C1150D
:1008300098E5D90708F07CC0C11526E5D20708F075
:100840009ECF8C2F0E944205C82FD0E0DC2FCC27F2
:10085000CC27DF71D0621FC0C1153AE5D30708F479
:100860006CC0CE0190568115904208F088CF8D2F34
:100870008F710E94420590E0982F882788279F71EA
:100880009C012C2BE901E6CFC55AD0E0CD5BDE4FB1
:10089000C881D0E0D064CE01DF91CF910895C85ACD
:1008A000D0E0CC0FDD1FCB5EDE4F0990D881C02D8C
:1008B000D464F1CFCE019927D3FF03C0EC01D86CEB
:1008C000EACFEC01D06CE7CFDF70D06AE4CFCE0185
:1008D000E4E096958795EA95E1F783702C2F2695AD
:1008E0002695237090E2299F90011124382B8C2F9C
:1008F0008370C1E0D0E002C0CC0FDD1F8A95E2F723
:10090000C22BD32BDC68C7CFC1E0D0E002C0CC0F34
:10091000DD1F2A95E2F730E2939FC0011124C82B16
:10092000D92BDA68B8CFD82FCC27C46FD06AB3CF11
:10093000DC2FCC27C06FD06AAECF8C2F8F700E9477
:10094000420534E0D695C7953A95E1F7CF709C2FD4
:10095000EC01D069A0CF82389105B1F1B0F48133B8
:10096000910509F475C048F48932910509F469C00C
:100970008A32910509F473C008958533910509F40D
:1009800059C08933910501F10895833E9105A9F17C
:1009900038F4803E9105F9F0823E910549F10895C1
:1009A000863E9105A9F1873E9105C9F1843E9105E6
:1009B00019F52091500221FF1FC080914F0284FD44
:1009C00014C087EE90E0089520914F022370A1F0AB
:1009D00080EE90E0089520914F0220FD47C03091B5
:1009E000500230FF09C024FF44C090E080E004C002
:1009F00020914F0222FDF7CF089520914F0222FD52
:100A00003BC03091500230FDE3CF24FFF5CFEDCF56
:100A100020914F0223FFF0CF24FDE7CFD2CF2091CA
:100A20004F0223FD2CC03091500231FFEECF84EEF7
:100A300090E0089520914F0225FFDECF89E290E0FB
:100A4000089520914F0225FFD7CF85E390E00895C8
:100A500020914F0226FFD0CF8AE290E008952091A6
:100A60004F0226FFC9CF81E390E0089589E390E02B
:100A7000089583EE90E0089582EE90E0089586EE6A
:100A800090E0089590914F0292FF06C0282F2871A0
:100A90002830F9F4877F846093FF06C0282F2871DF
:100AA0002831F1F4877E84612091500220FF06C036
:100AB000382F38713830D9F4877F816021FF06C024
:100AC000282F28712831D1F4877E816194FD877E9B
:100AD0000895282F24712430F9F68B7F8860DCCFAD
:100AE000282F2471243101F78B7E8861DDCF382FC8
:100AF0003171313019F78E7F8860E0CF282F217156
:100B0000213121F78E7E8861E1CF08950E94761809
:100B1000811102C00E941B190E94811880932B0230
:100B20000E9489189093500280934F020E9485057D
:100B30000E948518682F70E090E080E00E94B01558
:100B40006091FE017091FF0180910002909101027D
:100B50000C94EA15E82FF0E0EA5AFD4F80810895E1
:100B6000089580EA8A95F1F7089500C008950C94DD
:100B7000B105F894E82FE295EF70F0E031A1282F4D
:100B80002F7081E090E001C0880F2A95EAF7982F36
:100B90009095932391A392A1892B82A37894089591
:100BA00084E90E94B90586E60E94B90586E30E94A1
:100BB000B90586EC0E94B90584E30E94B90584EF6B
:100BC0000E94B90583E30E94B90587E90E94B9052F
:100BD00085E30E94B905A1E5B2E01C92E6E5F2E0EA
:100BE000108211961C921197118212961C921297E4
:100BF000128213961C921397138214961C921482DD
:100C000085E00E947C060C942F02CF92DF92EF9237
:100C1000FF920F931F93CF93DF93CAE4D1E001E5D6
:100C200012E0D12CEE24E394F12C8991F894E82F72
:100C3000E295EF70F0E021A18F70A70102C0440F90
:100C4000551F8A95E2F7CA01922F982B91A392A182
:100C50008095892382A378940E94B505E6E4F1E0AB
:100C600030E020E0C12C4191A42FA295AF70B0E0FC
:100C700090968C9190E04F7002C0959587954A951B
:100C8000E2F780FD35C08E2D022E01C0880F0A9438
:100C9000EAF7C82A2F5F3F4F2430310521F7FE01C4
:100CA000319780810E94B9050E94B705F8018081C3
:100CB000C81601F1C08281E0D82A0F5F1F4FF1E012
:100CC000CF34DF0709F0B1CF2D2D45E066E572E0A6
:100CD00081E592E00E947D060E9433028D2DDF9116
:100CE000CF911F910F91FF90EF90DF90CF900895DB
:100CF00080E0CFCF80E0E0CF0895FF920F931F9365
:100D0000CF93DF93F82E092F162FD72FC42F22232E
:100D100049F081E080938E010E94601A90938D01CA
:100D200080938C0180918E018823A1F080918C01A9
:100D300090918D010E94781A069760F0EF2DF02FA8
:100D4000A12FBD2FCE0FDF2FD11DEC17FD0741F4D2
:100D500010928E01DF91CF911F910F91FF90089516
:100D600081918D93F2CF833081F128F4813059F055
:100D70008230D1F00895853009F449C0B8F1863049
:100D800009F456C0089580910701482F460F552752
:100D9000551F4F3F510524F4680F609307010895D4
:100DA0008FEF80930701089580910601482F460F29
:100DB0005527551F4F3F510524F4680F60930601D6
:100DC00008958FEF80930601089580910501482FC3
:100DD000460F5527551F4F3F510524F4680F609368
:100DE000050108958FEF8093050108958091040116
:100DF000482F460F5527551F4F3F510524F4680FC4
:100E00006093040108958FEF809304010895809109
:100E10000101482F460F5527551F4F3F510524F418
:100E2000680F6093010108958FEF80930101089589
:100E300080910001482F460F5527551F4F3F510500
:100E400024F4680F6093000108958FEF80930001F0
:100E50000895833011F128F4813049F0823091F007
:100E60000895853081F120F18630C1F10895809197
:100E70000701681720F4861B8093070108951092DC
:100E80000701089580910601681720F4861B80935E
:100E900006010895109206010895809105016817D2
:100EA00020F4861B80930501089510920501089592
:100EB00080910401681720F4861B80930401089533
:100EC00010920401089580910101681720F4861B97
:100ED000809301010895109201010895809100010D
:100EE000681720F4861B809300010895109200017A
:100EF00008950F931F9341E050E060E070E08A0195
:100F00009B0104C0000F111F221F331F8A95D2F7C7
:100F1000C901B8010E94B0151F910F910C941812CD
:100F2000EBEFE80FEF3308F05AC0F0E0EC5FFD4D57
:100F30000C94A6210E941B1981E0089580912B0238
:100F4000807F80932B0281E08093900108950E941E
:100F50003602F2CF90912B02892F8E7F90FF816015
:100F600080932B0280FDE8CF817F80932B02E4CF1A
:100F700090912B02892F8D7F91FF826080932B02AD
:100F800081FFDACF80912B028160EFCF90912B020D
:100F9000892F8B7F92FF846080932B0282FDF2CF9A
:100FA000CBCF90912B02892F877F93FF886080930E
:100FB0002B0283FDE7CFC0CF0E94181290914F0201
:100FC000892F97FB87F9805880934F02B5CF80E037
:100FD0000E947907B1CF8953FBCF8D51F9CF80E0C3
:100FE000089580E008950C94F1078E518A3030F412
:100FF000E82FF0E0E15BFE4F8081089580E00895E6
:10100000CF93C82F809190018130B9F0882331F0BF
:101010008230A1F11092900180E00DC00E94B717BC
:101020008232D1F78C2F0E94F10781111BC08C2FC7
:101030000E9490078170CF9108950E94B717823265
:1010400089F38C2F0E94F30781110AC0C43199F0F3
:1010500060F4CB3029F0C03169F782E080939001D1
:1010600081E0E8CF81E090E0E5CFC93221F0C833DC
:10107000B9F380E0DFCF10929001FBCFC93219F1B4
:1010800088F4C43101F120F4C73081F181E0D3CF7D
:1010900082EE8C0F8630D0F78C2F0E94F50780935C
:1010A0008F01F4CFCE3401F140F46AE0CB3471F714
:1010B00080918F010E94B306E9CFC13579F061E0DC
:1010C000C235B1F3E3CF80918F01882319F01092DC
:1010D0008F01DCCF81E080939001ADCF61E0809102
:1010E0008F010E942907D2CF6AE0F9CF8EE1809369
:1010F000070182E3809306018AE08093050184E181
:101100008093040188E08093010188E280930001CC
:10111000BDCF8091970180FF12C06091050185E0ED
:10112000689FB0011124759567957595679560382E
:101130007105A8F561157105A1F1862F089581FF4C
:1011400009C06091050185E0689FB0011124759583
:101150006795EDCF6091050182FD0AC080919601EF
:101160008823D1F09091040160910501891728F03E
:1011700085E0689FB0011124DACF869FB001112469
:1011800085E0869F9001879F300D1124692F70E0C4
:10119000C9010E949221CBCF65E070E0CECF8FE7EE
:1011A000089581E008958091970180FF0CC06091BF
:1011B000010170E0759567957595679561157105E5
:1011C00049F1862F089581FF06C06091010170E00A
:1011D00075956795F3CF6091010182FD0BC09091E9
:1011E00095019923A1F0609100018091010196176A
:1011F00038F0682F70E06038710500F38FE70895CC
:10120000899FC001112470E00E949221F4CF61E017
:1012100070E0D7CF81E008958D3E31F40E948908B7
:10122000819580939B0108958E3E19F40E94890850
:10123000F8CF8F3E31F40E948908819580939A01FE
:101240000895803F19F40E948908F8CF893F29F456
:101250000E94D30880939C0108958A3F21F40E9444
:10126000D3088195F7CF8B3F31F40E94D308819545
:1012700080939D0108958C3F19F40E94D308F8CF04
:101280009FE0980F983070F4815F990B21E030E077
:1012900001C0220F8A95EAF780919901822B8093F1
:1012A000990108958D3F31F4809197018160809379
:1012B000970108958E3F21F4809197018260F7CFC6
:1012C0008F3FB9F7809197018460F1CF40919A01E7
:1012D0008D3E59F480919B0187FF0DC010929B01B8
:1012E00041110BC01092960108C08E3E81F480918E
:1012F0009B0118169CF3442381F080919C019091EE
:101300009D01892B09F05AC01092950108958F3ED6
:1013100049F447FFF0CF10929A0180919B0181110F
:10132000ECCFE0CF803F19F41416ACF3E4CF9091EA
:101330009C01893F29F41916F4F610929C01DBCF29
:101340008A3F19F497FFD7CFF8CF90919D018B3F3B
:1013500029F497FFD0CF10929D01CDCF8C3F19F487
:101360001916CCF3C8CF9FE0980F983090F4815FA6
:10137000990B21E030E0B90102C0660F771F8A9512
:10138000E2F7CB018095909199018923809399018F
:10139000B2CF8D3F31F4809197018E7F809397017A
:1013A000AACF8E3F21F4809197018D7FF7CF8F3F99
:1013B00009F0A1CF809197018B7FF0CF08950E9413
:1013C000601A9C0190919A0180919B01982B21F0C9
:1013D000309394012093930190919C0180919D0101
:1013E000982B21F0309392012093910188E991E0AC
:1013F0000C944A0DEF92FF920F931F93CF93DF93BC
:1014000000D000D000D0CDB7DEB786E0E8E9F1E04B
:10141000DE01119601900D928A95E1F7E0909A0114
:10142000F0909B0100919C0110919D0110929A01F6
:1014300010929B0110929C0110929D018E2D8F297C
:1014400091F080919301909194010E94781AAC01DF
:1014500090919601992309F43FC080910601841769
:10146000150608F447C0802F812B91F080919101DF
:10147000909192010E94781AAC0190919501992364
:1014800009F477C0809102018417150608F47FC023
:1014900080919A0190919B01892B90919C01892BBD
:1014A00090919D01892B11F00E94DF0986E0FE01D9
:1014B0003196A8E9B1E001900D928A95E1F7269660
:1014C0000FB6F894DEBF0FBECDBFDF91CF911F9155
:1014D0000F91FF90EF900895209107018AE0289FD7
:1014E000900111242417350708F0BDCF9F5F90931A
:1014F000960102C09F3FD1F7EE2059F00E94890863
:101500009FEF1E140CF491E0899F802D112480938D
:101510009A01FF2059F00E9489089FEF1F140CF4D4
:1015200091E0899F802D112480939B0130919A0135
:10153000332309F498CF20919B01222309F493CF00
:1015400045EB3403C0011124992359F090939A017B
:1015500045EB240390011124332339F030939B0190
:1015600082CF81E080939A01F3CF81E080939B0149
:101570007ACF209103018AE0289F9001112424173B
:10158000350708F085CF9F5F9093950102C09F3F7C
:10159000D1F7002359F00E94D3089FEF10160CF4E6
:1015A00091E0899F802D112480939C01112359F093
:1015B0000E94D3089FEF11160CF491E0899F802DB3
:1015C000112480939D0130919C01332309F460CF55
:1015D00020919D01222309F45BCF45EB3403C00128
:1015E0001124992359F090939C0145EB2403900119
:1015F0001124332339F030939D014ACF81E0809349
:101600009C01F3CF81E080939D0142CF86E0E8E921
:10161000F1E0DF011D928A95E9F710929601109290
:1016200095011092970108950F931F93CF93DF9325
:10163000C42FD22FFC0182818823C9F04093A001DE
:101640000E94601A90939F0180939E0180E28C0F0C
:10165000883008F050C0C77081E001C0880FCA957B
:10166000EAF7DF91CF911F910F910C949F0F10918A
:10167000A001141335C080919E0190919F010E949A
:10168000781A883C910560F5C0E2CD0F1D17B9F0BE
:1016900080E2810F883040F4177081E001C0880F2C
:1016A0001A95EAF70E94A60FC83048F481E09D2FF2
:1016B000977001C0880F9A95EAF70E949F0F802FBC
:1016C0000E94970FC830B8F4D77081E001C0880F2E
:1016D000DA95EAF7DF91CF911F910F910C94A60F45
:1016E00080E28C0F883038F4C77081E001C0880F29
:1016F000CA95EAF7EFCFDF91CF911F910F9108952F
:101700000F939C01CB01243F4CE5340759F1A8F419
:10171000293DFCE53F0701F12A3D4CE53407D1F1B5
:10172000283D3C4591F406E221EE41EE68ED7CE572
:101730000E94140B80E00F910895263FFCE53F07BF
:10174000E9F0B0F0273F3C45F9F0FC0182818823A5
:1017500039F11092A001EFCF07E225EE45EE69EDD9
:101760007CE5E6CF06E221EE40EE64EF7CE5E0CFDB
:1017700007E225EE44EE65EF7CE5DACF06E221EEE6
:1017800042EE66EF7CE5D4CF07E225EE46EE67EF4A
:101790007CE5CECF08E221E045EE6AED7CE5C8CFDE
:1017A00081E0C9CFCF93DF93EC01FB0182818823D5
:1017B00009F419C1C230FCE5DF07C0F1C6319CE570
:1017C000D90730F09E012B5F3C452930310570F57B
:1017D0000E9489189093500280934F02C031ECE52B
:1017E000DE0709F4CFC008F05BC0C8308CE5D8072D
:1017F00009F4B6C088F5C430ECE5DE0709F4A8C0EA
:10180000C0F4C2308CE5D80709F49CC080914F0227
:101810008260C330DC4509F498C080914F029091FA
:1018200050020E9497180E94181280E0DF91CF9119
:10183000089580914F028061C630ECE5DE0709F41F
:1018400084C080914F028860C730DC4508F47DC0B9
:1018500080914F02806279C0CC308CE5D80709F4C2
:1018600089C070F480914F028C60CA30ECE5DE07CD
:1018700009F46BC008F478C080914F028E7F65C078
:10188000CE308CE5D80709F479C080914F028B7F68
:10189000CF30DC4508F459C080914F028F7E55C08F
:1018A000CC3FECE5DE0709F457C030F5C3318CE5D9
:1018B000D80709F46FC078F4C131ECE5DE0709F40C
:1018C00065C0C231DC4509F0A8CF0E941812809192
:1018D0004F028F773AC0C5318CE5D80709F462C052
:1018E00008F476C0809150028160CB3FDC4509F05E
:1018F00094CF8093500291CFC115FDE5DF0709F425
:101900004DC088F4809150028D7FCE3F9CE5D90771
:1019100081F3809150028E7FCF3FDC4550F3809160
:1019200050028360E6CFC230FDE5DF0709F459C0FD
:1019300008F444C080E0C330DD4509F06ECF0E945A
:101940001D196BCF80914F02816080934F0265CF4C
:1019500080914F028460F9CF809150028260C9CF9C
:1019600080914F028064F1CF0E94181280914F0243
:101970008068EBCF80914F028D7FE7CF80914F023F
:10198000877FE3CF80914F028F7DDFCF80914F0221
:101990008F7BDBCF80914F02837FD7CF8091500226
:1019A0008C7FA7CF80914F0282FB992790F921E08D
:1019B000922790FB82F990FB83F9C7CF8091500268
:1019C000982F909591708E7F892B90FB81F991CF04
:1019D0000E94181290914F02892F97FB87F9805827
:1019E000B4CF81E0ACCF81E021CFCF93DF93EB0187
:1019F00086319C4511F50E94B7179A81992399F079
:101A00008A7A91E009F490E09093A101811109C0D4
:101A100089E20E9471170E94071880E0DF91CF9140
:101A2000089585E3F6CF8091A101811104C089E278
:101A30000E947817F0CF85E3FBCF81E0EFCF909342
:101A4000A7018093A6010895E091A601F091A70156
:101A5000309721F00190F081E02D099480E0089505
:101A6000E091A601F091A701309799F0209114011F
:101A7000222359F020914F0227FF07C0DC012C914F
:101A800011962C93119725E02C930280F381E02D81
:101A900009940895E091A601F091A701309739F0DB
:101AA00022E0DC012C930480F581E02D0994089557
:101AB0002091A4013091A5012817390771F0909366
:101AC000A5018093A401E091A601F091A7013097B0
:101AD00021F00680F781E02D099408952091A2015C
:101AE0003091A3012817390771F09093A3018093D7
:101AF000A201E091A601F091A701309721F00084A6
:101B0000F185E02D099408950E946C1A6093B2014A
:101B10007093B3018093B4019093B5016093AE01CB
:101B20007093AF018093B0019093B101089585B790
:101B3000806885BF85B7806885BF0895089508953A
:101B40000C949E0D08950C94A20D0E94970D84E7AD
:101B500098E10E94CF1A0E949F0D0C94A00D81E085
:101B600008950C94AF0D089508950E94B30D0C9440
:101B7000B40D0E94571A0E94D0050C94A30DAF9289
:101B8000BF92CF92DF92EF92FF920F931F93CF936A
:101B9000DF93CDB7DEB72A970FB6F894DEBF0FBE3E
:101BA000CDBF0E94050681110E94840D89EAA82EEE
:101BB00081E0B82E10E000E0C02E802F0E94AA0520
:101BC000E82EF501F1905F01F81609F44DC08091FF
:101BD0002B0281FD0E94B0058F2D8E25D12CFF2474
:101BE000F394982F9F21D9F10E94B10D882399F089
:101BF000DE82CF82EF2081E009F480E088870E94B6
:101C0000601A8160782F9A8789874E815F81688505
:101C10008A850E945C0EF801E755FE4F8081F82608
:101C2000F0820E94FA090E94240D9091A801891760
:101C300091F10E94240D8093A8012A960FB6F89482
:101C4000DEBF0FBECDBFDF91CF911F910F91FF90EF
:101C5000EF90DF90CF90BF90AF900C946E03D39431
:101C6000FF0CF4E0DF12BDCF0F5F1F4F05301105F1
:101C700009F0A2CF8FEF89838A831B820E94601AAA
:101C80008160782F9D838C8349815A816B818D81FE
:101C90000E945C0EC6CF2A960FB6F894DEBF0FBE28
:101CA000CDBFDF91CF911F910F91FF90EF90DF900B
:101CB000CF90BF90AF900895DF92EF92FF920F9375
:101CC0001F93CF93DF93CDB7DEB72B970FB6F89462
:101CD000DEBF0FBECDBF7A878B87F42E052F162F60
:101CE000E72ED82E61110E94D7171E821D827E2DED
:101CF000EC82DD824F2D502F612F8D2D9E812B96F2
:101D00000FB6F894DEBF0FBECDBFDF91CF911F910C
:101D10000F91FF90EF90DF900C948E14FC01808166
:101D200091810C944317CF93C82F882309F490C056
:101D30008238C1F40E94240D81FD8AC089E30E948B
:101D400071170E9407182FEF81EE94E02150804018
:101D50009040E1F700C0000089E30E947817CF911E
:101D60000C9407188338A1F40E94240D80FD70C0E4
:101D700083E50E9471170E9407182FEF81EE94E00F
:101D8000215080409040E1F700C0000083E5E5CF9E
:101D90008438A1F40E94240D82FD5AC087E40E9479
:101DA00071170E9407182FEF81EE94E021508040B8
:101DB0009040E1F700C0000087E4CFCF8CEF8C0F9C
:101DC000813AB8F48C2F0E940008811141C06C2F19
:101DD00080910801909109010E943619882329F009
:101DE0008C2F0E9478170E9407188C2F0E94711761
:101DF000B6CF80E28C0F883048F4C77081E001C014
:101E0000880FCA95EAF70E94BA17A9CFEBE5EC0F45
:101E1000E33040F4F0E0E957FE4F808190E0CF914D
:101E20000C94580DE8E5EC0FE73150F4F0E0EE0FBC
:101E3000FF1FE75AFE4F80819181CF910C946E0D68
:101E4000CD3E30F08C2F0E940C09CF910C94DF090D
:101E5000CF910895882309F452C0823871F40E940A
:101E6000240D81FF4CC089E30E9471170E9407185E
:101E700089E30E9478170C940718833859F40E945C
:101E8000240D80FF3CC083E50E9471170E94071853
:101E900083E5EFCF843859F40E94240D82FF2FC0D0
:101EA00087E40E9471170E94071887E4E2CF9CEF35
:101EB000980F913AF0F290E2980F983050F48770B2
:101EC00091E001C0990F8A95EAF7892F0E94C01707
:101ED000D2CF9BE5980F933020F490E080E00C94F3
:101EE000580D98E5980F973120F490E080E00C941D
:101EF0006E0D8D3E20F00E9466090C94DF09089556
:101F00001F93CF93DF93182FEB010E94930E20971E
:101F100031F4812FDF91CF911F910C942A0F8FE91B
:101F20009FE00197F1F700C000002197F0CF70E02B
:101F300060E0893311F460E570E00C94800F882331
:101F400021F00E94BA170C9407180895882321F0F5
:101F50000E94C0170C9407180895BF92CF92DF9289
:101F6000EF92FF920F931F93CF93DF936C01D62FC5
:101F7000C72FFC011281058102950F700E948F17F7
:101F8000E82E8823A1F0E12E112389F08C2F807F89
:101F9000803429F080E28D0FE12C883040F082E01F
:101FA0000E9458180E948F1791E0E82EE926BC2E57
:101FB000B2949FE0B922EB2DF0E0ED5BFD4D0C9467
:101FC000A6210C2F0F70C07F11F00295007F112306
:101FD000A9F0002359F080E28D0F883010F0D11164
:101FE00009C0802F0E94BA170E9407188D2F0E94E7
:101FF000930E14C0802F0E94CA17F6CF8D2F0E9417
:102000002A0F002359F080E28D0F883010F0D11193
:102010002CC0802F0E94C0170E9407182B2D28501B
:10202000330B2430310520F40E94240D0E946E03EE
:10203000EE2009F49EC10E948B1780FD9AC1F60123
:1020400012820E9485170E941216C6010E94DA11A0
:102050000E948517DF91CF911F910F91FF90EF9014
:10206000DF90CF90BF900C943316802F0E94D01732
:10207000D3CFFC2FFF70FF2EC07FC03219F0F29437
:1020800080EFF822DD2369F0D13049F1112391F17D
:10209000002351F1F601858180FFA8CF8F708583E1
:1020A00023C0112381F0011106C00E94EA178F2975
:1020B0000E949F0FB3CF0130C1F70E94EA178F290A
:1020C0000E94F017ABCF011106C00E94FD178F2DA3
:1020D0000E94A60FA3CF013009F4A0CFF6CF1123A1
:1020E00029F0063008F09ACF8F2DE2CF053008F0A6
:1020F00095CFEDCF002359F3D93349F4FFEF27EE05
:1021000033E0F15020403040E1F700C000008D2F57
:102110000E942A0F83CF8C2F86958695837069F055
:10212000813009F07BCF8D2F9C2F9370111102C04D
:1021300090E080E00E946E0D71CF8D2F9C2F9370E8
:10214000111102C090E080E00E94580D67CF8D2FE2
:10215000112329F00E940C090E94DF095FCF0E9421
:102160006609FACF8C2F837009F041C0111156CF48
:102170004D2F429546954770440F440F0D2F0F7019
:1021800010E030E020E0042E04C0000F111F221FD9
:10219000331F0A94D2F760E070E0CB01D4FF0FC088
:1021A0006FE070E080E090E004C0660F771F881F4A
:1021B000991F4A95D2F76095709580959095C69530
:1021C000C695C370602B712B822B932BC23049F0C4
:1021D00058F4C13019F00E94C41520CF0E94B215E6
:1021E0001DCF0E94D6151ACF0E94B01517CF869525
:1021F000112311F08C2F8170882309F40FCF4D2FFC
:10220000429546954770440F440F0D2F0F7010E014
:1022100030E020E0042E04C0000F111F221F331FE6
:102220000A94D2F760E070E0CB01D4FF0FC06FE0FA
:1022300070E080E090E004C0660F771F881F991F50
:102240004A95D2F76095709580959095C695C695FC
:10225000C370602B712B822B932BC23049F058F442
:10226000C13019F00E948916D9CE0E947716D6CEB9
:102270000E949B16D3CE0E94EC15D0CECF701123B6
:1022800029F08C2F0E9412168D2F12CF8D2F0E94B5
:10229000A60F8C2F0E943316C1CED23F89F160F475
:1022A000D03FC9F0D13F29F1112309F442C00111F7
:1022B0009DCE8C2F8F7121C0D33F39F1D43FA1F730
:1022C000112369F1CF718C2F0E94121663E08C2FBD
:1022D0000E943D18A3CE112341F0053008F09ECE98
:1022E0008C2F8F710E94561699CE063008F096CE2C
:1022F000F7CF8C2F8F71112369F20E9412168ECEA8
:102300008C2F8F711123C9F3C5CF112329F08C2F86
:102310008F710E94FD1582CE0E94F8157FCE81E05C
:102320000E945818023008F479CE82E00E945818B2
:1023300075CE002359F0D93309F0E9CE8FEF97EE2F
:10234000E3E081509040E040E1F7DFCE8C2F8F71C9
:10235000A1CF4C2F4F706D2FC6010E9476030E94B3
:1023600028155CCE4C2F4F706D2FC6010E9479034B
:1023700055CEDF91CF911F910F91FF90EF90DF909D
:10238000CF90BF9008950F931F93CF93DF93EC01ED
:10239000688179818A810E944D178C010E94AD1657
:1023A0000E94AF15B801CE01DF91CF911F910F911F
:1023B0000C94AD0FCF93DF93EC018B819C81892B23
:1023C00029F08881998189238F3F59F4DF91CF913A
:1023D0000895CE010E94C311CE01DF91CF910C94DC
:1023E0002402CE010E9445028111F3CF0E948F1773
:1023F000882361F38A81882349F382E0DF91CF91BA
:102400000C94581890E080E00E94580D90E080E015
:102410000E946E0D0E94D7170E94E7170E940718AE
:102420000E94060B0C94DF090E947F170C94021285
:102430000E94C7170C941412E92FE295EF70E25036
:10244000EE3070F4F0E0ED5AFD4D0C94A621803F83
:1024500019F020F4883E20F481E00895843FE1F3F0
:1024600080E00895883EC0F3813FD1F7F5CF93FB1C
:10247000882780F908950E9443170C941C12CF936B
:10248000DF9300D000D00F92CDB7DEB70F900F9042
:102490000F900F900F90DF91CF910895CF93DF931E
:1024A00000D000D000D0CDB7DEB726960FB6F89496
:1024B000DEBF0FBECDBFDF91CF9108951F93CF93A5
:1024C000DF93C091B70116E08091B8018C1304C06E
:1024D000DF91CF911F910895D0E01C9FF0011D9FC7
:1024E000F00D1124E754FE4F4081518162817381C8
:1024F000848195810E944E122196C770E5CF40914C
:10250000E9015091EA016091EB017091EC01809139
:10251000ED019091EE010C944E121F93CF93DF9337
:102520008091EE01807FA9F48091EB01882389F0EE
:102530008091B701C091B8016091E9017091EA0101
:10254000A091EC01B091ED01D62FD72316E0C8136E
:1025500004C0DF91CF911F91089590E0109711F082
:10256000DF3F19F401968770F2CF189F9001199FF1
:10257000300D1124F901E754FE4F41814713F2CF8A
:1025800040814613EFCF42814111ECCF438154810A
:102590004A1B5B0B483C510528F78091EE018F7078
:1025A00080618093EE01F901E254FE4F80818F70CB
:1025B0008061808389EE91E00E94DA11DF91CF91F2
:1025C0001F910C945E12AF92BF92CF92DF92EF9266
:1025D000FF920F931F93CF93DF93CDB7DEB7619731
:1025E0000FB6F894DEBF0FBECDBF8C0185E0F801B9
:1025F000DE011D9601900D928A95E1F7F801408168
:102600005181E28089EEC82E81E0D82E6091EC01E4
:102610007091ED016115710509F461C19091E901B5
:102620002091EA01892F82238F3F09F458C1A380AA
:10263000B480F090EB01F501E61BF70BFF2009F4E5
:10264000FCC08091EE01382F307FE83CF10508F0A6
:10265000B2C0311179C0FE2C251323C0941321C0C0
:10266000E1101FC08F7080618093EE010E947F1285
:10267000C6010E94DA118091EE01F80185838F2D49
:1026800061960FB6F894DEBF0FBECDBFDF91CF913C
:102690001F910F91FF90EF90DF90CF90BF90AF9080
:1026A0000895AB2829F0842F85238F3F09F033C18B
:1026B00080E0F82FF170DF2E80FF3CC08091B701E1
:1026C0002091B80136E0821315C04D875E878D8555
:1026D0009E850E944317292F22952F702230F0F0FB
:1026E000243018F59F70F1F0F8019581907FD1F4B6
:1026F000D12C1EC090E0389FF001399FF00D1124BD
:10270000E754FE4F6181651306C06081641303C006
:1027100062816E110FC001968770D5CF9F7011F046
:10272000882331F3805E883018F3C8010E94DA11E3
:10273000FD2CA5CFEE2009F4A2CF8091EE0181609F
:102740008093EE01F12C9BCF251306C0941304C097
:10275000F801EE2009F48DC04D875E878D859E853A
:102760000E943B12882319F1EE2009F18091EE01BD
:10277000803270F02091E9013091EA0138872F838F
:102780001986BB86AA868C87CE0107960E94DA112D
:1027900086E0F801A9EEB1E001900D928A95E1F78B
:1027A0000E948D120E947F12FF24F39468CFC8010B
:1027B0000E94DA11F9CF311113C07A2DB98AA88A93
:1027C0006E2D89890E943F1289EE91E00E94DA11F4
:1027D00086E0F60111928A95E9F70E947F12B2CF46
:1027E00025130FC094130DC0E1100BC0F8018583B1
:1027F000C8010E94DA1186E0F60111928A95E9F784
:102800003ECF4D875E878D859E850E943B12882333
:1028100071F2EE2061F28091EE01803208F4B8CFBF
:102820002091E9013091EA013A8329831B82BD821C
:10283000AC828E83CE010196A9CFE83CF10508F069
:1028400041C0FE2CEE2009F4B2CF25132AC0941308
:1028500028C08091EE0180FD1BC0982F907FC1F0B1
:10286000F8018583903F31F0982F907F905F8F70B3
:10287000892B8583C8010E94DA1186E0F801A9EE50
:10288000B1E001900D928A95E1F70E947F12F7CE98
:1028900086E0F801A9EEB1E001900D928A95E1F78A
:1028A000EECE4D875E878D859E850E943B128111FD
:1028B0006FCF8091EE0181608093EE01C8010E948C
:1028C000DA11DDCE7A2DB98AA88A6E2D89890E9407
:1028D0003F1286E0F60111928A95E9F7D6CFEE20F5
:1028E00009F465CF4D875E878D859E850E943B12DA
:1028F000F82E882309F45BCF86E0F801A9EEB1E059
:1029000001900D928A95E1F789EE91E00E948E0E7A
:102910000E948D12BACF81E08E25CBCE1F93CF932C
:10292000DF93CDB7DEB72C970FB6F894DEBF0FBE9E
:10293000CDBF4F83588769877A878B879C87CE0165
:1029400007960E94E312882369F08A859B85892B6C
:1029500039F04F815885842F85238F3F09F071C04E
:1029600016E05FC086E0FE013796DE011196019009
:102970000D928A95E1F78A859B85892B89F38F8152
:10298000988589238F3F61F32091B80130E0C90118
:102990000196877099274091B7014817190671F47D
:1029A0000E9418121092B8011092B70186E0E9EE69
:1029B000F1E0DF011D928A95E9F7D2CF96E0929F70
:1029C000D001939FB00D1124A754BE4FFE01319644
:1029D00001900D929A95E1F78093B8010E945E12E2
:1029E000BFCF819FC001112487549E4F0E94E312E4
:1029F0008823E9F0E091B7011E9FF0011124E7540C
:102A0000FE4F4081518162817381848195810E9452
:102A10004E128091B70190E00196877099278093BC
:102A2000B7018091B7019091B8018913DACF2C9644
:102A30000FB6F894DEBF0FBECDBFDF91CF911F91CF
:102A4000089569857A858B859C850E944E1288CF72
:102A5000EF92FF920F931F93CF93DF938C01892BFB
:102A600081F0F12CEE24E394E8012196F8018491A1
:102A7000843770F4843008F05FC08130B1F0823068
:102A8000A1F1DF91CF911F910F91FF90EF900895E9
:102A9000853709F44CC008F43DC09CE7980F903787
:102AA00080F78F770E942A0F49C00E5F1F4FFE01EB
:102AB000849190E2980F983060F48770FE2D01C0E9
:102AC000FF0F8A95EAF78F2F0E94DA170E940718E6
:102AD00002C00E94930E8F2D815030F2EFE9FFE08B
:102AE0003197F1F700C00000F7CF0E5F1F4FFE01D6
:102AF000849190E2980F983050F48770FE2D01C0B9
:102B0000FF0F8A95EAF78F2F0E94E017DFCF0E9410
:102B10002A0FE1CF0E5F1F4FFE01C491C150D8F2C2
:102B20008FE99FE00197F1F700C00000F7CF0E5F3B
:102B30001F4FFE01F490CFCF0E94930E8E01CBCF9A
:102B400008950C94A0150E94A11560930202709341
:102B5000030280930402909305020C9402120895DC
:102B60000C94A3150F931F9300910202109103027E
:102B70002091040230910502602B712B822B932B44
:102B80001F910F910C94A3150F931F9300910202B4
:102B900010910302209104023091050260237123F9
:102BA000822393231F910F910C94A3150F931F93CE
:102BB000009102021091030220910402309105025B
:102BC00060277127822793271F910F910C94A315DB
:102BD0000C94A0150C94E8150E94EA156093FE0170
:102BE0007093FF0180930002909301020C940212F3
:102BF00060E070E0CB010C94EC150F931F9341E063
:102C000050E060E070E08A019B0104C0000F111FDA
:102C1000221F331F8A95D2F7C901B8011F910F9166
:102C20000C94EC150F931F9341E050E060E070E0CE
:102C300004C0440F551F661F771F8A95D2F78091F5
:102C4000FE019091FF01A0910002B09101028A0162
:102C50009B01082B192B2A2B3B2BC901B8011F9173
:102C60000F910C94EC150F931F9341E050E060E03E
:102C700070E004C0440F551F661F771F8A95D2F776
:102C8000CB01BA0160957095809590950091FE01F9
:102C90001091FF0120910002309101026023712305
:102CA000822393231F910F910C94EC150F931F9384
:102CB00041E050E060E070E004C0440F551F661F23
:102CC000771F8A95D2F78091FE019091FF01A09124
:102CD0000002B09101028A019B01082719272A27C7
:102CE0003B27C901B8011F910F910C94EC150F936C
:102CF0001F930091FE011091FF012091000230917D
:102D00000102602B712B822B932B1F910F910C943E
:102D1000EC150F931F930091FE011091FF0120917C
:102D200000023091010260237123822393231F91BB
:102D30000F910C94EC150F931F930091FE011091CD
:102D4000FF01209100023091010260277127822744
:102D500093271F910F910C94EC150895990F990FDB
:102D6000890F982F977041E001C0440F9A95EAF7B8
:102D700086958695869595E0899FF0011124E1510D
:102D8000FE4F30E020E070E05191DF011197CB0160
:102D9000022E02C0969587950A94E2F7817081957C
:102DA0008527842385278C932F5F3F4F253031055E
:102DB00059F70895990F990F890F982F9770869555
:102DC0008695869525E0829FF0011124E151FE4F02
:102DD00050E040E080E0219130E0092E02C03695BD
:102DE00027950A94E2F721703327042E01C0220FA1
:102DF0000A94EAF7822B4F5F5F4F4530510559F730
:102E00000895BF92CF92DF92EF92FF920F931F939C
:102E1000CF93DF938C01C090FE01D090FF01E09032
:102E20000002F09001028091020290910302A091B1
:102E30000402B0910502C82AD92AEA2AFB2ACFE166
:102E4000D0E0BC2ED701C6010C2E04C0B695A795C4
:102E5000979587950A94D2F780FD0EC0219788F741
:102E6000B12C8B2DDF91CF911F910F91FF90EF909F
:102E7000DF90CF90BF900895B8018C2F0E949603E9
:102E8000019761F3EECFCF93DF93EC010E9401171E
:102E9000BE01DF91CF910C9496031F93CF93DF93E4
:102EA000EB019091B601992331F0CB01DF91CF91E5
:102EB0001F910C944317882379F0CB010E940117CE
:102EC000182F682FCE010E94AE16BE01812FDF9110
:102ED000CF911F910C949603CB010E94DA16182F04
:102EE000F4CF682F80910801909109010C94B619D4
:102EF000682F80910801909109010C94C11980916B
:102F00000801909109010C94CC19809106028595D5
:102F10008595859508958091060287700895909112
:102F20000602977081E009F480E0089590915002C4
:102F300092FB222720F9281751F080FB92F99093F9
:102F4000500280914F02909150020C94971808956E
:102F50008091500282FB882780F991E089270C94A8
:102F6000961781E00C94961780E00C949617809148
:102F70002A02089590912A02892B80932A020895AB
:102F8000809590912A02982390932A020895109296
:102F90002A02089590912902892B8093290208958D
:102FA0008095909129029823909329020895109278
:102FB0002902089590912802892B80932802089570
:102FC000809590912802982390932802089510925A
:102FD0002802089580910702089508950C94ED1732
:102FE0009091500292FD08C090910702981721F02D
:102FF000809307020C94EE170895809107028823AE
:1030000029F01092070280E00C94EE170895E091E9
:103010000801F091090180912A028083E091080162
:10302000F0910901808190912902892B8083E091A0
:103030000801F0910901808190912802892B8083F9
:1030400090910702992381F0E0910801F091090124
:103050008081892B808380910801909109010E94D1
:10306000221981110E94FD17809108019091090198
:103070000C94300D08950C943A189091500292FDE2
:1030800010C098E0899F90011124622B6093060282
:103090000E941216809106028595859585950C945F
:1030A0003B180C9412161092060280E00C943B1808
:1030B000909106028095892380930602282F27701D
:1030C00039F4282F082E000C330B9217130621F425
:1030D0009091500292FF07C08595859585950E9435
:1030E00033160C945318089580E0089590E080E022
:1030F0000E94C82121E08A3E9E4F09F020E0822FE5
:10310000089582E090E00C94C02183E090E00C945C
:10311000C021CF9384E090E00E94C021C82F82E2BA
:1031200090E00E94C021982F8C2FCF910895CF93CB
:10313000C92F682F84E090E00E94CE216C2F82E29C
:1031400090E0CF910C94CE21AB01BC018FE090E0D8
:103150000C94E021AB01BC0183E190E00C94E021F0
:1031600060E070E0CB010C94AA1860E070E0CB0145
:103170000E94A4180C94B0186AEE7EEF90E080E0F4
:103180000E94EC2160E082E090E00E94CE2160E0AD
:1031900083E090E00E94CE2110920202109203027E
:1031A000109204021092050260E084E090E00E9418
:1031B000CE2160E082E290E00E94CE2160E085E0D6
:1031C00090E00E94CE2160E086E090E00E94CE2157
:1031D0006FEF87E090E00E94CE2140E050E0BA011E
:1031E00088E090E00E94E02160E08DE090E00E94A5
:1031F000CE2140E050E0BA0188E190E00E94E02159
:1032000060E087E190E00E94CE2140E050E0BA010A
:103210008CE190E00E94E02170E060E080E290E0CC
:103220000E94EC2140E050E0BA0188E190E00E9469
:10323000E0210C94B5180C94BC18682F8EE090E037
:103240000C94CE21FC01329680911401882321F048
:1032500080914F029EE187FF96E080E0915008F454
:10326000089521912223D1F38F5FF8CF662301F1D6
:10327000209114012223F1F020914F0227FF1AC060
:10328000462F4695469546954E3190F4677021E05D
:1032900030E002C0220F331F6A95E2F7840F911DC0
:1032A000FC01828190E02823392381E0232B69F4FB
:1032B00080E00895FC01329608962191261721F0AE
:1032C000E817F907D1F7F4CF81E008959C01FC01DC
:1032D00032969FEF80E04191461751F09F3F19F4DD
:1032E000411101C0982F8F5F8630A9F79F3F09F4E5
:1032F0000895290F311D97FD3A95F90162830895CC
:10330000FC01329608962191261303C0DF01119724
:103310001C92E817F907B9F70895E62FE695E695A8
:10332000E695EE3168F4E80FF92FF11D677021E0A2
:1033300030E001C0220F6A95EAF78281822B8283F6
:103340000895E62FE695E695E695EE3170F4E80FE0
:10335000F92FF11D677021E030E001C0220F6A955E
:10336000EAF7209582812823228308952091140171
:10337000222329F020914F0227FD0C948D190C94E3
:10338000661920911401222329F020914F0227FD74
:103390000C94A1190C948019FC01329680911401AF
:1033A000882351F080914F0287FF06C08EE1DF0134
:1033B0001D928A95E9F7089586E0F9CF089508955A
:1033C0000C94DF1980916302843049F10E94E01966
:1033D00080E00E946E0310922C0288E190E020E4CD
:1033E0000FB6F894A895809360000FBE20936000FC
:1033F00083B7817F846083BF83B7816083BF789404
:10340000889583B78E7F83BF0FB6F894A895809177
:103410006000886180936000109260000FBE089584
:103420000895CF930E94DE190E9405060E94101A8B
:10343000C0E08C2F0E94AA05811105C0CF5FC53066
:10344000C1F7CF91089581E0FCCF08950C94251A1F
:103450000E9418120E94240D0E946E030C94261ADA
:103460001F921FB61F9211248F939F93AF93BF9308
:1034700080912C02811113C080915B0290915C02BB
:10348000A0915D02B0915E024196A11DB11D809395
:103490005B0290935C02A0935D02B0935E02BF91C9
:1034A000AF919F918F911F901FBE1F90189582E042
:1034B00084BD93E095BD9AEF97BD80936E0008950B
:1034C0002FB7F89480915B0290915C02A0915D020D
:1034D000B0915E022FBF08952FB7F89460915B0200
:1034E00070915C0280915D0290915E022FBF089501
:1034F0009C014FB7F89480915B0290915C02A0917F
:103500005D02B0915E024FBF821B930B08957894C9
:103510001F921FB61F9211248F939F93AF93BF9357
:1035200080915B0290915C02A0915D02B0915E027D
:103530000196A11DB11D80935B0290935C02A09344
:103540005D02B0935E02BF91AF919F918F911F90EA
:103550001FBE1F90189581E08093E00080E2809369
:10356000D8001092C9008FE19EE40197F1F700C0E6
:10357000000087E090EBDC0180936C0290936D0279
:10358000A0936E02B0936F0288E19CE00FB6F894AE
:10359000A895809360000FBE90936000FFCF90933A
:1035A0008B0180938A01089580914D020895CF93F5
:1035B000DF9300D00F92CDB7DEB7909163029430C5
:1035C00019F589837B836A8382E08093E9008FEF1A
:1035D0009091E800815095FD06C095ED9A95F1F720
:1035E00000008111F5CF8091E80085FF0DC050E00B
:1035F00040E063E070E0CE0101960E94011D8091E1
:10360000E8008E778093E8000F900F900F90DF9185
:10361000CF910895BC0184E00C94D71ABC0183E0DB
:103620000C94D71A9C0182E08093E9009FEF80916F
:10363000E800915085FD06C085ED8A95F1F7000000
:103640009111F5CF8091E80085FF0CC050E040E07B
:1036500066E070E0C9010E94011D8091E8008E774C
:103660008093E8000895CF93DF93EC0180911401DB
:103670008823B1F180914F0287FF32C060E282E07F
:103680008093E9008FEF9091E800815095FD06C08E
:1036900095ED9A95F1F700008111F5CF8091E80042
:1036A00085FF1BC08091140170E050E040E0811163
:1036B00004C050E040E068E070E0CE010E94011DCF
:1036C0008091E8008E778093E80080E2FE01ADE211
:1036D000B2E001900D928A95E1F7DF91CF910895C4
:1036E00068E081E0CDCF80916202811109C00E9423
:1036F000911E0E94EE1E8091E20084608093E200A1
:10370000089510926202089508950895089542E080
:1037100061EC81E00E940D1E42E261EC82E00C94BB
:103720000D1E80916502833009F45FC030F4813052
:10373000C1F1823009F49BC008958A3009F487C032
:103740008B3009F46DC0893009F04EC0809164025D
:10375000813209F049C08091680290916902029714
:1037600008F042C08091E800877F8093E800809154
:10377000E80082FF35C09091F3008091F20002973B
:1037800029F48091F1008B7F813021F48091F10048
:1037900080934D028091E8008B778093E8000C9431
:1037A000411E80916402813AF9F48091E800877F9C
:1037B0008093E8008091680290916902892B61F4FE
:1037C00060E28DE292E070E00E94501D8091E8007E
:1037D0008B778093E800089560E090E080E0F3CF7D
:1037E000809163028111C3CF089580916402813A70
:1037F000D9F78091680290916902892BA9F780918D
:10380000E800877F8093E8008091E80080FFFCCF8C
:10381000809114018093F1008091E8008E77BDCFF4
:1038200080916402813201F780916802909169026F
:10383000892BD1F68091E800877F8093E8000E9471
:10384000411E80916602809314010C94181280919D
:103850006402813249F68091E800877F8093E80016
:103860000E94411E8091670280934E0208958091CC
:103870006402813A09F0B8CF8091E800877F809395
:10388000E8008091E80080FFFCCF80914E02C2CF1B
:1038900084B7877F84BF0FB6F894A89580916000A5
:1038A000886180936000109260000FBE80E890E015
:1038B0000FB6F89480936100909361000FBE0E9450
:1038C000A50D0E94911E0E94EE1E8091E200846070
:1038D0008093E20078940E9477210E94B90D8AE0DB
:1038E00091E00E941F0D80916302853099F00E9443
:1038F000BF0D0E94B50DF7CF0E94E21980916102C1
:10390000882341F00E94111A882321F00E94EB1CA9
:103910000E94181280916302853071F30E94281A68
:10392000E6CF0C94931C292F33272330310519F14E
:1039300068F42130310509F444C02230310509F41E
:1039400045C090E080E030E020E025C02132310524
:1039500049F122323105A9F780E490E024EC32E00D
:1039600061157105C1F086EB90E02EE032E0613028
:10397000710589F0E6CF99278130910581F0009794
:1039800029F00297F1F6E7E8F1E002C0EDEBF1E093
:10399000849190E09F01FA01318320830895E5E945
:1039A000F1E0F6CF89E090E023ED31E0611571059B
:1039B00091F389E090E02CEE31E06130710559F32C
:1039C000C0CF82E190E02CEF31E0E5CF8BE390E0D7
:1039D00021EC31E0E0CF80E189BD82E189BD09B40D
:1039E00000FEFDCF8091D8008F7D8093D80080911C
:1039F000E00082608093E0008091E00081FDFCCFD8
:103A00000895AF92BF92CF92DF92FF920F931F93D0
:103A1000CF93DF936C01EB018A010E94601EF82EA8
:103A2000811123C00115110539F0F80180819181C0
:103A3000C81BD90BC80ED91EB12CA12C2097A9F0F8
:103A40008091E80085FD22C08091E8008E77809308
:103A5000E80001151105A1F0F80180819181A80EFF
:103A6000B91EB182A08285E0F82E8F2DDF91CF9113
:103A70001F910F91FF90DF90CF90BF90AF9008956E
:103A80000E94601E8823D1F2F82EEFCFF6018191BB
:103A90006F018093F1002197FFEFAF1ABF0ACECFDD
:103AA000FC0180916A0290916B0286179707A0F043
:103AB0006115710529F49091E8009E779093E800D4
:103AC00090E06115710551F4911108C08091E800F2
:103AD00082FF34C080E00895BC01F2CF8091630280
:103AE0008823C1F18530C1F18091E80083FD30C0A9
:103AF0008091E80082FDEACF8091E80080FFE1CF6D
:103B00008091F3002091F200382F6115710519F0B2
:103B10002830310558F091E02830310509F090E067
:103B20002091E8002E772093E800CBCF81918093FD
:103B3000F100615071092F5F3F4FE7CF8091630221
:103B4000882341F0853041F08091E80083FFBECFAB
:103B500081E0089582E0089583E00895FC0180915A
:103B60006A0290916B0286179707A0F061157105A4
:103B700029F48091E8008E778093E80090E0611549
:103B8000710551F4911108C08091E80082FF35C0A1
:103B900080E00895BC01F2CF809163028823C9F1CF
:103BA0008530C9F18091E80083FD31C08091E80043
:103BB00082FDEACF8091E80080FFE1CF8091F300A1
:103BC0002091F200382F6115710519F02830310568
:103BD00058F091E02830310509F090E08091E8003C
:103BE0008E778093E800CBCF84918093F10031965B
:103BF000615071092F5F3F4FE6CF809163028823A8
:103C000041F0853041F08091E80083FFBDCF81E035
:103C1000089582E0089583E00895982F973028F062
:103C20008F708093E90081E008959093E900242F3C
:103C3000762F50E0981731F07091EC002091ED0054
:103C40005091F00021FD02C09F5FE8CF3091EB0062
:103C50003E7F3093EB003091ED003D7F3093ED00DF
:103C60003091EB0031603093EB007093EC002093C7
:103C7000ED005093F0002091EE0027FDE5CF80E0AD
:103C800008958091640287FF13C08091E80082FF4D
:103C900006C08091E8008B778093E80004C0809193
:103CA00063028111F2CF0895809163028823D9F3D2
:103CB0008091E80080FFF8CF8091E8008E77ECCF0C
:103CC0002091E4003091E50095E6A9012091EC00F7
:103CD000822F817020FF06C08091E80080FF06C01F
:103CE00080E008952091E80022FD1AC080916302CF
:103CF000882389F0853089F08091EB0085FD0FC025
:103D00002091E4003091E50042175307F9F29150F9
:103D1000E1F684E0089582E0089583E0089581E06B
:103D200008950E94FF1E0E94071FE0EEF0E08081D0
:103D300081608083E8EDF0E080818F77808319BC1B
:103D4000A7EDB0E08C918E7F8C9380818F7E8083F5
:103D50001092620208950F931F93CF93DF930E94F6
:103D6000FF1E0E94071FC8EDD0E088818F778883EF
:103D700088818068888388818F7D888319BC1092B0
:103D8000630210925F02109261021092600200EED4
:103D900010E0F80180818B7F808388818160888337
:103DA00042E060E080E00E940D1EE1EEF0E08081E4
:103DB0008E7F8083E2EEF0E080818160808380816D
:103DC00088608083F80180818E7F80838881806114
:103DD0008883DF91CF911F910F910895E8EDF0E076
:103DE00080818F7E8083E7EDF0E080818160808339
:103DF00084E082BF81E0809362020C94AB1EE8ED08
:103E0000F0E080818E7F80831092E200089510920E
:103E1000DA001092E10008951F920F920FB60F92F0
:103E200011242F933F934F935F936F937F938F93BF
:103E30009F93AF93BF93EF93FF938091E10082FF35
:103E40000BC08091E20082FF07C08091E1008B7F70
:103E50008093E1000E9476218091DA0080FF19C0F2
:103E60008091D80080FF15C08091DA008E7F80930A
:103E7000DA008091D90080FF96C080E189BD82E19F
:103E800089BD09B400FEFDCF81E0809363020E94EA
:103E9000731B8091E10080FF19C08091E20080FFD8
:103EA00015C08091E2008E7F8093E2008091E20055
:103EB00080618093E2008091D80080628093D80076
:103EC00019BC85E0809363020E94851B8091E1000C
:103ED00084FF2BC08091E20084FF27C080E189BD70
:103EE00082E189BD89B5982F917080FFFBCF8091C9
:103EF000D8008F7D8093D8008091E1008F7E8093E1
:103F0000E1008091E2008F7E8093E2008091E200E8
:103F100081608093E20080915F02882309F449C0A8
:103F200084E0809363020E94861B8091E10083FFFE
:103F300029C08091E20083FF25C08091E100877F46
:103F40008093E10082E08093630210925F0280918F
:103F5000E1008E7F8093E1008091E2008E7F80936C
:103F6000E2008091E20080618093E20042E060E044
:103F700080E00E940D1E8091F00088608093F00028
:103F80000E94841BFF91EF91BF91AF919F918F9100
:103F90007F916F915F914F913F912F910F900FBE45
:103FA0000F901F90189519BC109263020E94811BFC
:103FB00070CF8091E30087FD93E090936302B3CFCD
:103FC0001F920F920FB60F9211242F933F934F938E
:103FD0005F936F937F938F939F93AF93BF93CF9391
:103FE000DF93EF93FF93D091E900DF708091EC00B5
:103FF000C82FC17080FDC0E81092E9008091F000E8
:10400000877F8093F00078940E9424201092E9002A
:104010008091F00088608093F000CD2BCF70C0932A
:10402000E900FF91EF91DF91CF91BF91AF919F9107
:104030008F917F916F915F914F913F912F910F9051
:104040000FBE0F901F9018951F93CF93DF93CDB79E
:10405000DEB7AA970FB6F894DEBF0FBECDBF84E6D9
:1040600092E02091F100FC012193CF01F2E08C3627
:104070009F07B9F70E94911B8091E80083FF1EC142
:1040800080916402909165029A3008F017C1E92F7F
:10409000F0E0EF59FD4D0C94A621803899F082385C
:1040A00009F00CC1809168028F70873008F006C15A
:1040B0008093E9008091EB0085FB882780F91092BE
:1040C000E90006C0809160029091610291118260C6
:1040D0009091E800977F9093E8008093F100109210
:1040E000F1008091E8008E77E5C0882309F4D3C001
:1040F000823009F0E3C0809166028111D6C08091C0
:1041000068028F702FEF280F263008F0D7C08093F9
:10411000E9002091EB0020FFC8C0933031F480917A
:10412000EB0080628093EB00C0C09091EB00906147
:104130009093EB0021E030E001C0220F8A95EAF76E
:104140002093EA001092EA008091EB008860EACFA9
:104150008111B4C0109166021F778091E3008078CE
:10416000812B8093E3008091E800877F8093E800B3
:104170000E94411E8091E80080FFFCCF8091E30007
:1041800080688093E30082E0111183E080936302F2
:1041900095C08058823008F091C08091660290915D
:1041A00067028C3D23E09207A1F583E08A838AE2CF
:1041B00089834FB7F894DE01139620E03EE051E288
:1041C000E32FF0E050935700E49120FF03C0E29505
:1041D000EF703F5FEF708E2F90E0EA30C0F0C7962F
:1041E0008D939D932F5F243159F74FBF8091E80045
:1041F000877F8093E8006AE270E0CE0101960E941A
:10420000501D8091E8008B778093E80057C0C096DE
:10421000E7CF6091680270916902AE014F5F5F4F16
:104220000E94911CBC01892B09F448C09091E800C0
:10423000977F9093E80089819A810E94AE1DE1CF1B
:104240008038E1F58091E800877F8093E8008091D5
:104250005F028093F10045CF811130C090916602DA
:10426000923060F58091E800877F8093E80090931A
:104270005F020E94411E80915F02882311F084E05A
:1042800005C08091E30087FDFACF81E0809363024F
:104290000E94871B13C080916602813079F481E00F
:1042A000933009F080E0809361021092E9008091E0
:1042B000E800877F8093E8000E94411E8091E8001B
:1042C00083FF0AC08091E800877F8093E800809197
:1042D000EB0080628093EB00AA960FB6F894DEBFE5
:1042E0000FBECDBFDF91CF911F9108950895CF9359
:1042F000809163028823A1F0C091E900CF70909172
:10430000EC00892F817090FD80E8C82B1092E900A5
:104310008091E80083FD0E942420CF70C093E900C3
:10432000CF91089597FB072E16F4009407D077FDE0
:1043300009D00E94AC2107FC05D03EF490958195F0
:104340009F4F0895709561957F4F0895EE0FFF1F61
:104350000590F491E02D0994AA1BBB1B51E107C005
:10436000AA1FBB1FA617B70710F0A61BB70B881F05
:10437000991F5A95A9F780959095BC01CD01089594
:10438000F999FECF92BD81BDF89A992780B508951D
:10439000A8E1B0E042E050E00C94F421262FF99916
:1043A000FECF92BD81BDF89A019700B4021639F094
:1043B0001FBA20BD0FB6F894FA9AF99A0FBE089565
:1043C0000396272F0E94CF210E94CE21252F0E94E5
:1043D000CF21242F0C94CF210196272F0E94CF218B
:1043E0000C94CE21DC01CB01FC01F999FECF06C073
:1043F000F2BDE1BDF89A319600B40D9241505040A3
:10440000B8F70895F894FFCFA7079E07AA079C075F
:10441000EF07EF079C07EF07EF07C607EF07D10786
:10442000DC07EF07EF07EF07EF079C07EF07EF0742
:104430009C07EF07B807EF07EF07ED07ED07ED075C
:10444000ED07ED07ED07ED07ED07ED07E707EF07D0
:10445000A7079A07EF07EF07EF07EF07EF07EF0749
:10446000EF07EF07EF07EF07E707EF07EF079C07F7
:10447000EF07EB07EB07EB07EB07EB07EB07EB07A8
:10448000EB07EB07E707E10FE10F391039108B104D
:10449000A7100E100E10B2103E114D114D11A911A2
:1044A0000E100E10B21127122712301230123212D3
:1044B00030123012301227122712371230123012F7
:1044C00037124D2075205E2175205E21A820C9205D
:0644D0005E2120212C21D9
:1044D6002808641E140A321E0802D41A331B121B43
:1044E6000E1B0A1B01E200E900EA00B500B600B7A0
:1044F60000CD008301CC008A0192019401210223A0
:104506000224022502260227022A02B300B4006F03
:10451600007000818283F4339735946636C6340181
:10452600020304050607080900E200E900EA00B5EF
:1045360000B600B700CD008301CC008A0192019439
:10454600012102230224022502260227022A02B39F
:0A45560000B4006F00700081828342
:00000001FF
