:100000000C9452020C9499020C9499020C9499024B
:100010000C9499020C9499020C9499020C949902F4
:100020000C9499020C9499020C94E91E0C94BD1F37
:100030000C940D1A0C9499020C9499020C94990248
:100040000C9499020C9499020C9499020C949902C4
:100050000C9499020C94641A0C9499020C949902D1
:100060000C9499020C9499020C9499020C949902A4
:100070000C9499020C9499020C9499020C94990294
:100080000C9499020C9499020C9499020C94990284
:100090000C9499020C9499020C9499020C94990274
:1000A0000C9499020C9499020C9499027923547639
:1000B00033304436363F0101280053454C45435404
:1000C00020544F5020313030202A2046524F4D20AE
:1000D0000002511E001F00200021002200230024E6
:1000E000002500260027002D002E0064004C002B68
:1000F0000014001A000800150017002F001C00183B
:10010000000C001200130038002A004A00390004D5
:10011000001600070009000A0034000B000D000E55
:10012000000F003300280000004D00E1001D001BFF
:100130000006001900050005001100100036003708
:1001400000E50000005200165CE0000000E2000044
:10015000002C00650000002C000000E300000000FF
:1001600000500051004F000100010001000100019A
:100170000001000100010001000100010001000177
:100180000001000100010001000100090013000A44
:100190000001000D000F0018001C003300010001D9
:1001A0000001000100010015001600170007000102
:1001B000000100110008000C001200010000000105
:1001C0000001000100010001000100010001000E1A
:1001D0000001000100010001000000010001000118
:1001E000000000010000000100010000000100000B
:1001F0000001000000000001000100010001003AC0
:10020000003B003C003D003E003F004000410042FA
:10021000004300440045000100005C105001000153
:100220000001000100010030000100010001000197
:10023000000100010001004B00115002000100000C
:1002400000010001000100010001000100010001A6
:1002500000010000004E000100010001000100014A
:100260000032000100010001000100010001000056
:100270000001000100010000000100000001000178
:10028000000000010000000100000000000100016A
:1002900000010000000000000000002A2B280000E0
:1002A0000000000000000000000000000000290025
:1002B0000000002C1E3420212224342627252E362F
:1002C0002D3738271E1F202122232425263333369D
:1002D0002E37381F0405060708090A0B0C0D0E0FF0
:1002E000101112131415161718191A1B1C1D2F3173
:1002F00030232D350405060708090A0B0C0D0E0FD7
:10030000101112131415161718191A1B1C1D2F3152
:1003100030354C000000000000000000000000002C
:1003200000000000000000000000000000000000CD
:10033000000000000000007E0F00D4FFFFFFC70098
:100340000000780C03610072006900730075000002
:10035000000A034600610074006500000004030900
:100360000409023B00020100A0FA09040000010395
:10037000010100092111010001224000070581034C
:1003800008000A090401000103000000092111010D
:10039000000122B6000705820320000A12011001A5
:1003A000000000087EFA00000100010200010501C2
:1003B0000902A10185020901A10005091901290805
:1003C00015002501950875018102050109300931E3
:1003D0001581257F95027508810609381581257FCD
:1003E000950175088106050C0A38021581257F954F
:1003F0000175088106C0C005010980A101850319A6
:10040000012AB700150126B700950175108100C0BB
:10041000050C0901A101850419012AA00215012674
:10042000A002950175108100C005010906A1018592
:1004300005050719E029E7150025019508750181D3
:10044000020507190029EF1500250195F0750181B6
:100450000205081901290595057501910295017597
:10046000039101C005010906A101050719E029E76B
:100470001500250195087501810295017508810116
:100480000507190029FF150026FF0095067508814C
:100490000005081901290595057501910295017559
:1004A000039101C011241FBECFEFDAE0DEBFCDBF44
:1004B00004B603FE27C080919E0290919F02A091F6
:1004C000A002B091A1028730904BA740B04BD1F46D
:1004D00010929E0210929F021092A0021092A1020E
:1004E00014BE84B7877F84BF0FB6F894A895809117
:1004F0006000886180936000109260000FBEE0E0B1
:10050000F8E3099511E0A0E0B1E0E2E1F4E402C013
:1005100005900D92AC38B107D9F722E0ACE8B1E014
:1005200001C01D92AE39B207E1F70E94251C0C9460
:10053000DF210C940000FB018130910571F00097E0
:1005400021F0029791F081E0089582818823D9F308
:100550008AEB90E00E94AC04F6CF8281882399F365
:1005600088E193E00E941C03EECF8281882359F337
:100570008CEA90E0EFCFCF93DF939C013A95211561
:100580003F4168F5EC01CC27D170DC01AA27B2709D
:10059000AC01442754709C012227387094FF11C08D
:1005A00080E1CD2B09F480E0AB2B09F08062452B74
:1005B00009F08064232B09F08068FB01DF91CF9163
:1005C000099481E0CD2B09F480E0AB2B09F0826027
:1005D000452B09F08460232B81F38860EECFDF91F7
:1005E000CF910895CF93DF93EC01805E9109089736
:1005F00020F069EC71E1209711F466E67FE0CE010E
:100600000E94BB028C2FDF91CF910C945F0ECF9391
:10061000DF93EC010E94F10ECE01805E91090897F4
:1006200020F060ED71E1209711F46DE67FE0CE01DE
:10063000DF91CF910C94BB02CF93DF93EC010E942A
:10064000F202CE01DF91CF910C94070381E008956F
:100650000C949B0208950C942A031F93CF93DF936D
:1006600000D000D00F92CDB7DEB749835A836B8399
:100670003091BB0189819A8131111DC06623B9F087
:100680002223A9F00E94D716182F682F89819A81FA
:100690000E94831669817A81812F0F900F900F90AD
:1006A0000F900F90DF91CF911F910C94C2040E9484
:1006B000AF16182FEFCF0E94D71669817A81EDCF40
:1006C000FC01262F408151816281738184810C94C9
:1006D0002D03CF93DF93EC0160E00E946003BE0125
:1006E000DF91CF910C942B030E94E5060C940A072E
:1006F0000C940D0708950E94ED110E947A032FEFCC
:1007000084E39CE0215080409040E1F700C000006D
:100710000C94881A0F931F93CF93DF938C0161E0A1
:100720000E946003EC01B8010E9428038823A9F10C
:10073000B801CE010E94370B882379F1B801CE01B0
:100740000E94890B882349F1B801CE010E94AC0CAC
:10075000882319F1F8018281882361F0CB35FDE50A
:10076000DF0721F170F4C115ECE5DE07A1F0CF3D04
:10077000DC45C9F0C801DF91CF911F910F910C9416
:100780002603CC358DE5D807A1F0CD35DD4591F7B1
:100790000E947E17EFCF0E947B0380E0DF91CF9114
:1007A0001F910F9108950E94F718F7CF0E948717A5
:1007B000E1CF0E948A17DECFDF92EF92FF920F9374
:1007C0001F93CF93DF93E82FF0E0ED56FD4FD490C9
:1007D000282F26952695269530E0F901ED5CFC4FF3
:1007E0000491877010E0082E02C0159507950A94B1
:1007F000E2F701701127F901ED5DFC4FE490F12C57
:10080000082E02C0F594E7940A94E2F791E0E922F9
:10081000FF24F901ED5EFC4FC491D0E002C0D595F4
:10082000C7958A95E2F7C170DD270115110519F00A
:1008300081EE0E945F0EE114F10419F086EE0E9431
:100840005F0E8D2D0E945E0FEF2819F086EE0E943C
:10085000F10E012B19F081EE0E94F10ECD2B51F01B
:100860008CE2DF91CF911F910F91FF90EF90DF907D
:100870000C945E0FDF91CF911F910F91FF90EF903D
:10088000DF900895EF92FF920F931F93CF93DF9322
:100890008C01F62E8AE0E82EF8018491882309F471
:1008A00054C0813009F04DC0E8012196FE018491C9
:1008B000813091F42196FE0184910E945E0F8E0199
:1008C0000F5F1F4F8F2D815038F3EFE9FFE0319715
:1008D000F1F700C00000F7CF823039F4E80122962A
:1008E000FE0184910E945F0EEACF833039F4E80163
:1008F0002296FE0184910E94F10EE1CF8430F9F638
:10090000E8012296FE01249190E080E0FE013196FC
:100910002053330B2A30310548F0019780F2EFE97C
:10092000FFE03197F1F700C00000F7CFE89EA0018B
:10093000E99E500D1124C901840F951F2491EF01E8
:10094000E5CF0E94DC03E801BACFDF91CF911F9180
:100950000F91FF90EF90089560E00C944204089589
:100960000C94AF0481E008950C94B204CF93C82F87
:100970000E94B0048C2FCF910C94B40490E080E0DE
:1009800008950895972F70E02FE0929F600D711DDC
:100990001124FB019BE4899FE00DF11D1124EE0F52
:1009A000FF1FEF52FF4F859194910895FC01EE0FC8
:1009B000FF1FED5BFC4F859194910895CF93DF93DA
:1009C0000E94C2040E94F305EC01811520E5920704
:1009D00008F042C0811530E4930708F0BDC0883E9E
:1009E000910528F5803E910508F09DC0883A910553
:1009F00088F4853A910508F08FC08130910509F49B
:100A000092C0009709F48FC0049708F08CC0D0E022
:100A1000C0E089C08F3B910508F489C0805C9109D2
:100A2000C03CD105A0F30E94D604EC017CC0811526
:100A3000904250F4C11581E0D80708F074C0CD3E53
:100A4000D10528F3D0656FC0C11590E3D90708F030
:100A500079C0CE019F70E7CF811525E5920758F543
:100A6000811534E5930708F0A6C0811542E5940787
:100A700050F4C11581E5D80708F471C0DC2FCC27EC
:100A8000C16FD06A50C0982F969596959E0123709D
:100A90003327C115D34508F07FC0C1E0D0E002C0C4
:100AA000CC0FDD1F2A95E2F720E2929FC0011124AE
:100AB000C82BD92B6FC0C11589E5D807A8F4C1157B
:100AC00098E5D90708F07CC0C11526E5D20708F0E3
:100AD0009ECF8C2F0E948A06C82FD0E0DC2FCC2717
:100AE000CC27DF71D0621FC0C1153AE5D30708F4E7
:100AF0006CC0CE0190568115904208F088CF8D2FA2
:100B00008F710E948A0690E0982F882788279F710E
:100B10009C012C2BE901E6CFC55AD0E0CD5BDE4F1E
:100B2000C881D0E0D064CE01DF91CF910895C85A3A
:100B3000D0E0CC0FDD1FCB5EDE4F0990D881C02DF9
:100B4000D464F1CFCE019927D3FF03C0EC01D86C58
:100B5000EACFEC01D06CE7CFDF70D06AE4CFCE01F2
:100B6000E4E096958795EA95E1F783702C2F26951A
:100B70002695237090E2299F90011124382B8C2F09
:100B80008370C1E0D0E002C0CC0FDD1F8A95E2F790
:100B9000C22BD32BDC68C7CFC1E0D0E002C0CC0FA2
:100BA000DD1F2A95E2F730E2939FC0011124C82B84
:100BB000D92BDA68B8CFD82FCC27C46FD06AB3CF7F
:100BC000DC2FCC27C06FD06AAECF8C2F8F700E94E5
:100BD0008A0634E0D695C7953A95E1F7CF709C2FF9
:100BE000EC01D069A0CF82389105B1F1B0F4813326
:100BF000910509F475C048F48932910509F469C07A
:100C00008A32910509F473C008958533910509F47A
:100C100059C08933910501F10895833E9105A9F1E9
:100C200038F4803E9105F9F0823E910549F108952E
:100C3000863E9105A9F1873E9105C9F1843E910553
:100C400019F52091780221FF1FC08091770284FD61
:100C500014C087EE90E00895209177022370A1F0F0
:100C600080EE90E008952091770220FD47C03091FA
:100C7000780230FF09C024FF44C090E080E004C047
:100C80002091770222FDF7CF08952091770222FD6F
:100C90003BC03091780230FDE3CF24FFF5CFEDCF9C
:100CA0002091770223FFF0CF24FDE7CFD2CF209110
:100CB000770223FD2CC03091780231FFEECF84EE15
:100CC00090E008952091770225FFDECF89E290E041
:100CD00008952091770225FFD7CF85E390E008950E
:100CE0002091770226FFD0CF8AE290E008952091EC
:100CF000770226FFC9CF81E390E0089589E390E071
:100D0000089583EE90E0089582EE90E0089586EED7
:100D100090E008959091770292FF06C0282F2871E5
:100D20002830F9F4877F846093FF06C0282F28714C
:100D30002831F1F4877E84612091780220FF06C07B
:100D4000382F38713830D9F4877F816021FF06C091
:100D5000282F28712831D1F4877E816194FD877E08
:100D60000895282F24712430F9F68B7F8860DCCF1A
:100D7000282F2471243101F78B7E8861DDCF382F35
:100D80003171313019F78E7F8860E0CF282F2171C3
:100D9000213121F78E7E8861E1CF0C944C180E949E
:100DA00086078FE39CE90197F1F700C000000E94DD
:100DB000860780E00E940F0780FF04C00E94CD06D6
:100DC0000C94881A08950C94CF060E945218811131
:100DD00002C00E94F7180E945D18809353020E947F
:100DE000651890937802809377020E94E3060E9430
:100DF0006118682F70E090E080E00E948515609196
:100E000026027091270280912802909129020C9469
:100E1000BF1508950C94090708950C940C07E82F4A
:100E2000F0E0EE0FFF1FED57FD4F80819181089597
:100E3000089580EA8A95F1F7089500C008950C940A
:100E40001907F894E82FE295EF70F0E031A1282F10
:100E50002F7081E090E001C0880F2A95EAF7982F63
:100E60009095932391A392A1892B82A378940895BE
:100E70000F931F93CF93DF9380E90E94210781E9AD
:100E80000E94210782E90E94210783E90E9421072D
:100E900085E90E942107C6E4D1E005E511E08991CA
:100EA0000E9421070C171D07D1F710927A021092A9
:100EB0007902109284021092830210927C021092A6
:100EC0007B02109286021092850210927E0210928E
:100ED0007D02109288021092870210928002109276
:100EE0007F0210928A02109289021092820210925E
:100EF000810210928C0210928B0285E00E940608FB
:100F0000DF91CF911F910F910C947403AF92BF9218
:100F1000DF92EF92FF920F931F93CF93DF93C5E57C
:100F2000D1E009E712E0D12CEE24E394F12C899171
:100F3000F894E82FE295EF70F0E021A18F70A701FF
:100F400002C0440F551F8A95E2F7CA01922F982BD1
:100F500091A392A18095892382A378940E941D0772
:100F6000E6E4F1E030E020E0B12CA12C4191A42F87
:100F7000A295AF70B0E090968C9190E04F7002C057
:100F8000959587954A95E2F780FD3BC0C701022EF3
:100F900002C0880F991F0A94E2F7A82AB92A2F5F86
:100FA0003F4F2F30310511F7FE01319780810E94AC
:100FB00021070E941F07F80180819181A816B906B8
:100FC00019F1B182A08281E0D82A0E5F1F4FF1E0B3
:100FD000CA35DF0709F0ABCF2D2D45E063E872E09D
:100FE00089E792E00E9407080E9478038D2DDF9127
:100FF000CF911F910F91FF90EF90DF90BF90AF9036
:10100000089590E080E0C9CF80E0DECF0895FF92A0
:101010000F931F93CF93DF93F82E092F162FD72FFF
:10102000C42F222349F081E0809390010E943D1A51
:1010300090938F0180938E01809190018823A1F07D
:1010400080918E0190918F010E94551A069760F051
:10105000EF2DF02FA12FBD2F90E080E0D0E08C1776
:101060009D0744F010929001DF91CF911F910F9155
:10107000FF900895219131912D933D930196EFCFEB
:101080008091970180FF12C06091050185E0689F03
:10109000B001112475956795759567956038710550
:1010A000A8F561157105A1F1862F089581FF09C08A
:1010B0006091050185E0689FB001112475956795E1
:1010C000EDCF6091050182FD0AC0809196018823D1
:1010D000D1F09091040160910501891728F085E015
:1010E000689FB0011124DACF869FB001112485E0FA
:1010F000869F9001879F300D1124692F70E0C901F0
:101100000E946F21CBCF65E070E0CECF8FE70895CE
:1011100081E008958091970180FF0CC060910101EA
:1011200070E075956795759567956115710549F13D
:10113000862F089581FF06C06091010170E07595CA
:101140006795F3CF6091010182FD0BC090919501ED
:101150009923A1F06091000180910101961738F068
:10116000682F70E06038710500F38FE70895899F5C
:10117000C001112470E00E946F21F4CF61E070E0A3
:10118000D7CF81E008958D3E31F40E9440088195CB
:1011900080939B0108958E3E19F40E944008F8CF79
:1011A0008F3E31F40E944008819580939A01089502
:1011B000803F19F40E944008F8CF893F29F40E942B
:1011C0008A0880939C0108958A3F21F40E948A082E
:1011D0008195F7CF8B3F31F40E948A0881958093E7
:1011E0009D0108958C3F19F40E948A08F8CF9FE072
:1011F000980F983070F4815F990B21E030E001C0C6
:10120000220F8A95EAF780919901822B80939901A8
:1012100008958D3F31F4809197018160809397010B
:1012200008958E3F21F4809197018260F7CF8F3F20
:10123000B9F7809197018460F1CF40919A018D3E7A
:1012400059F480919B0187FF0DC010929B014111C1
:101250000BC01092960108C08E3E81F480919B01D4
:1012600018169CF3442381F080919C0190919D017C
:10127000892B09F05AC01092950108958F3E49F4C8
:1012800047FFF0CF10929A0180919B018111ECCF22
:10129000E0CF803F19F41416ACF3E4CF90919C0199
:1012A000893F29F41916F4F610929C01DBCF8A3F8E
:1012B00019F497FFD7CFF8CF90919D018B3F29F478
:1012C00097FFD0CF10929D01CDCF8C3F19F4191606
:1012D000CCF3C8CF9FE0980F983090F4815F990BC2
:1012E00021E030E0B90102C0660F771F8A95E2F76E
:1012F000CB01809590919901892380939901B2CF78
:101300008D3F31F4809197018E7F80939701AACF12
:101310008E3F21F4809197018D7FF7CF8F3F09F0A9
:10132000A1CF809197018B7FF0CF08950E943D1A45
:101330009C0190919A0180919B01982B21F0309310
:1013400094012093930190919C0180919D01982B91
:1013500021F0309392012093910188E991E00C945F
:10136000010DEF92FF920F931F93CF93DF9300D065
:1013700000D000D0CDB7DEB786E0E8E9F1E0DE01CD
:10138000119601900D928A95E1F7E0909A01F09004
:101390009B0100919C0110919D0110929A01109265
:1013A0009B0110929C0110929D018E2D8F2991F02E
:1013B00080919301909194010E94551AAC019091F3
:1013C0009601992309F43FC0809106018417150600
:1013D00008F447C0802F812B91F08091910190916A
:1013E00092010E94551AAC0190919501992309F43C
:1013F00077C0809102018417150608F47FC08091A0
:101400009A0190919B01892B90919C01892B90913D
:101410009D01892B11F00E94960986E0FE0131960C
:10142000A8E9B1E001900D928A95E1F726960FB6F2
:10143000F894DEBF0FBECDBFDF91CF911F910F910A
:10144000FF90EF900895209107018AE0289F900176
:1014500011242417350708F0BDCF9F5F90939601A4
:1014600002C09F3FD1F7EE2059F00E9440089FEF45
:101470001E140CF491E0899F802D112480939A0111
:10148000FF2059F00E9440089FEF1F140CF491E0D8
:10149000899F802D112480939B0130919A013323E1
:1014A00009F498CF20919B01222309F493CF45EBB7
:1014B0003403C0011124992359F090939A0145EB0C
:1014C000240390011124332339F030939B0182CF00
:1014D00081E080939A01F3CF81E080939B017ACFE2
:1014E000209103018AE0289F9001112424173507D9
:1014F00008F085CF9F5F9093950102C09F3FD1F781
:10150000002359F00E948A089FEF10160CF491E016
:10151000899F802D112480939C01112359F00E94F2
:101520008A089FEF11160CF491E0899F802D1124F9
:1015300080939D0130919C01332309F460CF209169
:101540009D01222309F45BCF45EB3403C001112434
:10155000992359F090939C0145EB240390011124A9
:10156000332339F030939D014ACF81E080939C0171
:10157000F3CF81E080939D0142CF86E0E8E9F1E07E
:10158000DF011D928A95E9F710929601109295015C
:101590001092970108950F931F93CF93DF93C42F59
:1015A000D22FFC0182818823C9F04093A0010E94C0
:1015B0003D1A90939F0180939E0180E28C0F8830AA
:1015C00008F050C0C77081E001C0880FCA95EAF7E3
:1015D000DF91CF911F910F910C94660F1091A00194
:1015E000141335C080919E0190919F010E94551A5D
:1015F000883C910560F5C0E2CD0F1D17B9F080E27F
:10160000810F883040F4177081E001C0880F1A956F
:10161000EAF70E946D0FC83048F481E09D2F977063
:1016200001C0880F9A95EAF70E94660F802F0E94EA
:101630005E0FC830B8F4D77081E001C0880FDA952A
:10164000EAF7DF91CF911F910F910C946D0F80E21B
:101650008C0F883038F4C77081E001C0880FCA95BC
:10166000EAF7EFCFDF91CF911F910F9108950F937C
:101670009C01CB01243F4CE5340759F1A8F4293DE6
:10168000FCE53F0701F12A3D4CE53407D1F1283D47
:101690003C4591F406E221EE41EE68ED7CE50E94C6
:1016A000CB0A80E00F910895263FFCE53F07E9F063
:1016B000B0F0273F3C45F9F0FC018281882339F1E5
:1016C0001092A001EFCF07E225EE45EE69ED7CE533
:1016D000E6CF06E221EE40EE64EF7CE5E0CF07E2E4
:1016E00025EE44EE65EF7CE5DACF06E221EE42EE30
:1016F00066EF7CE5D4CF07E225EE46EE67EF7CE5AA
:10170000CECF08E221E045EE6AED7CE5C8CF81E06E
:10171000C9CFCF93DF93EC01FB018281882309F4C9
:1017200019C1C230FCE5DF07C0F1C6319CE5D9071D
:1017300030F09E012B5F3C452930310570F50E9449
:1017400065189093780280937702C031ECE5DE074C
:1017500009F4CFC008F05BC0C8308CE5D80709F4A5
:10176000B6C088F5C430ECE5DE0709F4A8C0C0F4C3
:10177000C2308CE5D80709F49CC080917702826062
:10178000C330DC4509F498C08091770290917802CB
:101790000E9473180E94ED1180E0DF91CF910895AF
:1017A000809177028061C630ECE5DE0709F484C0E1
:1017B000809177028860C730DC4508F47DC0809155
:1017C0007702806279C0CC308CE5D80709F489C0F3
:1017D00070F4809177028C60CA30ECE5DE0709F482
:1017E0006BC008F478C0809177028E7F65C0CE30E0
:1017F0008CE5D80709F479C0809177028B7FCF30D0
:10180000DC4508F459C0809177028F7E55C0CC3FEB
:10181000ECE5DE0709F457C030F5C3318CE5D80795
:1018200009F46FC078F4C131ECE5DE0709F465C056
:10183000C231DC4509F0A8CF0E94ED1180917702FA
:101840008F773AC0C5318CE5D80709F462C008F437
:1018500076C0809178028160CB3FDC4509F094CF5F
:101860008093780291CFC115FDE5DF0709F44DC0E3
:1018700088F4809178028D7FCE3F9CE5D90781F373
:10188000809178028E7FCF3FDC4550F380917802C3
:101890008360E6CFC230FDE5DF0709F459C008F4E4
:1018A00044C080E0C330DD4509F06ECF0E94F918D6
:1018B0006BCF8091770281608093770265CF8091B2
:1018C00077028460F9CF809178028260C9CF8091DD
:1018D00077028064F1CF0E94ED11809177028068D9
:1018E000EBCF809177028D7FE7CF80917702877F62
:1018F000E3CF809177028F7DDFCF809177028F7B5E
:10190000DBCF80917702837FD7CF809178028C7F65
:10191000A7CF8091770282FB992790F921E0922747
:1019200090FB82F990FB83F9C7CF80917802982FC2
:10193000909591708E7F892B90FB81F991CF0E94B9
:10194000ED1190917702892F97FB87F98058B4CFDA
:1019500081E0ACCF81E021CFCF93DF93EB018631E3
:101960009C4511F50E948D179A81992399F08A7AE6
:1019700091E009F490E09093A101811109C089E2FE
:101980000E9447170E94DD1780E0DF91CF910895F4
:1019900085E3F6CF8091A101811104C089E20E9404
:1019A0004E17F0CF85E3FBCF81E0EFCF9093A701F7
:1019B0008093A6010895E091A601F091A7013097C8
:1019C00021F00190F081E02D099480E00895E091EC
:1019D000A601F091A701309799F0209114012223DC
:1019E00059F02091770227FF07C0DC012C91119656
:1019F0002C93119725E02C930280F381E02D09941C
:101A00000895E091A601F091A701309739F022E006
:101A1000DC012C930480F581E02D09940895209138
:101A2000A4013091A5012817390771F09093A50101
:101A30008093A401E091A601F091A701309721F0D5
:101A40000680F781E02D099408952091A20130913C
:101A5000A3012817390771F09093A3018093A20185
:101A6000E091A601F091A701309721F00084F18563
:101A7000E02D099408950E94491A6093B70170936C
:101A8000B8018093B9019093BA016093B301709348
:101A9000B4018093B5019093B601089585B780682D
:101AA00085BF85B7806885BF0895089508950C9413
:101AB000550D08950C94590D0E944E0D8AE498E13D
:101AC0000E94AC1A0E94560D0C94570D81E00895A7
:101AD0000C94660D089508950E946A0D0C946B0D88
:101AE0000E94341A0E9438070C945A0D8F929F92CC
:101AF000AF92BF92CF92DF92EF92FF920F931F931C
:101B0000CF93DF93CDB7DEB72A970FB6F894DEBF39
:101B10000FBECDBF0E94860781110E943B0D59EA7E
:101B2000852E51E0952E10E000E0A02E802F0E941F
:101B30000F076C01F401E190F1904F01E816F906EE
:101B400009F45CC08091530281FD0E941807C7010F
:101B50008C259D25B12CEE24E394F12C9C012E21A3
:101B60003F21232B09F444C00E94680D8823A9F06B
:101B7000BE82AF82CE20DF2081E0CD2809F480E054
:101B800088870E943D1A8160782F9A8789874E81C5
:101B90005F8168858A850E94280E000F111FF80159
:101BA000E755FE4F80819181E826F926F182E08297
:101BB0000E94B1090E94DB0C9091A8018917A9F13C
:101BC0000E94DB0C8093A8012A960FB6F894DEBF22
:101BD0000FBECDBFDF91CF911F910F91FF90EF907E
:101BE000DF90CF90BF90AF909F908F900C94B604F1
:101BF000B394EE0CFF1CFFE0BF12B0CF0F5F1F4F7E
:101C00000530110509F091CF8FEF89838A831B82FC
:101C10000E943D1A8160782F9D838C8349815A816F
:101C20006B818D810E94280EC3CF2A960FB6F8943F
:101C3000DEBF0FBECDBFDF91CF911F910F91FF90FF
:101C4000EF90DF90CF90BF90AF909F908F900895CE
:101C5000DF92EF92FF920F931F93CF93DF93CDB755
:101C6000DEB72B970FB6F894DEBF0FBECDBF7A87D5
:101C70008B87F42E052F162FE72ED82E61110E9488
:101C8000AD171E821D827E2DEC82DD824F2D502FDE
:101C9000612F8D2D9E812B960FB6F894DEBF0FBE5F
:101CA000CDBFDF91CF911F910F91FF90EF90DF900B
:101CB0000C946314FC01808191810C941917CF93CB
:101CC000C82F882309F48BC08238C1F40E94DB0C32
:101CD00081FD85C089E30E9447170E94DD172FEF21
:101CE00081EE94E0215080409040E1F700C0000078
:101CF00089E30E944E17CF910C94DD178338A1F42D
:101D00000E94DB0C80FD6BC083E50E9447170E9498
:101D1000DD172FEF81EE94E0215080409040E1F7F5
:101D200000C0000083E5E5CF8438A1F40E94DB0CFD
:101D300082FD55C087E40E9447170E94DD172FEFF0
:101D400081EE94E0215080409040E1F700C0000017
:101D500087E4CFCF8CEF8C0F813A90F46C2F809179
:101D60000801909109010E941219882329F08C2FF3
:101D70000E944E170E94DD178C2F0E944717BBCF81
:101D800080E28C0F883048F4C77081E001C0880F72
:101D9000CA95EAF70E949017AECFEBE5EC0FE3305F
:101DA00040F4F0E0E857FE4F808190E0CF910C9432
:101DB0000F0DE8E5EC0FE73150F4F0E0EE0FFF1FF8
:101DC000E65AFE4F80819181CF910C94250DCD3E36
:101DD00030F08C2F0E94C308CF910C949609CF91BC
:101DE0000895882309F452C0823871F40E94DB0CF4
:101DF00081FF4CC089E30E9447170E94DD1789E3E9
:101E00000E944E170C94DD17833859F40E94DB0CA6
:101E100080FF3CC083E50E9447170E94DD1783E5E1
:101E2000EFCF843859F40E94DB0C82FF2FC087E487
:101E30000E9447170E94DD1787E4E2CF9CEF980FBE
:101E4000913AF0F290E2980F983050F4877091E058
:101E500001C0990F8A95EAF7892F0E949617D2CF71
:101E60009BE5980F933020F490E080E00C940F0DE8
:101E700098E5980F973120F490E080E00C94250DC0
:101E80008D3E20F00E941D090C94960908951F9321
:101E9000CF93DF93182FEB010E945F0E209731F450
:101EA000812FDF91CF911F910C94F10E8FE99FE06C
:101EB0000197F1F700C000002197F0CF70E060E0DB
:101EC000893311F460E570E00C94470F882321F00A
:101ED0000E9490170C94DD170895882321F00E942A
:101EE00096170C94DD170895BF92CF92DF92EF9270
:101EF000FF920F931F93CF93DF936C01D62FC72FC1
:101F0000FC011281058102950F700E946517E82E71
:101F10008823A1F0E12E112389F08C2F807F80345B
:101F200029F080E28D0FE12C883040F082E00E94A1
:101F30002E180E94651791E0E82EE926BC2EB29477
:101F40009FE0B922EB2DF0E0EF51FE4D0C94832180
:101F50000C2F0F70C07F11F00295007F1123A9F0A4
:101F6000002359F080E28D0F883010F0D11109C0A4
:101F7000802F0E9490170E94DD178D2F0E945F0E08
:101F800014C0802F0E94A017F6CF8D2F0E94F10E53
:101F9000002359F080E28D0F883010F0D1112CC051
:101FA000802F0E9496170E94DD172B2D2850330B8F
:101FB0002430310520F40E94DB0C0E94B604EE2090
:101FC00009F49EC10E94611780FD9AC1F601128238
:101FD0000E945B170E94E715C6010E94A1110E9492
:101FE0005B17DF91CF911F910F91FF90EF90DF90E2
:101FF000CF90BF900C940816802F0E94A617D3CFC5
:10200000FC2FFF70FF2EC07FC03219F0F29480EFDA
:10201000F822DD2369F0D13049F1112391F1002339
:1020200051F1F601858180FFA8CF8F70858323C091
:10203000112381F0011106C00E94C0178F290E9450
:10204000660FB3CF0130C1F70E94C0178F290E94DD
:10205000C617ABCF011106C00E94D3178F2D0E9467
:102060006D0FA3CF013009F4A0CFF6CF112329F0D3
:10207000063008F09ACF8F2DE2CF053008F095CFCB
:10208000EDCF002359F3D93349F4FFEF27EE33E0C6
:10209000F15020403040E1F700C000008D2F0E9439
:1020A000F10E83CF8C2F86958695837069F08130F1
:1020B00009F07BCF8D2F9C2F9370111102C090E0FF
:1020C00080E00E94250D71CF8D2F9C2F93701111F0
:1020D00002C090E080E00E940F0D67CF8D2F11238A
:1020E00029F00E94C3080E9496095FCF0E941D0933
:1020F000FACF8C2F837009F041C0111156CF4D2FAC
:10210000429546954770440F440F0D2F0F7010E015
:1021100030E020E0042E04C0000F111F221F331FE7
:102120000A94D2F760E070E0CB01D4FF0FC06FE0FB
:1021300070E080E090E004C0660F771F881F991F51
:102140004A95D2F76095709580959095C695C695FD
:10215000C370602B712B822B932BC23049F058F443
:10216000C13019F00E94991520CF0E9487151DCF0C
:102170000E94AB151ACF0E94851517CF86951123A3
:1021800011F08C2F8170882309F40FCF4D2F4295C9
:1021900046954770440F440F0D2F0F7010E030E04C
:1021A00020E0042E04C0000F111F221F331F0A94C9
:1021B000D2F760E070E0CB01D4FF0FC06FE070E0B9
:1021C00080E090E004C0660F771F881F991F4A9532
:1021D000D2F76095709580959095C695C695C37019
:1021E000602B712B822B932BC23049F058F4C130F5
:1021F00019F00E945E16D9CE0E944C16D6CE0E94CF
:102200007016D3CE0E94C115D0CECF70112329F005
:102210008C2F0E94E7158D2F12CF8D2F0E946D0FEE
:102220008C2F0E940816C1CED23F89F160F4D03FB6
:10223000C9F0D13F29F1112309F442C001119DCE0B
:102240008C2F8F7121C0D33F39F1D43FA1F71123D7
:1022500069F1CF718C2F0E94E71563E08C2F0E94EB
:102260001318A3CE112341F0053008F09ECE8C2F19
:102270008F710E942B1699CE063008F096CEF7CFBC
:102280008C2F8F71112369F20E94E7158ECE8C2F4F
:102290008F711123C9F3C5CF112329F08C2F8F71B2
:1022A0000E94D21582CE0E94CD157FCE81E00E9481
:1022B0002E18023008F479CE82E00E942E1875CED6
:1022C000002359F0D93309F0E9CE8FEF97EEE3E020
:1022D00081509040E040E1F7DFCE8C2F8F71A1CF8D
:1022E0004C2F4F706D2FC6010E94BE040E94FD143A
:1022F0005CCE4C2F4F706D2FC6010E94C10455CE8D
:10230000DF91CF911F910F91FF90EF90DF90CF90D1
:10231000BF9008950F931F93CF93DF93EC016881D3
:1023200079818A810E9423178C010E9482160E9463
:102330008415B801CE01DF91CF911F910F910C94BC
:10234000740FCF93DF93EC018B819C81892B29F053
:102350008881998189238F3F59F4DF91CF91089526
:10236000CE010E948A11CE01DF91CF910C946903B6
:10237000CE010E948A038111F3CF0E946517882342
:1023800061F38A81882349F382E0DF91CF910C9435
:102390002E18882321F00E94A0170C94DD170895B1
:1023A000882321F00E94A6170C94DD17089590E071
:1023B00080E00E940F0D90E080E00E94250D0E94B9
:1023C000AD170E94BD170E94DD170E94BD0A0C9434
:1023D00096090E9455170C94D7110E949D170C94D2
:1023E000E911E92FE295EF70E250EE3070F4F0E081
:1023F000EF50FE4D0C948321803F19F020F4883E6D
:1024000020F481E00895843FE1F380E00895883E60
:10241000C0F3813FD1F7F5CF93FB882780F908956A
:102420000E9419170C94F111CF93DF9300D000D0C4
:102430000F92CDB7DEB70F900F900F900F900F90C7
:10244000DF91CF910895CF93DF9300D000D000D0DB
:10245000CDB7DEB726960FB6F894DEBF0FBECDBF60
:10246000DF91CF9108951F93CF93DF93C091BC016B
:1024700016E08091BD018C1304C0DF91CF911F91B4
:102480000895D0E01C9FF0011D9FF00D1124E2542F
:10249000FE4F4081518162817381848195810E94C8
:1024A00023122196C770E5CF4091EE015091EF01C4
:1024B0006091F0017091F1018091F2019091F3012E
:1024C0000C9423121F93CF93DF938091F301807FAD
:1024D000A9F48091F001882389F08091BC01C0911A
:1024E000BD016091EE017091EF01A091F101B091F9
:1024F000F201D62FD72316E0C81304C0DF91CF9185
:102500001F91089590E0109711F0DF3F19F40196A4
:102510008770F2CF189F9001199F300D1124F90197
:10252000E254FE4F41814713F2CF40814613EFCF73
:1025300042814111ECCF438154814A1B5B0B483CE3
:10254000510528F78091F3018F7080618093F3012A
:10255000F901ED53FE4F80818F70806180838EEE94
:1025600091E00E94A111DF91CF911F910C94331241
:10257000AF92BF92CF92DF92EF92FF920F931F9391
:10258000CF93DF93CDB7DEB761970FB6F894DEBF78
:102590000FBECDBF8C0185E0F801DE011D960190D4
:1025A0000D928A95E1F7F80140815181E2808EEE2B
:1025B000C82E81E0D82E6091F1017091F201611571
:1025C000710509F461C19091EE012091EF01892F0D
:1025D00082238F3F09F458C1A380B480F090F001AA
:1025E000F501E61BF70BFF2009F4FCC08091F30115
:1025F000382F307FE83CF10508F0B2C0311179C0C6
:10260000FE2C251323C0941321C0E1101FC08F702E
:1026100080618093F3010E945412C6010E94A111AF
:102620008091F301F80185838F2D61960FB6F894A0
:10263000DEBF0FBECDBFDF91CF911F910F91FF90F5
:10264000EF90DF90CF90BF90AF900895AB2829F026
:10265000842F85238F3F09F033C180E0F82FF1707C
:10266000DF2E80FF3CC08091BC012091BD0136E08F
:10267000821315C04D875E878D859E850E94191730
:10268000292F22952F702230F0F0243018F59F70FA
:10269000F1F0F8019581907FD1F4D12C1EC090E02B
:1026A000389FF001399FF00D1124E254FE4F6181F3
:1026B000651306C06081641303C062816E110FC090
:1026C00001968770D5CF9F7011F0882331F3805E1B
:1026D000883018F3C8010E94A111FD2CA5CFEE206F
:1026E00009F4A2CF8091F30181608093F301F12C72
:1026F0009BCF251306C0941304C0F801EE2009F403
:102700008DC04D875E878D859E850E94101288231F
:1027100019F1EE2009F18091F301803270F02091DF
:10272000EE013091EF0138872F831986BB86AA8688
:102730008C87CE0107960E94A11186E0F801AEEECB
:10274000B1E001900D928A95E1F70E9462120E9419
:102750005412FF24F39468CFC8010E94A111F9CF4D
:10276000311113C07A2DB98AA88A6E2D89890E94E9
:1027700014128EEE91E00E94A11186E0F6011192F2
:102780008A95E9F70E945412B2CF25130FC0941313
:102790000DC0E1100BC0F8018583C8010E94A11192
:1027A00086E0F60111928A95E9F73ECF4D875E8764
:1027B0008D859E850E941012882371F2EE2061F2B1
:1027C0008091F301803208F4B8CF2091EE0130916E
:1027D000EF013A8329831B82BD82AC828E83CE01B6
:1027E0000196A9CFE83CF10508F041C0FE2CEE208F
:1027F00009F4B2CF25132AC0941328C08091F301A5
:1028000080FD1BC0982F907FC1F0F8018583903F19
:1028100031F0982F907F905F8F70892B8583C8014E
:102820000E94A11186E0F801AEEEB1E001900D9298
:102830008A95E1F70E945412F7CE86E0F801AEEED9
:10284000B1E001900D928A95E1F7EECE4D875E875B
:102850008D859E850E94101281116FCF8091F301AA
:1028600081608093F301C8010E94A111DDCE7A2D11
:10287000B98AA88A6E2D89890E94141286E0F60111
:1028800011928A95E9F7D6CFEE2009F465CF4D87EE
:102890005E878D859E850E941012F82E882309F48C
:1028A0005BCF86E0F801AEEEB1E001900D928A9523
:1028B000E1F78EEE91E00E945A0E0E946212BACFAA
:1028C00081E08E25CBCE1F93CF93DF93CDB7DEB7BC
:1028D0002C970FB6F894DEBF0FBECDBF4F8358873D
:1028E00069877A878B879C87CE0107960E94B812EA
:1028F000882369F08A859B85892B39F04F8158851B
:10290000842F85238F3F09F071C016E05FC086E0F9
:10291000FE013796DE01119601900D928A95E1F73E
:102920008A859B85892B89F38F81988589238F3FA1
:1029300061F32091BD0130E0C901019687709927AC
:102940004091BC014817190671F40E94ED111092D4
:10295000BD011092BC0186E0EEEEF1E0DF011D92B8
:102960008A95E9F7D2CF96E0929FD001939FB00D60
:102970001124A254BE4FFE01319601900D929A95FA
:10298000E1F78093BD010E943312BFCF819FC00148
:10299000112482549E4F0E94B8128823E9F0E091DE
:1029A000BC011E9FF0011124E254FE4F4081518171
:1029B00062817381848195810E9423128091BC0180
:1029C00090E00196877099278093BC018091BC01AB
:1029D0009091BD018913DACF2C960FB6F894DEBF23
:1029E0000FBECDBFDF91CF911F91089569857A8584
:1029F0008B859C850E94231288CFEF92FF920F93C4
:102A00001F93CF93DF938C01892B81F0F12CEE245F
:102A1000E394E8012196F8018491843770F48430BE
:102A200008F05FC08130B1F08230A1F1DF91CF9129
:102A30001F910F91FF90EF900895853709F44CC0D6
:102A400008F43DC09CE7980F903780F78F770E947D
:102A5000F10E49C00E5F1F4FFE01849190E2980F66
:102A6000983060F48770FE2D01C0FF0F8A95EAF759
:102A70008F2F0E94B0170E94DD1702C00E945F0EC8
:102A80008F2D815030F2EFE9FFE03197F1F700C070
:102A90000000F7CF0E5F1F4FFE01849190E2980F68
:102AA000983050F48770FE2D01C0FF0F8A95EAF729
:102AB0008F2F0E94B617DFCF0E94F10EE1CF0E5F7D
:102AC0001F4FFE01C491C150D8F28FE99FE00197DA
:102AD000F1F700C00000F7CF0E5F1F4FFE01F4902A
:102AE000CFCF0E945F0E8E01CBCF08950C94751549
:102AF0000E94761560932A0270932B0280932C0219
:102B000090932D020C94D71108950C9478150F937F
:102B10001F9300912A0210912B0220912C023091D8
:102B20002D02602B712B822B932B1F910F910C94F4
:102B300078150F931F9300912A0210912B02209178
:102B40002C0230912D0260237123822393231F9145
:102B50000F910C9478150F931F9300912A021091F6
:102B60002B0220912C0230912D02602771278227A1
:102B700093271F910F910C9478150C9475150C9454
:102B8000BD150E94BF1560932602709327028093A3
:102B90002802909329020C94D71160E070E0CB01D9
:102BA0000C94C1150F931F9341E050E060E070E07A
:102BB0008A019B0104C0000F111F221F331F8A9539
:102BC000D2F7C901B8011F910F910C94C1150F9351
:102BD0001F9341E050E060E070E004C0440F551FD7
:102BE000661F771F8A95D2F780912602909127025F
:102BF000A0912802B09129028A019B01082B192B70
:102C00002A2B3B2BC901B8011F910F910C94C115C0
:102C10000F931F9341E050E060E070E004C0440F68
:102C2000551F661F771F8A95D2F7CB01BA016095B1
:102C30007095809590950091260210912702209121
:102C400028023091290260237123822393231F914C
:102C50000F910C94C1150F931F9341E050E060E079
:102C600070E004C0440F551F661F771F8A95D2F786
:102C70008091260290912702A0912802B09129020A
:102C80008A019B01082719272A273B27C901B80178
:102C90001F910F910C94C1150F931F930091260261
:102CA000109127022091280230912902602B712B6C
:102CB000822B932B1F910F910C94C1150F931F938F
:102CC00000912602109127022091280230912902BA
:102CD00060237123822393231F910F910C94C115BC
:102CE0000F931F9300912602109127022091280232
:102CF0003091290260277127822793271F910F9116
:102D00000C94C11508952FE0929F800D1124982FE7
:102D1000977041E001C0440F9A95EAF78695869531
:102D2000869595E0899FF0011124EC50FE4F90E0CC
:102D300080E070E05191DF0111979B01082E02C0E5
:102D4000369527950A94E2F72170219525272423AB
:102D500025272C9301968530910561F708952FE082
:102D6000929F800D1124982F977086958695869551
:102D700025E0829FF0011124EC50FE4F50E040E02E
:102D800080E0219130E0092E02C0369527950A9403
:102D9000E2F721703327042E01C0220F0A94EAF7CC
:102DA000822B4F5F5F4F4530510559F70895BF9211
:102DB000CF92DF92EF92FF920F931F93CF93DF9307
:102DC0008C01C0902602D0902702E0902802F0905B
:102DD000290280912A0290912B02A0912C02B0919D
:102DE0002D02C82AD92AEA2AFB2ACFE1D0E0BC2E3C
:102DF000D701C6010C2E04C0B695A7959795879567
:102E00000A94D2F780FD0EC0219788F7B12C8B2D44
:102E1000DF91CF911F910F91FF90EF90DF90CF90B6
:102E2000BF900895B8018C2F0E94DE04019761F3D2
:102E3000EECFCF93DF93EC010E94D716BE01DF9156
:102E4000CF910C94DE041F93CF93DF93EB0190910D
:102E5000BB01992331F0CB01DF91CF911F910C94ED
:102E60001917882379F0CB010E94D716182F682FE5
:102E7000CE010E948316BE01812FDF91CF911F9159
:102E80000C94DE04CB010E94AF16182FF4CF682FEC
:102E900080910801909109010C949219682F8091FA
:102EA0000801909109010C949D198091080190915D
:102EB00009010C94A81980912E0285958595859518
:102EC000089580912E028770089590912E02977038
:102ED00081E009F480E008959091780292FB222726
:102EE00020F9281751F080FB92F990937802809195
:102EF0007702909178020C9473180895809178026B
:102F000082FB882780F991E089270C946C1781E077
:102F10000C946C1780E00C946C1780915202089509
:102F200090915202892B809352020895809590913E
:102F300052029823909352020895109252020895DB
:102F400090915102892B8093510208958095909120
:102F500051029823909351020895109251020895BE
:102F600090915002892B8093500208958095909102
:102F700050029823909350020895109250020895A1
:102F800080912F02089508950C94C31790917802B0
:102F900092FD08C090912F02981721F080932F0284
:102FA0000C94C417089580912F02882329F0109261
:102FB0002F0280E00C94C4170895E0910801F0916D
:102FC0000901809152028083E0910801F09109018A
:102FD000808190915102892B8083E0910801F091CA
:102FE0000901808190915002892B808390912F025A
:102FF000992381F0E0910801F09109018081892BEA
:10300000808380910801909109010E94FE1881112E
:103010000E94D31780910801909109010C94E70C4C
:1030200008950C9410189091780292FD10C098E0C9
:10303000899F90011124622B60932E020E94E71554
:1030400080912E028595859585950C9411180C9488
:10305000E71510922E0280E00C94111890912E0228
:103060008095892380932E02282F277039F4282FEA
:10307000082E000C330B9217130621F4909178025E
:1030800092FF07C08595859585950E9408160C943A
:103090002918089580E008956FEF7FEF90E080E0B9
:1030A0000C94C92190E080E00E94A52121E08A3E95
:1030B0009E4F09F020E0822F089582E090E00C946A
:1030C0009D2183E090E00C949D21CF9384E090E0DB
:1030D0000E949D21C82F82E290E00E949D21982F9E
:1030E0008C2FCF910895CF93C92F682F84E090E063
:1030F0000E94AB216C2F82E290E0CF910C94AB2127
:10310000AB01BC018FE090E00C94BD21AB01BC0190
:1031100083E190E00C94BD2160E070E0CB010C9461
:10312000861860E070E0CB010E9480180C948C1827
:103130006AEE7EEF90E080E00E94C92160E082E0CC
:1031400090E00E94AB2160E083E090E00E94AB2120
:1031500010922A0210922B0210922C0210922D0231
:1031600060E084E090E00E94AB2160E082E290E0C9
:103170000E94AB2160E085E090E00E94AB2160E01E
:1031800086E090E00E94AB216FEF87E090E00E9424
:10319000AB2140E050E0BA0188E090E00E94BD2100
:1031A00060E08DE090E00E94AB2140E050E0BA0189
:1031B00088E190E00E94BD2160E087E190E00E94FC
:1031C000AB2140E050E0BA018CE190E00E94BD21CB
:1031D00070E060E080E290E00E94C92140E050E0B1
:1031E000BA0188E190E00E94BD210C9491180C94E2
:1031F0009818682F8EE090E00C94AB21FC01329679
:1032000080911401882321F0809177029EE187FF4D
:1032100096E080E0915008F4089521912223D1F3A3
:103220008F5FF8CF662301F1209114012223F1F082
:103230002091770227FF1AC0462F4695469546955E
:103240004E3190F4677021E030E002C0220F331F4E
:103250006A95E2F7840F911DFC01828190E028239A
:10326000392381E0232B69F480E00895FC01329634
:1032700008962191261721F0E817F907D1F7F4CF26
:1032800081E008959C01FC0132969FEF80E041911E
:10329000461751F09F3F19F4411101C0982F8F5FDD
:1032A0008630A9F79F3F09F40895290F311D97FD36
:1032B0003A95F90162830895FC01329608962191AE
:1032C000261303C0DF0111971C92E817F907B9F71D
:1032D0000895E62FE695E695E695EE3168F4E80F59
:1032E000F92FF11D677021E030E001C0220F6A95CF
:1032F000EAF78281822B82830895E62FE695E69590
:10330000E695EE3170F4E80FF92FF11D677021E0BA
:1033100030E001C0220F6A95EAF7209582812823C8
:103320002283089520911401222329F0209177020D
:1033300027FD0C9469190C94421920911401222341
:1033400029F02091770227FD0C947D190C945C19CB
:10335000FC01329680911401882351F0809177020C
:1033600087FF06C08EE1DF011D928A95E9F7089577
:1033700086E0F9CF089508950C94BB1980919502C9
:10338000843049F10E94BC1980E00E94B60410927A
:10339000540288E190E020E40FB6F894A895809359
:1033A00060000FBE2093600083B7817F846083BF7D
:1033B00083B7816083BF7894889583B78E7F83BFFE
:1033C0000FB6F894A89580916000886180936000A2
:1033D000109260000FBE08950895CF930E94BA190D
:1033E0000E9486070E94EC19C0E08C2F0E940F07F4
:1033F000892B31F4CF5FC530C1F780E0CF910895BC
:1034000081E0FCCF08950C94021A0E94ED110E94F5
:10341000DB0C0E94B6040C94031A1F921FB61F9275
:1034200011248F939F93AF93BF9380915402811186
:1034300013C080918D0290918E02A0918F02B09165
:1034400090024196A11DB11D80938D0290938E0232
:10345000A0938F02B0939002BF91AF919F918F91F3
:103460001F901FBE1F90189582E084BD93E095BD0C
:103470009AEF97BD80936E0008952FB7F8948091CE
:103480008D0290918E02A0918F02B09190022FBF79
:1034900008952FB7F89460918D0270918E028091FB
:1034A0008F02909190022FBF08959C014FB7F8941E
:1034B00080918D0290918E02A0918F02B091900226
:1034C0004FBF821B930B089578941F921FB61F92D3
:1034D00011248F939F93AF93BF9380918D0290910E
:1034E0008E02A0918F02B09190020196A11DB11D94
:1034F00080938D0290938E02A0938F02B0939002DE
:10350000BF91AF919F918F911F901FBE1F901895F3
:1035100081E08093E00080E28093D8001092C9009F
:103520008FE19EE40197F1F700C0000087E090EB87
:10353000DC0180939E0290939F02A093A002B0931F
:10354000A10288E19CE00FB6F894A89580936000F2
:103550000FBE90936000FFCF90938D0180938C01FC
:103560000895809175020895CF93DF9300D00F9254
:10357000CDB7DEB790919502943019F589837B839E
:103580006A8382E08093E9008FEF9091E800815098
:1035900095FD06C095ED9A95F1F700008111F5CFE4
:1035A0008091E80085FF0DC050E040E063E070E0EE
:1035B000CE0101960E94DE1C8091E8008E778093F8
:1035C000E8000F900F900F90DF91CF910895BC010C
:1035D00084E00C94B41ABC0183E00C94B41A9C01EE
:1035E00082E08093E9009FEF8091E800915085FD93
:1035F00006C085ED8A95F1F700009111F5CF809115
:10360000E80085FF0CC050E040E066E070E0C901D2
:103610000E94DE1C8091E8008E778093E800089578
:10362000CF93DF93EC01809114018823B1F1809155
:10363000770287FF32C060E282E08093E9008FEF7B
:103640009091E800815095FD06C095ED9A95F1F7AF
:1036500000008111F5CF8091E80085FF1BC08091AB
:10366000140170E050E040E0811104C050E040E0FF
:1036700068E070E0CE010E94DE1C8091E8008E7749
:103680008093E80080E2FE01A5E5B2E001900D9292
:103690008A95E1F7DF91CF91089568E081E0CDCF81
:1036A00080919402811109C00E946E1E0E94CB1E5F
:1036B0008091E20084608093E20008951092940269
:1036C000089508950895089542E061EC81E00E9414
:1036D000EA1D42E261EC82E00C94EA1D80919702BF
:1036E000833009F45FC030F48130C1F1823009F4D5
:1036F0009BC008958A3009F487C08B3009F46DC0EF
:10370000893009F04EC080919602813209F049C09B
:1037100080919A0290919B02029708F042C080919A
:10372000E800877F8093E8008091E80082FF35C041
:103730009091F3008091F200029729F48091F100BA
:103740008B7F813021F48091F1008093750280910C
:10375000E8008B778093E8000C941E1E80919602FF
:10376000813AF9F48091E800877F8093E8008091A6
:103770009A0290919B02892B61F460E285E592E0C8
:1037800070E00E942D1D8091E8008B778093E80007
:10379000089560E090E080E0F3CF80919502811180
:1037A000C3CF089580919602813AD9F780919A0209
:1037B00090919B02892BA9F78091E800877F8093E5
:1037C000E8008091E80080FFFCCF80911401809395
:1037D000F1008091E8008E77BDCF80919602813212
:1037E00001F780919A0290919B02892BD1F68091EA
:1037F000E800877F8093E8000E941E1E8091980257
:10380000809314010C94ED1180919602813249F657
:103810008091E800877F8093E8000E941E1E8091BF
:10382000990280937602089580919602813A09F078
:10383000B8CF8091E800877F8093E8008091E8000E
:1038400080FFFCCF80917602C2CF84B7877F84BF90
:103850000FB6F894A895809160008861809360000D
:10386000109260000FBE80E890E00FB6F89480934D
:103870006100909361000FBE0E945C0D0E946E1E5D
:103880000E94CB1E8091E20084608093E2007894D5
:103890000E9454210E94700D8AE091E00E94D60C93
:1038A00080919502853099F00E94760D0E946C0DF2
:1038B000F7CF0E94BE1980919302882341F00E94A5
:1038C000ED19882321F00E94C81C0E94ED118091FF
:1038D0009502853071F30E94051AE6CF0C94701C96
:1038E000292F33272330310519F168F421303105B0
:1038F00009F444C02230310509F445C090E080E06D
:1039000030E020E025C02132310549F12232310575
:10391000A9F780E490E024E634E061157105C1F078
:1039200086EB90E02EEA33E06130710589F0E6CF56
:1039300099278130910581F0009729F00297F1F6DF
:10394000E3E4F3E002C0EDE5F3E0849190E09F0151
:10395000FA01318320830895E1E5F3E0F6CF89E0B1
:1039600090E023E733E06115710591F389E090E081
:103970002CE833E06130710559F3C0CF82E190E06B
:103980002CE933E0E5CF8BE390E021E633E0E0CFB4
:1039900080E189BD82E189BD09B400FEFDCF80913F
:1039A000D8008F7D8093D8008091E0008260809362
:1039B000E0008091E00081FDFCCF0895AF92BF92BE
:1039C000CF92DF92FF920F931F93CF93DF936C01FF
:1039D000EB018A010E943D1EF82E811123C00115C2
:1039E000110539F0F80180819181C81BD90BC80EEF
:1039F000D91EB12CA12C2097A9F08091E80085FD5B
:103A000022C08091E8008E778093E80001151105AF
:103A1000A1F0F80180819181A80EB91EB182A08227
:103A200085E0F82E8F2DDF91CF911F910F91FF90A0
:103A3000DF90CF90BF90AF9008950E943D1E8823E5
:103A4000D1F2F82EEFCFF60181916F018093F10052
:103A50002197FFEFAF1ABF0ACECFFC0180919C02E5
:103A600090919D0286179707A0F06115710529F4C2
:103A70009091E8009E779093E80090E061157105C1
:103A800051F4911108C08091E80082FF34C080E0B9
:103A90000895BC01F2CF809195028823C1F1853051
:103AA000C1F18091E80083FD30C08091E80082FD83
:103AB000EACF8091E80080FFE1CF8091F300209170
:103AC000F200382F6115710519F02830310558F0D2
:103AD00091E02830310509F090E02091E8002E7740
:103AE0002093E800CBCF81918093F1006150710960
:103AF0002F5F3F4FE7CF80919502882341F08530BB
:103B000041F08091E80083FFBECF81E0089582E01C
:103B1000089583E00895FC0180919C0290919D029C
:103B200086179707A0F06115710529F48091E800C8
:103B30008E778093E80090E06115710551F4911142
:103B400008C08091E80082FF35C080E00895BC0184
:103B5000F2CF809195028823C9F18530C9F1809117
:103B6000E80083FD31C08091E80082FDEACF8091BA
:103B7000E80080FFE1CF8091F3002091F200382F20
:103B80006115710519F02830310558F091E02830A1
:103B9000310509F090E08091E8008E778093E8008D
:103BA000CBCF84918093F1003196615071092F5FE2
:103BB0003F4FE6CF80919502882341F0853041F058
:103BC0008091E80083FFBDCF81E0089582E00895F1
:103BD00083E00895982F973028F08F708093E90044
:103BE00081E008959093E900242F762F50E09817F4
:103BF00031F07091EC002091ED005091F00021FD2A
:103C000002C09F5FE8CF3091EB003E7F3093EB0026
:103C10003091ED003D7F3093ED003091EB0031604D
:103C20003093EB007093EC002093ED005093F00084
:103C30002091EE0027FDE5CF80E008958091960267
:103C400087FF13C08091E80082FF06C08091E800E2
:103C50008B778093E80004C0809195028111F2CFA8
:103C60000895809195028823D9F38091E80080FF20
:103C7000F8CF8091E8008E77ECCF2091E40030916E
:103C8000E50095E6A9012091EC00822F817020FFCC
:103C900006C08091E80080FF06C080E00895209172
:103CA000E80022FD1AC080919502882389F08530B2
:103CB00089F08091EB0085FD0FC02091E4003091E8
:103CC000E50042175307F9F29150E1F684E00895B8
:103CD00082E0089583E0089581E008950E94DC1E4B
:103CE0000E94E41EE0EEF0E0808181608083E8EDD8
:103CF000F0E080818F77808319BCA7EDB0E08C91D4
:103D00008E7F8C9380818F7E8083109294020895A1
:103D10000F931F93CF93DF930E94DC1E0E94E41E3B
:103D2000C8EDD0E088818F77888388818068888318
:103D300088818F7D888319BC109295021092910220
:103D4000109293021092920200EE10E0F80180812E
:103D50008B7F808388818160888342E060E080E09F
:103D60000E94EA1DE1EEF0E080818E7F8083E2EE2A
:103D7000F0E0808181608083808188608083F801A9
:103D800080818E7F8083888180618883DF91CF915D
:103D90001F910F910895E8EDF0E080818F7E808380
:103DA000E7EDF0E080818160808384E082BF81E084
:103DB000809394020C94881EE8EDF0E080818E7F61
:103DC00080831092E20008951092DA001092E100D0
:103DD00008951F920F920FB60F9211242F933F93C5
:103DE0004F935F936F937F938F939F93AF93BF9303
:103DF000EF93FF938091E10082FF0BC08091E2007E
:103E000082FF07C08091E1008B7F8093E1000E94D8
:103E100053218091DA0080FF19C08091D80080FF83
:103E200015C08091DA008E7F8093DA008091D900EE
:103E300080FF96C080E189BD82E189BD09B400FEA2
:103E4000FDCF81E0809395020E94501B8091E1009C
:103E500080FF19C08091E20080FF15C08091E200D0
:103E60008E7F8093E2008091E20080618093E20087
:103E70008091D80080628093D80019BC85E080933F
:103E800095020E94621B8091E10084FF2BC080910B
:103E9000E20084FF27C080E189BD82E189BD89B548
:103EA000982F917080FFFBCF8091D8008F7D8093F9
:103EB000D8008091E1008F7E8093E1008091E20044
:103EC0008F7E8093E2008091E20081608093E20027
:103ED00080919102882309F449C084E0809395027F
:103EE0000E94631B8091E10083FF29C08091E20062
:103EF00083FF25C08091E100877F8093E10082E00D
:103F000080939502109291028091E1008E7F8093C0
:103F1000E1008091E2008E7F8093E2008091E200D8
:103F200080618093E20042E060E080E00E94EA1D50
:103F30008091F00088608093F0000E94611BFF91E7
:103F4000EF91BF91AF919F918F917F916F915F9111
:103F50004F913F912F910F900FBE0F901F9018958A
:103F600019BC109295020E945E1B70CF8091E300F5
:103F700087FD93E090939502B3CF1F920F920FB6F7
:103F80000F9211242F933F934F935F936F937F93DF
:103F90008F939F93AF93BF93CF93DF93EF93FF9351
:103FA000D091E900DF708091EC00C82FC17080FDD6
:103FB000C0E81092E9008091F000877F8093F000C4
:103FC00078940E9401201092E9008091F0008860AE
:103FD0008093F000CD2BCF70C093E900FF91EF915B
:103FE000DF91CF91BF91AF919F918F917F916F9111
:103FF0005F914F913F912F910F900FBE0F901F90A7
:1040000018951F93CF93DF93CDB7DEB7AA970FB65E
:10401000F894DEBF0FBECDBF86E992E02091F1009B
:10402000FC012193CF01F2E08E399F07B9F70E947E
:104030006E1B8091E80083FF1EC1809196029091D3
:1040400097029A3008F017C1E92FF0E0E150FE4DD9
:104050000C948321803899F0823809F00CC180914A
:104060009A028F70873008F006C18093E900809132
:10407000EB0085FB882780F91092E90006C080914B
:10408000920290919302911182609091E800977F43
:104090009093E8008093F1001092F1008091E80085
:1040A0008E77E5C0882309F4D3C0823009F0E3C0DD
:1040B000809198028111D6C080919A028F702FEF63
:1040C000280F263008F0D7C08093E9002091EB003C
:1040D00020FFC8C0933031F48091EB008062809360
:1040E000EB00C0C09091EB0090619093EB0021E059
:1040F00030E001C0220F8A95EAF72093EA0010927F
:10410000EA008091EB008860EACF8111B4C0109181
:1041100098021F778091E3008078812B8093E300E1
:104120008091E800877F8093E8000E941E1E8091A6
:10413000E80080FFFCCF8091E30080688093E3007B
:1041400082E0111183E08093950295C080588230FF
:1041500008F091C080919802909199028C3D23E0E3
:104160009207A1F583E08A838AE289834FB7F894A6
:10417000DE01139620E03EE051E2E32FF0E05093A1
:104180005700E49120FF03C0E295EF703F5FEF70AE
:104190008E2F90E0EA30C0F0C7968D939D932F5FED
:1041A000243159F74FBF8091E800877F8093E80062
:1041B0006AE270E0CE0101960E942D1D8091E80018
:1041C0008B778093E80057C0C096E7CF60919A0242
:1041D00070919B02AE014F5F5F4F0E946E1CBC014D
:1041E000892B09F448C09091E800977F9093E800EC
:1041F00089819A810E948B1DE1CF8038E1F5809101
:10420000E800877F8093E800809191028093F1001D
:1042100045CF811130C090919802923060F5809125
:10422000E800877F8093E800909391020E941E1E11
:1042300080919102882311F084E005C08091E30011
:1042400087FDFACF81E0809395020E94641B13C022
:1042500080919802813079F481E0933009F080E018
:10426000809393021092E9008091E800877F809309
:10427000E8000E941E1E8091E80083FF0AC0809122
:10428000E800877F8093E8008091EB008062809354
:10429000EB00AA960FB6F894DEBF0FBECDBFDF913C
:1042A000CF911F9108950895CF938091950288230F
:1042B000A1F0C091E900CF709091EC00892F81703E
:1042C00090FD80E8C82B1092E9008091E80083FD02
:1042D0000E940120CF70C093E900CF91089597FB11
:1042E000072E16F4009407D077FD09D00E9489218B
:1042F00007FC05D03EF4909581959F4F08957095E9
:1043000061957F4F0895EE0FFF1F0590F491E02D0A
:104310000994AA1BBB1B51E107C0AA1FBB1FA6170C
:10432000B70710F0A61BB70B881F991F5A95A9F75E
:1043300080959095BC01CD010895F999FECF92BD6D
:1043400081BDF89A992780B50895A8E1B0E042E0D0
:1043500050E00C94D121262FF999FECF92BD81BD5A
:10436000F89A019700B4021639F01FBA20BD0FB6B3
:10437000F894FA9AF99A0FBE08950396272F0E948F
:10438000AC210E94AB21252F0E94AC21242F0C943C
:10439000AC210196272F0E94AC210C94AB21DC01AB
:1043A000CB01FC01F999FECF06C0F2BDE1BDF89A40
:1043B000319600B40D9241505040B8F70895F894EA
:1043C000FFCFA80FA80F0010001052106E10D50FCD
:1043D000D50F79100511141114117011D50FD50FC7
:1043E0007911FC11FC1105120512071205120512B4
:1043F0000512FC11FC110C12051205120C122A20D8
:1044000052203B2152203B218520A6203B21FD202C
:02441000092180
:104412002808641E140A321E3002B11A101BEF1A49
:10442200EB1AE71A01E200E900EA00B500B600B7AC
:1044320000CD008301CC008A019201940121022364
:104442000224022502260227022A02B300B4006FC8
:10445200007000818283F0F1C6676636943130378E
:1044620035349796339091929395E200E900EA00F1
:10447200B500B600B700CD008301CC008A019201DD
:1044820094012102230224022502260227022A0283
:0C449200B300B4006F0070008182830052
:00000001FF
