:100000000C949D010C94E4010C94E4010C94E40123
:100010000C94E4010C94E4010C94E4010C94E401CC
:100020000C94E4010C94E4010C94CA1C0C949E1DE5
:100030000C94EE170C94E4010C94E4010C94E4018C
:100040000C94E4010C94E4010C94E4010C94E4019C
:100050000C94E4010C9445180C94E4010C94E40114
:100060000C94E4010C94E4010C94E4010C94E4017C
:100070000C94E4010C94E4010C94E4010C94E4016C
:100080000C94E4010C94E4010C94E4010C94E4015C
:100090000C94E4010C94E4010C94E4010C94E4014C
:1000A0000C94E4010C94E4010C94E401165C1E0031
:1000B0001F0020002100220023002400250026002C
:1000C00027002D002E00310035002B0014001A00EF
:1000D0000800150017001C0018000C001200130087
:1000E0002F0030002A004B003900040016000700E2
:1000F00009000A000B000D000E000F003300340051
:10010000280000004E00E1001D001B000600190041
:10011000050011001000360037003800E50000002F
:1001200052000151E0000000E20000002C00E3005A
:1001300000002C000000E60000000000500051000C
:100140004F0001003A003B003C003D003E003F00F4
:10015000400041004200430044004500010001000E
:100160000100010001000100005C0100010001002C
:10017000010001000100010001004C00010001002C
:100180000100010001000100010001000100010067
:100190000100010001000100000001000100010058
:1001A0000100010001000100010001000100010047
:1001B0000100010000000100010001000000010039
:1001C000000001000100000001000000010000002B
:1001D00000000100010001000C03610072006900D1
:1001E0007300750000000A0346006100740065009A
:1001F00000000403090409023B00020100A0FA09FF
:100200000400000103010100092111010001224045
:10021000000705810308000A09040100010300002A
:100220000009211101000122B60007058203200008
:100230000A12011001000000087EFA00000100010E
:1002400002000105010902A10185020901A10005C1
:100250000919012908150025019508750181020574
:1002600001093009311581257F950275088106093C
:10027000381581257F950175088106050C0A38021D
:100280001581257F950175088106C0C0050109808B
:10029000A101850319012AB700150126B7009501B0
:1002A00075108100C0050C0901A101850419012AFE
:1002B000A002150126A002950175108100C005015C
:1002C0000906A1018505050719E029E715002501A3
:1002D0009508750181020507190029EF1500250110
:1002E00095F075018102050819012905950575012B
:1002F0009102950175039101C005010906A101054F
:100300000719E029E7150025019508750181029577
:1003100001750881010507190029FF150026FF0056
:1003200095067508810005081901290595057501CF
:100330009102950175039101C00011241FBECFEFFA
:10034000DAE0DEBFCDBF04B603FE27C080919E0277
:1003500090919F02A091A002B091A1028730904B92
:10036000A740B04BD1F410929E0210929F021092BF
:10037000A0021092A10214BE84B7877F84BF0FB67B
:10038000F894A89580916000886180936000109235
:1003900060000FBEE0E0F8E3099511E0A0E0B1E0F5
:1003A000E4EDFFE302C005900D92AC38B107D9F738
:1003B00022E0ACE8B1E001C01D92AE39B207E1F72E
:1003C0000E94061A0C94C01F0C94000081E008954E
:1003D00081E008950C94E80108950C94EC011F93BA
:1003E000CF93DF9300D000D00F92CDB7DEB7498313
:1003F0005A836B833091BB0189819A8131111DC071
:100400006623B9F02223A9F00E94B814182F682F90
:1004100089819A810E94641469817A81812F0F9069
:100420000F900F900F900F90DF91CF911F910C9430
:10043000B1020E949014182FEFCF0E94B814698166
:100440007A81EDCFFC01262F408151816281738139
:1004500084810C94EF01CF93DF93EC0160E00E9464
:100460002202BE01DF91CF910C94ED010E94D404D1
:100470000C94F9040C94FC0408950E94CE0F0E9481
:100480003C022FEF84E39CE0215080409040E1F754
:1004900000C000000C9469180F931F93CF93DF9353
:1004A0008C0161E00E942202EC01B8010E94EA0185
:1004B0008823A9F1B801CE010E942609882379F189
:1004C000B801CE010E947809882349F1B801CE0114
:1004D0000E949B0A882319F1F8018281882361F028
:1004E000CB35FDE5DF0721F170F4C115ECE5DE0742
:1004F000A1F0CF3DDC45C9F0C801DF91CF911F913C
:100500000F910C94E601CC358DE5D807A1F0CD35DF
:10051000DD4591F70E945F15EFCF0E943D0280E01C
:10052000DF91CF911F910F9108950E94D816F7CFB8
:100530000E946815E1CF0E946B15DECF08950C94E0
:100540009E0281E008950C94A102CF93C82F0E94CF
:100550009F028C2FCF910C94A30290E080E008952D
:100560000895972F70E02FE0929F600D711D112468
:10057000FB019BE4899FE00DF11D1124EE0FFF1F8D
:10058000E455FF4F859194910895FC01EE0FFF1FF4
:10059000E852FE4F859194910895CF93DF930E9486
:1005A000B1020E94E203EC01811520E5920708F0F8
:1005B00042C0811530E4930708F0BDC0883E910524
:1005C00028F5803E910508F09DC0883A910588F491
:1005D000853A910508F08FC08130910509F492C0E9
:1005E000009709F48FC0049708F08CC0D0E0C0E0F9
:1005F00089C08F3B910508F489C0805C9109C03C9B
:10060000D105A0F30E94C502EC017CC08115904287
:1006100050F4C11581E0D80708F074C0CD3ED10573
:1006200028F3D0656FC0C11590E3D90708F079C0F1
:10063000CE019F70E7CF811525E5920758F581150A
:1006400034E5930708F0A6C0811542E5940750F4FD
:10065000C11581E5D80708F471C0DC2FCC27C16F24
:10066000D06A50C0982F969596959E012370332797
:10067000C115D34508F07FC0C1E0D0E002C0CC0F67
:10068000DD1F2A95E2F720E2929FC0011124C82BBA
:10069000D92B6FC0C11589E5D807A8F4C11598E515
:1006A000D90708F07CC0C11526E5D20708F09ECF17
:1006B0008C2F0E947904C82FD0E0DC2FCC27CC27C8
:1006C000DF71D0621FC0C1153AE5D30708F46CC0D2
:1006D000CE0190568115904208F088CF8D2F8F71F2
:1006E0000E94790490E0982F882788279F719C01A9
:1006F0002C2BE901E6CFC55AD0E0CD5BDE4FC88197
:10070000D0E0D064CE01DF91CF910895C85AD0E0F7
:10071000CC0FDD1FCB5EDE4F0990D881C02DD46495
:10072000F1CFCE019927D3FF03C0EC01D86CEACFFB
:10073000EC01D06CE7CFDF70D06AE4CFCE01E4E00B
:1007400096958795EA95E1F783702C2F2695269547
:10075000237090E2299F90011124382B8C2F8370F5
:10076000C1E0D0E002C0CC0FDD1F8A95E2F7C22BBA
:10077000D32BDC68C7CFC1E0D0E002C0CC0FDD1FB7
:100780002A95E2F730E2939FC0011124C82BD92BA0
:10079000DA68B8CFD82FCC27C46FD06AB3CFDC2F9C
:1007A000CC27C06FD06AAECF8C2F8F700E94790497
:1007B00034E0D695C7953A95E1F7CF709C2FEC01C0
:1007C000D069A0CF82389105B1F1B0F481339105A1
:1007D00009F475C048F48932910509F469C08A3278
:1007E000910509F473C008958533910509F459C042
:1007F0008933910501F10895833E9105A9F138F4FB
:10080000803E9105F9F0823E910549F10895863EBA
:100810009105A9F1873E9105C9F1843E910519F52D
:100820002091780221FF1FC08091770284FD14C0BF
:1008300087EE90E00895209177022370A1F080EE7A
:1008400090E008952091770220FD47C03091780212
:1008500030FF09C024FF44C090E080E004C0209134
:10086000770222FDF7CF08952091770222FD3BC049
:100870003091780230FDE3CF24FFF5CFEDCF20910A
:10088000770223FFF0CF24FDE7CFD2CF209177026C
:1008900023FD2CC03091780231FFEECF84EE90E042
:1008A00008952091770225FFDECF89E290E0089538
:1008B0002091770225FFD7CF85E390E0089520911E
:1008C000770226FFD0CF8AE290E008952091770248
:1008D00026FFC9CF81E390E0089589E390E0089571
:1008E00083EE90E0089582EE90E0089586EE90E029
:1008F00008959091770292FF06C0282F2871283022
:10090000F9F4877F846093FF06C0282F287128316F
:10091000F1F4877E84612091780220FF06C0382F91
:1009200038713830D9F4877F816021FF06C0282FC5
:1009300028712831D1F4877E816194FD877E0895E6
:10094000282F24712430F9F68B7F8860DCCF282F84
:100950002471243101F78B7E8861DDCF382F31710E
:10096000313019F78E7F8860E0CF282F2171213137
:1009700021F78E7E8861E1CF0C942D160E947505BB
:100980008FE39CE90197F1F700C000000E94750514
:1009900080E00E94FE0480FF04C00E94BC040C940E
:1009A000691808950C94BE040E943316811102C088
:1009B0000E94D8160E943E16809353020E9446164B
:1009C00090937802809377020E94D2040E9442168C
:1009D000682F70E090E080E00E946613609126022C
:1009E0007091270280912802909129020C94A01303
:1009F00008950C94F80408950C94FB04E82FF0E09B
:100A0000EE0FFF1FED57FD4F8081918108950895EE
:100A100080EA8A95F1F7089500C008950C940805BE
:100A2000F894E82FE295EF70F0E031A1282F2F70B5
:100A300081E090E001C0880F2A95EAF7982F909501
:100A4000932391A392A1892B82A3789408950F9365
:100A50001F93CF93DF9380E90E94100581E90E94E4
:100A6000100582E90E94100583E90E94100585E9BE
:100A70000E941005C6E4D1E005E511E089910E94CD
:100A800010050C171D07D1F710927A021092790207
:100A9000109284021092830210927C0210927B02C8
:100AA000109286021092850210927E0210927D02B0
:100AB00010928802109287021092800210927F0298
:100AC00010928A0210928902109282021092810280
:100AD00010928C0210928B0285E00E94F505DF9146
:100AE000CF911F910F910C943602AF92BF92DF927B
:100AF000EF92FF920F931F93CF93DF93C5E5D1E061
:100B000009E712E0D12CEE24E394F12C8991F894BA
:100B1000E82FE295EF70F0E021A18F70A70102C0ED
:100B2000440F551F8A95E2F7CA01922F982B91A383
:100B300092A18095892382A378940E940C05E6E413
:100B4000F1E030E020E0B12CA12C4191A42FA2953E
:100B5000AF70B0E090968C9190E04F7002C0959588
:100B600087954A95E2F780FD3BC0C701022E02C07F
:100B7000880F991F0A94E2F7A82AB92A2F5F3F4FDE
:100B80002F30310511F7FE01319780810E94100549
:100B90000E940E05F80180819181A816B90619F10D
:100BA000B182A08281E0D82A0E5F1F4FF1E0CA35E2
:100BB000DF0709F0ABCF2D2D45E063E872E089E750
:100BC00092E00E94F6050E943A028D2DDF91CF91AE
:100BD0001F910F91FF90EF90DF90BF90AF9008951D
:100BE00090E080E0C9CF80E0DECF0895FF920F93C0
:100BF0001F93CF93DF93F82E092F162FD72FC42FD3
:100C0000222349F081E0809390010E941E18909366
:100C10008F0180938E01809190018823A1F08091B3
:100C20008E0190918F010E943618069760F0EF2D8B
:100C3000F02FA12FBD2F90E080E0D0E08C179D0712
:100C400044F010929001DF91CF911F910F91FF908E
:100C50000895219131912D933D930196EFCF80918D
:100C6000970180FF12C06091050185E0689FB00187
:100C70001124759567957595679560387105A8F588
:100C800061157105A1F1862F089581FF09C060915A
:100C9000050185E0689FB001112475956795EDCF3A
:100CA0006091050182FD0AC0809196018823D1F0F0
:100CB0009091040160910501891728F085E0689FF3
:100CC000B0011124DACF869FB001112485E0869F00
:100CD0009001879F300D1124692F70E0C9010E9497
:100CE000501FCBCF65E070E0CECF8FE7089581E055
:100CF00008958091970180FF0CC06091010170E020
:100D000075956795759567956115710549F1862FFC
:100D1000089581FF06C06091010170E075956795A7
:100D2000F3CF6091010182FD0BC090919501992351
:100D3000A1F06091000180910101961738F0682FB1
:100D400070E06038710500F38FE70895899FC00156
:100D5000112470E00E94501FF4CF61E070E0D7CF03
:100D600081E008958D3E31F40E942F068195809395
:100D70009B0108958E3E19F40E942F06F8CF8F3EF6
:100D800031F40E942F06819580939A010895803F47
:100D900019F40E942F06F8CF893F29F40E947906A2
:100DA00080939C0108958A3F21F40E9479068195E1
:100DB000F7CF8B3F31F40E947906819580939D0196
:100DC00008958C3F19F40E947906F8CF9FE0980FA0
:100DD000983070F4815F990B21E030E001C0220F60
:100DE0008A95EAF780919901822B80939901089561
:100DF0008D3F31F480919701816080939701089530
:100E00008E3F21F4809197018260F7CF8F3FB9F731
:100E1000809197018460F1CF40919A018D3E59F401
:100E200080919B0187FF0DC010929B0141110BC067
:100E30001092960108C08E3E81F480919B01181695
:100E40009CF3442381F080919C0190919D01892B1A
:100E500009F05AC01092950108958F3E49F447FF5A
:100E6000F0CF10929A0180919B018111ECCFE0CFDD
:100E7000803F19F41416ACF3E4CF90919C01893FA4
:100E800029F41916F4F610929C01DBCF8A3F19F46D
:100E900097FFD7CFF8CF90919D018B3F29F497FF13
:100EA000D0CF10929D01CDCF8C3F19F41916CCF301
:100EB000C8CF9FE0980F983090F4815F990B21E0A4
:100EC00030E0B90102C0660F771F8A95E2F7CB01C7
:100ED000809590919901892380939901B2CF8D3F9C
:100EE00031F4809197018E7F80939701AACF8E3F36
:100EF00021F4809197018D7FF7CF8F3F09F0A1CF2B
:100F0000809197018B7FF0CF08950E941E189C015D
:100F100090919A0180919B01982B21F0309394013C
:100F20002093930190919C0180919D01982B21F039
:100F3000309392012093910188E991E00C94F00A9A
:100F4000EF92FF920F931F93CF93DF9300D000D0C7
:100F500000D0CDB7DEB786E0E8E9F1E0DE0111961A
:100F600001900D928A95E1F7E0909A01F0909B0133
:100F700000919C0110919D0110929A0110929B0189
:100F800010929C0110929D018E2D8F2991F08091DD
:100F90009301909194010E943618AC0190919601B2
:100FA000992309F43FC0809106018417150608F4BF
:100FB00047C0802F812B91F08091910190919201F7
:100FC0000E943618AC0190919501992309F477C0DD
:100FD000809102018417150608F47FC080919A0160
:100FE00090919B01892B90919C01892B90919D015F
:100FF000892B11F00E94850786E0FE013196A8E951
:10100000B1E001900D928A95E1F726960FB6F8941B
:10101000DEBF0FBECDBFDF91CF911F910F91FF902B
:10102000EF900895209107018AE0289F90011124F4
:101030002417350708F0BDCF9F5F9093960102C03B
:101040009F3FD1F7EE2059F00E942F069FEF1E140C
:101050000CF491E0899F802D112480939A01FF2048
:1010600059F00E942F069FEF1F140CF491E0899F06
:10107000802D112480939B0130919A01332309F430
:1010800098CF20919B01222309F493CF45EB3403A1
:10109000C0011124992359F090939A0145EB240340
:1010A00090011124332339F030939B0182CF81E0EA
:1010B00080939A01F3CF81E080939B017ACF2091B6
:1010C00003018AE0289F900111242417350708F0B6
:1010D00085CF9F5F9093950102C09F3FD1F700237A
:1010E00059F00E9479069FEF10160CF491E0899F49
:1010F000802D112480939C01112359F00E947906C0
:101100009FEF11160CF491E0899F802D112480939C
:101110009D0130919C01332309F460CF20919D0102
:10112000222309F45BCF45EB3403C001112499233A
:1011300059F090939C0145EB240390011124332333
:1011400039F030939D014ACF81E080939C01F3CF29
:1011500081E080939D0142CF86E0E8E9F1E0DF0184
:101160001D928A95E9F710929601109295011092BE
:10117000970108950F931F93CF93DF93C42FD22F1E
:10118000FC0182818823C9F04093A0010E941E18AF
:1011900090939F0180939E0180E28C0F883008F02D
:1011A00050C0C77081E001C0880FCA95EAF7DF918F
:1011B000CF911F910F910C94550D1091A001141314
:1011C00035C080919E0190919F010E943618883C05
:1011D000910560F5C0E2CD0F1D17B9F080E2810FD7
:1011E000883040F4177081E001C0880F1A95EAF743
:1011F0000E945C0DC83048F481E09D2F977001C0BB
:10120000880F9A95EAF70E94550D802F0E944D0D88
:10121000C830B8F4D77081E001C0880FDA95EAF7DA
:10122000DF91CF911F910F910C945C0D80E28C0F98
:10123000883038F4C77081E001C0880FCA95EAF79A
:10124000EFCFDF91CF911F910F9108950F939C01E4
:10125000CB01243F4CE5340759F1A8F4293DFCE5C6
:101260003F0701F12A3D4CE53407D1F1283D3C45CB
:1012700091F406E221EE41EE68ED7CE50E94BA08A9
:1012800080E00F910895263FFCE53F07E9F0B0F0BC
:10129000273F3C45F9F0FC018281882339F1109207
:1012A000A001EFCF07E225EE45EE69ED7CE5E6CF44
:1012B00006E221EE40EE64EF7CE5E0CF07E225EEAA
:1012C00044EE65EF7CE5DACF06E221EE42EE66EF12
:1012D0007CE5D4CF07E225EE46EE67EF7CE5CECF86
:1012E00008E221E045EE6AED7CE5C8CF81E0C9CF98
:1012F000CF93DF93EC01FB018281882309F419C1AC
:10130000C230FCE5DF07C0F1C6319CE5D90730F0FB
:101310009E012B5F3C452930310570F50E94461631
:101320009093780280937702C031ECE5DE0709F4F0
:10133000CFC008F05BC0C8308CE5D80709F4B6C050
:1013400088F5C430ECE5DE0709F4A8C0C0F4C2306B
:101350008CE5D80709F49CC0809177028260C33085
:10136000DC4509F498C080917702909178020E9440
:1013700054160E94CE0F80E0DF91CF9108958091A6
:1013800077028061C630ECE5DE0709F484C0809105
:1013900077028860C730DC4508F47DC08091770211
:1013A000806279C0CC308CE5D80709F489C070F42C
:1013B000809177028C60CA30ECE5DE0709F46BC0DF
:1013C00008F478C0809177028E7F65C0CE308CE5BE
:1013D000D80709F479C0809177028B7FCF30DC4544
:1013E00008F459C0809177028F7E55C0CC3FECE560
:1013F000DE0709F457C030F5C3318CE5D80709F48E
:101400006FC078F4C131ECE5DE0709F465C0C23184
:10141000DC4509F0A8CF0E94CE0F809177028F772C
:101420003AC0C5318CE5D80709F462C008F476C02B
:10143000809178028160CB3FDC4509F094CF8093A6
:10144000780291CFC115FDE5DF0709F44DC088F49E
:10145000809178028D7FCE3F9CE5D90781F3809102
:1014600078028E7FCF3FDC4550F380917802836015
:10147000E6CFC230FDE5DF0709F459C008F444C0E7
:1014800080E0C330DD4509F06ECF0E94DA166BCFE5
:101490008091770281608093770265CF8091770297
:1014A0008460F9CF809178028260C9CF8091770201
:1014B0008064F1CF0E94CE0F809177028068EBCFDD
:1014C000809177028D7FE7CF80917702877FE3CF8E
:1014D000809177028F7DDFCF809177028F7BDBCF8A
:1014E00080917702837FD7CF809178028C7FA7CFBE
:1014F0008091770282FB992790F921E0922790FB57
:1015000082F990FB83F9C7CF80917802982F90954C
:1015100091708E7F892B90FB81F991CF0E94CE0F25
:1015200090917702892F97FB87F98058B4CF81E09B
:10153000ACCF81E021CFCF93DF93EB0186319C4587
:1015400011F50E946E159A81992399F08A7A91E09B
:1015500009F490E09093A101811109C089E20E94F1
:1015600028150E94BE1580E0DF91CF91089585E394
:10157000F6CF8091A101811104C089E20E942F154C
:10158000F0CF85E3FBCF81E0EFCF9093A70180936D
:10159000A6010895E091A601F091A701309721F0EE
:1015A0000190F081E02D099480E00895E091A6017A
:1015B000F091A701309799F020911401222359F05E
:1015C0002091770227FF07C0DC012C9111962C9304
:1015D000119725E02C930280F381E02D0994089562
:1015E000E091A601F091A701309739F022E0DC01EB
:1015F0002C930480F581E02D099408952091A40195
:101600003091A5012817390771F09093A5018093B7
:10161000A401E091A601F091A701309721F0068086
:10162000F781E02D099408952091A2013091A30142
:101630002817390771F09093A3018093A201E091DC
:10164000A601F091A701309721F00084F185E02DEB
:10165000099408950E942A186093B7017093B80105
:101660008093B9019093BA016093B3017093B40170
:101670008093B5019093B601089585B7806885BFC2
:1016800085B7806885BF0895089508950C94440B2C
:1016900008950C94480B0E943D0B8BE296E10E944A
:1016A0008D180E94450B0C94460B81E008950C9414
:1016B000550B089508950E94590B0C945A0B0E94E3
:1016C00015180E9427050C94490B8F929F92AF9298
:1016D000BF92CF92DF92EF92FF920F931F93CF931F
:1016E000DF93CDB7DEB72A970FB6F894DEBF0FBEF3
:1016F000CDBF0E94750581110E942A0B59EA852EE3
:1017000051E0952E10E000E0A02E802F0E94FE04F4
:101710006C01F401E190F1904F01E816F90609F42B
:101720005CC08091530281FD0E940705C7018C2592
:101730009D25B12CEE24E394F12C9C012E213F2118
:10174000232B09F444C00E94570B8823A9F0BE82C2
:10175000AF82CE20DF2081E0CD2809F480E08887A9
:101760000E941E188160782F9A8789874E815F8139
:1017700068858A850E94170C000F111FF801E75534
:10178000FE4F80819181E826F926F182E0820E9455
:10179000A0070E94CA0A9091A8018917A9F10E9486
:1017A000CA0A8093A8012A960FB6F894DEBF0FBE2E
:1017B000CDBFDF91CF911F910F91FF90EF90DF9000
:1017C000CF90BF90AF909F908F900C94A502B39450
:1017D000EE0CFF1CFFE0BF12B0CF0F5F1F4F0530B4
:1017E000110509F091CF8FEF89838A831B820E94B4
:1017F0001E188160782F9D838C8349815A816B816B
:101800008D810E94170CC3CF2A960FB6F894DEBFC5
:101810000FBECDBFDF91CF911F910F91FF90EF9041
:10182000DF90CF90BF90AF909F908F900895DF9200
:10183000EF92FF920F931F93CF93DF93CDB7DEB755
:101840002B970FB6F894DEBF0FBECDBF7A878B877C
:10185000F42E052F162FE72ED82E61110E948E151B
:101860001E821D827E2DEC82DD824F2D502F612F36
:101870008D2D9E812B960FB6F894DEBF0FBECDBF87
:10188000DF91CF911F910F91FF90EF90DF900C941B
:101890004412FC01808191810C94FA14CF93C82FDB
:1018A000882309F48BC08238C1F40E94CA0A81FDE2
:1018B00085C089E30E9428150E94BE152FEF81EE96
:1018C00094E0215080409040E1F700C0000089E39F
:1018D0000E942F15CF910C94BE158338A1F40E945D
:1018E000CA0A80FD6BC083E50E9428150E94BE15C0
:1018F0002FEF81EE94E0215080409040E1F700C04E
:10190000000083E5E5CF8438A1F40E94CA0A82FD75
:1019100055C087E40E9428150E94BE152FEF81EE66
:1019200094E0215080409040E1F700C0000087E43F
:10193000CFCF8CEF8C0F813A90F46C2F80910801FF
:10194000909109010E94F316882329F08C2F0E94A0
:101950002F150E94BE158C2F0E942815BBCF80E248
:101960008C0F883048F4C77081E001C0880FCA9599
:10197000EAF70E947115AECFEBE5EC0FE33040F4CF
:10198000F0E0E857FE4F808190E0CF910C94FE0A82
:10199000E8E5EC0FE73150F4F0E0EE0FFF1FE65AF8
:1019A000FE4F80819181CF910C94140BCD3E30F08D
:1019B0008C2F0E94B206CF910C948507CF91089589
:1019C000882309F452C0823871F40E94CA0A81FF48
:1019D0004CC089E30E9428150E94BE1589E30E942D
:1019E0002F150C94BE15833859F40E94CA0A80FF43
:1019F0003CC083E50E9428150E94BE1583E5EFCF09
:101A0000843859F40E94CA0A82FF2FC087E40E94DA
:101A100028150E94BE1587E4E2CF9CEF980F913AFB
:101A2000F0F290E2980F983050F4877091E001C086
:101A3000990F8A95EAF7892F0E947715D2CF9BE5F7
:101A4000980F933020F490E080E00C94FE0A98E523
:101A5000980F973120F490E080E00C94140B8D3EA9
:101A600020F00E940C070C94850708951F93CF93D4
:101A7000DF93182FEB010E944E0C209731F4812F39
:101A8000DF91CF911F910C94E00C8FE99FE00197BB
:101A9000F1F700C000002197F0CF70E060E08933DB
:101AA00011F460E570E00C94360D882321F00E945B
:101AB00071150C94BE150895882321F00E947715A6
:101AC0000C94BE150895BF92CF92DF92EF92FF92D1
:101AD0000F931F93CF93DF936C01D62FC72FFC0179
:101AE0001281058102950F700E944615E82E882309
:101AF000A1F0E12E112389F08C2F807F803429F012
:101B000080E28D0FE12C883040F082E00E940F16B9
:101B10000E94461591E0E82EE926BC2EB2949FE083
:101B2000B922EB2DF0E0EE53F04E0C94641F0C2F15
:101B30000F70C07F11F00295007F1123A9F00023E0
:101B400059F080E28D0F883010F0D11109C0802F3C
:101B50000E9471150E94BE158D2F0E944E0C14C05C
:101B6000802F0E948115F6CF8D2F0E94E00C00235C
:101B700059F080E28D0F883010F0D1112CC0802FE9
:101B80000E9477150E94BE152B2D2850330B243050
:101B9000310520F40E94CA0A0E94A502EE2009F431
:101BA0009EC10E94421580FD9AC1F60112820E94D8
:101BB0003C150E94C813C6010E94900F0E943C155C
:101BC000DF91CF911F910F91FF90EF90DF90CF9019
:101BD000BF900C94E913802F0E948715D3CFFC2F60
:101BE000FF70FF2EC07FC03219F0F29480EFF82210
:101BF000DD2369F0D13049F1112391F1002351F136
:101C0000F601858180FFA8CF8F70858323C01123C3
:101C100081F0011106C00E94A1158F290E94550D67
:101C2000B3CF0130C1F70E94A1158F290E94A715DB
:101C3000ABCF011106C00E94B4158F2D0E945C0D20
:101C4000A3CF013009F4A0CFF6CF112329F006303D
:101C500008F09ACF8F2DE2CF053008F095CFEDCF69
:101C6000002359F3D93349F4FFEF27EE33E0F15065
:101C700020403040E1F700C000008D2F0E94E00CB2
:101C800083CF8C2F86958695837069F0813009F01B
:101C90007BCF8D2F9C2F9370111102C090E080E0BC
:101CA0000E94140B71CF8D2F9C2F9370111102C0C5
:101CB00090E080E00E94FE0A67CF8D2F112329F06B
:101CC0000E94B2060E9485075FCF0E940C07FACFE0
:101CD0008C2F837009F041C0111156CF4D2F4295C2
:101CE00046954770440F440F0D2F0F7010E030E001
:101CF00020E0042E04C0000F111F221F331F0A947E
:101D0000D2F760E070E0CB01D4FF0FC06FE070E06D
:101D100080E090E004C0660F771F881F991F4A95E6
:101D2000D2F76095709580959095C695C695C370CD
:101D3000602B712B822B932BC23049F058F4C130A9
:101D400019F00E947A1320CF0E9468131DCF0E94C1
:101D50008C131ACF0E94661317CF8695112311F0AA
:101D60008C2F8170882309F40FCF4D2F4295469513
:101D70004770440F440F0D2F0F7010E030E020E04B
:101D8000042E04C0000F111F221F331F0A94D2F724
:101D900060E070E0CB01D4FF0FC06FE070E080E046
:101DA00090E004C0660F771F881F991F4A95D2F7ED
:101DB0006095709580959095C695C695C370602B7B
:101DC000712B822B932BC23049F058F4C13019F09B
:101DD0000E943F14D9CE0E942D14D6CE0E945114D9
:101DE000D3CE0E94A213D0CECF70112329F08C2F16
:101DF0000E94C8138D2F12CF8D2F0E945C0D8C2F47
:101E00000E94E913C1CED23F89F160F4D03FC9F0FE
:101E1000D13F29F1112309F442C001119DCE8C2F2D
:101E20008F7121C0D33F39F1D43FA1F7112369F15C
:101E3000CF718C2F0E94C81363E08C2F0E94F41581
:101E4000A3CE112341F0053008F09ECE8C2F8F7168
:101E50000E940C1499CE063008F096CEF7CF8C2F46
:101E60008F71112369F20E94C8138ECE8C2F8F714F
:101E70001123C9F3C5CF112329F08C2F8F710E9434
:101E8000B31382CE0E94AE137FCE81E00E940F1664
:101E9000023008F479CE82E00E940F1675CE00233E
:101EA00059F0D93309F0E9CE8FEF97EEE3E0815096
:101EB0009040E040E1F7DFCE8C2F8F71A1CF4C2F07
:101EC0004F706D2FC6010E94AD020E94DE125CCEE3
:101ED0004C2F4F706D2FC6010E94B00255CEDF917E
:101EE000CF911F910F91FF90EF90DF90CF90BF9017
:101EF00008950F931F93CF93DF93EC01688179814D
:101F00008A810E9404158C010E9463140E9465134B
:101F1000B801CE01DF91CF911F910F910C94630D09
:101F2000CF93DF93EC018B819C81892B29F08881F1
:101F3000998189238F3F59F4DF91CF910895CE0184
:101F40000E94790FCE01DF91CF910C942B02CE012C
:101F50000E944C028111F3CF0E944615882361F341
:101F60008A81882349F382E0DF91CF910C940F1688
:101F700090E080E00E94FE0A90E080E00E94140B56
:101F80000E948E150E949E150E94BE150E94AC08EC
:101F90000C9485070E9436150C94B80F0E947E158C
:101FA0000C94CA0FE92FE295EF70E250EE3070F416
:101FB000F0E0EE52F04E0C94641F803F19F020F4D4
:101FC000883E20F481E00895843FE1F380E00895A5
:101FD000883EC0F3813FD1F7F5CF93FB882780F986
:101FE00008950E94FA140C94D20FCF93DF9300D07F
:101FF00000D00F92CDB7DEB70F900F900F900F90DB
:102000000F90DF91CF910895CF93DF9300D000D050
:1020100000D0CDB7DEB726960FB6F894DEBF0FBE60
:10202000CDBFDF91CF9108951F93CF93DF93C091E0
:10203000BC0116E08091BD018C1304C0DF91CF91EB
:102040001F910895D0E01C9FF0011D9FF00D1124F9
:10205000E254FE4F40815181628173818481958178
:102060000E9404102196C770E5CF4091EE01509177
:10207000EF016091F0017091F1018091F201909176
:10208000F3010C9404101F93CF93DF938091F3011D
:10209000807FA9F48091F001882389F08091BC01B0
:1020A000C091BD016091EE017091EF01A091F1012D
:1020B000B091F201D62FD72316E0C81304C0DF91E8
:1020C000CF911F91089590E0109711F0DF3F19F420
:1020D00001968770F2CF189F9001199F300D11243F
:1020E000F901E254FE4F41814713F2CF408146137C
:1020F000EFCF42814111ECCF438154814A1B5B0BEE
:10210000483C510528F78091F3018F7080618093DE
:10211000F301F901ED53FE4F80818F708061808360
:102120008EEE91E00E94900FDF91CF911F910C9461
:102130001410AF92BF92CF92DF92EF92FF920F9363
:102140001F93CF93DF93CDB7DEB761970FB6F894A7
:10215000DEBF0FBECDBF8C0185E0F801DE011D960C
:1021600001900D928A95E1F7F80140815181E2805A
:102170008EEEC82E81E0D82E6091F1017091F201AF
:102180006115710509F461C19091EE012091EF0193
:10219000892F82238F3F09F458C1A380B480F09027
:1021A000F001F501E61BF70BFF2009F4FCC080915C
:1021B000F301382F307FE83CF10508F0B2C031114F
:1021C00079C0FE2C251323C0941321C0E1101FC039
:1021D0008F7080618093F3010E943510C6010E94C8
:1021E000900F8091F301F80185838F2D61960FB6D2
:1021F000F894DEBF0FBECDBFDF91CF911F910F913D
:10220000FF90EF90DF90CF90BF90AF900895AB28F4
:1022100029F0842F85238F3F09F033C180E0F82F08
:10222000F170DF2E80FF3CC08091BC012091BD0188
:1022300036E0821315C04D875E878D859E850E948E
:10224000FA14292F22952F702230F0F0243018F53F
:102250009F70F1F0F8019581907FD1F4D12C1EC0D0
:1022600090E0389FF001399FF00D1124E254FE4FA9
:102270006181651306C06081641303C062816E11C1
:102280000FC001968770D5CF9F7011F0882331F36E
:10229000805E883018F3C8010E94900FFD2CA5CFF6
:1022A000EE2009F4A2CF8091F30181608093F301C5
:1022B000F12C9BCF251306C0941304C0F801EE2027
:1022C00009F48DC04D875E878D859E850E94F10F34
:1022D000882319F1EE2009F18091F301803270F02A
:1022E0002091EE013091EF0138872F831986BB864C
:1022F000AA868C87CE0107960E94900F86E0F8018F
:10230000AEEEB1E001900D928A95E1F70E94431084
:102310000E943510FF24F39468CFC8010E94900FEB
:10232000F9CF311113C07A2DB98AA88A6E2D898907
:102330000E94F50F8EEE91E00E94900F86E0F6016C
:1023400011928A95E9F70E943510B2CF25130FC07C
:1023500094130DC0E1100BC0F8018583C8010E94E1
:10236000900F86E0F60111928A95E9F73ECF4D87EE
:102370005E878D859E850E94F10F882371F2EE2085
:1023800061F28091F301803208F4B8CF2091EE0120
:102390003091EF013A8329831B82BD82AC828E8308
:1023A000CE010196A9CFE83CF10508F041C0FE2C12
:1023B000EE2009F4B2CF25132AC0941328C08091CF
:1023C000F30180FD1BC0982F907FC1F0F801858339
:1023D000903F31F0982F907F905F8F70892B85838D
:1023E000C8010E94900F86E0F801AEEEB1E00190C6
:1023F0000D928A95E1F70E943510F7CE86E0F8013C
:10240000AEEEB1E001900D928A95E1F7EECE4D87E8
:102410005E878D859E850E94F10F81116FCF80911F
:10242000F30181608093F301C8010E94900FDDCE1B
:102430007A2DB98AA88A6E2D89890E94F50F86E0C7
:10244000F60111928A95E9F7D6CFEE2009F465CF0F
:102450004D875E878D859E850E94F10FF82E88231B
:1024600009F45BCF86E0F801AEEEB1E001900D9289
:102470008A95E1F78EEE91E00E94490C0E9443108C
:10248000BACF81E08E25CBCE1F93CF93DF93CDB70C
:10249000DEB72C970FB6F894DEBF0FBECDBF4F83CB
:1024A000588769877A878B879C87CE0107960E9419
:1024B0009910882369F08A859B85892B39F04F8193
:1024C0005885842F85238F3F09F071C016E05FC0C7
:1024D00086E0FE013796DE01119601900D928A95F5
:1024E000E1F78A859B85892B89F38F8198858923DC
:1024F0008F3F61F32091BD0130E0C90101968770E3
:1025000099274091BC014817190671F40E94CE0F1B
:102510001092BD011092BC0186E0EEEEF1E0DF0109
:102520001D928A95E9F7D2CF96E0929FD001939FB2
:10253000B00D1124A254BE4FFE01319601900D92B0
:102540009A95E1F78093BD010E941410BFCF819F3F
:10255000C001112482549E4F0E9499108823E9F0F3
:10256000E091BC011E9FF0011124E254FE4F408116
:10257000518162817381848195810E9404108091D0
:10258000BC0190E00196877099278093BC018091EF
:10259000BC019091BD018913DACF2C960FB6F89447
:1025A000DEBF0FBECDBFDF91CF911F91089569852A
:1025B0007A858B859C850E94041088CFEF92FF92CC
:1025C0000F931F93CF93DF938C01892B81F0F12C14
:1025D000EE24E394E8012196F8018491843770F4A5
:1025E000843008F05FC08130B1F08230A1F1DF911A
:1025F000CF911F910F91FF90EF900895853709F4C7
:102600004CC008F43DC09CE7980F903780F78F7757
:102610000E94E00C49C00E5F1F4FFE01849190E2C2
:10262000980F983060F48770FE2D01C0FF0F8A95D7
:10263000EAF78F2F0E9491150E94BE1502C00E94DA
:102640004E0C8F2D815030F2EFE9FFE03197F1F71A
:1026500000C00000F7CF0E5F1F4FFE01849190E293
:10266000980F983050F48770FE2D01C0FF0F8A95A7
:10267000EAF78F2F0E949715DFCF0E94E00CE1CF81
:102680000E5F1F4FFE01C491C150D8F28FE99FE049
:102690000197F1F700C00000F7CF0E5F1F4FFE015A
:1026A000F490CFCF0E944E0C8E01CBCF08950C94A6
:1026B00056130E94571360932A0270932B02809343
:1026C0002C0290932D020C94B80F08950C9459137A
:1026D0000F931F9300912A0210912B0220912C023C
:1026E00030912D02602B712B822B932B1F910F9118
:1026F0000C9459130F931F9300912A0210912B02EF
:1027000020912C0230912D02602371238223932388
:102710001F910F910C9459130F931F9300912A024C
:1027200010912B0220912C0230912D0260277127ED
:10273000822793271F910F910C9459130C945613D1
:102740000C949E130E94A01360932602709327029C
:1027500080932802909329020C94B80F60E070E0F7
:10276000CB010C94A2130F931F9341E050E060E063
:1027700070E08A019B0104C0000F111F221F331F4C
:102780008A95D2F7C901B8011F910F910C94A21339
:102790000F931F9341E050E060E070E004C0440FED
:1027A000551F661F771F8A95D2F780912602909158
:1027B0002702A0912802B09129028A019B01082BCF
:1027C000192B2A2B3B2BC901B8011F910F910C9497
:1027D000A2130F931F9341E050E060E070E004C04B
:1027E000440F551F661F771F8A95D2F7CB01BA0198
:1027F0006095709580959095009126021091270222
:10280000209128023091290260237123822393238F
:102810001F910F910C94A2130F931F9341E050E06E
:1028200060E070E004C0440F551F661F771F8A9553
:10283000D2F78091260290912702A0912802B091B0
:1028400029028A019B01082719272A273B27C9014A
:10285000B8011F910F910C94A2130F931F93009135
:102860002602109127022091280230912902602B24
:10287000712B822B932B1F910F910C94A2130F930A
:102880001F93009126021091270220912802309177
:10289000290260237123822393231F910F910C94AB
:1028A000A2130F931F9300912602109127022091EB
:1028B00028023091290260277127822793271F91D0
:1028C0000F910C94A21308952FE0929F800D112474
:1028D000982F977041E001C0440F9A95EAF78695CA
:1028E0008695869595E0899FF0011124EC50FE4F66
:1028F00090E080E070E05191DF0111979B01082E7C
:1029000002C0369527950A94E2F721702195252774
:10291000242325272C9301968530910561F708958E
:102920002FE0929F800D1124982F977086958695A1
:10293000869525E0829FF0011124EC50FE4F50E077
:1029400040E080E0219130E0092E02C036952795C5
:102950000A94E2F721703327042E01C0220F0A9453
:10296000EAF7822B4F5F5F4F4530510559F70895C5
:10297000BF92CF92DF92EF92FF920F931F93CF936C
:10298000DF938C01C0902602D0902702E0902802AD
:10299000F090290280912A0290912B02A0912C02A2
:1029A000B0912D02C82AD92AEA2AFB2ACFE1D0E029
:1029B000BC2ED701C6010C2E04C0B695A7959795DD
:1029C00087950A94D2F780FD0EC0219788F7B12C25
:1029D0008B2DDF91CF911F910F91FF90EF90DF90A2
:1029E000CF90BF900895B8018C2F0E94CD0201971F
:1029F00061F3EECFCF93DF93EC010E94B814BE01D8
:102A0000DF91CF910C94CD021F93CF93DF93EB0115
:102A10009091BB01992331F0CB01DF91CF911F91B0
:102A20000C94FA14882379F0CB010E94B814182F63
:102A3000682FCE010E946414BE01812FDF91CF91D7
:102A40001F910C94CD02CB010E949014182FF4CF4B
:102A5000682F80910801909109010C947317682FD9
:102A600080910801909109010C947E1780910801D2
:102A7000909109010C94891780912E028595859576
:102A80008595089580912E028770089590912E0269
:102A9000977081E009F480E008959091780292FBAC
:102AA000222720F9281751F080FB92F990937802A1
:102AB00080917702909178020C9454160895809139
:102AC000780282FB882780F991E089270C944D15C4
:102AD00081E00C944D1580E00C944D1580915202CC
:102AE000089590915202892B809352020895809507
:102AF000909152029823909352020895109252029C
:102B0000089590915102892B8093510208958095E8
:102B1000909151029823909351020895109251027E
:102B2000089590915002892B8093500208958095CA
:102B30009091500298239093500208951092500261
:102B4000089580912F02089508950C94A4159091F2
:102B5000780292FD08C090912F02981721F080937F
:102B60002F020C94A515089580912F02882329F037
:102B700010922F0280E00C94A5150895E0910801B1
:102B8000F0910901809152028083E0910801F09157
:102B90000901808190915102892B8083E091080185
:102BA000F0910901808190915002892B808390914E
:102BB0002F02992381F0E0910801F09109018081B1
:102BC000892B808380910801909109010E94DF1672
:102BD00081110E94B41580910801909109010C9413
:102BE000D60A08950C94F1159091780292FD10C0C8
:102BF00098E0899F90011124622B60932E020E941D
:102C0000C81380912E028595859585950C94F215B3
:102C10000C94C81310922E0280E00C94F21590913F
:102C20002E028095892380932E02282F277039F455
:102C3000282F082E000C330B9217130621F49091C5
:102C4000780292FF07C08595859585950E94E913C6
:102C50000C940A16089580E008956FEF7FEF90E0DE
:102C600080E00C94AA1F90E080E00E94861F21E083
:102C70008A3E9E4F09F020E0822F089582E090E086
:102C80000C947E1F83E090E00C947E1FCF9384E031
:102C900090E00E947E1FC82F82E290E00E947E1F7B
:102CA000982F8C2FCF910895CF93C92F682F84E050
:102CB00090E00E948C1F6C2F82E290E0CF910C94E8
:102CC0008C1FAB01BC018FE090E00C949E1FAB0108
:102CD000BC0183E190E00C949E1F60E070E0CB01AA
:102CE0000C94671660E070E0CB010E9461160C94B2
:102CF0006D166AEE7EEF90E080E00E94AA1F60E011
:102D000082E090E00E948C1F60E083E090E00E94EF
:102D10008C1F10922A0210922B0210922C021092F9
:102D20002D0260E084E090E00E948C1F60E082E26F
:102D300090E00E948C1F60E085E090E00E948C1F74
:102D400060E086E090E00E948C1F6FEF87E090E0EB
:102D50000E948C1F40E050E0BA0188E090E00E94A1
:102D60009E1F60E08DE090E00E948C1F40E050E0EC
:102D7000BA0188E190E00E949E1F60E087E190E048
:102D80000E948C1F40E050E0BA018CE190E00E946C
:102D90009E1F70E060E080E290E00E94AA1F40E089
:102DA00050E0BA0188E190E00E949E1F0C947216D8
:102DB0000C947916682F8EE090E00C948C1FFC0127
:102DC000329680911401882321F0809177029EE150
:102DD00087FF96E080E0915008F408952191222326
:102DE000D1F38F5FF8CF662301F1209114012223E4
:102DF000F1F02091770227FF1AC0462F469546959D
:102E000046954E3190F4677021E030E002C0220F09
:102E1000331F6A95E2F7840F911DFC01828190E0D7
:102E20002823392381E0232B69F480E00895FC01F5
:102E3000329608962191261721F0E817F907D1F765
:102E4000F4CF81E008959C01FC0132969FEF80E071
:102E50004191461751F09F3F19F4411101C0982F3D
:102E60008F5F8630A9F79F3F09F40895290F311D20
:102E700097FD3A95F90162830895FC013296089610
:102E80002191261303C0DF0111971C92E817F9075F
:102E9000B9F70895E62FE695E695E695EE3168F4E4
:102EA000E80FF92FF11D677021E030E001C0220F1B
:102EB0006A95EAF78281822B82830895E62FE69550
:102EC000E695E695EE3170F4E80FF92FF11D677085
:102ED00021E030E001C0220F6A95EAF72095828157
:102EE00028232283089520911401222329F0209180
:102EF000770227FD0C944A170C9423172091140194
:102F0000222329F02091770227FD0C945E170C9460
:102F10003D17FC01329680911401882351F0809175
:102F2000770287FF06C08EE1DF011D928A95E9F7DF
:102F3000089586E0F9CF089508950C949C17809128
:102F40009502843049F10E949D1780E00E94A502FD
:102F50001092540288E190E020E40FB6F894A8950E
:102F6000809360000FBE2093600083B7817F8460F0
:102F700083BF83B7816083BF7894889583B78E7F42
:102F800083BF0FB6F894A895809160008861809304
:102F90006000109260000FBE08950895CF930E94C4
:102FA0009B170E9475050E94CD17C0E08C2F0E94D0
:102FB000FE04892B31F4CF5FC530C1F780E0CF919B
:102FC000089581E0FCCF08950C94E3170E94CE0F82
:102FD0000E94CA0A0E94A5020C94E4171F921FB611
:102FE0001F9211248F939F93AF93BF9380915402AC
:102FF000811113C080918D0290918E02A0918F0259
:10300000B09190024196A11DB11D80938D029093C5
:103010008E02A0938F02B0939002BF91AF919F91C7
:103020008F911F901FBE1F90189582E084BD93E082
:1030300095BD9AEF97BD80936E0008952FB7F894D1
:1030400080918D0290918E02A0918F02B09190029A
:103050002FBF08952FB7F89460918D0270918E0262
:1030600080918F02909190022FBF08959C014FB7DD
:10307000F89480918D0290918E02A0918F02B09170
:1030800090024FBF821B930B089578941F921FB636
:103090001F9211248F939F93AF93BF9380918D02C2
:1030A00090918E02A0918F02B09190020196A11D85
:1030B000B11D80938D0290938E02A0938F02B093E6
:1030C0009002BF91AF919F918F911F901FBE1F9053
:1030D000189581E08093E00080E28093D800109200
:1030E000C9008FE19EE40197F1F700C0000087E07E
:1030F00090EBDC0180939E0290939F02A093A0022C
:10310000B093A10288E19CE00FB6F894A895809353
:1031100060000FBE90936000FFCF90938D0180936D
:103120008C010895809175020895CF93DF9300D0AC
:103130000F92CDB7DEB790919502943019F589833F
:103140007B836A8382E08093E9008FEF9091E800AF
:10315000815095FD06C095ED9A95F1F7000081111B
:10316000F5CF8091E80085FF0DC050E040E063E0BE
:1031700070E0CE0101960E94BF1A8091E8008E7720
:103180008093E8000F900F900F90DF91CF910895FA
:10319000BC0184E00C949518BC0183E00C94951854
:1031A0009C0182E08093E9009FEF8091E8009150BC
:1031B00085FD06C085ED8A95F1F700009111F5CFE8
:1031C0008091E80085FF0CC050E040E066E070E0D0
:1031D000C9010E94BF1A8091E8008E778093E800B1
:1031E0000895CF93DF93EC01809114018823B1F10E
:1031F0008091770287FF32C060E282E08093E9002D
:103200008FEF9091E800815095FD06C095ED9A955D
:10321000F1F700008111F5CF8091E80085FF1BC018
:103220008091140170E050E040E0811104C050E052
:1032300040E068E070E0CE010E94BF1A8091E80093
:103240008E778093E80080E2FE01A5E5B2E0019070
:103250000D928A95E1F7DF91CF91089568E081E0C2
:10326000CDCF80919402811109C00E944F1C0E9411
:10327000AC1C8091E20084608093E200089510927B
:103280009402089508950895089542E061EC81E064
:103290000E94CB1B42E261EC82E00C94CB1B80913C
:1032A0009702833009F45FC030F48130C1F182307D
:1032B00009F49BC008958A3009F487C08B3009F463
:1032C0006DC0893009F04EC080919602813209F0BC
:1032D00049C080919A0290919B02029708F042C0E7
:1032E0008091E800877F8093E8008091E80082FF6A
:1032F00035C09091F3008091F200029729F48091FB
:10330000F1008B7F813021F48091F1008093750270
:103310008091E8008B778093E8000C94FF1B8091EC
:103320009602813AF9F48091E800877F8093E80063
:1033300080919A0290919B02892B61F460E285E56D
:1033400092E070E00E940E1B8091E8008B778093E2
:10335000E800089560E090E080E0F3CF809195026E
:103360008111C3CF089580919602813AD9F7809157
:103370009A0290919B02892BA9F78091E800877FA0
:103380008093E8008091E80080FFFCCF80911401D9
:103390008093F1008091E8008E77BDCF80919602F6
:1033A000813201F780919A0290919B02892BD1F68C
:1033B0008091E800877F8093E8000E94FF1B809146
:1033C0009802809314010C94CE0F80919602813262
:1033D00049F68091E800877F8093E8000E94FF1BF8
:1033E0008091990280937602089580919602813AA5
:1033F00009F0B8CF8091E800877F8093E800809142
:10340000E80080FFFCCF80917602C2CF84B7877F2F
:1034100084BF0FB6F894A89580916000886180936E
:103420006000109260000FBE80E890E00FB6F89444
:1034300080936100909361000FBE0E944B0B0E942D
:103440004F1C0E94AC1C8091E20084608093E200DB
:1034500078940E94351F0E945F0B8AE091E00E94E1
:10346000C50A80919502853099F00E94650B0E94F3
:103470005B0BF7CF0E949F1780919302882341F046
:103480000E94CE17882321F00E94A91A0E94CE0F15
:1034900080919502853071F30E94E617E6CF0C9477
:1034A000511A292F33272330310519F168F42130BF
:1034B000310509F444C02230310509F445C090E0DB
:1034C00080E030E020E025C02132310549F1223290
:1034D0003105A9F780E490E029EF32E0611571052C
:1034E000C1F086EB90E023E432E06130710589F0B1
:1034F000E6CF99278130910581F0009729F0029756
:10350000F1F6E8EDF1E002C0E2EFF1E0849190E045
:103510009F01FA01318320830895E6EEF1E0F6CFB2
:1035200089E090E028E032E06115710591F389E0CF
:1035300090E021E232E06130710559F3C0CF82E1C1
:1035400090E021E332E0E5CF8BE390E026EF31E03D
:10355000E0CF80E189BD82E189BD09B400FEFDCFE5
:103560008091D8008F7D8093D8008091E0008260A8
:103570008093E0008091E00081FDFCCF0895AF9240
:10358000BF92CF92DF92FF920F931F93CF93DF935F
:103590006C01EB018A010E941E1CF82E811123C0D0
:1035A0000115110539F0F80180819181C81BD90BF3
:1035B000C80ED91EB12CA12C2097A9F08091E8004B
:1035C00085FD22C08091E8008E778093E800011588
:1035D0001105A1F0F80180819181A80EB91EB18278
:1035E000A08285E0F82E8F2DDF91CF911F910F9152
:1035F000FF90DF90CF90BF90AF9008950E941E1C67
:103600008823D1F2F82EEFCFF60181916F018093DC
:10361000F1002197FFEFAF1ABF0ACECFFC018091D6
:103620009C0290919D0286179707A0F06115710585
:1036300029F49091E8009E779093E80090E061155E
:10364000710551F4911108C08091E80082FF34C0E7
:1036500080E00895BC01F2CF809195028823C1F1EA
:103660008530C1F18091E80083FD30C08091E80091
:1036700082FDEACF8091E80080FFE1CF8091F300E6
:103680002091F200382F6115710519F028303105AD
:1036900058F091E02830310509F090E02091E800E1
:1036A0002E772093E800CBCF81918093F100615079
:1036B00071092F5F3F4FE7CF80919502882341F03A
:1036C000853041F08091E80083FFBECF81E008950E
:1036D00082E0089583E00895FC0180919C0290911E
:1036E0009D0286179707A0F06115710529F4809156
:1036F000E8008E778093E80090E06115710551F441
:10370000911108C08091E80082FF35C080E00895E3
:10371000BC01F2CF809195028823C9F18530C9F1AF
:103720008091E80083FD31C08091E80082FDEACFFE
:103730008091E80080FFE1CF8091F3002091F200BA
:10374000382F6115710519F02830310558F091E0D6
:103750002830310509F090E08091E8008E77809361
:10376000E800CBCF84918093F100319661507109CC
:103770002F5F3F4FE6CF80919502882341F085303F
:1037800041F08091E80083FFBDCF81E0089582E0A1
:10379000089583E00895982F973028F08F708093D4
:1037A000E90081E008959093E900242F762F50E0FE
:1037B000981731F07091EC002091ED005091F000DD
:1037C00021FD02C09F5FE8CF3091EB003E7F309338
:1037D000EB003091ED003D7F3093ED003091EB0038
:1037E00031603093EB007093EC002093ED00509328
:1037F000F0002091EE0027FDE5CF80E00895809154
:10380000960287FF13C08091E80082FF06C0809176
:10381000E8008B778093E80004C0809195028111C5
:10382000F2CF0895809195028823D9F38091E80022
:1038300080FFF8CF8091E8008E77ECCF2091E400F4
:103840003091E50095E6A9012091EC00822F81706E
:1038500020FF06C08091E80080FF06C080E0089548
:103860002091E80022FD1AC080919502882389F0FA
:10387000853089F08091EB0085FD0FC02091E40038
:103880003091E50042175307F9F29150E1F684E0D8
:10389000089582E0089583E0089581E008950E94EC
:1038A000BD1C0E94C51CE0EEF0E080818160808339
:1038B000E8EDF0E080818F77808319BCA7EDB0E060
:1038C0008C918E7F8C9380818F7E80831092940266
:1038D00008950F931F93CF93DF930E94BD1C0E9406
:1038E000C51CC8EDD0E088818F7788838881806887
:1038F000888388818F7D888319BC109295021092ED
:103900009102109293021092920200EE10E0F801E0
:1039100080818B7F808388818160888342E060E042
:1039200080E00E94CB1BE1EEF0E080818E7F8083FF
:10393000E2EEF0E080818160808380818860808316
:10394000F80180818E7F8083888180618883DF9108
:10395000CF911F910F910895E8EDF0E080818F7E67
:103960008083E7EDF0E080818160808384E082BF26
:1039700081E0809394020C94691CE8EDF0E0808172
:103980008E7F80831092E20008951092DA001092E8
:10399000E10008951F920F920FB60F9211242F93FA
:1039A0003F934F935F936F937F938F939F93AF93C7
:1039B000BF93EF93FF938091E10082FF0BC0809152
:1039C000E20082FF07C08091E1008B7F8093E100DD
:1039D0000E94341F8091DA0080FF19C08091D800C6
:1039E00080FF15C08091DA008E7F8093DA0080918D
:1039F000D90080FF96C080E189BD82E189BD09B40C
:103A000000FEFDCF81E0809395020E9431198091E4
:103A1000E10080FF19C08091E20080FF15C0809115
:103A2000E2008E7F8093E2008091E20080618093CB
:103A3000E2008091D80080628093D80019BC85E0B4
:103A4000809395020E9443198091E10084FF2BC06E
:103A50008091E20084FF27C080E189BD82E189BDB9
:103A600089B5982F917080FFFBCF8091D8008F7D12
:103A70008093D8008091E1008F7E8093E100809157
:103A8000E2008F7E8093E2008091E200816080936B
:103A9000E20080919102882309F449C084E0809378
:103AA00095020E9444198091E10083FF29C0809112
:103AB000E20083FF25C08091E100877F8093E100D1
:103AC00082E080939502109291028091E1008E7FB6
:103AD0008093E1008091E2008E7F8093E2008091EC
:103AE000E20080618093E20042E060E080E00E94BA
:103AF000CB1B8091F00088608093F0000E944219F7
:103B0000FF91EF91BF91AF919F918F917F916F91B5
:103B10005F914F913F912F910F900FBE0F901F908B
:103B2000189519BC109295020E943F1970CF809190
:103B3000E30087FD93E090939502B3CF1F920F921D
:103B40000FB60F9211242F933F934F935F936F9370
:103B50007F938F939F93AF93BF93CF93DF93EF9315
:103B6000FF93D091E900DF708091EC00C82FC17005
:103B700080FDC0E81092E9008091F000877F80937B
:103B8000F00078940E94E21D1092E9008091F0000C
:103B900088608093F000CD2BCF70C093E900FF9137
:103BA000EF91DF91CF91BF91AF919F918F917F91D5
:103BB0006F915F914F913F912F910F900FBE0F909A
:103BC0001F9018951F93CF93DF93CDB7DEB7AA97B9
:103BD0000FB6F894DEBF0FBECDBF86E992E020910C
:103BE000F100FC012193CF01F2E08E399F07B9F774
:103BF0000E944F198091E80083FF1EC180919602B8
:103C0000909197029A3008F017C1E92FF0E0E05246
:103C1000F04E0C94641F803899F0823809F00CC182
:103C200080919A028F70873008F006C18093E90076
:103C30008091EB0085FB882780F91092E90006C08F
:103C40008091920290919302911182609091E8008C
:103C5000977F9093E8008093F1001092F10080919B
:103C6000E8008E77E5C0882309F4D3C0823009F0DC
:103C7000E3C0809198028111D6C080919A028F7022
:103C80002FEF280F263008F0D7C08093E90020914D
:103C9000EB0020FFC8C0933031F48091EB008062CC
:103CA0008093EB00C0C09091EB0090619093EB008B
:103CB00021E030E001C0220F8A95EAF72093EA0064
:103CC0001092EA008091EB008860EACF8111B4C0C5
:103CD000109198021F778091E3008078812B809368
:103CE000E3008091E800877F8093E8000E94FF1B3B
:103CF0008091E80080FFFCCF8091E3008068809392
:103D0000E30082E0111183E08093950295C0805812
:103D1000823008F091C080919802909199028C3D78
:103D200023E09207A1F583E08A838AE289834FB773
:103D3000F894DE01139620E03EE051E2E32FF0E03C
:103D400050935700E49120FF03C0E295EF703F5F6E
:103D5000EF708E2F90E0EA30C0F0C7968D939D9360
:103D60002F5F243159F74FBF8091E800877F809300
:103D7000E8006AE270E0CE0101960E940E1B80917D
:103D8000E8008B778093E80057C0C096E7CF60913A
:103D90009A0270919B02AE014F5F5F4F0E944F1AD3
:103DA000BC01892B09F448C09091E800977F90935B
:103DB000E80089819A810E946C1BE1CF8038E1F58F
:103DC0008091E800877F8093E80080919102809342
:103DD000F10045CF811130C090919802923060F58A
:103DE0008091E800877F8093E800909391020E9481
:103DF000FF1B80919102882311F084E005C080911F
:103E0000E30087FDFACF81E0809395020E94451977
:103E100013C080919802813079F481E0933009F0E9
:103E200080E0809393021092E9008091E800877F00
:103E30008093E8000E94FF1B8091E80083FF0AC086
:103E40008091E800877F8093E8008091EB0080629A
:103E50008093EB00AA960FB6F894DEBF0FBECDBFDD
:103E6000DF91CF911F9108950895CF93809195028E
:103E70008823A1F0C091E900CF709091EC00892FC8
:103E8000817090FD80E8C82B1092E9008091E800D5
:103E900083FD0E94E21DCF70C093E900CF91089589
:103EA00097FB072E16F4009407D077FD09D00E94E7
:103EB0006A1F07FC05D03EF4909581959F4F0895A9
:103EC000709561957F4F0895EE0FFF1F0590F49157
:103ED000E02D0994AA1BBB1B51E107C0AA1FBB1F01
:103EE000A617B70710F0A61BB70B881F991F5A9586
:103EF000A9F780959095BC01CD010895F999FECF61
:103F000092BD81BDF89A992780B50895A8E1B0E0E7
:103F100042E050E00C94B21F262FF999FECF92BDDB
:103F200081BDF89A019700B4021639F01FBA20BD7E
:103F30000FB6F894FA9AF99A0FBE08950396272FB0
:103F40000E948D1F0E948C1F252F0E948D1F242FE1
:103F50000C948D1F0196272F0E948D1F0C948C1F8F
:103F6000DC01CB01FC01F999FECF06C0F2BDE1BD39
:103F7000F89A319600B40D9241505040B8F7089528
:103F8000F894FFCF970D970DEF0DEF0D410E5D0EDD
:103F9000C40DC40D680EF40E030F030F5F0FC40DA4
:103FA000C40D680FDD0FDD0FE60FE60FE80FE60F1B
:103FB000E60FE60FDD0FDD0FED0FE60FE60FED0F5D
:103FC0000B1E331E1C1F331E1C1F661E871E1C1F4C
:043FD000DE1EEA1EE9
:103FD4002808641E140A321E30029218F118D018F0
:103FE400CC18C81801E200E900EA00B500B600B731
:103FF40000CD008301CC008A0192019401210223A7
:104004000224022502260227022A02B300B4006F0A
:10401400007000818283F0F1C667663694313037D0
:1040240035349796339091929395E200E900EA0033
:10403400B500B600B700CD008301CC008A0192011F
:1040440094012102230224022502260227022A02C5
:0C405400B300B4006F0070008182830094
:00000001FF
