:100000000C9469010C94B0010C94B0010C94B001F3
:100010000C94B0010C94B0010C94B0010C94B0019C
:100020000C94B0010C94B0010C94AA1C0C947E1D8D
:100030000C94F4170C94B0010C94B0010C94B00122
:100040000C94B0010C94B0010C94B0010C94B0016C
:100050000C94B0010C944B180C94B0010C94B001AA
:100060000C94B0010C94B0010C94B0010C94B0014C
:100070000C94B0010C94B0010C94B0010C94B0013C
:100080000C94B0010C94B0010C94B0010C94B0012C
:100090000C94B0010C94B0010C94B0010C94B0011C
:1000A0000C94B0010C94B0010C94B00179235476F7
:1000B00033304436363F0101280053454C45435404
:1000C00020544F5020313030202A2046524F4D20AE
:1000D000005F5D605D615D625D000000000000002A
:1000E000002A2B2800000000000000000000000093
:1000F0000000000029000000002C1E3420212224D2
:10010000342627252E362D3738271E1F202122235F
:100110002425263333362E37381F040506070809F1
:100120000A0B0C0D0E0F10111213141516171819B7
:100130001A1B1C1D2F3130232D3504050607080915
:100140000A0B0C0D0E0F1011121314151617181997
:100150001A1B1C1D2F3130354C0000000000000020
:10016000000000000000000000000000000000008F
:10017000000000000000000000000000007E0F00F2
:10018000D4FFFFFFC70000007828034D006500631F
:1001900000680062006F006100720064007300205C
:1001A000004D006900630072006F00700061006420
:1001B00000000010035900690061006E00630061D7
:1001C00000720000000403090409023B0002010060
:1001D000A0FA090400000103010100092111010036
:1001E000012240000705810308000A0904010001FB
:1001F00003000000092111010001227B0007058294
:100200000320000A120110010000000868890100A3
:1002100001000102000105010902A1018502090195
:10022000A100050919012908150025019508750186
:1002300081020501093009311581257F9502750874
:10024000810609381581257F950175088106050C01
:100250000A38021581257F950175088106C0C00501
:10026000010980A101850319012AB700150126B7EC
:1002700000950175108100C0050C0901A1018504DC
:1002800019012AA002150126A0029501751081000E
:10029000C005010906A101050719E029E715002598
:1002A00001950875018102950175088101050719FD
:1002B0000029FF150026FF00950675088100050836
:1002C00019012905950575019102950175039101A3
:1002D000C00011241FBECFEFDAE0DEBFCDBF04B6F1
:1002E00003FE27C08091160290911702A091180278
:1002F000B09119028730904BA740B04BD1F41092C7
:10030000160210921702109218021092190214BECF
:1003100084B7877F84BF0FB6F894A895809160005A
:10032000886180936000109260000FBEE0E0F8E307
:10033000099511E0A0E0B1E0E4E9FFE302C0059017
:100340000D92AC37B107D9F722E0ACE7B1E001C0BC
:100350001D92A631B207E1F70E94E6190C94A01F86
:100360000C9400000C9421060C9422060C94BA0103
:100370000C94E203FB0180362DE5920719F128F475
:100380008F359D4579F081E0089581362DE59207FE
:1003900009F182369D45B9F782818823A1F38CEA61
:1003A00090E015C08281882371F38DE490E00E9473
:1003B00051028AE492E00E9451028EE390E00E9492
:1003C0005102E1CF82818823F1F28AEB90E00E9412
:1003D000DF03D9CF82818823B1F288E193E0EFCFA8
:1003E000CF93DF939C013A9521153F4168F5EC01CD
:1003F000CC27D170DC01AA27B270AC01442754701D
:100400009C012227387094FF11C080E1CD2B09F4A4
:1004100080E0AB2B09F08062452B09F08064232B30
:1004200009F08068FB01DF91CF91099481E0CD2B29
:1004300009F480E0AB2B09F08260452B09F0846061
:10044000232B81F38860EECFDF91CF910895CF9376
:10045000DF93EC01805E9109089720F066E270E17D
:10046000209711F463EC7DE0CE010E94F0018C2F07
:10047000DF91CF910C94BC0CCF93DF93EC010E94E1
:100480004E0DCE01805E9109089720F06DE270E17B
:10049000209711F46AEC7DE0CE01DF91CF910C94AE
:1004A000F001CF93DF93EC010E942702CE01DF9190
:1004B000CF910C943C0281E0089508950C945D0264
:1004C0001F93CF93DF9300D000D00F92CDB7DEB74C
:1004D00049835A836B833091A20189819A813111BA
:1004E0001DC06623B9F02223A9F00E943315182FEE
:1004F000682F89819A810E94E01469817A81812F15
:100500000F900F900F900F900F90DF91CF911F9150
:100510000C94F3030E940C15182FEFCF0E94331593
:1005200069817A81EDCFFC01262F40815181628162
:10053000738184810C946002CF93DF93EC0160E0BF
:100540000E949302BE01DF91CF910C945E020E9443
:10055000FD050C94B2010C94B40108950E944A1058
:100560000E94AD022FEF84E39CE021508040904038
:10057000E1F700C000000C946F180F931F93CF9306
:10058000DF938C0161E00E949302EC01B8010E94AC
:10059000B6018823A9F1B801CE010E94D4098823AD
:1005A00079F1B801CE010E94260A882349F1B801E9
:1005B000CE010E94490B882319F1F801828188231A
:1005C00061F0CB35FDE5DF0721F170F4C115ECE5F5
:1005D000DE07A1F0CF3DDC45C9F0C801DF91CF9126
:1005E0001F910F910C945B02CC358DE5D807A1F0DB
:1005F000CD35DD4591F70E94DA15EFCF0E94AE02AE
:1006000080E0DF91CF911F910F9108950E944D17C7
:10061000F7CF0E94E315E1CF0E94E615DECFDF920F
:10062000EF92FF920F931F93CF93DF93E82FF0E0A9
:10063000E752FF4FD490282F26952695269530E037
:10064000F901E758FE4F0491877010E0082E02C0B0
:10065000159507950A94E2F701701127F901E759FA
:10066000FE4FE490F12C082E02C0F594E7940A9412
:10067000E2F791E0E922FF24F901E75AFE4FC49125
:10068000D0E002C0D595C7958A95E2F7C170DD2705
:100690000115110519F081EE0E94BC0CE114F10462
:1006A00019F086EE0E94BC0C8D2D0E94BB0DEF2828
:1006B00019F086EE0E944E0D012B19F081EE0E947A
:1006C0004E0DCD2B51F08CE2DF91CF911F910F9108
:1006D000FF90EF90DF900C94BB0DDF91CF911F91B5
:1006E0000F91FF90EF90DF900895EF92FF920F939C
:1006F0001F93CF93DF938C01F62E8AE0E82EF8014A
:100700008491882309F454C0813009F04DC0E80178
:100710002196FE018491813091F42196FE0184910D
:100720000E94BB0D8E010F5F1F4F8F2D815038F33C
:10073000EFE9FFE03197F1F700C00000F7CF82301A
:1007400039F4E8012296FE0184910E94BC0CEACFA4
:10075000833039F4E8012296FE0184910E944E0D07
:10076000E1CF8430F9F6E8012296FE01249190E071
:1007700080E0FE0131962053330B2A30310548F0DA
:10078000019780F2EFE9FFE03197F1F700C0000038
:10079000F7CFE89EA001E99E500D1124C901840FF6
:1007A000951F2491EF01E5CF0E940F03E801BACF16
:1007B000DF91CF911F910F91FF90EF90089560E02E
:1007C0000C947503089581E008950C94E303CF938E
:1007D000C82F0E94B8018C2FCF910C94E50390E0B4
:1007E00080E008950895272F280F3327331FF9013C
:1007F000EE0FFF1FEE0FFF1FE60FF11DEE0FFF1FA5
:10080000EF52FF4F859194910895FC01EE0FFF1F69
:10081000E757FE4F859194910895CF93DF930E94FF
:10082000F3030E942205EC01811520E5920708F0F0
:1008300042C0811530E4930708F0BDC0883E9105A1
:1008400028F5803E910508F09DC0883A910588F40E
:10085000853A910508F08FC08130910509F492C066
:10086000009709F48FC0049708F08CC0D0E0C0E076
:1008700089C08F3B910508F489C0805C9109C03C18
:10088000D105A0F30E940504EC017CC081159042C3
:1008900050F4C11581E0D80708F074C0CD3ED105F1
:1008A00028F3D0656FC0C11590E3D90708F079C06F
:1008B000CE019F70E7CF811525E5920758F5811588
:1008C00034E5930708F0A6C0811542E5940750F47B
:1008D000C11581E5D80708F471C0DC2FCC27C16FA2
:1008E000D06A50C0982F969596959E012370332715
:1008F000C115D34508F07FC0C1E0D0E002C0CC0FE5
:10090000DD1F2A95E2F720E2929FC0011124C82B37
:10091000D92B6FC0C11589E5D807A8F4C11598E592
:10092000D90708F07CC0C11526E5D20708F09ECF94
:100930008C2F0E94B905C82FD0E0DC2FCC27CC2704
:10094000DF71D0621FC0C1153AE5D30708F46CC04F
:10095000CE0190568115904208F088CF8D2F8F716F
:100960000E94B90590E0982F882788279F719C01E5
:100970002C2BE901E6CFC55AD0E0CD5BDE4FC88114
:10098000D0E0D064CE01DF91CF910895C85AD0E075
:10099000CC0FDD1FCB5EDE4F0990D881C02DD46413
:1009A000F1CFCE019927D3FF03C0EC01D86CEACF79
:1009B000EC01D06CE7CFDF70D06AE4CFCE01E4E089
:1009C00096958795EA95E1F783702C2F26952695C5
:1009D000237090E2299F90011124382B8C2F837073
:1009E000C1E0D0E002C0CC0FDD1F8A95E2F7C22B38
:1009F000D32BDC68C7CFC1E0D0E002C0CC0FDD1F35
:100A00002A95E2F730E2939FC0011124C82BD92B1D
:100A1000DA68B8CFD82FCC27C46FD06AB3CFDC2F19
:100A2000CC27C06FD06AAECF8C2F8F700E94B905D3
:100A300034E0D695C7953A95E1F7CF709C2FEC013D
:100A4000D069A0CF82389105B1F1B0F4813391051E
:100A500009F475C048F48932910509F469C08A32F5
:100A6000910509F473C008958533910509F459C0BF
:100A70008933910501F10895833E9105A9F138F478
:100A8000803E9105F9F0823E910549F10895863E38
:100A90009105A9F1873E9105C9F1843E910519F5AB
:100AA0002091020221FF1FC08091010284FD14C029
:100AB00087EE90E00895209101022370A1F080EE6E
:100AC00090E008952091010220FD47C0309102027C
:100AD00030FF09C024FF44C090E080E004C02091B2
:100AE000010222FDF7CF08952091010222FD3BC0B3
:100AF0003091020230FDE3CF24FFF5CFEDCF2091FE
:100B0000010223FFF0CF24FDE7CFD2CF20910102D5
:100B100023FD2CC03091020231FFEECF84EE90E035
:100B200008952091010225FFDECF89E290E008952B
:100B30002091010225FFD7CF85E390E00895209111
:100B4000010226FFD0CF8AE290E0089520910102B1
:100B500026FFC9CF81E390E0089589E390E00895EE
:100B600083EE90E0089582EE90E0089586EE90E0A6
:100B700008959091010292FF06C0282F2871283015
:100B8000F9F4877F846093FF06C0282F28712831ED
:100B9000F1F4877E84612091020220FF06C0382F85
:100BA00038713830D9F4877F816021FF06C0282F43
:100BB00028712831D1F4877E816194FD877E089564
:100BC000282F24712430F9F68B7F8860DCCF282F02
:100BD0002471243101F78B7E8861DDCF382F31718C
:100BE000313019F78E7F8860E0CF282F21712131B5
:100BF00021F78E7E8861E1CF08950E94A8168111A9
:100C000002C00E944D170E94B3168093F5010E9406
:100C1000BB1690930202809301020E94FC050E9481
:100C2000B716682F70E090E080E00E94E2136091B8
:100C3000E0017091E1018091E2019091E3010C9457
:100C40001C1408950895E82FF0E0EC5FFD4F8081BB
:100C50000895089580EA8A95F1F7089500C00895EF
:100C60000C942A06F894E82FE295EF70F0E031A199
:100C7000282F2F7081E090E001C0880F2A95EAF7B5
:100C8000982F9095932391A392A1892B82A3789476
:100C9000089586E30E94320682E30E94320683E3CF
:100CA0000E94320681E30E94320687EF0E943206DC
:100CB000109203021092040281E00E94A6060C9496
:100CC000A702CF93F894269A2E9878940E942E0625
:100CD000A6E4B1E030E020E0C0E051E04D91E42F27
:100CE000E295EF70F0E080A190E04F7002C0959522
:100CF00087954A95E2F780FD25C0852F022E01C019
:100D0000880F0A94EAF7C82B2F5F3F4F2430310534
:100D100029F786E30E9432060E9430068091030282
:100D2000C81791F0C0930302C1E02C2F41E064E0AA
:100D300072E083E092E00E94A7060E94AB028C2F33
:100D4000CF91089580E0DFCFC0E0EFCF0895FF920C
:100D50000F931F93CF93DF93F82E092F162FD72FC2
:100D6000C42F222349F081E0809380010E9424183F
:100D700090937F0180937E01809180018823A1F070
:100D800080917E0190917F010E943C18069760F04F
:100D9000EF2DF02FA12FBD2FCE0FDF2FD11DEC1780
:100DA000FD0741F410928001DF91CF911F910F91C7
:100DB000FF90089581918D93F2CF8091870180FFFC
:100DC00012C06091050185E0689FB00111247595FE
:100DD00067957595679560387105A8F5611571057A
:100DE000A1F1862F089581FF09C06091050185E07A
:100DF000689FB001112475956795EDCF609105014D
:100E000082FD0AC0809186018823D1F0909104016F
:100E100060910501891728F085E0689FB0011124D1
:100E2000DACF869FB001112485E0869F9001879FCD
:100E3000300D1124692F70E0C9010E94301FCBCF03
:100E400065E070E0CECF8FE7089581E0089580914E
:100E5000870180FF0CC06091010170E07595679576
:100E6000759567956115710549F1862F089581FF84
:100E700006C06091010170E075956795F3CF6091B0
:100E8000010182FD0BC0909185019923A1F0609131
:100E9000000180910101961738F0682F70E06038EA
:100EA000710500F38FE70895899FC001112470E058
:100EB0000E94301FF4CF61E070E0D7CF81E0089549
:100EC0008D3E31F40E94DD06819580938B0108955B
:100ED0008E3E19F40E94DD06F8CF8F3E31F40E9459
:100EE000DD06819580938A010895803F19F40E9460
:100EF000DD06F8CF893F29F40E94270780938C01F3
:100F000008958A3F21F40E9427078195F7CF8B3FF0
:100F100031F40E942707819580938D0108958C3FBD
:100F200019F40E942707F8CF9FE0980F983070F4CB
:100F3000815F990B21E030E001C0220F8A95EAF72A
:100F400080918901822B8093890108958D3F31F42E
:100F50008091870181608093870108958E3F21F4FD
:100F6000809187018260F7CF8F3FB9F78091870129
:100F70008460F1CF40918A018D3E59F480918B01BC
:100F800087FF0DC010928B0141110BC0109286019A
:100F900008C08E3E81F480918B0118169CF3442387
:100FA00081F080918C0190918D01892B09F05AC0BC
:100FB0001092850108958F3E49F447FFF0CF1092BB
:100FC0008A0180918B018111ECCFE0CF803F19F431
:100FD0001416ACF3E4CF90918C01893F29F41916D3
:100FE000F4F610928C01DBCF8A3F19F497FFD7CF2C
:100FF000F8CF90918D018B3F29F497FFD0CF1092BD
:101000008D01CDCF8C3F19F41916CCF3C8CF9FE0DA
:10101000980F983090F4815F990B21E030E0B9018E
:1010200002C0660F771F8A95E2F7CB0180959091F9
:101030008901892380938901B2CF8D3F31F480915A
:1010400087018E7F80938701AACF8E3F21F4809104
:1010500087018D7FF7CF8F3F09F0A1CF8091870166
:101060008B7FF0CF08950E9424189C0190918A01F3
:1010700080918B01982B21F0309384012093830180
:1010800090918C0180918D01982B21F030938201F9
:101090002093810188E891E00C948F0BEF92FF92EE
:1010A0000F931F93CF93DF9300D000D000D0CDB724
:1010B000DEB786E0E8E8F1E0DE01119601900D92DE
:1010C0008A95E1F7E0908A01F0908B0100918C0104
:1010D00010918D0110928A0110928B0110928C0157
:1010E00010928D018E2D8F2991F080918301909126
:1010F00084010E943C18AC0190918601992309F467
:101100003FC0809106018417150608F447C0802F60
:10111000812B91F080918101909182010E943C1875
:10112000AC0190918501992309F477C08091020167
:101130008417150608F47FC080918A0190918B0175
:10114000892B90918C01892B90918D01892B11F025
:101150000E94330886E0FE013196A8E8B1E00190D4
:101160000D928A95E1F726960FB6F894DEBF0FBE72
:10117000CDBFDF91CF911F910F91FF90EF90089518
:10118000209107018AE0289F900111242417350738
:1011900008F0BDCF9F5F9093860102C09F3FD1F7BB
:1011A000EE2059F00E94DD069FEF1E140CF491E032
:1011B000899F802D112480938A01FF2059F00E947D
:1011C000DD069FEF1F140CF491E0899F802D112400
:1011D00080938B0130918A01332309F498CF2091B9
:1011E0008B01222309F493CF45EB3403C001112472
:1011F000992359F090938A0145EB2403900111241F
:10120000332339F030938B0182CF81E080938A01C0
:10121000F3CF81E080938B017ACF209103018AE0A4
:10122000289F900111242417350708F085CF9F5F70
:101230009093850102C09F3FD1F7002359F00E948F
:1012400027079FEF10160CF491E0899F802D112441
:1012500080938C01112359F00E9427079FEF1116EC
:101260000CF491E0899F802D112480938D013091A1
:101270008C01332309F460CF20918D01222309F4DE
:101280005BCF45EB3403C0011124992359F09093AF
:101290008C0145EB240390011124332339F0309362
:1012A0008D014ACF81E080938C01F3CF81E0809360
:1012B0008D0142CF86E0E8E8F1E0DF011D928A95DA
:1012C000E9F7109286011092850110928701089526
:1012D0000F931F93CF93DF93C42FD22FFC018281F2
:1012E0008823C9F0409390010E94241890938F01A5
:1012F00080938E0180E28C0F883008F050C0C77058
:1013000081E001C0880FCA95EAF7DF91CF911F9164
:101310000F910C94C30D10919001141335C080915E
:101320008E0190918F010E943C18883C910560F5D8
:10133000C0E2CD0F1D17B9F080E2810F883040F474
:10134000177081E001C0880F1A95EAF70E94CA0D54
:10135000C83048F481E09D2F977001C0880F9A959E
:10136000EAF70E94C30D802F0E94BB0DC830B8F46D
:10137000D77081E001C0880FDA95EAF7DF91CF914D
:101380001F910F910C94CA0D80E28C0F883038F4B5
:10139000C77081E001C0880FCA95EAF7EFCFDF91EF
:1013A000CF911F910F9108950F939C01CB01243F82
:1013B0004CE5340759F1A8F4293DFCE53F0701F15C
:1013C0002A3D4CE53407D1F1283D3C4591F406E235
:1013D00021EE41EE68ED7CE50E94680980E00F9106
:1013E0000895263FFCE53F07E9F0B0F0273F3C4574
:1013F000F9F0FC018281882339F110929001EFCF3E
:1014000007E225EE45EE69ED7CE5E6CF06E221EE4A
:1014100040EE64EF7CE5E0CF07E225EE44EE65EFB9
:101420007CE5DACF06E221EE42EE66EF7CE5D4CF32
:1014300007E225EE46EE67EF7CE5CECF08E221E03D
:1014400045EE6AED7CE5C8CF81E0C9CFCF93DF934D
:10145000EC01FB018281882309F419C1C230FCE54B
:10146000DF07C0F1C6319CE5D90730F09E012B5F44
:101470003C452930310570F50E94BB16909302025D
:1014800080930102C031ECE5DE0709F4CFC008F01B
:101490005BC0C8308CE5D80709F4B6C088F5C43005
:1014A000ECE5DE0709F4A8C0C0F4C2308CE5D8072B
:1014B00009F49CC0809101028260C330DC4509F4CC
:1014C00098C080910102909102020E94C9160E9468
:1014D0004A1080E0DF91CF910895809101028061F0
:1014E000C630ECE5DE0709F484C080910102886013
:1014F000C730DC4508F47DC080910102806279C06C
:10150000CC308CE5D80709F489C070F480910102D1
:101510008C60CA30ECE5DE0709F46BC008F478C0D3
:10152000809101028E7F65C0CE308CE5D80709F42A
:1015300079C0809101028B7FCF30DC4508F459C01F
:10154000809101028F7E55C0CC3FECE5DE0709F4A7
:1015500057C030F5C3318CE5D80709F46FC078F473
:10156000C131ECE5DE0709F465C0C231DC4509F0A4
:10157000A8CF0E944A10809101028F773AC0C531EE
:101580008CE5D80709F462C008F476C080910202A5
:101590008160CB3FDC4509F094CF8093020291CF6C
:1015A000C115FDE5DF0709F44DC088F48091020202
:1015B0008D7FCE3F9CE5D90781F3809102028E7F1B
:1015C000CF3FDC4550F3809102028360E6CFC2300A
:1015D000FDE5DF0709F459C008F444C080E0C330DA
:1015E000DD4509F06ECF0E944F176BCF809101024D
:1015F00081608093010265CF809101028460F9CF00
:10160000809102028260C9CF809101028064F1CF93
:101610000E944A10809101028068EBCF8091010204
:101620008D7FE7CF80910102877FE3CF8091010218
:101630008F7DDFCF809101028F7BDBCF8091010214
:10164000837FD7CF809102028C7FA7CF8091010248
:1016500082FB992790F921E0922790FB82F990FB79
:1016600083F9C7CF80910202982F909591708E7F59
:10167000892B90FB81F991CF0E944A109091010231
:10168000892F97FB87F98058B4CF81E0ACCF81E0F8
:1016900021CFCF93DF93EB0186319C4511F50E945A
:1016A000E9159A81992399F08A7A91E009F490E0FA
:1016B00090939101811109C089E20E94A3150E94B3
:1016C000391680E0DF91CF91089585E3F6CF8091C0
:1016D0009101811104C089E20E94AA15F0CF85E32F
:1016E000FBCF81E0EFCF909397018093960108950F
:1016F000E0919601F0919701309721F00190F081EF
:10170000E02D099480E00895E0919601F091970111
:10171000309721F00280F381E02D09940895E09143
:101720009601F0919701309739F022E0DC012C937B
:101730000480F581E02D0994089520919401309161
:1017400095012817390771F09093950180939401C2
:10175000E0919601F0919701309721F00680F78192
:10176000E02D09940895209192013091930128175A
:10177000390771F09093930180939201E091960163
:10178000F0919701309721F00084F185E02D0994C4
:1017900008950E94301860939E0170939F0180937A
:1017A000A0019093A10160939A0170939B01809393
:1017B0009C0190939D01089585B7806885BF85B78A
:1017C000806885BF0895089508950C94E30B0895EB
:1017D0000C94E70B0E94DC0B86EA96E10E948018CD
:1017E0000E94E40B0C94E50B81E008950C94F40B3B
:1017F000089508950E94F80B0C94F90B0E941B1891
:101800000E9449060C94E80BEF92FF920F931F93EE
:10181000CF93DF93CDB7DEB72A970FB6F894DEBF2C
:101820000FBECDBF0E94610681110E94C90B80E0EE
:101830000E942306182F80919901E82EE126811736
:1018400009F445C08091F50181FD0E942906F12C23
:1018500001E08E2D8023B1F10E94F60B882399F0D0
:10186000FE821F82102381E009F480E088870E94B5
:1018700024188160782F9A8789874E815F816885D7
:101880008A850E94850C809199010827009399010F
:101890000E944E080E94780B90919801891741F19F
:1018A0000E94780B809398012A960FB6F894DEBFB9
:1018B0000FBECDBFDF91CF911F910F91FF90EF90A1
:1018C0000C94E703F394000F84E0F812C2CF8FEF7B
:1018D00089838A831B820E9424188160782F9D83CC
:1018E0008C8349815A816B818D810E94850CD0CF78
:1018F0002A960FB6F894DEBF0FBECDBFDF91CF9111
:101900001F910F91FF90EF900895DF92EF92FF9259
:101910000F931F93CF93DF93CDB7DEB72B970FB6FF
:10192000F894DEBF0FBECDBF7A878B87F42E052FCC
:10193000162FE72ED82E61110E9409161E821D82D5
:101940007E2DEC82DD824F2D502F612F8D2D9E81BB
:101950002B960FB6F894DEBF0FBECDBFDF91CF91AF
:101960001F910F91FF90EF90DF900C94C012FC013B
:10197000808191810C947515CF93C82F882309F429
:101980008BC08238C1F40E94780B81FD85C089E349
:101990000E94A3150E9439162FEF81EE94E021508A
:1019A00080409040E1F700C0000089E30E94AA1542
:1019B000CF910C9439168338A1F40E94780B80FDE6
:1019C0006BC083E50E94A3150E9439162FEF81EEAC
:1019D00094E0215080409040E1F700C0000083E592
:1019E000E5CF8438A1F40E94780B82FD55C087E4CE
:1019F0000E94A3150E9439162FEF81EE94E021502A
:101A000080409040E1F700C0000087E4CFCF8CEF2A
:101A10008C0F813A90F46C2F80910801909109010C
:101A20000E946617882329F08C2F0E94AA150E9415
:101A300039168C2F0E94A315BBCF80E28C0F883003
:101A400048F4C77081E001C0880FCA95EAF70E9488
:101A5000EC15AECFEBE5EC0FE33040F4F0E0E858E6
:101A6000FE4F808190E0CF910C949D0BE8E5EC0F48
:101A7000E73150F4F0E0EE0FFF1FE65BFE4F808190
:101A80009181CF910C94B30BCD3E30F08C2F0E94FE
:101A90006007CF910C943308CF910895882309F4FF
:101AA00052C0823871F40E94780B81FF4CC089E3E8
:101AB0000E94A3150E94391689E30E94AA150C946E
:101AC0003916833859F40E94780B80FF3CC083E5B7
:101AD0000E94A3150E94391683E5EFCF843859F48C
:101AE0000E94780B82FF2FC087E40E94A3150E94FA
:101AF000391687E4E2CF9CEF980F913AF0F290E22A
:101B0000980F983050F4877091E001C0990F8A9532
:101B1000EAF7892F0E94F215D2CF9BE5980F9330F8
:101B200020F490E080E00C949D0B98E5980F97319D
:101B300020F490E080E00C94B30B8D3E20F00E94E6
:101B4000BA070C94330808951F93CF93DF93182F8F
:101B5000EB010E94BC0C209731F4812FDF91CF91D3
:101B60001F910C944E0D8FE99FE00197F1F700C093
:101B700000002197F0CF70E060E0893311F460E558
:101B800070E00C94A40D882321F00E94EC150C94B5
:101B900039160895882321F00E94F2150C94391605
:101BA0000895BF92CF92DF92EF92FF920F931F930F
:101BB000CF93DF936C01D62FC72FFC0112810581D3
:101BC00002950F700E94C115E82E8823A1F0E12E26
:101BD000112389F08C2F807F803429F080E28D0FD3
:101BE000E12C883040F082E00E948A160E94C115E4
:101BF00091E0E82EE926BC2EB2949FE0B922EB2DAD
:101C0000F0E0EE55F04E0C94441F0C2F0F70C07F87
:101C100011F00295007F1123A9F0002359F080E212
:101C20008D0F883010F0D11109C0802F0E94EC1563
:101C30000E9439168D2F0E94BC0C14C0802F0E9468
:101C4000FC15F6CF8D2F0E944E0D002359F080E237
:101C50008D0F883010F0D1112CC0802F0E94F2150A
:101C60000E9439162B2D2850330B2430310520F4D7
:101C70000E94780B0E94E703EE2009F49EC10E94A7
:101C8000BD1580FD9AC1F60112820E94B7150E940F
:101C90004414C6010E94FE0F0E94B715DF91CF9138
:101CA0001F910F91FF90EF90DF90CF90BF900C9419
:101CB0006514802F0E940216D3CFFC2FFF70FF2ED9
:101CC000C07FC03219F0F29480EFF822DD2369F072
:101CD000D13049F1112391F1002351F1F6018581B1
:101CE00080FFA8CF8F70858323C0112381F001115D
:101CF00006C00E941C168F290E94C30DB3CF01306D
:101D0000C1F70E941C168F290E942216ABCF011129
:101D100006C00E942F168F2D0E94CA0DA3CF01303E
:101D200009F4A0CFF6CF112329F0063008F09ACF9E
:101D30008F2DE2CF053008F095CFEDCF002359F37A
:101D4000D93349F4FFEF27EE33E0F1502040304023
:101D5000E1F700C000008D2F0E944E0D83CF8C2F25
:101D600086958695837069F0813009F07BCF8D2F41
:101D70009C2F9370111102C090E080E00E94B30B81
:101D800071CF8D2F9C2F9370111102C090E080E0D5
:101D90000E949D0B67CF8D2F112329F00E946007B1
:101DA0000E9433085FCF0E94BA07FACF8C2F83704E
:101DB00009F041C0111156CF4D2F429546954770FD
:101DC000440F440F0D2F0F7010E030E020E0042E80
:101DD00004C0000F111F221F331F0A94D2F760E0C6
:101DE00070E0CB01D4FF0FC06FE070E080E090E0C6
:101DF00004C0660F771F881F991F4A95D2F7609518
:101E0000709580959095C695C695C370602B712B83
:101E1000822B932BC23049F058F4C13019F00E9444
:101E2000F61320CF0E94E4131DCF0E9408141ACF8E
:101E30000E94E21317CF8695112311F08C2F817029
:101E4000882309F40FCF4D2F429546954770440FD4
:101E5000440F0D2F0F7010E030E020E0042E04C07E
:101E6000000F111F221F331F0A94D2F760E070E0A9
:101E7000CB01D4FF0FC06FE070E080E090E004C0C1
:101E8000660F771F881F991F4A95D2F76095709546
:101E900080959095C695C695C370602B712B822B4B
:101EA000932BC23049F058F4C13019F00E94BB1492
:101EB000D9CE0E94A914D6CE0E94CD14D3CE0E94B2
:101EC0001E14D0CECF70112329F08C2F0E94441401
:101ED0008D2F12CF8D2F0E94CA0D8C2F0E9465145A
:101EE000C1CED23F89F160F4D03FC9F0D13F29F192
:101EF000112309F442C001119DCE8C2F8F7121C096
:101F0000D33F39F1D43FA1F7112369F1CF718C2F61
:101F10000E94441463E08C2F0E946F16A3CE1123FD
:101F200041F0053008F09ECE8C2F8F710E948814EE
:101F300099CE063008F096CEF7CF8C2F8F711123F3
:101F400069F20E9444148ECE8C2F8F711123C9F335
:101F5000C5CF112329F08C2F8F710E942F1482CEB0
:101F60000E942A147FCE81E00E948A16023008F473
:101F700079CE82E00E948A1675CE002359F0D933BB
:101F800009F0E9CE8FEF97EEE3E081509040E0401A
:101F9000E1F7DFCE8C2F8F71A1CF4C2F4F706D2FBB
:101FA000C6010E94EF030E945A135CCE4C2F4F7063
:101FB0006D2FC6010E94F20355CEDF91CF911F9184
:101FC0000F91FF90EF90DF90CF90BF9008950F9307
:101FD0001F93CF93DF93EC01688179818A810E94FE
:101FE0007F158C010E94DF140E94E113B801CE011D
:101FF000DF91CF911F910F910C94D10DCF93DF936F
:10200000EC018B819C81892B29F08881998189231E
:102010008F3F59F4DF91CF910895CE010E94E70FD1
:10202000CE01DF91CF910C949C02CE010E94BD02A3
:102030008111F3CF0E94C115882361F38A8188231F
:1020400049F382E0DF91CF910C948A16882321F026
:102050000E94FC150C9439160895882321F00E94E3
:1020600002160C943916089590E080E00E949D0BB2
:1020700090E080E00E94B30B0E9409160E9419169E
:102080000E9439160E945A090C9433080E94B11517
:102090000C9434100E94F9150C944610E92FE29527
:1020A000EF70E250EE3070F4F0E0EE54F04E0C942D
:1020B000441F803F19F020F4883E20F481E0089509
:1020C000843FE1F380E00895883EC0F3813FD1F77B
:1020D000F5CF93FB882780F908950E9475150C941D
:1020E0004E10CF93DF9300D000D00F92CDB7DEB764
:1020F0000F900F900F900F900F90DF91CF91089558
:10210000CF93DF9300D000D000D0CDB7DEB72696B6
:102110000FB6F894DEBF0FBECDBFDF91CF9108950B
:102120001F93CF93DF93C091A30116E08091A40188
:102130008C1304C0DF91CF911F910895D0E01C9FB4
:10214000F0011D9FF00D1124EB55FE4F4081518190
:1021500062817381848195810E9480102196C7706D
:10216000E5CF4091D5015091D6016091D701709192
:10217000D8018091D9019091DA010C9480101F93BD
:10218000CF93DF938091DA01807FA9F48091D7010A
:10219000882389F08091A301C091A4016091D501A9
:1021A0007091D601A091D801B091D901D62FD72333
:1021B00016E0C81304C0DF91CF911F91089590E0FD
:1021C000109711F0DF3F19F401968770F2CF189F36
:1021D0009001199F300D1124F901EB55FE4F4181FB
:1021E0004713F2CF40814613EFCF42814111ECCF2C
:1021F000438154814A1B5B0B483C510528F7809171
:10220000DA018F7080618093DA01F901E655FE4FA3
:1022100080818F708061808385ED91E00E94FE0F48
:10222000DF91CF911F910C949010AF92BF92CF92FB
:10223000DF92EF92FF920F931F93CF93DF93CDB76F
:10224000DEB761970FB6F894DEBF0FBECDBF8C012D
:1022500085E0F801DE011D9601900D928A95E1F767
:10226000F80140815181E28085EDC82E81E0D82EB1
:102270006091D8017091D9016115710509F461C1AE
:102280009091D5012091D601892F82238F3F09F4A7
:1022900058C1A380B480F090D701F501E61BF70B7D
:1022A000FF2009F4FCC08091DA01382F307FE83C30
:1022B000F10508F0B2C0311179C0FE2C251323C0FE
:1022C000941321C0E1101FC08F7080618093DA01E8
:1022D0000E94B110C6010E94FE0F8091DA01F80140
:1022E00085838F2D61960FB6F894DEBF0FBECDBFEC
:1022F000DF91CF911F910F91FF90EF90DF90CF90E2
:10230000BF90AF900895AB2829F0842F85238F3F8D
:1023100009F033C180E0F82FF170DF2E80FF3CC060
:102320008091A3012091A40136E0821315C04D874E
:102330005E878D859E850E947515292F22952F70A9
:102340002230F0F0243018F59F70F1F0F8019581FB
:10235000907FD1F4D12C1EC090E0389FF001399FBE
:10236000F00D1124EB55FE4F6181651306C06081AD
:10237000641303C062816E110FC001968770D5CFC0
:102380009F7011F0882331F3805E883018F3C80104
:102390000E94FE0FFD2CA5CFEE2009F4A2CF809164
:1023A000DA0181608093DA01F12C9BCF251306C0FE
:1023B000941304C0F801EE2009F48DC04D875E87A8
:1023C0008D859E850E946D10882319F1EE2009F1FC
:1023D0008091DA01803270F02091D5013091D601E0
:1023E00038872F831986BB86AA868C87CE010796ED
:1023F0000E94FE0F86E0F801A5EDB1E001900D927C
:102400008A95E1F70E94BF100E94B110FF24F39457
:1024100068CFC8010E94FE0FF9CF311113C07A2D89
:10242000B98AA88A6E2D89890E94711085ED91E084
:102430000E94FE0F86E0F60111928A95E9F70E944C
:10244000B110B2CF25130FC094130DC0E1100BC013
:10245000F8018583C8010E94FE0F86E0F601119203
:102460008A95E9F73ECF4D875E878D859E850E94D0
:102470006D10882371F2EE2061F28091DA018032D2
:1024800008F4B8CF2091D5013091D6013A83298341
:102490001B82BD82AC828E83CE010196A9CFE83C1F
:1024A000F10508F041C0FE2CEE2009F4B2CF25134F
:1024B0002AC0941328C08091DA0180FD1BC0982F98
:1024C000907FC1F0F8018583903F31F0982F907F85
:1024D000905F8F70892B8583C8010E94FE0F86E074
:1024E000F801A5EDB1E001900D928A95E1F70E9407
:1024F000B110F7CE86E0F801A5EDB1E001900D92A4
:102500008A95E1F7EECE4D875E878D859E850E9488
:102510006D1081116FCF8091DA0181608093DA01B3
:10252000C8010E94FE0FDDCE7A2DB98AA88A6E2DD1
:1025300089890E94711086E0F60111928A95E9F767
:10254000D6CFEE2009F465CF4D875E878D859E85B9
:102550000E946D10F82E882309F45BCF86E0F80105
:10256000A5EDB1E001900D928A95E1F785ED91E03E
:102570000E94B70C0E94BF10BACF81E08E25CBCE4F
:102580001F93CF93DF93CDB7DEB72C970FB6F89498
:10259000DEBF0FBECDBF4F83588769877A878B8791
:1025A0009C87CE0107960E941511882369F08A85C1
:1025B0009B85892B39F04F815885842F85238F3F48
:1025C00009F071C016E05FC086E0FE013796DE01BB
:1025D000119601900D928A95E1F78A859B85892B4A
:1025E00089F38F81988589238F3F61F32091A4011E
:1025F00030E0C9010196877099274091A3014817DF
:10260000190671F40E944A101092A4011092A301BD
:1026100086E0E5EDF1E0DF011D928A95E9F7D2CF82
:1026200096E0929FD001939FB00D1124AB55BE4F01
:10263000FE01319601900D929A95E1F78093A401E5
:102640000E949010BFCF819FC00111248B559E4FD7
:102650000E9415118823E9F0E091A3011E9FF0016B
:102660001124EB55FE4F4081518162817381848139
:1026700095810E9480108091A30190E0019687705F
:1026800099278093A3018091A3019091A4018913BC
:10269000DACF2C960FB6F894DEBF0FBECDBFDF9118
:1026A000CF911F91089569857A858B859C850E94BD
:1026B000801088CFEF92FF920F931F93CF93DF93F9
:1026C0008C01892B81F0F12CEE24E394E801219612
:1026D000F8018491843770F4843008F05FC0813051
:1026E000B1F08230A1F1DF91CF911F910F91FF9056
:1026F000EF900895853709F44CC008F43DC09CE77D
:10270000980F903780F78F770E944E0D49C00E5F6B
:102710001F4FFE01849190E2980F983060F487700B
:10272000FE2D01C0FF0F8A95EAF78F2F0E940C162D
:102730000E94391602C00E94BC0C8F2D815030F2CD
:10274000EFE9FFE03197F1F700C00000F7CF0E5F2F
:102750001F4FFE01849190E2980F983050F48770DB
:10276000FE2D01C0FF0F8A95EAF78F2F0E941216E7
:10277000DFCF0E944E0DE1CF0E5F1F4FFE01C491CF
:10278000C150D8F28FE99FE00197F1F700C0000037
:10279000F7CF0E5F1F4FFE01F490CFCF0E94BC0C0D
:1027A0008E01CBCF08950C94D2130E94D313609363
:1027B000E4017093E5018093E6019093E7010C94A6
:1027C000341008950C94D5130F931F930091E401D6
:1027D0001091E5012091E6013091E701602B712B0A
:1027E000822B932B1F910F910C94D5130F931F9352
:1027F0000091E4011091E5012091E6013091E7019B
:1028000060237123822393231F910F910C94D5137E
:102810000F931F930091E4011091E5012091E601CF
:102820003091E70160277127822793271F910F912D
:102830000C94D5130C94D2130C941A140E941C14EB
:102840006093E0017093E1018093E2019093E301D2
:102850000C94341060E070E0CB010C941E140F93C4
:102860001F9341E050E060E070E08A019B0104C0EA
:10287000000F111F221F331F8A95D2F7C901B8011B
:102880001F910F910C941E140F931F9341E050E081
:1028900060E070E004C0440F551F661F771F8A95E3
:1028A000D2F78091E0019091E101A091E201B09115
:1028B000E3018A019B01082B192B2A2B3B2BC90111
:1028C000B8011F910F910C941E140F931F9341E0B8
:1028D00050E060E070E004C0440F551F661F771F92
:1028E0008A95D2F7CB01BA01609570958095909545
:1028F0000091E0011091E1012091E2013091E301AA
:1029000060237123822393231F910F910C941E1433
:102910000F931F9341E050E060E070E004C0440F6B
:10292000551F661F771F8A95D2F78091E00190911D
:10293000E101A091E201B091E3018A019B01082726
:1029400019272A273B27C901B8011F910F910C9421
:102950001E140F931F930091E0011091E10120914B
:10296000E2013091E301602B712B822B932B1F919D
:102970000F910C941E140F931F930091E00110917E
:10298000E1012091E2013091E30160237123822370
:1029900093231F910F910C941E140F931F9300917A
:1029A000E0011091E1012091E2013091E301602703
:1029B0007127822793271F910F910C941E1408955D
:1029C000990F990F890F982F977041E001C0440F1C
:1029D0009A95EAF786958695869595E0899FF00108
:1029E0001124E552FE4F30E020E070E05191DF010C
:1029F0001197CB01022E02C0969587950A94E2F7B3
:102A0000817081958527842385278C932F5F3F4F85
:102A10002530310559F70895990F990F890F982F8F
:102A2000977086958695869525E0829FF001112402
:102A3000E552FE4F50E040E080E0219130E0092E69
:102A400002C0369527950A94E2F721703327042EA9
:102A500001C0220F0A94EAF7822B4F5F5F4F453087
:102A6000510559F70895BF92CF92DF92EF92FF92EE
:102A70000F931F93CF93DF938C01C090E001D09010
:102A8000E101E090E201F090E3018091E401909196
:102A9000E501A091E601B091E701C82AD92AEA2A06
:102AA000FB2ACFE1D0E0BC2ED701C6010C2E04C01A
:102AB000B695A795979587950A94D2F780FD0EC095
:102AC000219788F7B12C8B2DDF91CF911F910F911A
:102AD000FF90EF90DF90CF90BF900895B8018C2FBA
:102AE0000E940D04019761F3EECFCF93DF93EC01C9
:102AF0000E943315BE01DF91CF910C940D041F93FA
:102B0000CF93DF93EB019091A201992331F0CB0198
:102B1000DF91CF911F910C947515882379F0CB012B
:102B20000E943315182F682FCE010E94E014BE01B9
:102B3000812FDF91CF911F910C940D04CB010E9446
:102B40000C15182FF4CF682F80910801909109017E
:102B50000C949C17682F80910801909109010C94A6
:102B60009E1780910801909109010C94A017809103
:102B7000E80185958595859508958091E801877090
:102B800008959091E801977081E009F480E008953C
:102B90009091020292FB222720F9281751F080FB26
:102BA00092F99093020280910102909102020C949A
:102BB000C91608958091020282FB882780F991E06E
:102BC00089270C94C81581E00C94C81580E00C94FA
:102BD000C8158091F40108959091F401892B809398
:102BE000F401089580959091F40198239093F40155
:102BF00008951092F40108959091F301892B809328
:102C0000F301089580959091F30198239093F30137
:102C100008951092F30108959091F201892B809309
:102C2000F201089580959091F20198239093F2011A
:102C300008951092F20108958091E9010895089590
:102C40000C941F169091020292FD08C09091E90128
:102C5000981721F08093E9010C9420160895809133
:102C6000E901882329F01092E90180E00C942016F4
:102C70000895E0910801F09109018091F4018083A9
:102C8000E0910801F091090180819091F301892B75
:102C90008083E0910801F091090180819091F20117
:102CA000892B80839091E901992381F0E0910801BB
:102CB000F09109018081892B808380910801909196
:102CC00009010E94541781110E942F16809108015A
:102CD000909109010C94840B08950C946C169091BA
:102CE000020292FD10C098E0899F90011124622B8E
:102CF0006093E8010E9444148091E80185958595D0
:102D000085950C946D160C9444141092E80180E0A3
:102D10000C946D169091E801809589238093E801C9
:102D2000282F277039F4282F082E000C330B921708
:102D3000130621F49091020292FF07C085958595B4
:102D400085950E9465140C948516089580E0089579
:102D500090E080E00E94661F21E08A3E9E4F09F0CD
:102D600020E0822F089582E090E00C945E1F83E0C3
:102D700090E00C945E1FCF9384E090E00E945E1F71
:102D8000C82F82E290E00E945E1F982F8C2FCF9177
:102D90000895CF93C92F682F84E090E00E946C1FA4
:102DA0006C2F82E290E0CF910C946C1FAB01BC01C0
:102DB0008FE090E00C947E1FAB01BC0183E190E0BA
:102DC0000C947E1F60E070E0CB010C94DC1660E098
:102DD00070E0CB010E94D6160C94E2166AEE7EEFEC
:102DE00090E080E00E948A1F60E082E090E00E9414
:102DF0006C1F60E083E090E00E946C1F1092E40181
:102E00001092E5011092E6011092E70160E084E083
:102E100090E00E946C1F60E082E290E00E946C1FD4
:102E200060E085E090E00E946C1F60E086E090E04A
:102E30000E946C1F6FEF87E090E00E946C1F40E0E3
:102E400050E0BA0188E090E00E947E1F60E08DE0D3
:102E500090E00E946C1F40E050E0BA0188E190E0F1
:102E60000E947E1F60E087E190E00E946C1F40E0BE
:102E700050E0BA018CE190E00E947E1F70E060E0BB
:102E800080E290E00E948A1F40E050E0BA0188E1B1
:102E900090E00E947E1F0C94E7160C94EE16682FAB
:102EA0008EE090E00C946C1F9C012E5F3F4FAC01B4
:102EB000485F5F4F80E02417350709F40895F90152
:102EC00091919F019923B9F38F5FF5CF662349F064
:102ED000FC01329608962191261729F0E817F90788
:102EE000D1F780E0089581E008959C01FC013296BD
:102EF0009FEF80E04191461751F09F3F19F4411137
:102F000001C0982F8F5F8630A9F79F3F09F408957D
:102F1000290F311D97FD3A95F90162830895FC014F
:102F2000329608962191261303C0DF0111971C9257
:102F3000E817F907B9F708950C9475170C948F17D3
:102F4000029626E0FC0111922A95E9F7089508956A
:102F500008950C94A81780910D02843049F10E94C5
:102F6000A91780E00E94E7031092F60188E190E043
:102F700020E40FB6F894A895809360000FBE2093CC
:102F8000600083B7817F846083BF83B7816083BF24
:102F90007894889583B78E7F83BF0FB6F894A895F1
:102FA00080916000886180936000109260000FBE85
:102FB000089508950E94A7170E9461060E94D917DC
:102FC00080E00E94230691E0811101C090E0892FEA
:102FD000089508950C94E9170E944A100E94780BF6
:102FE0000E94E7030C94EA171F921FB61F92112448
:102FF0008F939F93AF93BF938091F601811113C07C
:103000008091050290910602A0910702B0910802FA
:103010004196A11DB11D8093050290930602A093D5
:103020000702B0930802BF91AF919F918F911F90BB
:103030001FBE1F90189582E084BD93E095BD9AEF66
:1030400097BD80936E0008952FB7F8948091050284
:1030500090910602A0910702B09108022FBF089537
:103060002FB7F894609105027091060280910702D3
:10307000909108022FBF08959C014FB7F89480915A
:10308000050290910602A0910702B09108024FBF7D
:10309000821B930B089578941F921FB61F921124E0
:1030A0008F939F93AF93BF938091050290910602F7
:1030B000A0910702B09108020196A11DB11D809355
:1030C000050290930602A0930702B0930802BF91F5
:1030D000AF919F918F911F901FBE1F90189587E70A
:1030E00097E7909301088093000888E19AE00FB673
:1030F000F894A895809360000FBE90936000FFCF76
:1031000090937D0180937C0108958091FF01089543
:10311000CF93DF9300D00F92CDB7DEB790910D0221
:10312000943019F589837B836A8382E08093E90078
:103130008FEF9091E800815095FD06C095ED9A952E
:10314000F1F700008111F5CF8091E80085FF0DC0F7
:1031500050E040E063E070E0CE0101960E949F1ACB
:103160008091E8008E778093E8000F900F900F9089
:10317000DF91CF910895BC0184E00C948818BC01C4
:1031800083E00C9488189C0182E08093E9009FEF13
:103190008091E800915085FD06C085ED8A95F1F794
:1031A00000009111F5CF8091E80085FF0CC050E040
:1031B00040E066E070E0C9010E949F1A8091E8003B
:1031C0008E778093E8000895CF93DF93EC0181E040
:1031D0008093E9008FEF9091E800815095FD06C043
:1031E00095ED9A95F1F700008111F5CF8091E800F7
:1031F00085FF14C050E040E068E070E0CE010E941E
:103200009F1A8091E8008E778093E80088E0FE01A5
:10321000A7EFB1E001900D928A95E1F7DF91CF9190
:10322000089580910C02811109C00E942F1C0E94F8
:103230008C1C8091E20084608093E20008951092DB
:103240000C02089508950895089542E061EC81E02C
:103250000E94AB1B42E261EC82E00C94AB1B8091BC
:103260000F02833009F45FC030F48130C1F1823045
:1032700009F49BC008958A3009F487C08B3009F4A3
:103280006DC0893009F04EC080910E02813209F084
:1032900049C08091120290911302029708F042C037
:1032A0008091E800877F8093E8008091E80082FFAA
:1032B00035C09091F3008091F200029729F480913B
:1032C000F1008B7F813021F48091F1008093FF0128
:1032D0008091E8008B778093E8000C94DF1B80914D
:1032E0000E02813AF9F48091E800877F8093E8002C
:1032F0008091120290911302892B61F468E087EFAC
:1033000091E070E00E94EE1A8091E8008B77809344
:10331000E800089560E090E080E0F3CF80910D0236
:103320008111C3CF089580910E02813AD9F780911F
:10333000120290911302892BA9F78091E800877FF0
:103340008093E8008091E80080FFFCCF8091140119
:103350008093F1008091E8008E77BDCF80910E02BE
:10336000813201F78091120290911302892BD1F6DC
:103370008091E800877F8093E8000E94DF1B8091A6
:103380001002809314010C944A1080910E02813235
:1033900049F68091E800877F8093E8000E94DF1B58
:1033A0008091110280930002089580910E02813A6B
:1033B00009F0B8CF8091E800877F8093E800809182
:1033C000E80080FFFCCF80910002C2CF84B7877FE6
:1033D00084BF0FB6F894A8958091600088618093AF
:1033E0006000109260000FBE80E890E00FB6F89485
:1033F00080936100909361000FBE0E94EA0B0E94CF
:103400002F1C0E948C1C8091E20084608093E2005B
:1034100078940E94151F0E94FE0B8AE091E00E94A2
:10342000730B80910D02853099F00E94040C0E946C
:10343000FA0BF7CF0E94AB1780910B02882341F063
:103440000E94DA17882321F00E94891A0E944A10EC
:1034500080910D02853071F30E94EC17E6CF0C9439
:10346000311A292F33272330310519F168F421301F
:10347000310509F444C02230310509F445C090E01B
:1034800080E030E020E025C02132310549F12232D0
:103490003105A9F780E490E021E932E0611571057A
:1034A000C1F08BE790E026E132E06130710589F0F0
:1034B000E6CF99278130910581F0009729F0029796
:1034C000F1F6E9E8F1E002C0E5ECF1E0849190E08A
:1034D0009F01FA01318320830895E3EBF1E0F6CFF9
:1034E00089E090E02BED31E06115710591F389E001
:1034F00090E024EF31E06130710559F3C0CF82E1F3
:1035000090E024E032E0E5CF8BE390E029EC31E07D
:10351000E0CF80E189BD82E189BD09B400FEFDCF25
:103520008091D8008F7D8093D8008091E0008260E8
:103530008093E0008091E00081FDFCCF0895AF9280
:10354000BF92CF92DF92FF920F931F93CF93DF939F
:103550006C01EB018A010E94FE1BF82E811123C031
:103560000115110539F0F80180819181C81BD90B33
:10357000C80ED91EB12CA12C2097A9F08091E8008B
:1035800085FD22C08091E8008E778093E8000115C8
:103590001105A1F0F80180819181A80EB91EB182B8
:1035A000A08285E0F82E8F2DDF91CF911F910F9192
:1035B000FF90DF90CF90BF90AF9008950E94FE1BC8
:1035C0008823D1F2F82EEFCFF60181916F0180931D
:1035D000F1002197FFEFAF1ABF0ACECFFC01809117
:1035E00014029091150286179707A0F061157105D6
:1035F00029F49091E8009E779093E80090E061159F
:10360000710551F4911108C08091E80082FF34C027
:1036100080E00895BC01F2CF80910D028823C1F1B2
:103620008530C1F18091E80083FD30C08091E800D1
:1036300082FDEACF8091E80080FFE1CF8091F30026
:103640002091F200382F6115710519F028303105ED
:1036500058F091E02830310509F090E02091E80021
:103660002E772093E800CBCF81918093F1006150B9
:1036700071092F5F3F4FE7CF80910D02882341F002
:10368000853041F08091E80083FFBECF81E008954E
:1036900082E0089583E00895FC01809114029091E6
:1036A000150286179707A0F06115710529F480911E
:1036B000E8008E778093E80090E06115710551F481
:1036C000911108C08091E80082FF35C080E0089524
:1036D000BC01F2CF80910D028823C9F18530C9F178
:1036E0008091E80083FD31C08091E80082FDEACF3F
:1036F0008091E80080FFE1CF8091F3002091F200FB
:10370000382F6115710519F02830310558F091E016
:103710002830310509F090E08091E8008E778093A1
:10372000E800CBCF84918093F1003196615071090C
:103730002F5F3F4FE6CF80910D02882341F0853007
:1037400041F08091E80083FFBDCF81E0089582E0E1
:10375000089583E00895982F973028F08F70809314
:10376000E90081E008959093E900242F762F50E03E
:10377000981731F07091EC002091ED005091F0001D
:1037800021FD02C09F5FE8CF3091EB003E7F309378
:10379000EB003091ED003D7F3093ED003091EB0078
:1037A00031603093EB007093EC002093ED00509368
:1037B000F0002091EE0027FDE5CF80E00895809194
:1037C0000E0287FF13C08091E80082FF06C080913F
:1037D000E8008B778093E80004C080910D0281118E
:1037E000F2CF089580910D028823D9F38091E800EB
:1037F00080FFF8CF8091E8008E77ECCF2091E40035
:103800003091E50095E6A9012091EC00822F8170AE
:1038100020FF06C08091E80080FF06C080E0089588
:103820002091E80022FD1AC080910D02882389F0C2
:10383000853089F08091EB0085FD0FC02091E40078
:103840003091E50042175307F9F29150E1F684E018
:10385000089582E0089583E0089581E008950E942C
:103860009D1C0E94A51CE0EEF0E0808181608083B9
:10387000E8EDF0E080818F77808319BCA7EDB0E0A0
:103880008C918E7F8C9380818F7E808310920C022E
:1038900008950F931F93CF93DF930E949D1C0E9466
:1038A000A51CC8EDD0E088818F77888388818068E7
:1038B000888388818F7D888319BC10920D021092B5
:1038C000090210920B0210920A0200EE10E0F801B9
:1038D00080818B7F808388818160888342E060E083
:1038E00080E00E94AB1BE1EEF0E080818E7F808360
:1038F000E2EEF0E080818160808380818860808357
:10390000F80180818E7F8083888180618883DF9148
:10391000CF911F910F910895E8EDF0E080818F7EA7
:103920008083E7EDF0E080818160808384E082BF66
:1039300081E080930C020C94491CE8EDF0E080815A
:103940008E7F80831092E20008951092DA00109228
:10395000E10008951F920F920FB60F9211242F933A
:103960003F934F935F936F937F938F939F93AF9307
:10397000BF93EF93FF938091E10082FF0BC0809192
:10398000E20082FF07C08091E1008B7F8093E1001D
:103990000E94141F8091DA0080FF19C08091D80026
:1039A00080FF15C08091DA008E7F8093DA008091CD
:1039B000D90080FF96C080E189BD82E189BD09B44C
:1039C00000FEFDCF81E080930D020E9411198091CD
:1039D000E10080FF19C08091E20080FF15C0809156
:1039E000E2008E7F8093E2008091E200806180930C
:1039F000E2008091D80080628093D80019BC85E0F5
:103A000080930D020E9423198091E10084FF2BC056
:103A10008091E20084FF27C080E189BD82E189BDF9
:103A200089B5982F917080FFFBCF8091D8008F7D52
:103A30008093D8008091E1008F7E8093E100809197
:103A4000E2008F7E8093E2008091E20081608093AB
:103A5000E20080910902882309F449C084E0809340
:103A60000D020E9424198091E10083FF29C08091FA
:103A7000E20083FF25C08091E100877F8093E10011
:103A800082E080930D02109209028091E1008E7F06
:103A90008093E1008091E2008E7F8093E20080912C
:103AA000E20080618093E20042E060E080E00E94FA
:103AB000AB1B8091F00088608093F0000E94221977
:103AC000FF91EF91BF91AF919F918F917F916F91F6
:103AD0005F914F913F912F910F900FBE0F901F90CC
:103AE000189519BC10920D020E941F1970CF809179
:103AF000E30087FD93E090930D02B3CF1F920F92E6
:103B00000FB60F9211242F933F934F935F936F93B0
:103B10007F938F939F93AF93BF93CF93DF93EF9355
:103B2000FF93D091E900DF708091EC00C82FC17045
:103B300080FDC0E81092E9008091F000877F8093BB
:103B4000F00078940E94C21D1092E9008091F0006C
:103B500088608093F000CD2BCF70C093E900FF9177
:103B6000EF91DF91CF91BF91AF919F918F917F9115
:103B70006F915F914F913F912F910F900FBE0F90DA
:103B80001F9018951F93CF93DF93CDB7DEB7AA97F9
:103B90000FB6F894DEBF0FBECDBF8EE092E020914D
:103BA000F100FC012193CF01F2E086319F07B9F7C4
:103BB0000E942F198091E80083FF1EC180910E02A0
:103BC00090910F029A3008F017C1E92FF0E0E0540D
:103BD000F04E0C94441F803899F0823809F00CC1E3
:103BE000809112028F70873008F006C18093E9003F
:103BF0008091EB0085FB882780F91092E90006C0D0
:103C000080910A0290910B02911182609091E800DC
:103C1000977F9093E8008093F1001092F1008091DB
:103C2000E8008E77E5C0882309F4D3C0823009F01C
:103C3000E3C0809110028111D6C0809112028F7072
:103C40002FEF280F263008F0D7C08093E90020918D
:103C5000EB0020FFC8C0933031F48091EB0080620C
:103C60008093EB00C0C09091EB0090619093EB00CB
:103C700021E030E001C0220F8A95EAF72093EA00A4
:103C80001092EA008091EB008860EACF8111B4C005
:103C9000109110021F778091E3008078812B809330
:103CA000E3008091E800877F8093E8000E94DF1B9B
:103CB0008091E80080FFFCCF8091E30080688093D2
:103CC000E30082E0111183E080930D0295C08058DB
:103CD000823008F091C080911002909111028C3DC9
:103CE00023E09207A1F583E08A838AE289834FB7B4
:103CF000F894DE01139620E03EE051E2E32FF0E07D
:103D000050935700E49120FF03C0E295EF703F5FAE
:103D1000EF708E2F90E0EA30C0F0C7968D939D93A0
:103D20002F5F243159F74FBF8091E800877F809340
:103D3000E8006AE270E0CE0101960E94EE1A8091DE
:103D4000E8008B778093E80057C0C096E7CF60917A
:103D5000120270911302AE014F5F5F4F0E942F1A43
:103D6000BC01892B09F448C09091E800977F90939B
:103D7000E80089819A810E944C1BE1CF8038E1F5EF
:103D80008091E800877F8093E8008091090280930A
:103D9000F10045CF811130C090911002923060F552
:103DA0008091E800877F8093E800909309020E9449
:103DB000DF1B80910902882311F084E005C0809107
:103DC000E30087FDFACF81E080930D020E94251960
:103DD00013C080911002813079F481E0933009F0B2
:103DE00080E080930B021092E9008091E800877FC9
:103DF0008093E8000E94DF1B8091E80083FF0AC0E7
:103E00008091E800877F8093E8008091EB008062DA
:103E10008093EB00AA960FB6F894DEBF0FBECDBF1D
:103E2000DF91CF911F9108950895CF9380910D0256
:103E30008823A1F0C091E900CF709091EC00892F08
:103E4000817090FD80E8C82B1092E9008091E80015
:103E500083FD0E94C21DCF70C093E900CF910895E9
:103E600097FB072E16F4009407D077FD09D00E9427
:103E70004A1F07FC05D03EF4909581959F4F089509
:103E8000709561957F4F0895EE0FFF1F0590F49197
:103E9000E02D0994AA1BBB1B51E107C0AA1FBB1F41
:103EA000A617B70710F0A61BB70B881F991F5A95C6
:103EB000A9F780959095BC01CD010895F999FECFA1
:103EC00092BD81BDF89A992780B50895A8E1B0E028
:103ED00042E050E00C94921F262FF999FECF92BD3C
:103EE00081BDF89A019700B4021639F01FBA20BDBF
:103EF0000FB6F894FA9AF99A0FBE08950396272FF1
:103F00000E946D1F0E946C1F252F0E946D1F242F81
:103F10000C946D1F0196272F0E946D1F0C946C1F2F
:103F2000DC01CB01FC01F999FECF06C0F2BDE1BD79
:103F3000F89A319600B40D9241505040B8F7089568
:103F4000F894FFCF050E050E5D0E5D0EAF0ECB0E85
:103F5000320E320ED60E620F710F710FCD0F320E70
:103F6000320ED60F59105910621062106410621090
:103F700062106210591059106910621062106910B5
:103F8000EB1D131EFC1E131EFC1E461E671EFC1E90
:043F9000BE1ECA1E69
:103F94002808641E140A321EEA018518E418C3189E
:103FA400BF18BB1801E200E900EA00B500B600B78B
:103FB40000CD008301CC008A0192019401210223E7
:103FC4000224022502260227022A02B300B4006F4B
:103FD400007000818283323331F7E200E900EA00A5
:103FE400B500B600B700CD008301CC008A01920170
:103FF40094012102230224022502260227022A0216
:0C400400B300B4006F00700081828300E4
:00000001FF
