:100000000C94FE000C9445010C9445010C944501A0
:100010000C9445010C9445010C9445010C94450148
:100020000C9445010C9445010C94C11A0C94951B39
:100030000C940B160C9445010C9445010C9445014D
:100040000C9445010C9445010C9445010C94450118
:100050000C9445010C9462160C9445010C944501D6
:100060000C9445010C9445010C9445010C944501F8
:100070000C9445010C9445010C9445010C944501E8
:100080000C9445010C9445010C9445010C944501D8
:100090000C9445010C9445010C9445010C944501C8
:1000A0000C9445010C9445010C9445011E00200060
:1000B0002C001C0028034D006500630068006200EE
:1000C0006F00610072006400730020004D00690041
:1000D000630072006F007000610064000000100394
:1000E0005900690061006E00630061007200000049
:1000F0000403090409023B00020100A0FA090400FC
:100100000001030101000921110100012240000743
:1001100005810308000A0904010001030000000929
:100120002111010001227B000705820320000A1231
:1001300001100100000008688901000100010200AF
:100140000105010902A10185020901A100050919A2
:10015000012908150025019508750181020501098D
:100160003009311581257F950275088106093815FA
:1001700081257F950175088106050C0A38021581D5
:10018000257F950175088106C0C005010980A10180
:10019000850319012AB700150126B70095017510CE
:1001A0008100C0050C0901A101850419012AA002E2
:1001B000150126A002950175108100C005010906F0
:1001C000A101050719E029E715002501950875012A
:1001D00081029501750881010507190029FF1500A5
:1001E00026FF009506750881000508190129059567
:1001F0000575019102950175039101C011241FBE7F
:10020000CFEFDAE0DEBFCDBF04B603FE27C080919A
:10021000160290911702A0911802B091190287302E
:10022000904BA740B04BD1F41092160210921702D7
:10023000109218021092190214BE84B7877F84BFEF
:100240000FB6F894A8958091600088618093600053
:10025000109260000FBEE0E0F8E3099511E0A0E025
:10026000B1E0E2ECFBE302C005900D92AC37B107C0
:10027000D9F722E0ACE7B1E001C01D92A631B20788
:10028000E1F70E94FD170C94B71D0C9400000C942C
:100290004F010C9452010C9456010C945301869A10
:1002A0008E9808950895089581E0089581E0089555
:1002B00008950C9458011F93CF93DF9300D000D082
:1002C0000F92CDB7DEB749835A836B833091A20179
:1002D00089819A8131111DC06623B9F02223A9F0CA
:1002E0000E944A13182F682F89819A810E94F71261
:1002F00069817A81812F0F900F900F900F900F904E
:10030000DF91CF911F910C941A020E942313182F92
:10031000EFCF0E944A1369817A81EDCFFC01262F2D
:10032000408151816281738184810C945B01CF9300
:10033000DF93EC0160E00E948E01BE01DF91CF915E
:100340000C9459010E9424040C9447010C94490117
:1003500008950E94610E0E94A8012FEF84E39CE0A3
:10036000215080409040E1F700C000000C948616B8
:100370000F931F93CF93DF938C0161E00E948E0156
:10038000EC01B8010E944B018823A9F1B801CE010C
:100390000E94F907882379F1B801CE010E944B0829
:1003A000882349F1B801CE010E946E09882319F112
:1003B000F8018281882361F0CB35FDE5DF0721F16B
:1003C00070F4C115ECE5DE07A1F0CF3DDC45C9F0C6
:1003D000C801DF91CF911F910F910C945401CC353E
:1003E0008DE5D807A1F0CD35DD4591F70E94F113D9
:1003F000EFCF0E94A90180E0DF91CF911F910F9173
:1004000008950E946415F7CF0E94FA13E1CF0E946D
:10041000FD13DECF81E008950C940A02CF93C82F1C
:100420000E944D018C2FCF910C940C0290E080E043
:1004300008950895272F280F3327331FF901EE0F52
:10044000FF1FEE0FFF1FE60FF11DEE0FFF1FE4551C
:10045000FF4F859194910895FC01EE0FFF1FEC541E
:10046000FF4F859194910895CF93DF930E941A02D4
:100470000E944903EC01811520E5920708F042C073
:10048000811530E4930708F0BDC0883E910528F53A
:10049000803E910508F09DC0883A910588F4853A20
:1004A000910508F08FC08130910509F492C0009742
:1004B00009F48FC0049708F08CC0D0E0C0E089C078
:1004C0008F3B910508F489C0805C9109C03CD1053F
:1004D000A0F30E942C02EC017CC08115904250F4E4
:1004E000C11581E0D80708F074C0CD3ED10528F3CE
:1004F000D0656FC0C11590E3D90708F079C0CE016F
:100500009F70E7CF811525E5920758F5811534E5F1
:10051000930708F0A6C0811542E5940750F4C11571
:1005200081E5D80708F471C0DC2FCC27C16FD06AF1
:1005300050C0982F969596959E0123703327C1152C
:10054000D34508F07FC0C1E0D0E002C0CC0FDD1F72
:100550002A95E2F720E2929FC0011124C82BD92BE3
:100560006FC0C11589E5D807A8F4C11598E5D9076A
:1005700008F07CC0C11526E5D20708F09ECF8C2F6D
:100580000E94E003C82FD0E0DC2FCC27CC27DF71FE
:10059000D0621FC0C1153AE5D30708F46CC0CE0184
:1005A00090568115904208F088CF8D2F8F710E9450
:1005B000E00390E0982F882788279F719C012C2BBF
:1005C000E901E6CFC55AD0E0CD5BDE4FC881D0E06F
:1005D000D064CE01DF91CF910895C85AD0E0CC0FFE
:1005E000DD1FCB5EDE4F0990D881C02DD464F1CFE2
:1005F000CE019927D3FF03C0EC01D86CEACFEC0100
:10060000D06CE7CFDF70D06AE4CFCE01E4E09695FE
:100610008795EA95E1F783702C2F26952695237010
:1006200090E2299F90011124382B8C2F8370C1E018
:10063000D0E002C0CC0FDD1F8A95E2F7C22BD32B8E
:10064000DC68C7CFC1E0D0E002C0CC0FDD1F2A9527
:10065000E2F730E2939FC0011124C82BD92BDA684E
:10066000B8CFD82FCC27C46FD06AB3CFDC2FCC271C
:10067000C06FD06AAECF8C2F8F700E94E00334E041
:10068000D695C7953A95E1F7CF709C2FEC01D069CC
:10069000A0CF82389105B1F1B0F48133910509F40E
:1006A00075C048F48932910509F469C08A32910510
:1006B00009F473C008958533910509F459C089334D
:1006C000910501F10895833E9105A9F138F4803E2A
:1006D0009105F9F0823E910549F10895863E910514
:1006E000A9F1873E9105C9F1843E910519F5209144
:1006F000020221FF1FC08091010284FD14C087EE19
:1007000090E00895209101022370A1F080EE90E026
:1007100008952091010220FD47C03091020230FF70
:1007200009C024FF44C090E080E004C02091010291
:1007300022FDF7CF08952091010222FD3BC03091A8
:10074000020230FDE3CF24FFF5CFEDCF209101026F
:1007500023FFF0CF24FDE7CFD2CF2091010223FD6C
:100760002CC03091020231FFEECF84EE90E008956C
:100770002091010225FFDECF89E290E008952091CB
:10078000010225FFD7CF85E390E008952091010273
:1007900026FFD0CF8AE290E008952091010226FF43
:1007A000C9CF81E390E0089589E390E0089583EE56
:1007B00090E0089582EE90E0089586EE90E008952E
:1007C0009091010292FF06C0282F28712830F9F479
:1007D000877F846093FF06C0282F28712831F1F4A9
:1007E000877E84612091020220FF06C0382F387175
:1007F0003830D9F4877F816021FF06C0282F287107
:100800002831D1F4877E816194FD877E0895282F59
:1008100024712430F9F68B7F8860DCCF282F247177
:10082000243101F78B7E8861DDCF382F3171313073
:1008300019F78E7F8860E0CF282F2171213121F7B1
:100840008E7E8861E1CF08950E94BF14811102C09D
:100850000E9464150E94CA148093F5010E94D2146C
:1008600090930202809301020E9423040E94CE14FE
:10087000682F70E090E080E00E94F9116091E00143
:100880007091E1018091E2019091E3010C943312A7
:10089000E82FF0E0EC5FFD4F80810895089580EA35
:1008A0008A95F1F7089500C008950C944F04F894C8
:1008B000E82FE295EF70F0E031A1282F2F7081E052
:1008C00090E001C0880F2A95EAF7982F909593231E
:1008D00091A392A1892B82A37894089586E30E9424
:1008E000570482E30E94570483E30E94570481E384
:1008F0000E94570487EF0E9457041092030210923F
:10090000040281E00E94CB040C94A201CF93F894DE
:10091000269A2E9878940E945304A6E4B1E030E021
:1009200020E0C0E051E04D91E42FE295EF70F0E05F
:1009300080A190E04F7002C0959587954A95E2F7A7
:1009400080FD25C0852F022E01C0880F0A94EAF78A
:10095000C82B2F5F3F4F2430310529F786E30E94D3
:1009600057040E94550480910302C81791F0C09368
:100970000302C1E02C2F41E064E072E083E092E0EA
:100980000E94CC040E94A6018C2FCF91089580E094
:10099000DFCFC0E0EFCF0895FF920F931F93CF9367
:1009A000DF93F82E092F162FD72FC42F222349F0BB
:1009B00081E0809380010E943B1690937F01809399
:1009C0007E01809180018823A1F080917E01909129
:1009D0007F010E945316069760F0EF2DF02FA12F94
:1009E000BD2FCE0FDF2FD11DEC17FD0741F4109264
:1009F0008001DF91CF911F910F91FF900895819118
:100A00008D93F2CF8091870180FF12C06091050124
:100A100085E0689FB0011124759567957595679578
:100A200060387105A8F561157105A1F1862F08954B
:100A300081FF09C06091050185E0689FB001112424
:100A400075956795EDCF6091050182FD0AC0809193
:100A500086018823D1F090910401609105018917E6
:100A600028F085E0689FB0011124DACF869FB0019D
:100A7000112485E0869F9001879F300D1124692FF6
:100A800070E0C9010E94471DCBCF65E070E0CECF7A
:100A90008FE7089581E008958091870180FF0CC061
:100AA0006091010170E07595679575956795611581
:100AB000710549F1862F089581FF06C060910101FB
:100AC00070E075956795F3CF6091010182FD0BC0D1
:100AD000909185019923A1F060910001809101011D
:100AE000961738F0682F70E06038710500F38FE7D3
:100AF0000895899FC001112470E00E94471DF4CF22
:100B000061E070E0D7CF81E008958D3E31F40E941E
:100B10000205819580938B0108958E3E19F40E9401
:100B20000205F8CF8F3E31F40E9402058195809333
:100B30008A010895803F19F40E940205F8CF893F89
:100B400029F40E944C0580938C0108958A3F21F47A
:100B50000E944C058195F7CF8B3F31F40E944C05E4
:100B6000819580938D0108958C3F19F40E944C0566
:100B7000F8CF9FE0980F983070F4815F990B21E0D7
:100B800030E001C0220F8A95EAF780918901822B1B
:100B90008093890108958D3F31F4809187018160B0
:100BA0008093870108958E3F21F4809187018260B0
:100BB000F7CF8F3FB9F7809187018460F1CF4091E3
:100BC0008A018D3E59F480918B0187FF0DC01092F0
:100BD0008B0141110BC01092860108C08E3E81F43A
:100BE00080918B0118169CF3442381F080918C0135
:100BF00090918D01892B09F05AC0109285010895BA
:100C00008F3E49F447FFF0CF10928A0180918B010B
:100C10008111ECCFE0CF803F19F41416ACF3E4CF90
:100C200090918C01893F29F41916F4F610928C01E9
:100C3000DBCF8A3F19F497FFD7CFF8CF90918D0182
:100C40008B3F29F497FFD0CF10928D01CDCF8C3FF1
:100C500019F41916CCF3C8CF9FE0980F983090F490
:100C6000815F990B21E030E0B90102C0660F771F68
:100C70008A95E2F7CB018095909189018923809331
:100C80008901B2CF8D3F31F4809187018E7F8093AF
:100C90008701AACF8E3F21F4809187018D7FF7CF06
:100CA0008F3F09F0A1CF809187018B7FF0CF08950E
:100CB0000E943B169C0190918A0180918B01982B98
:100CC00021F0309384012093830190918C018091D5
:100CD0008D01982B21F0309382012093810188E8C7
:100CE00091E00C94B409EF92FF920F931F93CF936E
:100CF000DF9300D000D000D0CDB7DEB786E0E8E8C3
:100D0000F1E0DE01119601900D928A95E1F7E090F5
:100D10008A01F0908B0100918C0110918D0110924D
:100D20008A0110928B0110928C0110928D018E2DF0
:100D30008F2991F080918301909184010E94531634
:100D4000AC0190918601992309F43FC0809106017E
:100D50008417150608F447C0802F812B91F08091ED
:100D60008101909182010E945316AC0190918501FE
:100D7000992309F477C0809102018417150608F4BD
:100D80007FC080918A0190918B01892B90918C0179
:100D9000892B90918D01892B11F00E94580686E0D5
:100DA000FE013196A8E8B1E001900D928A95E1F735
:100DB00026960FB6F894DEBF0FBECDBFDF91CF9160
:100DC0001F910F91FF90EF900895209107018AE005
:100DD000289F900111242417350708F0BDCF9F5F8D
:100DE0009093860102C09F3FD1F7EE2059F00E94F8
:100DF00002059FEF1E140CF491E0899F802D1124B1
:100E000080938A01FF2059F00E9402059FEF1F1472
:100E10000CF491E0899F802D112480938B013091F7
:100E20008A01332309F498CF20918B01222309F4FE
:100E300093CF45EB3403C0011124992359F09093CB
:100E40008A0145EB240390011124332339F03093B8
:100E50008B0182CF81E080938A01F3CF81E0809380
:100E60008B017ACF209103018AE0289F9001112401
:100E70002417350708F085CF9F5F9093850102C046
:100E80009F3FD1F7002359F00E944C059FEF1016A9
:100E90000CF491E0899F802D112480938C01112303
:100EA00059F00E944C059FEF11160CF491E0899FB8
:100EB000802D112480938D0130918C01332309F40E
:100EC00060CF20918D01222309F45BCF45EB3403E1
:100ED000C0011124992359F090938C0145EB240310
:100EE00090011124332339F030938D014ACF81E0F2
:100EF00080938C01F3CF81E080938D0142CF86E017
:100F0000E8E8F1E0DF011D928A95E9F71092860189
:100F1000109285011092870108950F931F93CF932C
:100F2000DF93C42FD22FFC0182818823C9F0409324
:100F300090010E943B1690938F0180938E0180E276
:100F40008C0F883008F050C0C77081E001C0880F56
:100F5000CA95EAF7DF91CF911F910F910C94E80B9E
:100F600010919001141335C080918E0190918F01E2
:100F70000E945316883C910560F5C0E2CD0F1D1705
:100F8000B9F080E2810F883040F4177081E001C031
:100F9000880F1A95EAF70E94EF0BC83048F481E0F9
:100FA0009D2F977001C0880F9A95EAF70E94E80B71
:100FB000802F0E94E00BC830B8F4D77081E001C0E8
:100FC000880FDA95EAF7DF91CF911F910F910C947A
:100FD000EF0B80E28C0F883038F4C77081E001C0DD
:100FE000880FCA95EAF7EFCFDF91CF911F910F914C
:100FF00008950F939C01CB01243F4CE5340759F130
:10100000A8F4293DFCE53F0701F12A3D4CE53407F2
:10101000D1F1283D3C4591F406E221EE41EE68ED28
:101020007CE50E948D0780E00F910895263FFCE546
:101030003F07E9F0B0F0273F3C45F9F0FC01828121
:10104000882339F110929001EFCF07E225EE45EEAB
:1010500069ED7CE5E6CF06E221EE40EE64EF7CE54B
:10106000E0CF07E225EE44EE65EF7CE5DACF06E25D
:1010700021EE42EE66EF7CE5D4CF07E225EE46EEA8
:1010800067EF7CE5CECF08E221E045EE6AED7CE536
:10109000C8CF81E0C9CFCF93DF93EC01FB01828100
:1010A000882309F419C1C230FCE5DF07C0F1C6315D
:1010B0009CE5D90730F09E012B5F3C452930310576
:1010C00070F50E94D2149093020280930102C03105
:1010D000ECE5DE0709F4CFC008F05BC0C8308CE552
:1010E000D80709F4B6C088F5C430ECE5DE0709F48A
:1010F000A8C0C0F4C2308CE5D80709F49CC0809128
:1011000001028260C330DC4509F498C0809101027D
:10111000909102020E94E0140E94610E80E0DF9133
:10112000CF910895809101028061C630ECE5DE0721
:1011300009F484C0809101028860C730DC4508F45E
:101140007DC080910102806279C0CC308CE5D807E7
:1011500009F489C070F4809101028C60CA30ECE51A
:10116000DE0709F46BC008F478C0809101028E7F1D
:1011700065C0CE308CE5D80709F479C080910102B2
:101180008B7FCF30DC4508F459C0809101028F7EFF
:1011900055C0CC3FECE5DE0709F457C030F5C3314C
:1011A0008CE5D80709F46FC078F4C131ECE5DE07AF
:1011B00009F465C0C231DC4509F0A8CF0E94610E78
:1011C000809101028F773AC0C5318CE5D80709F4C8
:1011D00062C008F476C0809102028160CB3FDC459A
:1011E00009F094CF8093020291CFC115FDE5DF078E
:1011F00009F44DC088F4809102028D7FCE3F9CE5BA
:10120000D90781F3809102028E7FCF3FDC4550F3F6
:10121000809102028360E6CFC230FDE5DF0709F46A
:1012200059C008F444C080E0C330DD4509F06ECFFA
:101230000E9466156BCF809101028160809301024C
:1012400065CF809101028460F9CF809102028260B3
:10125000C9CF809101028064F1CF0E94610E80911C
:1012600001028068EBCF809101028D7FE7CF8091F2
:101270000102877FE3CF809101028F7DDFCF8091D4
:1012800001028F7BDBCF80910102837FD7CF8091DA
:1012900002028C7FA7CF8091010282FB992790F9EF
:1012A00021E0922790FB82F990FB83F9C7CF8091D0
:1012B0000202982F909591708E7F892B90FB81F977
:1012C00091CF0E94610E90910102892F97FB87F9BF
:1012D0008058B4CF81E0ACCF81E021CFCF93DF93B2
:1012E000EB0186319C4511F50E9400149A819923E7
:1012F00099F08A7A91E009F490E09093910181113C
:1013000009C089E20E94BA130E94501480E0DF9164
:10131000CF91089585E3F6CF80919101811104C0AA
:1013200089E20E94C113F0CF85E3FBCF81E0EFCFCC
:1013300090939701809396010895E0919601F09122
:101340009701309721F00190F081E02D099480E021
:101350000895E0919601F0919701309721F0028075
:10136000F381E02D09940895E0919601F0919701A1
:10137000309739F022E0DC012C930480F581E02DD8
:101380000994089520919401309195012817390707
:1013900071F09093950180939401E0919601F09102
:1013A0009701309721F00680F781E02D0994089588
:1013B00020919201309193012817390771F0909391
:1013C000930180939201E0919601F09197013097FB
:1013D00021F00084F185E02D099408950E944716BC
:1013E00060939E0170939F018093A0019093A1014F
:1013F00060939A0170939B0180939C0190939D014F
:10140000089585B7806885BF85B7806885BF0895D2
:10141000089508950C94080A08950C940C0A0E94EB
:10142000010A8DEB94E10E9497160E94090A0C9420
:101430000A0A81E008950C94190A089508950E94FB
:101440001D0A0C941E0A0E9432160E946E040C940F
:101450000D0AEF92FF920F931F93CF93DF93CDB7B7
:10146000DEB72A970FB6F894DEBF0FBECDBF0E943D
:10147000860481110E94EE0980E00E944804182F22
:1014800080919901E82EE126811709F445C08091E9
:10149000F50181FD0E944E04F12C01E08E2D802388
:1014A000B1F10E941B0A882399F0FE821F8210234B
:1014B00081E009F480E088870E943B168160782FE4
:1014C0009A8789874E815F8168858A850E94AA0AEA
:1014D000809199010827009399010E9473060E9448
:1014E0009D0990919801891741F10E949D0980936F
:1014F00098012A960FB6F894DEBF0FBECDBFDF91DC
:10150000CF911F910F91FF90EF900C940E02F394E6
:10151000000F84E0F812C2CF8FEF89838A831B8289
:101520000E943B168160782F9D838C8349815A816C
:101530006B818D810E94AA0AD0CF2A960FB6F894AB
:10154000DEBF0FBECDBFDF91CF911F910F91FF90F6
:10155000EF900895DF92EF92FF920F931F93CF9336
:10156000DF93CDB7DEB72B970FB6F894DEBF0FBE73
:10157000CDBF7A878B87F42E052F162FE72ED82E16
:1015800061110E9420141E821D827E2DEC82DD825C
:101590004F2D502F612F8D2D9E812B960FB6F894D5
:1015A000DEBF0FBECDBFDF91CF911F910F91FF9096
:1015B000EF90DF900C94D710FC01808191810C9406
:1015C0008C13CF93C82F882309F48BC08238C1F4C1
:1015D0000E949D0981FD85C089E30E94BA130E9483
:1015E00050142FEF81EE94E0215080409040E1F7BD
:1015F00000C0000089E30E94C113CF910C945014E5
:101600008338A1F40E949D0980FD6BC083E50E9490
:10161000BA130E9450142FEF81EE94E021508040C5
:101620009040E1F700C0000083E5E5CF8438A1F4E5
:101630000E949D0982FD55C087E40E94BA130E9452
:1016400050142FEF81EE94E0215080409040E1F75C
:1016500000C0000087E4CFCF8CEF8C0F813A90F46C
:101660006C2F80910801909109010E947D158823BB
:1016700029F08C2F0E94C1130E9450148C2F0E94BD
:10168000BA13BBCF80E28C0F883048F4C77081E07A
:1016900001C0880FCA95EAF70E940314AECFEBE5AC
:1016A000EC0FE33040F4F0E0E858FE4F808190E02A
:1016B000CF910C94C209E8E5EC0FE73150F4F0E06B
:1016C000EE0FFF1FE65BFE4F80819181CF910C945E
:1016D000D809CD3E30F08C2F0E948505CF910C9417
:1016E0005806CF910895882309F452C0823871F4C6
:1016F0000E949D0981FF4CC089E30E94BA130E9499
:10170000501489E30E94C1130C945014833859F487
:101710000E949D0980FF3CC083E50E94BA130E948D
:10172000501483E5EFCF843859F40E949D0982FF5D
:101730002FC087E40E94BA130E94501487E4E2CFBE
:101740009CEF980F913AF0F290E2980F983050F495
:10175000877091E001C0990F8A95EAF7892F0E945E
:101760000914D2CF9BE5980F933020F490E080E0ED
:101770000C94C20998E5980F973120F490E080E02E
:101780000C94D8098D3E20F00E94DF050C94580679
:1017900008951F93CF93DF93182FEB010E94E10A66
:1017A000209731F4812FDF91CF911F910C94730B0F
:1017B0008FE99FE00197F1F700C000002197F0CF7B
:1017C00070E060E0893311F460E570E00C94C90BBF
:1017D000882321F00E9403140C9450140895882348
:1017E00021F00E9409140C9450140895BF92CF92D6
:1017F000DF92EF92FF920F931F93CF93DF936C01D1
:10180000D62FC72FFC011281058102950F700E940F
:10181000D813E82E8823A1F0E12E112389F08C2F14
:10182000807F803429F080E28D0FE12C883040F0F9
:1018300082E00E94A1140E94D81391E0E82EE926CC
:10184000BC2EB2949FE0B922EB2DF0E0E754F24EAB
:101850000C945B1D0C2F0F70C07F11F00295007F60
:101860001123A9F0002359F080E28D0F883010F089
:10187000D11109C0802F0E9403140E9450148D2F93
:101880000E94E10A14C0802F0E941314F6CF8D2FFE
:101890000E94730B002359F080E28D0F883010F006
:1018A000D1112CC0802F0E9409140E9450142B2D9E
:1018B0002850330B2430310520F40E949D090E94EA
:1018C0000E02EE2009F49EC10E94D41380FD9AC13D
:1018D000F60112820E94CE130E945B12C6010E9482
:1018E000230E0E94CE13DF91CF911F910F91FF9095
:1018F000EF90DF90CF90BF900C947C12802F0E94CD
:101900001914D3CFFC2FFF70FF2EC07FC03219F007
:10191000F29480EFF822DD2369F0D13049F11123F0
:1019200091F1002351F1F601858180FFA8CF8F70DE
:10193000858323C0112381F0011106C00E94331456
:101940008F290E94E80BB3CF0130C1F70E943314F6
:101950008F290E943914ABCF011106C00E94461492
:101960008F2D0E94EF0BA3CF013009F4A0CFF6CF4B
:10197000112329F0063008F09ACF8F2DE2CF0530E1
:1019800008F095CFEDCF002359F3D93349F4FFEF99
:1019900027EE33E0F15020403040E1F700C0000076
:1019A0008D2F0E94730B83CF8C2F86958695837025
:1019B00069F0813009F07BCF8D2F9C2F937011112E
:1019C00002C090E080E00E94D80971CF8D2F9C2F3B
:1019D0009370111102C090E080E00E94C20967CFAD
:1019E0008D2F112329F00E9485050E9458065FCF94
:1019F0000E94DF05FACF8C2F837009F041C01111CE
:101A000056CF4D2F429546954770440F440F0D2FEA
:101A10000F7010E030E020E0042E04C0000F111F12
:101A2000221F331F0A94D2F760E070E0CB01D4FF8D
:101A30000FC06FE070E080E090E004C0660F771F99
:101A4000881F991F4A95D2F760957095809590955B
:101A5000C695C695C370602B712B822B932BC23019
:101A600049F058F4C13019F00E940D1220CF0E94A5
:101A7000FB111DCF0E941F121ACF0E94F91117CF20
:101A80008695112311F08C2F8170882309F40FCFD4
:101A90004D2F429546954770440F440F0D2F0F7000
:101AA00010E030E020E0042E04C0000F111F221FC0
:101AB000331F0A94D2F760E070E0CB01D4FF0FC06F
:101AC0006FE070E080E090E004C0660F771F881F31
:101AD000991F4A95D2F76095709580959095C69517
:101AE000C695C370602B712B822B932BC23049F0AB
:101AF00058F4C13019F00E94D212D9CE0E94C012FF
:101B0000D6CE0E94E412D3CE0E943512D0CECF7032
:101B1000112329F08C2F0E945B128D2F12CF8D2F55
:101B20000E94EF0B8C2F0E947C12C1CED23F89F114
:101B300060F4D03FC9F0D13F29F1112309F442C02C
:101B400001119DCE8C2F8F7121C0D33F39F1D43F2D
:101B5000A1F7112369F1CF718C2F0E945B1263E012
:101B60008C2F0E948614A3CE112341F0053008F07B
:101B70009ECE8C2F8F710E949F1299CE063008F056
:101B800096CEF7CF8C2F8F71112369F20E945B12D2
:101B90008ECE8C2F8F711123C9F3C5CF112329F05D
:101BA0008C2F8F710E94461282CE0E9441127FCEEE
:101BB00081E00E94A114023008F479CE82E00E94F4
:101BC000A11475CE002359F0D93309F0E9CE8FEF77
:101BD00097EEE3E081509040E040E1F7DFCE8C2FBC
:101BE0008F71A1CF4C2F4F706D2FC6010E9416022E
:101BF0000E9471115CCE4C2F4F706D2FC6010E9458
:101C0000190255CEDF91CF911F910F91FF90EF9068
:101C1000DF90CF90BF9008950F931F93CF93DF93E2
:101C2000EC01688179818A810E9496138C010E945F
:101C3000F6120E94F811B801CE01DF91CF911F91E9
:101C40000F910C94F60BCF93DF93EC018B819C8169
:101C5000892B29F08881998189238F3F59F4DF915D
:101C6000CF910895CE010E940C0ECE01DF91CF914D
:101C70000C949701CE010E94B8018111F3CF0E940C
:101C8000D813882361F38A81882349F382E0DF91A6
:101C9000CF910C94A11490E080E00E94C20990E0E2
:101CA00080E00E94D8090E9420140E9430140E94F3
:101CB00050140E947F070C9458060E94C8130C947D
:101CC0004B0E0E9410140C945D0EE92FE295EF70FC
:101CD000E250EE3070F4F0E0E753F24E0C945B1DEE
:101CE000803F19F020F4883E20F481E00895843F7D
:101CF000E1F380E00895883EC0F3813FD1F7F5CF4E
:101D000093FB882780F908950E948C130C94650E2C
:101D1000CF93DF9300D000D00F92CDB7DEB70F90F6
:101D20000F900F900F900F90DF91CF910895CF9368
:101D3000DF9300D000D000D0CDB7DEB726960FB627
:101D4000F894DEBF0FBECDBFDF91CF9108951F93F2
:101D5000CF93DF93C091A30116E08091A4018C136F
:101D600004C0DF91CF911F910895D0E01C9FF00136
:101D70001D9FF00D1124EB55FE4F40815181628172
:101D80007381848195810E94970E2196C770E5CF5B
:101D90004091D5015091D6016091D7017091D80141
:101DA0008091D9019091DA010C94970E1F93CF93F3
:101DB000DF938091DA01807FA9F48091D701882395
:101DC00089F08091A301C091A4016091D501709127
:101DD000D601A091D801B091D901D62FD72316E012
:101DE000C81304C0DF91CF911F91089590E0109720
:101DF00011F0DF3F19F401968770F2CF189F900120
:101E0000199F300D1124F901EB55FE4F4181471305
:101E1000F2CF40814613EFCF42814111ECCF438195
:101E200054814A1B5B0B483C510528F78091DA012D
:101E30008F7080618093DA01F901E655FE4F808151
:101E40008F708061808385ED91E00E94230EDF9189
:101E5000CF911F910C94A70EAF92BF92CF92DF92B9
:101E6000EF92FF920F931F93CF93DF93CDB7DEB71F
:101E700061970FB6F894DEBF0FBECDBF8C0185E031
:101E8000F801DE011D9601900D928A95E1F7F801A7
:101E900040815181E28085EDC82E81E0D82E60918D
:101EA000D8017091D9016115710509F461C1909152
:101EB000D5012091D601892F82238F3F09F458C183
:101EC000A380B480F090D701F501E61BF70BFF204B
:101ED00009F4FCC08091DA01382F307FE83CF1052D
:101EE00008F0B2C0311179C0FE2C251323C0941321
:101EF00021C0E1101FC08F7080618093DA010E94C1
:101F0000C80EC6010E94230E8091DA01F801858374
:101F10008F2D61960FB6F894DEBF0FBECDBFDF9157
:101F2000CF911F910F91FF90EF90DF90CF90BF90D6
:101F3000AF900895AB2829F0842F85238F3F09F0B7
:101F400033C180E0F82FF170DF2E80FF3CC080911C
:101F5000A3012091A40136E0821315C04D875E874E
:101F60008D859E850E948C13292F22952F702230FB
:101F7000F0F0243018F59F70F1F0F8019581907F12
:101F8000D1F4D12C1EC090E0389FF001399FF00DA4
:101F90001124EB55FE4F6181651306C06081641307
:101FA00003C062816E110FC001968770D5CF9F70FC
:101FB00011F0882331F3805E883018F3C8010E9445
:101FC000230EFD2CA5CFEE2009F4A2CF8091DA01DB
:101FD00081608093DA01F12C9BCF251306C0941306
:101FE00004C0F801EE2009F48DC04D875E878D8511
:101FF0009E850E94840E882319F1EE2009F18091BC
:10200000DA01803270F02091D5013091D601388705
:102010002F831986BB86AA868C87CE0107960E94DD
:10202000230E86E0F801A5EDB1E001900D928A95AE
:10203000E1F70E94D60E0E94C80EFF24F39468CFE9
:10204000C8010E94230EF9CF311113C07A2DB98A2D
:10205000A88A6E2D89890E94880E85ED91E00E94E4
:10206000230E86E0F60111928A95E9F70E94C80EC8
:10207000B2CF25130FC094130DC0E1100BC0F801AF
:102080008583C8010E94230E86E0F60111928A958D
:10209000E9F73ECF4D875E878D859E850E94840E31
:1020A000882371F2EE2061F28091DA01803208F427
:1020B000B8CF2091D5013091D6013A8329831B8274
:1020C000BD82AC828E83CE010196A9CFE83CF1059A
:1020D00008F041C0FE2CEE2009F4B2CF25132AC02F
:1020E000941328C08091DA0180FD1BC0982F907F47
:1020F000C1F0F8018583903F31F0982F907F905F79
:102100008F70892B8583C8010E94230E86E0F80119
:10211000A5EDB1E001900D928A95E1F70E94C80EFD
:10212000F7CE86E0F801A5EDB1E001900D928A9519
:10213000E1F7EECE4D875E878D859E850E94840EE9
:1021400081116FCF8091DA0181608093DA01C8013B
:102150000E94230EDDCE7A2DB98AA88A6E2D898938
:102160000E94880E86E0F60111928A95E9F7D6CF93
:10217000EE2009F465CF4D875E878D859E850E9490
:10218000840EF82E882309F45BCF86E0F801A5EDD4
:10219000B1E001900D928A95E1F785ED91E00E9402
:1021A000DC0A0E94D60EBACF81E08E25CBCE1F93DB
:1021B000CF93DF93CDB7DEB72C970FB6F894DEBF81
:1021C0000FBECDBF4F83588769877A878B879C87DF
:1021D000CE0107960E942C0F882369F08A859B8583
:1021E000892B39F04F815885842F85238F3F09F043
:1021F00071C016E05FC086E0FE013796DE011196E1
:1022000001900D928A95E1F78A859B85892B89F348
:102210008F81988589238F3F61F32091A40130E05D
:10222000C9010196877099274091A30148171906A3
:1022300071F40E94610E1092A4011092A30186E035
:10224000E5EDF1E0DF011D928A95E9F7D2CF96E046
:10225000929FD001939FB00D1124AB55BE4FFE014C
:10226000319601900D929A95E1F78093A4010E9416
:10227000A70EBFCF819FC00111248B559E4F0E9496
:102280002C0F8823E9F0E091A3011E9FF001112497
:10229000EB55FE4F4081518162817381848195812C
:1022A0000E94970E8091A30190E001968770992774
:1022B0008093A3018091A3019091A4018913DACFA7
:1022C0002C960FB6F894DEBF0FBECDBFDF91CF9135
:1022D0001F91089569857A858B859C850E94970E4C
:1022E00088CFEF92FF920F931F93CF93DF938C01D0
:1022F000892B81F0F12CEE24E394E8012196F8017A
:102300008491843770F4843008F05FC08130B1F07C
:102310008230A1F1DF91CF911F910F91FF90EF904B
:102320000895853709F44CC008F43DC09CE7980F28
:10233000903780F78F770E94730B49C00E5F1F4F55
:10234000FE01849190E2980F983060F48770FE2D22
:1023500001C0FF0F8A95EAF78F2F0E9423140E9475
:10236000501402C00E94E10A8F2D815030F2EFE933
:10237000FFE03197F1F700C00000F7CF0E5F1F4F6D
:10238000FE01849190E2980F983050F48770FE2DF2
:1023900001C0FF0F8A95EAF78F2F0E942914DFCF23
:1023A0000E94730BE1CF0E5F1F4FFE01C491C1501D
:1023B000D8F28FE99FE00197F1F700C00000F7CF56
:1023C0000E5F1F4FFE01F490CFCF0E94E10A8E01F5
:1023D000CBCF08950C94E9110E94EA116093E401B7
:1023E0007093E5018093E6019093E7010C944B0E06
:1023F00008950C94EC110F931F930091E401109138
:10240000E5012091E6013091E701602B712B822BD1
:10241000932B1F910F910C94EC110F931F9300912C
:10242000E4011091E5012091E6013091E70160237C
:102430007123822393231F910F910C94EC110F931E
:102440001F930091E4011091E5012091E601309184
:10245000E70160277127822793271F910F910C9422
:10246000EC110C94E9110C9431120E943312609318
:10247000E0017093E1018093E2019093E3010C94F9
:102480004B0E60E070E0CB010C9435120F931F935C
:1024900041E050E060E070E08A019B0104C0000F61
:1024A000111F221F331F8A95D2F7C901B8011F914E
:1024B0000F910C9435120F931F9341E050E060E0B0
:1024C00070E004C0440F551F661F771F8A95D2F72E
:1024D0008091E0019091E101A091E201B091E301CE
:1024E0008A019B01082B192B2A2B3B2BC901B80110
:1024F0001F910F910C9435120F931F9341E050E000
:1025000060E070E004C0440F551F661F771F8A9576
:10251000D2F7CB01BA0160957095809590950091A6
:10252000E0011091E1012091E2013091E30160238B
:102530007123822393231F910F910C9435120F93D3
:102540001F9341E050E060E070E004C0440F551F6D
:10255000661F771F8A95D2F78091E0019091E10183
:10256000A091E201B091E3018A019B01082719279C
:102570002A273B27C901B8011F910F910C943512EE
:102580000F931F930091E0011091E1012091E2016E
:102590003091E301602B712B822B932B1F910F91B4
:1025A0000C9435120F931F930091E0011091E101FB
:1025B0002091E2013091E301602371238223932370
:1025C0001F910F910C9435120F931F930091E0010E
:1025D0001091E1012091E2013091E3016027712720
:1025E000822793271F910F910C9435120895990F0C
:1025F000990F890F982F977041E001C0440F9A9569
:10260000EAF786958695869595E0899FF0011124D5
:10261000E552FE4F30E020E070E05191DF0111976C
:10262000CB01022E02C0969587950A94E2F781703D
:1026300081958527842385278C932F5F3F4F2530F5
:10264000310559F70895990F990F890F982F9770B1
:1026500086958695869525E0829FF0011124E552A6
:10266000FE4F50E040E080E0219130E0092E02C0B2
:10267000369527950A94E2F721703327042E01C07E
:10268000220F0A94EAF7822B4F5F5F4F45305105C6
:1026900059F70895BF92CF92DF92EF92FF920F9376
:1026A0001F93CF93DF938C01C090E001D090E101A4
:1026B000E090E201F090E3018091E4019091E50166
:1026C000A091E601B091E701C82AD92AEA2AFB2A9B
:1026D000CFE1D0E0BC2ED701C6010C2E04C0B695C8
:1026E000A795979587950A94D2F780FD0EC02197FC
:1026F00088F7B12C8B2DDF91CF911F910F91FF9017
:10270000EF90DF90CF90BF900895B8018C2F0E947A
:102710003402019761F3EECFCF93DF93EC010E9477
:102720004A13BE01DF91CF910C9434021F93CF93D3
:10273000DF93EB019091A201992331F0CB01DF915E
:10274000CF911F910C948C13882379F0CB010E94B8
:102750004A13182F682FCE010E94F712BE01812F55
:10276000DF91CF911F910C943402CB010E9423136F
:10277000182FF4CF682F80910801909109010C94D3
:10278000B315682F80910801909109010C94B5153B
:1027900080910801909109010C94B7158091E8018E
:1027A00085958595859508958091E80187700895B0
:1027B0009091E801977081E009F480E0089590918C
:1027C000020292FB222720F9281751F080FB92F990
:1027D0009093020280910102909102020C94E01405
:1027E00008958091020282FB882780F991E0892771
:1027F0000C94DF1381E00C94DF1380E00C94DF1362
:102800008091F40108959091F401892B8093F40153
:10281000089580959091F40198239093F401089580
:102820001092F40108959091F301892B8093F301A4
:10283000089580959091F30198239093F301089562
:102840001092F30108959091F201892B8093F20187
:10285000089580959091F20198239093F201089544
:102860001092F20108958091E901089508950C9461
:1028700036149091020292FD08C09091E9019817D8
:1028800021F08093E9010C94371408958091E901B7
:10289000882329F01092E90180E00C943714089500
:1028A000E0910801F09109018091F4018083E091A9
:1028B0000801F091090180819091F301892B8083B7
:1028C000E0910801F091090180819091F201892B3A
:1028D00080839091E901992381F0E0910801F091C2
:1028E00009018081892B80838091080190910901E1
:1028F0000E946B1581110E944614809108019091ED
:1029000009010C94A90908950C9483149091020272
:1029100092FD10C098E0899F90011124622B609372
:10292000E8010E945B128091E80185958595859567
:102930000C9484140C945B121092E80180E00C94C7
:1029400084149091E801809589238093E801282FD1
:10295000277039F4282F082E000C330B921713061A
:1029600021F49091020292FF07C085958595859587
:102970000E947C120C949C14089580E0089590E0CD
:1029800080E00E947D1D21E08A3E9E4F09F020E0FC
:10299000822F089582E090E00C94751D83E090E012
:1029A0000C94751DCF9384E090E00E94751DC82F94
:1029B00082E290E00E94751D982F8C2FCF91089590
:1029C000CF93C92F682F84E090E00E94831D6C2F65
:1029D00082E290E0CF910C94831DAB01BC018FE0AB
:1029E00090E00C94951DAB01BC0183E190E00C9448
:1029F000951D60E070E0CB010C94F31460E070E092
:102A0000CB010E94ED140C94F9146AEE7EEF90E075
:102A100080E00E94A11D60E082E090E00E94831DA2
:102A200060E083E090E00E94831D1092E401109228
:102A3000E5011092E6011092E70160E084E090E089
:102A40000E94831D60E082E290E00E94831D60E0AE
:102A500085E090E00E94831D60E086E090E00E94A7
:102A6000831D6FEF87E090E00E94831D40E050E0FF
:102A7000BA0188E090E00E94951D60E08DE090E052
:102A80000E94831D40E050E0BA0188E190E00E947E
:102A9000951D60E087E190E00E94831D40E050E0DA
:102AA000BA018CE190E00E94951D70E060E080E248
:102AB00090E00E94A11D40E050E0BA0188E190E062
:102AC0000E94951D0C94FE140C940515682F8EE041
:102AD00090E00C94831D9C012E5F3F4FAC01485F3A
:102AE0005F4F80E02417350709F40895F9019191AB
:102AF0009F019923B9F38F5FF5CF662349F0FC015D
:102B0000329608962191261729F0E817F907D1F790
:102B100080E0089581E008959C01FC0132969FEFCA
:102B200080E04191461751F09F3F19F4411101C0D7
:102B3000982F8F5F8630A9F79F3F09F40895290FDA
:102B4000311D97FD3A95F90162830895FC01329693
:102B500008962191261303C0DF0111971C92E817F4
:102B6000F907B9F708950C948C150C94A6150296E4
:102B700026E0FC0111922A95E9F708950895089539
:102B80000C94BF1580910D02843049F10E94C0154C
:102B900080E00E940E021092F60188E190E020E4AD
:102BA0000FB6F894A895809360000FBE2093600044
:102BB00083B7817F846083BF83B7816083BF78944C
:102BC000889583B78E7F83BF0FB6F894A8958091C0
:102BD0006000886180936000109260000FBE0895CD
:102BE00008950E94BE150E9486040E94F01580E0A0
:102BF0000E94480491E0811101C090E0892F08955E
:102C000008950C9400160E94610E0E949D090E9476
:102C10000E020C9401161F921FB61F9211248F935F
:102C20009F93AF93BF938091F601811113C0809160
:102C3000050290910602A0910702B0910802419608
:102C4000A11DB11D8093050290930602A093070277
:102C5000B0930802BF91AF919F918F911F901FBEBB
:102C60001F90189582E084BD93E095BD9AEF97BDC3
:102C700080936E0008952FB7F8948091050290918B
:102C80000602A0910702B09108022FBF08952FB746
:102C9000F89460910502709106028091070290916C
:102CA00008022FBF08959C014FB7F8948091050248
:102CB00090910602A0910702B09108024FBF821BBB
:102CC000930B089578941F921FB61F9211248F932F
:102CD0009F93AF93BF938091050290910602A091BC
:102CE0000702B09108020196A11DB11D8093050253
:102CF00090930602A0930702B0930802BF91AF9190
:102D00009F918F911F901FBE1F90189587E797E79F
:102D1000909301088093000888E19AE00FB6F89438
:102D2000A895809360000FBE90936000FFCF9093B2
:102D30007D0180937C0108958091FF010895CF93D8
:102D4000DF9300D00F92CDB7DEB790910D02943093
:102D500019F589837B836A8382E08093E9008FEF92
:102D60009091E800815095FD06C095ED9A95F1F798
:102D700000008111F5CF8091E80085FF0DC050E083
:102D800040E063E070E0CE0101960E94B6188091A9
:102D9000E8008E778093E8000F900F900F90DF91FE
:102DA000CF910895BC0184E00C949F16BC0183E090
:102DB0000C949F169C0182E08093E9009FEF809124
:102DC000E800915085FD06C085ED8A95F1F7000079
:102DD0009111F5CF8091E80085FF0CC050E040E0F4
:102DE00066E070E0C9010E94B6188091E8008E7715
:102DF0008093E8000895CF93DF93EC0181E0809306
:102E0000E9008FEF9091E800815095FD06C095EDA7
:102E10009A95F1F700008111F5CF8091E80085FFC8
:102E200014C050E040E068E070E0CE010E94B618A7
:102E30008091E8008E778093E80088E0FE01A7EF9C
:102E4000B1E001900D928A95E1F7DF91CF9108955D
:102E500080910C02811109C00E94461A0E94A31A97
:102E60008091E20084608093E200089510920C0249
:102E7000089508950895089542E061EC81E00E946C
:102E8000C21942E261EC82E00C94C21980910F02F7
:102E9000833009F45FC030F48130C1F1823009F42D
:102EA0009BC008958A3009F487C08B3009F46DC047
:102EB000893009F04EC080910E02813209F049C07C
:102EC0008091120290911302029708F042C0809103
:102ED000E800877F8093E8008091E80082FF35C09A
:102EE0009091F3008091F200029729F48091F10013
:102EF0008B7F813021F48091F1008093FF018091DC
:102F0000E8008B778093E8000C94F61980910E020C
:102F1000813AF9F48091E800877F8093E8008091FE
:102F2000120290911302892B61F468E087EF91E01F
:102F300070E00E9405198091E8008B778093E8008B
:102F4000089560E090E080E0F3CF80910D02811160
:102F5000C3CF089580910E02813AD9F78091120271
:102F600090911302892BA9F78091E800877F8093C5
:102F7000E8008091E80080FFFCCF809114018093ED
:102F8000F1008091E8008E77BDCF80910E028132F2
:102F900001F78091120290911302892BD1F6809152
:102FA000E800877F8093E8000E94F6198091100264
:102FB000809314010C94610E80910E02813249F6C7
:102FC0008091E800877F8093E8000E94F619809145
:102FD000110280930002089580910E02813A09F057
:102FE000B8CF8091E800877F8093E8008091E80067
:102FF00080FFFCCF80910002C2CF84B7877F84BF5F
:103000000FB6F894A8958091600088618093600065
:10301000109260000FBE80E890E00FB6F8948093A5
:103020006100909361000FBE0E940F0A0E94461A31
:103030000E94A31A8091E20084608093E200789459
:103040000E942C1D0E94230A8AE091E00E949809A8
:1030500080910D02853099F00E94290A0E941F0A72
:10306000F7CF0E94C21580910B02882341F00E9485
:10307000F115882321F00E94A0180E94610E809112
:103080000D02853071F30E940316E6CF0C944818A8
:10309000292F33272330310519F168F42130310508
:1030A00009F444C02230310509F445C090E080E0C5
:1030B00030E020E025C02132310549F122323105CE
:1030C000A9F780E490E02CEB31E061157105C1F0C7
:1030D0008BE790E021E431E06130710589F0E6CFC3
:1030E00099278130910581F0009729F00297F1F638
:1030F000E4EBF0E002C0E0EFF0E0849190E09F01AB
:10310000FA01318320830895EEEDF0E0F6CF89E0F7
:1031100090E026E031E06115710591F389E090E0DF
:103120002FE131E06130710559F3C0CF82E190E0C9
:103130002FE231E0E5CF8BE390E024EF30E0E0CF09
:1031400080E189BD82E189BD09B400FEFDCF809197
:10315000D8008F7D8093D8008091E00082608093BA
:10316000E0008091E00081FDFCCF0895AF92BF9216
:10317000CF92DF92FF920F931F93CF93DF936C0157
:10318000EB018A010E94151AF82E811123C0011546
:10319000110539F0F80180819181C81BD90BC80E47
:1031A000D91EB12CA12C2097A9F08091E80085FDB3
:1031B00022C08091E8008E778093E8000115110508
:1031C000A1F0F80180819181A80EB91EB182A08280
:1031D00085E0F82E8F2DDF91CF911F910F91FF90F9
:1031E000DF90CF90BF90AF9008950E94151A88236A
:1031F000D1F2F82EEFCFF60181916F018093F100AB
:103200002197FFEFAF1ABF0ACECFFC0180911402C5
:103210009091150286179707A0F06115710529F4A2
:103220009091E8009E779093E80090E06115710519
:1032300051F4911108C08091E80082FF34C080E011
:103240000895BC01F2CF80910D028823C1F1853031
:10325000C1F18091E80083FD30C08091E80082FDDB
:10326000EACF8091E80080FFE1CF8091F3002091C8
:10327000F200382F6115710519F02830310558F02A
:1032800091E02830310509F090E02091E8002E7798
:103290002093E800CBCF81918093F10061507109B8
:1032A0002F5F3F4FE7CF80910D02882341F085309B
:1032B00041F08091E80083FFBECF81E0089582E075
:1032C000089583E00895FC01809114029091150205
:1032D00086179707A0F06115710529F48091E80021
:1032E0008E778093E80090E06115710551F491119B
:1032F00008C08091E80082FF35C080E00895BC01DD
:10330000F2CF80910D028823C9F18530C9F18091F7
:10331000E80083FD31C08091E80082FDEACF809112
:10332000E80080FFE1CF8091F3002091F200382F78
:103330006115710519F02830310558F091E02830F9
:10334000310509F090E08091E8008E778093E800E5
:10335000CBCF84918093F1003196615071092F5F3A
:103360003F4FE6CF80910D02882341F0853041F038
:103370008091E80083FFBDCF81E0089582E0089549
:1033800083E00895982F973028F08F708093E9009C
:1033900081E008959093E900242F762F50E098174C
:1033A00031F07091EC002091ED005091F00021FD82
:1033B00002C09F5FE8CF3091EB003E7F3093EB007F
:1033C0003091ED003D7F3093ED003091EB003160A6
:1033D0003093EB007093EC002093ED005093F000DD
:1033E0002091EE0027FDE5CF80E0089580910E0248
:1033F00087FF13C08091E80082FF06C08091E8003B
:103400008B778093E80004C080910D028111F2CF88
:10341000089580910D028823D9F38091E80080FF00
:10342000F8CF8091E8008E77ECCF2091E4003091C6
:10343000E50095E6A9012091EC00822F817020FF24
:1034400006C08091E80080FF06C080E008952091CA
:10345000E80022FD1AC080910D02882389F0853092
:1034600089F08091EB0085FD0FC02091E400309140
:10347000E50042175307F9F29150E1F684E0089510
:1034800082E0089583E0089581E008950E94B41ACF
:103490000E94BC1AE0EEF0E0808181608083E8ED5C
:1034A000F0E080818F77808319BCA7EDB0E08C912C
:1034B0008E7F8C9380818F7E808310920C02089582
:1034C0000F931F93CF93DF930E94B41A0E94BC1AEC
:1034D000C8EDD0E088818F77888388818068888371
:1034E00088818F7D888319BC10920D021092090289
:1034F00010920B0210920A0200EE10E0F801808197
:103500008B7F808388818160888342E060E080E0F7
:103510000E94C219E1EEF0E080818E7F8083E2EEAE
:10352000F0E0808181608083808188608083F80101
:1035300080818E7F8083888180618883DF91CF91B5
:103540001F910F910895E8EDF0E080818F7E8083D8
:10355000E7EDF0E080818160808384E082BF81E0DC
:1035600080930C020C94601AE8EDF0E080818E7F6D
:1035700080831092E20008951092DA001092E10028
:1035800008951F920F920FB60F9211242F933F931D
:103590004F935F936F937F938F939F93AF93BF935B
:1035A000EF93FF938091E10082FF0BC08091E200D6
:1035B00082FF07C08091E1008B7F8093E1000E9431
:1035C0002B1D8091DA0080FF19C08091D80080FF08
:1035D00015C08091DA008E7F8093DA008091D90047
:1035E00080FF96C080E189BD82E189BD09B400FEFB
:1035F000FDCF81E080930D020E9428178091E100A9
:1036000080FF19C08091E20080FF15C08091E20028
:103610008E7F8093E2008091E20080618093E200DF
:103620008091D80080628093D80019BC85E0809397
:103630000D020E943A178091E10084FF2BC0809117
:10364000E20084FF27C080E189BD82E189BD89B5A0
:10365000982F917080FFFBCF8091D8008F7D809351
:10366000D8008091E1008F7E8093E1008091E2009C
:103670008F7E8093E2008091E20081608093E2007F
:1036800080910902882309F449C084E080930D02E7
:103690000E943B178091E10083FF29C08091E200E6
:1036A00083FF25C08091E100877F8093E10082E065
:1036B00080930D02109209028091E1008E7F809329
:1036C000E1008091E2008E7F8093E2008091E20031
:1036D00080618093E20042E060E080E00E94C219D5
:1036E0008091F00088608093F0000E943917FF916C
:1036F000EF91BF91AF919F918F917F916F915F916A
:103700004F913F912F910F900FBE0F901F901895E2
:1037100019BC10920D020E94361770CF8091E30001
:1037200087FD93E090930D02B3CF1F920F920FB6D7
:103730000F9211242F933F934F935F936F937F9337
:103740008F939F93AF93BF93CF93DF93EF93FF93A9
:10375000D091E900DF708091EC00C82FC17080FD2E
:10376000C0E81092E9008091F000877F8093F0001C
:1037700078940E94D91B1092E9008091F000886033
:103780008093F000CD2BCF70C093E900FF91EF91B3
:10379000DF91CF91BF91AF919F918F917F916F9169
:1037A0005F914F913F912F910F900FBE0F901F90FF
:1037B00018951F93CF93DF93CDB7DEB7AA970FB6B7
:1037C000F894DEBF0FBECDBF8EE092E02091F100F5
:1037D000FC012193CF01F2E086319F07B9F70E94E7
:1037E00046178091E80083FF1EC180910E029091E0
:1037F0000F029A3008F017C1E92FF0E0E952F24EBB
:103800000C945B1D803899F0823809F00CC18091CE
:1038100012028F70873008F006C18093E900809112
:10382000EB0085FB882780F91092E90006C08091A3
:103830000A0290910B02911182609091E800977FAB
:103840009093E8008093F1001092F1008091E800DD
:103850008E77E5C0882309F4D3C0823009F0E3C035
:10386000809110028111D6C0809112028F702FEFCB
:10387000280F263008F0D7C08093E9002091EB0094
:1038800020FFC8C0933031F48091EB0080628093B8
:10389000EB00C0C09091EB0090619093EB0021E0B1
:1038A00030E001C0220F8A95EAF72093EA001092D7
:1038B000EA008091EB008860EACF8111B4C01091DA
:1038C00010021F778091E3008078812B8093E300C2
:1038D0008091E800877F8093E8000E94F61980912C
:1038E000E80080FFFCCF8091E30080688093E300D4
:1038F00082E0111183E080930D0295C080588230E0
:1039000008F091C080911002909111028C3D23E04B
:103910009207A1F583E08A838AE289834FB7F894FE
:10392000DE01139620E03EE051E2E32FF0E05093F9
:103930005700E49120FF03C0E295EF703F5FEF7006
:103940008E2F90E0EA30C0F0C7968D939D932F5F45
:10395000243159F74FBF8091E800877F8093E800BA
:103960006AE270E0CE0101960E9405198091E8009C
:103970008B778093E80057C0C096E7CF6091120222
:1039800070911302AE014F5F5F4F0E944618BC0159
:10399000892B09F448C09091E800977F9093E80044
:1039A00089819A810E946319E1CF8038E1F5809185
:1039B000E800877F8093E800809109028093F100FE
:1039C00045CF811130C090911002923060F5809106
:1039D000E800877F8093E800909309020E94F6191F
:1039E00080910902882311F084E005C08091E300F2
:1039F00087FDFACF81E080930D020E943C1713C02F
:103A000080911002813079F481E0933009F080E0F8
:103A100080930B021092E9008091E800877F8093E9
:103A2000E8000E94F6198091E80083FF0AC08091A7
:103A3000E800877F8093E8008091EB0080628093AC
:103A4000EB00AA960FB6F894DEBF0FBECDBFDF9194
:103A5000CF911F9108950895CF9380910D028823EF
:103A6000A1F0C091E900CF709091EC00892F817096
:103A700090FD80E8C82B1092E9008091E80083FD5A
:103A80000E94D91BCF70C093E900CF91089597FB96
:103A9000072E16F4009407D077FD09D00E94611D0F
:103AA00007FC05D03EF4909581959F4F0895709541
:103AB00061957F4F0895EE0FFF1F0590F491E02D63
:103AC0000994AA1BBB1B51E107C0AA1FBB1FA61765
:103AD000B70710F0A61BB70B881F991F5A95A9F7B7
:103AE00080959095BC01CD010895F999FECF92BDC6
:103AF00081BDF89A992780B50895A8E1B0E042E029
:103B000050E00C94A91D262FF999FECF92BD81BDDE
:103B1000F89A019700B4021639F01FBA20BD0FB60B
:103B2000F894FA9AF99A0FBE08950396272F0E94E7
:103B3000841D0E94831D252F0E94841D242F0C9418
:103B4000841D0196272F0E94841D0C94831DDC0187
:103B5000CB01FC01F999FECF06C0F2BDE1BDF89A98
:103B6000319600B40D9241505040B8F70895F89442
:103B7000FFCF2A0C2A0C820C820CD40CF00C570CB0
:103B8000570CFB0C870D960D960DF20D570C570C2C
:103B9000FB0D700E700E790E790E7B0E790E790E7C
:103BA000790E700E700E800E790E790E800E021C4A
:103BB0002A1C131D2A1C131D5D1C7E1C131DD51CE5
:023BC000E11C06
:103BC2002808641E140A321EEA019C16FB16DA1635
:103BD200D616D21601E200E900EA00B500B600B737
:103BE20000CD008301CC008A0192019401210223BD
:103BF2000224022502260227022A02B300B4006F21
:103C0200007000818283323331F7E200E900EA007A
:103C1200B500B600B700CD008301CC008A01920145
:103C220094012102230224022502260227022A02EB
:0C3C3200B300B4006F00700081828300BA
:00000001FF
