:100000000C94EB030C9432040C9432040C943204E0
:100010000C9432040C9432040C9432040C94320488
:100020000C9432040C9432040C941C220C94F02294
:100030000C94C61C0C9432040C9432040C943204BC
:100040000C9432040C9432040C9432040C94320458
:100050000C9432040C941D1D0C9432040C94320444
:100060000C9432040C9432040C9432040C94320438
:100070000C9432040C9432040C9432040C94320428
:100080000C9432040C9432040C9432040C94320418
:100090000C9432040C9432040C9432040C94320408
:1000A0000C9432040C9432040C94320400574A002D
:1000B0004B004C004D004E0000005200000050006C
:1000C00051004F0001004800A90028004700AA0085
:1000D000000001000000010001000100010001001A
:1000E000A900A8000100AA0000002C000000BC002C
:1000F000AE00BB0044454255473A206469736162D3
:100100006C65642E0A0044454255473A20656E618D
:10011000626C65642E0A000A0025303862003A20BD
:100120000025303258000A722F63203031323334C8
:100130003536370A003F00433E20004C25640A0054
:1001400074696D65725F72656164333228293A2083
:100150002530346C580A006B6579626F6172645F98
:1001600069646C653A2025580A006B6579626F6195
:1001700072645F70726F746F636F6C3A2025580AF7
:1001800000686F73745F6B6579626F6172645F6C36
:1001900065647328293A2025580A000A092D20533E
:1001A0007461747573202D0A004743433A20382E3A
:1001B000342E30204156522D4C4942433A20322EA3
:1001C000302E30204156525F415243483A206176EA
:1001D00072350A004F5054494F4E533A204C554601
:1001E000412045585452414B455920434F4E534F9F
:1001F0004C4520434F4D4D414E4420343039360A52
:10020000004255494C443A2020284A756C2032302F
:100210002032303231290A005649443A203078469B
:1002200045454428656D6461726368657229205094
:1002300049443A20307830303030284E6176693188
:100240003029205645523A203078303030330A0079
:100250000A092D2056657273696F6E202D0A000AF7
:10026000092D20436F6E736F6C65202D0A45534333
:100270002F713A09717569740A000A092D204D61C0
:10028000676963202D0A443A094465627567204D09
:1002900065737361676520546F67676C650A583AC8
:1002A000094D6174726978204465627567204D6FED
:1002B000646520546F67676C65202D2053686F77E5
:1002C000206B65797072657373657320696E206D3C
:1002D000617472697820677269640A4B3A094B65E8
:1002E00079626F61726420446562756720546F673C
:1002F000676C65202D2053686F77206B657970726D
:10030000657373207265706F72740A4D3A094465A3
:10031000627567204D6F75736520546F67676C65F4
:100320000A563A0956657273696F6E0A533A095351
:1003300074617475730A433A094163746976617430
:100340006520436F6E736F6C65204D6F64650A4660
:10035000312D4631303A0953776974636820746FE0
:10036000204C6179657220302D39202846313020AB
:100370003D204C30290A302D393A0953776974638E
:100380006820746F204C6179657220302D390A47DE
:10039000524156453A0953776974636820746F2057
:1003A0004C6179657220302028616C7465726E61D1
:1003B0007465290A423A094A756D7020746F2042AB
:1003C0006F6F746C6F616465720A4553433A094AF2
:1003D000756D7020746F20426F6F746C6F6164650F
:1003E000722028616C7465726E617465290A453AE1
:1003F000095072696E7420454550524F4D20536527
:100400007474696E67730A4253504143453A094315
:100410006C65617220454550524F4D0A000A002517
:1004200075002E6E6B726F3A20000A002575002E43
:10043000737761705F6261636B736C6173685F6235
:1004400061636B73706163653A20000A0025750073
:100450002E737761705F67726176655F6573633A6B
:1004600020000A002575002E6E6F5F6775693A20BF
:10047000000A002575002E737761705F72616C74DD
:100480005F726775693A20000A002575002E737740
:1004900061705F6C616C745F6C6775693A20000A0B
:1004A000002575002E737761705F7263746C5F72E4
:1004B0006775693A20000A002575002E7377617010
:1004C0005F6C63746C5F6C6775693A20000A002585
:1004D00075002E636170736C6F636B5F746F5F6325
:1004E0006F6E74726F6C3A20000A002575002E73CF
:1004F0007761705F636F6E74726F6C5F636170734E
:100500006C6F636B3A20000A0025303258006B652F
:10051000796D61705F636F6E6669672E7261773A9D
:1005200020000A002575002E6D6F7573653A200056
:100530000A002575002E6B6579626F6172643A203E
:10054000000A002575002E6D61747269783A2000EA
:100550000A002575002E656E61626C653A20000AFE
:1005600000253032580064656275675F636F6E66A0
:1005700069672E7261773A20000A0025750064656C
:100580006661756C745F6C617965723A20003F003A
:100590000A6D6F7573653A206F66660A000A6D6FA3
:1005A0007573653A206F6E0A000A6B6579626F6138
:1005B00072643A206F66660A000A6B6579626F6141
:1005C00072643A206F6E0A000A6D61747269783A3B
:1005D000206F66660A000A6D61747269783A206F4E
:1005E0006E0A000A64656275673A206F66660A00E3
:1005F0000A64656275673A206F6E0A000A0A4A75D6
:100600006D70696E6720746F20626F6F746C6F61BC
:100610006465722E2E2E2000433E2000436C6561DF
:1006200072696E6720454550524F4D0A00656563FB
:100630006F6E6669673A0A000A002530325820005A
:100640006B6579626F6172645F7265706F72743A24
:1006500020000A0025303258006B6579626F6172A4
:10066000645F7365745F6C65643A20004F6E6573F8
:10067000686F743A206163746976653A2025640A6C
:10068000005B735D004B6579626F61726420737407
:100690006172742E0A005B575D005B535D005B5214
:1006A0005D005B445D005B435D000E034E00610036
:1006B00076006900310030000000140365006D0011
:1006C0006400610072006300680065007200000051
:1006D0000403090409025B00030100A0FA090400F5
:1006E000000103010100092111010001224000075E
:1006F00005810308000A0904010001030000000944
:1007000021110100012232000705820320000A099D
:10071000040200020300000009211101000122224D
:1007200000070583032000010705030320000112D1
:1007300001100100000008EDFE00000300010200AE
:10074000010631FF0974A1010975150026FF009506
:1007500020750881020976150026FF00952075088E
:100760009102C005010980A101850319012AB70082
:10077000150126B700950175108100C0050C09010F
:10078000A101850419012AA002150126A0029501E4
:1007900075108100C005010906A101050719E029AE
:1007A000E7150025019508750181029501750881FD
:1007B000010507190029FF150026FF009506750899
:1007C000810005081901290595057501910295011A
:1007D00075039101C00011241FBECFEFDAE0DEBF28
:1007E000CDBF04B603FE27C0809141029091420222
:1007F000A0914302B09144028730904BA740B04B88
:10080000D1F41092410210924202109243021092CF
:10081000440214BE84B7877F84BF0FB6F894A895AE
:1008200080916000886180936000109260000FBE2C
:10083000E0E0F8E3099511E0A0E0B1E0EEE3FAE4CE
:1008400002C005900D92A03AB107D9F722E0A0EAC4
:10085000B1E001C01D92A134B207E1F70E94511F1F
:100860000C94F5240C940000FF93EF93E091A00109
:10087000F091A101309709F00995EF91FF9108954A
:10088000FC018591803011F0EFDFFBCF0895FF2749
:10089000E0E230E247FF0CC0419597FF09C0EDE26E
:1008A0006095709580959095611D711D811D911DBC
:1008B00027FF02C0219530E350E2AA27660F771F79
:1008C000881F991FAA1FA41710F0A41B63955A959F
:1008D000A9F7AA3008F0A95FA05DAF93F395611561
:1008E00071058105910541F7ED3211F4EF93F39510
:1008F000F21718F43F93F395FBCF8F91B5DFFA957C
:10090000E1F70895E991F9918591803021F08532E0
:1009100019F0AADFF9CF089520E0E89455915532F7
:10092000C1F3503311F4689455915A3348F450533D
:1009300090F3220F022E220F220F200D250FF4CF4D
:100940000EF4219589919991533619F3533729F172
:10095000533559F1BC0188279927E8945C3621F476
:100960008991999168945591543639F446EF7EF007
:1009700077FF0DC08FEF9FEF0AC055374AE039F07F
:10098000583540E121F0523642E009F00895FF93D6
:10099000EF937DDFEF91FF91B7CFFF93EF93FC01D2
:1009A00081918030B9F360DFFBCFFF93EF9368DF75
:1009B000F1CFDF93CF93CDB7DEB72596A3DFCF91ED
:1009C000DF910895259A2D9A0C944D088091170176
:1009D00090911801029719F481E00E941C1910925D
:1009E0001801109217010895FC012081213031F483
:1009F0008285882331F082E090E0089588E090E0DD
:100A0000089581E090E008950E94F4049093180105
:100A1000809317018130910519F0029781F00895B4
:100A200082E00E94DB18882329F082E00E941C19D2
:100A30002D9A089582E00E94FB182D98089581E078
:100A40000C94FB1881E0089581E008950C9424052E
:100A500008950C9428051F93CF93DF9300D000D006
:100A60000F92CDB7DEB749835A836B833091BF01B4
:100A700089819A8131111DC06623B9F02223A9F022
:100A80000E94EC19182F682F89819A810E9497196A
:100A900069817A81812F0F900F900F900F900F90A6
:100AA000DF91CF911F910C9426060E94C419182F34
:100AB000EFCF0E94EC1969817A81EDCFFC01262FDE
:100AC000408151816281738184810C942B05CF9385
:100AD000DF93EC0160E00E945E05BE01DF91CF91E3
:100AE0000C9429050E9429080C94E2040E94670FC7
:100AF0000C944F0808950E94E1140E947A052FEF8C
:100B000084E39CE0215080409040E1F700C0000069
:100B10000C94411D0F931F93CF93DF938C0161E0E1
:100B20000E945E05EC01B8010E94C50EB801CE011D
:100B30000E9426058823F1F1B801CE010E940D0F15
:100B40008823C1F1B801CE010E94C60C882391F11F
:100B5000B801CE010E94180D882361F1B801CE01C1
:100B60000E943B0E882331F1F8018281882361F0D5
:100B7000CF3DFCE5DF07B1F170F4C115ECE5DE0710
:100B8000B9F0C130DC45E1F0C801DF91CF911F9190
:100B90000F910C942205CC358DE5D80749F1CD3560
:100BA000DC0719F1CB35DD4579F70E94AF1AECCFA0
:100BB0000E947B0580E0DF91CF911F910F910895F6
:100BC00090911702892F8E7F90FF8160809317028A
:100BD00080FF05C086E091E00E944004EBCF84EFE7
:100BE00090E0FACF0E941A1CE5CF0E94A61ACCCF43
:100BF0000E94B21AC9CF829590E09C01220F331F48
:100C0000220F331F2C7C9595879595958795837337
:100C1000282B30E0C901880F991F8A7A35952795CE
:100C20002575822B089508950C94130681E008958C
:100C30000C941606CF93C82F0E9414068C2FCF91C8
:100C40000C94180690E080E008950895972F70E0C6
:100C500023E0929F600D711D1124FB019CE0899F90
:100C6000E00DF11D1124EE0FFF1FE455FF4F85919C
:100C700094910895FC01EE0FFF1FE95EFE4F8591F0
:100C800094910895CF93DF930E9426060E944E0709
:100C9000EC01811520E5920708F041C0811530E490
:100CA000930708F0B4C0803E910518F5803C91058B
:100CB00008F09DC0883A910570F4853A910508F0D6
:100CC0008EC081309105F9F00097E9F00497D8F4CF
:100CD000D0E0C0E018C08F3B9105D0F7C85AD0E0F3
:100CE000CC0FDD1FC95DDE4F0990D881C02DD464C3
:100CF0000AC08115904258F4C11581E0D80718F454
:100D0000C83ED10528F7CE01DF91CF910895C115D6
:100D100090E3D90708F071C0CE019F706AC08115B9
:100D200025E5920758F5811534E5930708F09EC034
:100D3000811542E5940750F4C11581E5D80708F400
:100D400069C0DC2FCC27C16FD06ADDCF982F969574
:100D500096959E0123703327C115D34508F077C0BF
:100D6000C1E0D0E002C0CC0FDD1F2A95E2F720E2FF
:100D7000929FC0011124C82BD92B67C0C11589E5EA
:100D8000D807A8F4C11598E5D90708F074C0C115B3
:100D900026E5D20708F09CCF8C2F0E94E507C82FCC
:100DA000D0E0DC2FCC27CC27DF71D062ACCFC115CF
:100DB0003AE5D30708F464C0CE01905681159042FD
:100DC00008F086CF8D2F8F710E94E50790E0982F55
:100DD000882788279F719C012C2BE901E6CFC55AF3
:100DE000D0E0CB5ADE4FC881D0E0D0648CCF805C9D
:100DF00091090E943A06EC0186CFCE019927D3FFD4
:100E000003C0EC01D86C7FCFEC01D06C7CCFDF70DD
:100E1000D06A79CFCE01E4E096958795EA95E1F71F
:100E200083702C2F26952695237090E2299F9001A0
:100E30001124382B8C2F8370C1E0D0E002C0CC0F7E
:100E4000DD1F8A95E2F7C22BD32BDC685CCFC1E0B3
:100E5000D0E002C0CC0FDD1F2A95E2F730E2939F6D
:100E6000C0011124C82BD92BDA684DCFD82FCC273D
:100E7000C46FD06A48CFDC2FCC27C06FD06A43CF75
:100E80008C2F8F700E94E50734E0D695C7953A9570
:100E9000E1F7CF709C2FEC01D06935CF82389105F6
:100EA000B1F1B0F48133910509F475C048F4893289
:100EB000910509F469C08A32910509F473C0089557
:100EC0008533910509F459C08933910501F10895DD
:100ED000833E9105A9F138F4803E9105F9F0823EF8
:100EE000910549F10895863E9105A9F1873E910546
:100EF000C9F1843E910519F52091270221FF1FC0F9
:100F00008091260284FD14C087EE90E00895209120
:100F100026022370A1F080EE90E008952091260231
:100F200020FD47C03091270230FF09C024FF44C094
:100F300090E080E004C02091260222FDF7CF0895C2
:100F40002091260222FD3BC03091270230FDE3CFE5
:100F500024FFF5CFEDCF2091260223FFF0CF24FD13
:100F6000E7CFD2CF2091260223FD2CC0309127025B
:100F700031FFEECF84EE90E008952091260225FF08
:100F8000DECF89E290E008952091260225FFD7CF99
:100F900085E390E008952091260226FFD0CF8AE2D3
:100FA00090E008952091260226FFC9CF81E390E0CA
:100FB000089589E390E0089583EE90E0089582EE2D
:100FC00090E0089586EE90E008959091260292FFB9
:100FD00006C0282F28712830F9F4877F846093FF9A
:100FE00006C0282F28712831F1F4877E8461209172
:100FF000270220FF06C0382F38713830D9F4877F98
:10100000816021FF06C0282F28712831D1F4877E06
:10101000816194FD877E0895282F24712430F9F68C
:101020008B7F8860DCCF282F2471243101F78B7EE1
:101030008861DDCF382F3171313019F78E7F8860AC
:10104000E0CF282F2171213121F78E7E8861E1CFF9
:1010500008950E94751B811102C00E941A1C0E94F3
:10106000801B809317020E94881B90932702809315
:1010700026020E9428080E94841B682F70E090E0DE
:1010800080E00E94791860910202709103028091C1
:101090000402909105020C94B318089508950C94DD
:1010A0004E08E82FF0E0E45DFD4F80810895CF9277
:1010B000DF92EF92FF920F931F93CF93DF9386E21D
:1010C00091E00E9440048CE2E82E82E0F82ED0E00D
:1010D000C0E091E2C92E91E0D92E09E111E0DF9341
:1010E000CF93DF92CF920E94D9048EE191E00E94CB
:1010F0004004F70181917F010E94FB051F928F93AD
:101100001F930F930E94D90487E191E00E9440044D
:1011100021968DB79EB708960FB6F8949EBF0FBE66
:101120008DBFC430D105D9F6DF91CF911F910F91BA
:10113000FF90EF90DF90CF90089580EA8A95F1F7C5
:10114000089500C008950C949D08F894E82FE29546
:10115000EF70F0E031A1282F2F7081E090E001C006
:10116000880F2A95EAF7982F9095932391A392A13F
:10117000892B82A37894089586E30E94A50882E3D0
:101180000E94A50883E30E94A50884E30E94A508A5
:1011900084E90E94A50886EC0E94A50881E30E94CC
:1011A000A508A8E2B2E01C92ECE2F2E010821196EF
:1011B0001C921197118212961C921297128213960A
:1011C0001C92138284E00E945E090C947205CF92F7
:1011D000DF92EF92FF920F931F93CF93DF93CBE5B4
:1011E000D1E008E212E0D12CEE24E394F12C8991B5
:1011F000F894E82FE295EF70F0E021A18F70A7013D
:1012000002C0440F551F8A95E2F7CA01922F982B0E
:1012100091A392A18095892382A378940E94A1082A
:10122000E8E5F1E030E020E0C12C4191A42FA29547
:10123000AF70B0E090968C9190E04F7002C09595A1
:1012400087954A95E2F780FD35C08E2D022E01C0AC
:10125000880F0A94EAF7C82A2F5F3F4F23303105E1
:1012600021F7FE01319780810E94A5080E94A30802
:10127000F8018081C81601F1C08281E0D82A0F5F91
:101280001F4FF1E0CF35DF0709F0B1CF2D2D44E03E
:101290006CE272E088E292E00E945F090E947605AB
:1012A0008D2DDF91CF911F910F91FF90EF90DF90E7
:1012B000CF90089580E0CFCF80E0E0CF0895FF92F7
:1012C0000F931F93CF93DF93F82E092F162FD72F4D
:1012D000C42F222349F081E08093A4010E94F61CD0
:1012E0009093A3018093A2018091A4018823A1F08F
:1012F0008091A2019091A3010E940E1D069760F0BB
:10130000EF2DF02FA12FBD2FCE0FDF2FD11DEC170A
:10131000FD0741F41092A401DF91CF911F910F912D
:10132000FF90089581918D93F2CFCF93C82F1F9294
:101330008F938BE391E09F938F930E94D90461E098
:1013400070E080E090E004C0660F771F881F991F4F
:10135000CA95D2F70E9479180F900F900F900F90B6
:10136000CF910C94E114CF93DF938B3109F4FAC140
:1013700008F09CC18B3009F4B8C108F06AC186300E
:1013800009F4C6C148F4853009F49EC18EE895E0A1
:101390000E94400480E0CCC1873009F4CCC1883081
:1013A000A9F78DE296E00E9440048EE795E00E9446
:1013B00040040E94841B1F928F938BE795E09F93BC
:1013C0008F930E94D90489E795E00E9440040E940F
:1013D000801BC82F86E695E00E9440041F92CF93A1
:1013E00081E695E09F938F930E94D9048FE595E065
:1013F0000E94400485E595E00E9440048C2F817096
:101400001F928F9382E595E09F938F930E94D9045A
:1014100080E595E00E94400486E495E00E94400447
:10142000C1FB882780F91F928F9383E495E09F93F7
:101430008F930E94D90481E495E00E94400485E3E3
:1014400095E00E944004C2FB882780F91F928F9389
:1014500082E395E09F938F930E94D90480E395E007
:101460000E94400487E295E00E944004C3FBCC2721
:10147000C0F91F92CF9384E295E09F938F930E94CF
:10148000D90482E295E00E9440040E94881BEC018E
:101490008EE095E00E944004DF93CF9389E095E0D1
:1014A0009F938F930E94D90487E095E00E944004A7
:1014B0008EEE94E00E9440048C2F81701F928F93D7
:1014C0008BEE94E09F938F930E94D9048DB79EB7C3
:1014D00080960FB6F8949EBF0FBE8DBF89EE94E044
:1014E0000E94400482ED94E00E944004C1FB8827E2
:1014F00080F91F928F938FEC94E09F938F930E94BB
:10150000D9048DEC94E00E9440048BEB94E00E949F
:1015100040048D2F81701F928F9388EB94E09F93EE
:101520008F930E94D90486EB94E00E94400484EAE1
:1015300094E00E944004D695D1701F92DF9381EA17
:1015400094E09F938F930E94D9048FE994E00E94C6
:1015500040048DE894E00E944004C2FB882780F993
:101560001F928F938AE894E09F938F930E94D904EF
:1015700088E894E00E94400486E794E00E944004DA
:10158000C3FB882780F91F928F9383E794E09F9392
:101590008F930E94D90481E794E00E94400487E67B
:1015A00094E00E944004C4FB882780F91F928F9327
:1015B00084E694E09F938F930E94D90482E694E09E
:1015C0000E94400480E594E00E944004C5FB882707
:1015D00080F91F928F938DE494E09F938F930E94E4
:1015E000D9048BE494E00E9440048FE294E00E94CE
:1015F0004004C6FB882780F91F928F938CE294E009
:101600009F938F930E94D9048DB79EB780960FB693
:10161000F8949EBF0FBE8DBF8AE294E00E94400402
:1016200082E294E00E944004C7FBCC27C0F91F92DD
:10163000CF938FE194E09F938F930E94D9048DE123
:1016400094E00E9440040F900F900F900F9081E063
:101650006FC0803109F49EC080F48E3009F096CEC0
:1016600090911702892F8B7F92FF846080931702DD
:1016700082FF8DC089EB95E081C0863109F49AC064
:10168000893109F083CE80E592E00E94400488E130
:1016900092E00E94400481E092E00E94400484EDC8
:1016A00091E00E94400489EA91E021C08A3249F128
:1016B00090F4873211F128F48E3108F467CE8D5101
:1016C0001DC0893209F062CE8CEF95E00E94400483
:1016D0000E947B05BCCF833468F48A3308F0A1C034
:1016E000853359F0883309F051CE8AE792E00E94A1
:1016F0004004ADCF833409F049CE80E00E949509C3
:10170000A6CF8CE196E00E9440040E941A1C9FCF55
:1017100080911702807F809317028FE592E00E94EC
:10172000400488E196E00E94400481E08093A50196
:10173000DF91CF91089590911702892F8E7F90FFAE
:1017400081608093170280FF03C080EF95E0CFCFC8
:1017500083EE95E00E94400480911702817F809380
:10176000170275CF90911702892F8D7F91FF8260AC
:101770008093170281FF08C086ED95E00E94400427
:10178000809117028160EBCF88EC95E0B0CF89EAB9
:1017900095E0ADCF90911702892F877F93FF8860E6
:1017A0008093170283FF03C08DE995E0E7CF80E9BE
:1017B00095E09DCF8BE991E00E9440040E94BB0F11
:1017C0001F928F9381E891E09F938F930E94D90499
:1017D000809126011F928F938AE691E09F938F93C9
:1017E0000E94D904809125021F928F9387E591E092
:1017F0009F938F930E94D9040E94021D9F938F9301
:101800007F936F9380E491E09F938F930E94D9041C
:101810008DB79EB742960FB6F8949EBF0FBE8DBF90
:1018200016CF89536BCF80E008950C94130CCF939F
:10183000C82F8091A501882331F0813099F0109252
:10184000A50180E00DC00E94B51A8232D1F78C2F1D
:101850000E94130C811119C08C2F0E94B309817052
:10186000CF9108950E94B51A823289F38C2F0E947D
:10187000150C811119C0C431C9F050F4CB3061F09E
:1018800085E391E00E94400413C081E090E0E7CF3F
:10189000C93261F0C833A1F78FE592E00E9440049D
:1018A00087E391E00E94400481E0D9CF1092A50126
:1018B00080E0D5CF0F931F93CF93DF93C42FD22F08
:1018C000FC0182818823C9F04093A8010E94F61C84
:1018D0009093A7018093A60180E28C0F883008F0D6
:1018E00050C0C77081E001C0880FCA95EAF7DF9148
:1018F000CF911F910F910C9477121091A80114139E
:1019000035C08091A6019091A7010E940E1D883CD0
:10191000910560F5C0E2CD0F1D17B9F080E2810F8F
:10192000883040F4177081E001C0880F1A95EAF7FB
:101930000E947E12C83048F481E09D2F977001C04C
:10194000880F9A95EAF70E947712802F0E946F12F3
:10195000C830B8F4D77081E001C0880FDA95EAF793
:10196000DF91CF911F910F910C947E1280E28C0F2A
:10197000883038F4C77081E001C0880FCA95EAF753
:10198000EFCFDF91CF911F910F9108950F939C019D
:10199000CB01243F4CE5340759F1A8F4293DFCE57F
:1019A0003F0701F12A3D4CE53407D1F1283D3C4584
:1019B00091F406E221EE41EE68ED7CE50E945A0CBE
:1019C00080E00F910895263FFCE53F07E9F0B0F075
:1019D000273F3C45F9F0FC018281882339F11092C0
:1019E000A801EFCF07E225EE45EE69ED7CE5E6CFF5
:1019F00006E221EE40EE64EF7CE5E0CF07E225EE63
:101A000044EE65EF7CE5DACF06E221EE42EE66EFCA
:101A10007CE5D4CF07E225EE46EE67EF7CE5CECF3E
:101A200008E221E045EE6AED7CE5C8CF81E0C9CF50
:101A3000CF93DF93EC01FB018281882309F419C164
:101A4000C230FCE5DF07C0F1C6319CE5D90730F0B4
:101A50009E012B5F3C452930310570F50E94881BA3
:101A60009093270280932602C031ECE5DE0709F44B
:101A7000CFC008F05BC0C8308CE5D80709F4B6C009
:101A800088F5C430ECE5DE0709F4A8C0C0F4C23024
:101A90008CE5D80709F49CC0809126028260C3308F
:101AA000DC4509F498C080912602909127020E949B
:101AB000961B0E94E11480E0DF91CF910895809100
:101AC00026028061C630ECE5DE0709F484C080910F
:101AD00026028860C730DC4508F47DC0809126026C
:101AE000806279C0CC308CE5D80709F489C070F4E5
:101AF000809126028C60CA30ECE5DE0709F46BC0E9
:101B000008F478C0809126028E7F65C0CE308CE5C7
:101B1000D80709F479C0809126028B7FCF30DC454D
:101B200008F459C0809126028F7E55C0CC3FECE569
:101B3000DE0709F457C030F5C3318CE5D80709F446
:101B40006FC078F4C131ECE5DE0709F465C0C2313D
:101B5000DC4509F0A8CF0E94E114809126028F771E
:101B60003AC0C5318CE5D80709F462C008F476C0E4
:101B7000809127028160CB3FDC4509F094CF8093B0
:101B8000270291CFC115FDE5DF0709F44DC088F4A8
:101B9000809127028D7FCE3F9CE5D90781F380910C
:101BA00027028E7FCF3FDC4550F380912702836070
:101BB000E6CFC230FDE5DF0709F459C008F444C0A0
:101BC00080E0C330DD4509F06ECF0E941C1C6BCF56
:101BD0008091260281608093260265CF8091260243
:101BE0008460F9CF809127028260C9CF809126025C
:101BF0008064F1CF0E94E114809126028068EBCFCF
:101C0000809126028D7FE7CF80912602877FE3CFE8
:101C1000809126028F7DDFCF809126028F7BDBCFE4
:101C200080912602837FD7CF809127028C7FA7CF18
:101C30008091260282FB992790F921E0922790FB60
:101C400082F990FB83F9C7CF80912702982F909556
:101C500091708E7F892B90FB81F991CF0E94E114C6
:101C600090912602892F97FB87F98058B4CF81E0A5
:101C7000ACCF81E021CFCF93DF93EB0186319C4540
:101C800011F50E94B51A9A81992399F08A7A91E008
:101C900009F490E09093A901811109C089E20E94A2
:101CA0005C1A0E94081B80E0DF91CF91089585E3C4
:101CB000F6CF8091A901811104C089E20E94631AC4
:101CC000F0CF85E3FBCF81E0EFCFCF93DF93EC0143
:101CD00081E0898B8F810E94B81A88850E94CB1A77
:101CE0000E94081BEA81FB81309739F06C897D895D
:101CF000CE010696DF91CF910994DF91CF9108959F
:101D0000EF92FF920F931F93CF93DF93EC018A859D
:101D1000811134C0EB80FC8087E5F81A26E12E9D06
:101D2000C0012F9D900D1124DC01A050BF4F1496CF
:101D3000ED91FC911597309731F054966D917C910F
:101D40008A5F9E4F099586E18E9D80018F9D100DC3
:101D5000112400501F4FF80187810E94BE1AF8011C
:101D600080850E94D11A0E94081B188219861B8642
:101D70001E821D821092AB011092AA01DF91CF91B9
:101D80001F910F91FF90EF900895DF92EF92FF92D5
:101D90000F931F93CF93DF937C01FB0182818823F4
:101DA00091F0809119018F3F71F0C0E0D1E010E017
:101DB00000E0DD24D39480911901082E000C990BCA
:101DC0008017910744F4DF91CF911F910F91FF90FD
:101DD000EF90DF9008958E818823D9F089859A85C8
:101DE0008E159F0539F48091AA019091AB018E1553
:101DF0009F0579F0DF86FC86EB868989811103C017
:101E0000CE010E94650ECE0106960E94800E0E94B1
:101E1000D81A0F5F1F4F6696CECFEF92FF920F93A7
:101E20001F93CF93DF937C0197558F3F910509F066
:101E3000D8F520911901022E000C330B2817390711
:101E400014F480931901FB01228136E1389F80014F
:101E5000399F100D1124E801C050DF4F288B92816B
:101E60008E81992349F1FA86E9868F5F8E830E94DD
:101E7000F61C9E878D870E94EB1A8F830E94B51AED
:101E800088870E94C81A9885892B8887E881F981FC
:101E9000309731F06C897D89C8018A5F9E4F099522
:101EA000F092AB01E092AA0181E0DF91CF911F9106
:101EB0000F91FF90EF9008958823B1F389898823CB
:101EC00099F3C8018A5F9E4F0E94800EEDCFEF927A
:101ED000FF920F931F93CF93DF938091190110E02E
:101EE00006E18F3FC1F5DF91CF911F910F91FF90D8
:101EF000EF900895029FF001039FF00D1124E05030
:101F0000FF4FE288F388E114F10419F488ECE82E1D
:101F1000F12C029FE001039FD00D1124C050DF4F30
:101F20008E818823B9F08D859E850E940E1DE8164E
:101F3000F90680F4109F700111248989811105C070
:101F4000C70180509F4F0E94650EC7018A5F9E4F58
:101F50000E94800E1F5F212F30E080911901082E12
:101F6000000C990B821793072CF6BDCF9093B1010B
:101F70008093B0010895E091B001F091B1013097E4
:101F800021F00190F081E02D099480E00895EF9216
:101F9000FF920F931F93CF93DF938C01E091B001D9
:101FA000F091B1013097C1F10280F381E02D0995E4
:101FB0008091170282FF30C080FF04C080E496E069
:101FC0000E944004D0E0C0E08AE3E82E86E0F82ECC
:101FD0008091170280FF0EC0F801EC0FFD1F808179
:101FE0001F928F93FF92EF920E94D9040F900F904F
:101FF0000F900F902196C830D10551F780911702AC
:1020000080FF0AC088E396E0DF91CF911F910F9186
:10201000FF90EF900C944004DF91CF911F910F91AE
:10202000FF90EF9008952091AE013091AF012817F5
:10203000390771F09093AF018093AE01E091B00148
:10204000F091B101309721F00680F781E02D0994DD
:1020500008952091AC013091AD012817390771F036
:102060009093AD018093AC01E091B001F091B1018A
:10207000309721F00084F185E02D099408950E94A5
:10208000021D6093BB017093BC018093BD019093CE
:10209000BE016093B7017093B8018093B90190932A
:1020A000BA01089585B7806885BF85B7806885BF08
:1020B0000895089508950C94591008950C945D1096
:1020C0000E9452108FEE9EE10E94521D0E945A10F3
:1020D0000C945B1081E008950C946A1008950895A3
:1020E0000E946E100C946F100E94ED1C0E94BC08A0
:1020F0000C945E10CF93C82F8091170282FF1EC0F0
:1021000080FF1CC089E596E00E9440048091170280
:1021100080FF14C01F92CF9384E596E09F938F9326
:102120000E94D904809117020F900F900F900F908A
:1021300080FF04C082E596E00E9440048C2FCF917E
:102140000C941A06BF92CF92DF92EF92FF920F93F8
:102150001F93CF93DF93CDB7DEB72A970FB6F894CE
:10216000DEBF0FBECDBF0E94E70881110E943F1065
:1021700033EBC32E31E0D32E10E000E0B02E802FE1
:102180000E945108E82EF601F1906F01F81609F44B
:1021900053C08091170281FD0E9457088F2D8E2514
:1021A000F82FF170FF2E80FD40C081FD40C082FFFE
:1021B00043C092E0D92E24E0F22E0E946C108823B6
:1021C00099F0DE82BF82EF2081E009F480E0888709
:1021D0000E94F61C8160782F9A8789874E815F81E3
:1021E00068858A850E944311F801ED54FE4F808175
:1021F000F826F0820E94BB0F9091B201891799F1E5
:102200000E94BB0F8093B2012A960FB6F894DEBFEE
:102210000FBECDBFDF91CF911F910F91FF90EF9037
:10222000DF90CF90BF900C947A10D12CC6CFDD24D4
:10223000D39482E0F82EC1CF0F5F1F4F04301105F9
:1022400009F09CCF8FEF89838A831B820E94F61C42
:102250008160782F9D838C8349815A816B818D8128
:102260000E944311C7CF2A960FB6F894DEBF0FBE67
:10227000CDBFDF91CF911F910F91FF90EF90DF9035
:10228000CF90BF900895DF92EF92FF920F931F932C
:10229000CF93DF93CDB7DEB72B970FB6F894DEBFA1
:1022A0000FBECDBF7A878B87F42E052F162FE72E12
:1022B000D82E61110E94D81A1E821D827E2DEC82BA
:1022C000DD824F2D502F612F8D2D9E812B960FB6C5
:1022D000F894DEBF0FBECDBFDF91CF911F910F915C
:1022E000FF90EF90DF900C945717FC018081918153
:1022F0000C942E1ACF93C82F882309F488C08238F3
:10230000C1F40E94BB0F81FD82C089E30E945C1A68
:102310000E94081B2FEF81EE94E0215080409040F6
:10232000E1F700C0000089E30E94631ACF910C948A
:10233000081B8338A1F40E94BB0F80FD68C083E5B1
:102340000E945C1A0E94081B2FEF81EE94E021503E
:1023500080409040E1F700C0000083E5E5CF84387D
:10236000A1F40E94BB0F82FD52C087E40E945C1A58
:102370000E94081B2FEF81EE94E021508040904096
:10238000E1F700C0000087E4CFCF8CEF8C0F813ADB
:10239000B8F48C2F0E94170C811139C06C2F8091DA
:1023A0001A0190911B010E94331C882329F08C2F65
:1023B0000E94631A0E94081B8C2F0E945C1AB6CFE1
:1023C00080E28C0F883048F4C77081E001C0880F2C
:1023D000CA95EAF70E94B81AA9CFEBE5EC0FE330F3
:1023E00040F4F0E0E357FE4F808190E0CF910C94F1
:1023F0001310C85AC73158F4EC2FF0E0EE0FFF1F4E
:10240000E15AFE4F80819181CF910C942910CF9198
:102410000895882309F44BC0823871F40E94BB0FE1
:1024200081FF45C089E30E945C1A0E94081B89E372
:102430000E94631A0C94081B833859F40E94BB0F46
:1024400080FF35C083E50E945C1A0E94081B83E56B
:10245000EFCF843859F40E94BB0F82FF28C087E475
:102460000E945C1A0E94081B87E4E2CF9CEF980F41
:10247000913AF0F290E2980F983050F4877091E022
:1024800001C0990F8A95EAF7892F0E94BE1AD2CF10
:102490009BE5980F933020F490E080E00C941310AB
:1024A000885A873120F490E080E00C942910089538
:1024B0001F93CF93DF93182FEB010E947A1120977F
:1024C00031F4812FDF91CF911F910C9409128FE984
:1024D0009FE00197F1F700C000002197F0CF70E076
:1024E00060E0893311F460E570E00C9458128823A1
:1024F00021F00E94B81A0C94081B0895882321F03B
:102500000E94BE1A0C94081B0895BF92CF92DF92CE
:10251000EF92FF920F931F93CF93DF936C01D62F0F
:10252000C72FFC011281058102950F700E947A1A53
:10253000E82E8823A1F0E12E112389F08C2F807FD3
:10254000803429F080E28D0FE12C883040F082E069
:102550000E94591B0E947A1A91E0E82EE926BC2EAF
:10256000B2949FE0B922EB2DF0E0E950FB4D0C94C2
:10257000AD240C2F0F70C07F11F00295007F112346
:10258000A9F0002359F080E28D0F883010F0D111AE
:1025900009C0802F0E94B81A0E94081B8D2F0E942C
:1025A0007A1114C0802F0E94CB1AF6CF8D2F0E9473
:1025B0000912002359F080E28D0F883010F0D111FC
:1025C0002CC0802F0E94BE1A0E94081B2B2D285061
:1025D000330B2430310520F40E94BB0F0E941A06F1
:1025E000EE2009F493C10E94761A80FD8FC1F60196
:1025F00012820E94701A0E94FB18C6010E94A71442
:102600000E94701ADF91CF911F910F91FF90EF9070
:10261000DF90CF90BF900C941C19802F0E94D11A8C
:10262000D3CFFC2FFF70FF2EC07FC03219F0F29481
:1026300080EFF822DD2369F0D13049F1112391F1C7
:10264000002351F1F601858180FFA8CF8F7085832B
:1026500023C0112381F0011106C00E94EB1A8F29BB
:102660000E947712B3CF0130C1F70E94EB1A8F2975
:102670000E94F11AABCF011106C00E94FE1A8F2DE5
:102680000E947E12A3CF013009F4A0CFF6CF112310
:1026900029F0063008F09ACF8F2DE2CF053008F0F0
:1026A00095CFEDCF002359F3D93349F4FFEF27EE4F
:1026B00033E0F15020403040E1F700C000008D2FA2
:1026C0000E94091283CF8C2F86958695837069F0BE
:1026D000813009F07BCF8D2F9C2F9370111102C098
:1026E00090E080E00E94291071CF8D2F9C2F937075
:1026F000111102C090E080E00E94131067CF8C2F70
:10270000837009F041C0111161CF4D2F429546955C
:102710004770440F440F0D2F0F7010E030E020E0A1
:10272000042E04C0000F111F221F331F0A94D2F77A
:1027300060E070E0CB01D4FF0FC06FE070E080E09C
:1027400090E004C0660F771F881F991F4A95D2F743
:102750006095709580959095C695C695C370602BD1
:10276000712B822B932BC23049F058F4C13019F0F1
:102770000E948D182BCF0E947B1828CF0E949F1893
:1027800025CF0E94791822CF8695112311F08C2F26
:102790008170882309F41ACF4D2F429546954770D2
:1027A000440F440F0D2F0F7010E030E020E0042E96
:1027B00004C0000F111F221F331F0A94D2F760E0DC
:1027C00070E0CB01D4FF0FC06FE070E080E090E0DC
:1027D00004C0660F771F881F991F4A95D2F760952E
:1027E000709580959095C695C695C370602B712B9A
:1027F000822B932BC23049F058F4C13019F00E945B
:102800007219E4CE0E946019E1CE0E948419DECED6
:102810000E94B518DBCECF70112329F08C2F0E94B7
:10282000FB188D2F1DCF8D2F0E947E128C2F0E94A2
:102830001C19CCCED23F89F160F4D03FC9F0D13F12
:1028400029F1112309F442C00111A8CE8C2F8F71F8
:1028500021C0D33F39F1D43FA1F7112369F1CF71E2
:102860008C2F0E94FB1863E08C2F0E943E1BAECE83
:10287000112341F0053008F0A9CE8C2F8F710E94F2
:102880003F19A4CE063008F0A1CEF7CF8C2F8F7160
:10289000112369F20E94FB1899CE8C2F8F7111239E
:1028A000C9F3C5CF112329F08C2F8F710E94E61830
:1028B0008DCE0E94C1188ACE81E00E94591B023041
:1028C00008F484CE82E00E94591B80CE002359F088
:1028D000D93309F0F4CE8FEF97EEE3E081509040CA
:1028E000E040E1F7EACE8C2F8F71A1CF4C2F4F70D3
:1028F0006D2FC6010E9422060E94F11767CE4C2F51
:102900004F706D2FC6010E94250660CEDF91CF91DA
:102910001F910F91FF90EF90DF90CF90BF9008959F
:102920000F931F93CF93DF93EC01688179818A81A4
:102930000E94381A8C010E9496190E947818B801DA
:10294000CE01DF91CF911F910F910C948512CF93FF
:10295000DF93EC018B819C81892B29F088819981FF
:1029600089238F3F59F4DF91CF910895CE010E94C2
:102970009014CE01DF91CF910C946705CE010E9497
:102980008A058111F3CF0E947A1A882361F38A8124
:10299000882349F382E0DF91CF910C94591B90E09A
:1029A00080E00E94131090E080E00E9429100E94B5
:1029B000D81A0E94E81A0C94081B0E946A1A0C94F8
:1029C000CF140E94C51A0C94DD14E92FE295EF7024
:1029D000E250EE3070F4F0E0E95FFA4D0C94AD2473
:1029E000803F19F020F4883E20F481E00895843F70
:1029F000E1F380E00895883EC0F3813FD1F7F5CF41
:102A000093FB882780F908950E942E1A0C94E514F0
:102A1000CF93DF9300D000D00F92CDB7DEB70F90E9
:102A20000F900F900F900F90DF91CF910895CF935B
:102A3000DF9300D000D000D0CDB7DEB726960FB61A
:102A4000F894DEBF0FBECDBFDF91CF9108951F93E5
:102A5000CF93DF93C091C00116E08091C1018C1328
:102A600004C0DF91CF911F910895D0E01C9FF00129
:102A70001D9FF00D1124EE53FE4F40815181628164
:102A80007381848195810E9417152196C770E5CFC7
:102A90004091F2015091F3016091F4017091F501C0
:102AA0008091F6019091F7010C9417151F93CF9325
:102AB000DF938091F701807FA9F48091F40188234E
:102AC00089F08091C001C091C1016091F2017091C3
:102AD000F301A091F501B091F601D62FD72316E0AE
:102AE000C81304C0DF91CF911F91089590E0109713
:102AF00011F0DF3F19F401968770F2CF189F900113
:102B0000199F300D1124F901EE53FE4F41814713F7
:102B1000F2CF40814613EFCF42814111ECCF438188
:102B200054814A1B5B0B483C510528F78091F70103
:102B30008F7080618093F701F901E953FE4F808126
:102B40008F708061808382EF91E00E94A714DF91F3
:102B5000CF911F910C942715AF92BF92CF92DF9225
:102B6000EF92FF920F931F93CF93DF93CDB7DEB712
:102B700061970FB6F894DEBF0FBECDBF8C0185E024
:102B8000F801DE011D9601900D928A95E1F7F8019A
:102B900040815181E28082EFC82E81E0D82E609181
:102BA000F5017091F6016115710509F461C190910B
:102BB000F2012091F301892F82238F3F09F458C13C
:102BC000A380B480F090F401F501E61BF70BFF2021
:102BD00009F4FCC08091F701382F307FE83CF10503
:102BE00008F0B2C0311179C0FE2C251323C0941314
:102BF00021C0E1101FC08F7080618093F7010E9497
:102C00004815C6010E94A7148091F701F801858339
:102C10008F2D61960FB6F894DEBF0FBECDBFDF914A
:102C2000CF911F910F91FF90EF90DF90CF90BF90C9
:102C3000AF900895AB2829F0842F85238F3F09F0AA
:102C400033C180E0F82FF170DF2E80FF3CC080910F
:102C5000C0012091C10136E0821315C04D875E8707
:102C60008D859E850E942E1A292F22952F70223045
:102C7000F0F0243018F59F70F1F0F8019581907F05
:102C8000D1F4D12C1EC090E0389FF001399FF00D97
:102C90001124EE53FE4F6181651306C060816413F9
:102CA00003C062816E110FC001968770D5CF9F70EF
:102CB00011F0882331F3805E883018F3C8010E9438
:102CC000A714FD2CA5CFEE2009F4A2CF8091F70127
:102CD00081608093F701F12C9BCF251306C09413DC
:102CE00004C0F801EE2009F48DC04D875E878D8504
:102CF0009E850E940415882319F1EE2009F1809128
:102D0000F701803270F02091F2013091F3013887A1
:102D10002F831986BB86AA868C87CE0107960E94D0
:102D2000A71486E0F801A2EFB1E001900D928A9518
:102D3000E1F70E9456150E944815FF24F39468CFCE
:102D4000C8010E94A714F9CF311113C07A2DB98A96
:102D5000A88A6E2D89890E94081582EF91E00E9451
:102D6000A71486E0F60111928A95E9F70E944815AA
:102D7000B2CF25130FC094130DC0E1100BC0F801A2
:102D80008583C8010E94A71486E0F60111928A95F6
:102D9000E9F73ECF4D875E878D859E850E9404159D
:102DA000882371F2EE2061F28091F701803208F4FD
:102DB000B8CF2091F2013091F3013A8329831B822D
:102DC000BD82AC828E83CE010196A9CFE83CF1058D
:102DD00008F041C0FE2CEE2009F4B2CF25132AC022
:102DE000941328C08091F70180FD1BC0982F907F1D
:102DF000C1F0F8018583903F31F0982F907F905F6C
:102E00008F70892B8583C8010E94A71486E0F80182
:102E1000A2EFB1E001900D928A95E1F70E9448156A
:102E2000F7CE86E0F801A2EFB1E001900D928A950D
:102E3000E1F7EECE4D875E878D859E850E94041555
:102E400081116FCF8091F70181608093F701C801F4
:102E50000E94A714DDCE7A2DB98AA88A6E2D8989A1
:102E60000E94081586E0F60111928A95E9F7D6CFFF
:102E7000EE2009F465CF4D875E878D859E850E9483
:102E80000415F82E882309F45BCF86E0F801A2EF41
:102E9000B1E001900D928A95E1F782EF91E00E94F6
:102EA00075110E945615BACF81E08E25CBCE1F93A7
:102EB000CF93DF93CDB7DEB72C970FB6F894DEBF74
:102EC0000FBECDBF4F83588769877A878B879C87D2
:102ED000CE0107960E94AC15882369F08A859B85F0
:102EE000892B39F04F815885842F85238F3F09F036
:102EF00071C016E05FC086E0FE013796DE011196D4
:102F000001900D928A95E1F78A859B85892B89F33B
:102F10008F81988589238F3F61F32091C10130E033
:102F2000C9010196877099274091C0014817190679
:102F300071F40E94E1141092C1011092C00186E068
:102F4000E2EFF1E0DF011D928A95E9F7D2CF96E03A
:102F5000929FD001939FB00D1124AE53BE4FFE013E
:102F6000319601900D929A95E1F78093C1010E94EC
:102F70002715BFCF819FC00111248E539E4F0E9401
:102F8000AC158823E9F0E091C0011E9FF0011124E7
:102F9000EE53FE4F4081518162817381848195811E
:102FA0000E9417158091C00190E0019687709927C3
:102FB0008093C0018091C0019091C1018913DACF43
:102FC0002C960FB6F894DEBF0FBECDBFDF91CF9128
:102FD0001F91089569857A858B859C850E941715B8
:102FE00088CFEF92FF920F931F93CF93DF938C01C3
:102FF000892B81F0F12CEE24E394E8012196F8016D
:103000008491843770F4843008F05FC08130B1F06F
:103010008230A1F1DF91CF911F910F91FF90EF903E
:103020000895853709F44CC008F43DC09CE7980F1B
:10303000903780F78F770E94091249C00E5F1F4FAB
:10304000FE01849190E2980F983060F48770FE2D15
:1030500001C0FF0F8A95EAF78F2F0E94DB1A0E94AA
:10306000081B02C00E947A118F2D815030F2EFE9C7
:10307000FFE03197F1F700C00000F7CF0E5F1F4F60
:10308000FE01849190E2980F983050F48770FE2DE5
:1030900001C0FF0F8A95EAF78F2F0E94E11ADFCF58
:1030A0000E940912E1CF0E5F1F4FFE01C491C15073
:1030B000D8F28FE99FE00197F1F700C00000F7CF49
:1030C0000E5F1F4FFE01F490CFCF0E947A118E0148
:1030D000CBCF08950C9469180E946A186093060279
:1030E0007093070280930802909309020C94CF1406
:1030F00008950C946C180F931F9300910602109181
:1031000007022091080230910902602B712B822B5B
:10311000932B1F910F910C946C180F931F93009198
:1031200006021091070220910802309109026023E3
:103130007123822393231F910F910C946C180F938A
:103140001F9300910602109107022091080230910E
:10315000090260277127822793271F910F910C94F2
:103160006C180C9469180C94B1180E94B3186093F1
:1031700002027093030280930402909305020C9460
:10318000CF1460E070E0CB010C94B51861157105A7
:103190008105910529F481E0442361F080E00895E0
:1031A000DC01CB0104C0B695A795979587954A9504
:1031B000D2F781700895482F609102027091030246
:1031C00080910402909105020C94C6180F931F93EE
:1031D00041E050E060E070E08A019B0104C0000F14
:1031E000111F221F331F8A95D2F7C901B8011F9101
:1031F0000F910C94B5180F931F9341E050E060E0DD
:1032000070E004C0440F551F661F771F8A95D2F7E0
:103210008091020290910302A0910402B0910502F4
:103220008A019B01082B192B2A2B3B2BC901B801C2
:103230001F910F910C94B5180F931F9341E050E02C
:1032400060E070E004C0440F551F661F771F8A9529
:10325000D2F7CB01BA016095709580959095009159
:1032600002021091030220910402309105026023B2
:103270007123822393231F910F910C94B5180F9300
:103280001F9341E050E060E070E004C0440F551F20
:10329000661F771F8A95D2F78091020290910302F0
:1032A000A0910402B09105028A019B010827192709
:1032B0002A273B27C901B8011F910F910C94B5181B
:1032C0000F931F93009102021091030220910402B8
:1032D00030910502602B712B822B932B1F910F9144
:1032E0000C94B5180F931F930091020210910302E2
:1032F00020910402309105026023712382239323DD
:103300001F910F910C94B5180F931F930091020217
:103310001091030220910402309105026027712769
:10332000822793271F910F910C94B5180895E92FC8
:10333000EE0F9E0F890F982F977041E001C0440F48
:103340009A95EAF786958695869595E0899FF0018E
:103350001124E850FE4F30E020E070E05191DF0191
:103360001197CB01022E02C0969587950A94E2F739
:10337000817081958527842385278C932F5F3F4F0C
:103380002530310559F70895E92FEE0F9E0F890F6B
:10339000982F977086958695869525E0829FF001F7
:1033A0001124E850FE4F50E040E080E0219130E0F1
:1033B000092E02C0369527950A94E2F7217033272B
:1033C000042E01C0220F0A94EAF7822B4F5F5F4F51
:1033D0004530510559F70895BF92CF92DF92EF9291
:1033E000FF920F931F93CF93DF938C01C090020243
:1033F000D0900302E0900402F09005028091060252
:1034000090910702A0910802B0910902C82AD92A16
:10341000EA2AFB2ACFE1D0E0BC2ED701C6010C2E50
:1034200004C0B695A795979587950A94D2F780FD25
:103430000EC0219788F7B12C8B2DDF91CF911F9172
:103440000F91FF90EF90DF90CF90BF900895B8015B
:103450008C2F0E944206019761F3EECFCF93DF934A
:10346000EC010E94EC19BE01DF91CF910C94420651
:103470001F93CF93DF93EB019091BF01992331F01C
:10348000CB01DF91CF911F910C942E1A882379F0F4
:10349000CB010E94EC19182F682FCE010E949719BA
:1034A000BE01812FDF91CF911F910C944206CB0179
:1034B0000E94C419182FF4CF682F80911A0190919F
:1034C0001B010C94691C682F80911A0190911B01BB
:1034D0000C946B1C80911A0190911B010C946D1C33
:1034E00080910A02859585958595089580910A02B7
:1034F0008770089590910A02977081E009F480E046
:103500000895CF93C82F8091270282FB992790F9C5
:103510009C17D1F0C0FB82F980932702809126028C
:10352000909127020E94961B8091170280FF0CC089
:103530001F92CF938CE696E09F938F930E94D904BD
:103540000F900F900F900F90CF91089580912702C8
:1035500082FB882780F991E089270C94811A81E009
:103560000C94811A80E00C94811A809116020895BF
:1035700090911602892B8093160208958095909160
:103580001602982390931602089510921602089539
:1035900080911502089590911502892B8093150250
:1035A000089580959091150298239093150208959F
:1035B00010921502089590911402892B80931402A1
:1035C0000895809590911402982390931402089581
:1035D00010921402089580910B02089508950C949E
:1035E000EE1A9091270292FD08C090910B02981755
:1035F00021F080930B020C94EF1A089580910B0236
:10360000882329F010920B0280E00C94EF1A0895A1
:10361000E0911A01F0911B01809116028083E091E4
:103620001A01F0911B01808190911502892B8083F2
:10363000E0911A01F0911B01808190911402892B75
:10364000808390910B02992381F0E0911A01F0910F
:103650001B018081892B808380911A0190911B012D
:103660000E94211C81110E94FE1A80911A019091E2
:103670001B010C94C70F08950C943B1B90912702DB
:1036800092FD10C098E0899F90011124622B6093F5
:103690000A020E94FB1880910A02859585958595FE
:1036A0000C943C1B0C94FB1810920A0280E00C94C2
:1036B0003C1B90910A028095892380930A02282F4F
:1036C000277039F4282F082E000C330B921713069D
:1036D00021F49091270292FF07C0859585958595E5
:1036E0000E941C190C94541B089590E080E00E94E5
:1036F000BB2421E08A3E9E4F09F020E0822F0895EE
:1037000082E090E00C94B32483E090E00C94B32426
:10371000CF9384E090E00E94B324C82F82E290E02F
:103720000E94B324982F8C2FCF910895CF93C92F47
:10373000682F84E090E00E94C1246C2F82E290E028
:10374000CF910C94C124AB01BC018FE090E00C94AC
:10375000D324AB01BC0183E190E00C94D32460E05E
:1037600070E0CB010C94A91B60E070E0CB010E94DB
:10377000A31B0C94AF1B6AEE7EEF90E080E00E94EA
:10378000DF2460E082E090E00E94C12460E083E0FA
:1037900090E00E94C124109206021092070210923B
:1037A00008021092090260E084E090E00E94C124C7
:1037B00060E082E290E00E94C12460E085E090E059
:1037C0000E94C12460E086E090E00E94C1246FEF77
:1037D00087E090E00E94C12440E050E0BA0188E018
:1037E00090E00E94D32460E08DE090E00E94C1242C
:1037F00040E050E0BA0188E190E00E94D32460E00C
:1038000087E190E00E94C12440E050E0BA018CE1E1
:1038100090E00E94D32470E060E080E290E00E949B
:10382000DF2440E050E0BA0188E190E00E94D32418
:103830000C94B41B0C94BB1B682F8EE090E00C948E
:10384000C1249C012E5F3F4FAC01485F5F4F80E079
:103850002417350709F40895F90191919F019923DF
:10386000B9F38F5FF5CF662349F0FC0132960896D5
:103870002191261729F0E817F907D1F780E008957C
:1038800081E008959C01FC0132969FEF80E0419118
:10389000461751F09F3F19F4411101C0982F8F5FD7
:1038A0008630A9F79F3F09F40895290F311D97FD30
:1038B0003A95F90162830895FC01329608962191A8
:1038C000261303C0DF0111971C92E817F907B9F717
:1038D00008950C94421C0C945C1C029626E0FC019A
:1038E00011922A95E9F70895089508950C94751C8E
:1038F00080913802843049F10E94761C80E00E9459
:103900001A061092180288E190E020E40FB6F894AD
:10391000A895809360000FBE2093600083B7817FDD
:10392000846083BF83B7816083BF7894889583B7B1
:103930008E7F83BF0FB6F894A89580916000886150
:1039400080936000109260000FBE08950895CF9399
:103950000E94741C0E94E7080E94A61CC0E08C2FE5
:103960000E945108811105C0CF5FC430C1F7CF91CB
:10397000089581E0FCCF08950C94BB1C0E94E114D3
:103980000E94BB0F0E941A060C94BC1C1F921FB60B
:103990001F9211248F939F93AF93BF93809118022E
:1039A000811113C08091300290913102A0913202B6
:1039B000B09133024196A11DB11D809330029093C6
:1039C0003102A0933202B0933302BF91AF919F9125
:1039D0008F911F901FBE1F90189582E084BD93E0C9
:1039E00095BD9AEF97BD80936E0008952FB7F89418
:1039F0008091300290913102A0913202B091330255
:103A00002FBF08952FB7F894609130027091310262
:103A100080913202909133022FBF08959C014FB7DD
:103A2000F8948091300290913102A0913202B091CD
:103A300033024FBF821B930B089578941F921FB6D9
:103A40001F9211248F939F93AF93BF938091300265
:103A500090913102A0913202B09133020196A11DE2
:103A6000B11D8093300290933102A0933202B09343
:103A70003302BF91AF919F918F911F901FBE1F90F6
:103A8000189587E797E7909301088093000888E1ED
:103A90009AE00FB6F894A895809360000FBE9093BB
:103AA0006000FFCF9093A1018093A00108958091C1
:103AB000240208950895CF93DF9300D00F92CDB7DD
:103AC000DEB790913802943019F589837B836A833D
:103AD00082E08093E9008FEF9091E800815095FD9E
:103AE00006C095ED9A95F1F700008111F5CF809110
:103AF000E80085FF0DC050E040E063E070E0CE01DB
:103B000001960E9411208091E8008E778093E80052
:103B10000F900F900F90DF91CF910895BC0184E03A
:103B20000C945B1DBC0183E00C945B1DCF93DF9371
:103B3000EC0181E08093E9008FEF9091E8008150E3
:103B400095FD06C095ED9A95F1F700008111F5CF2E
:103B50008091E80085FF14C050E040E068E070E02C
:103B6000CE010E9411208091E8008E778093E800BA
:103B700088E0FE01ACE1B2E001900D928A95E1F798
:103B8000DF91CF91089586EA96E00E9440048091EB
:103B90003702811109C00E94A1210E94FE2180915B
:103BA000E20084608093E200089582EA96E00E9439
:103BB00040041092370208958EE996E00C94400478
:103BC0008AE996E00C94400486E996E00C9440045F
:103BD00020911A022F5F822F62E30E94A124992371
:103BE00019F020931A02089510921A0280911B0274
:103BF0008823F1F0809138028430C1F49091E9007B
:103C00009F702091EC00822F817020FD80E8892B2D
:103C100093E09093E9009091EB0090FF04C09091A5
:103C2000EE0097FD08C08F708093E90010921B0290
:103C300008951092F1009091E80095FDFACF9091CF
:103C4000E80090FFF0CF9091E8009E779093E80015
:103C5000EACF42E061EC81E00E941D2142E261EC8A
:103C600082E00E941D2142E261EC83E00C941D2160
:103C700080913A02833009F45FC030F48130C1F1A1
:103C8000823009F49BC008958A3009F487C08B30D4
:103C900009F46DC0893009F04EC08091390281323B
:103CA00009F049C080913D0290913E02029708F0D0
:103CB00042C08091E800877F8093E8008091E8000F
:103CC00082FF35C09091F3008091F200029729F4B1
:103CD0008091F1008B7F813021F48091F1008093FD
:103CE00024028091E8008B778093E8000C945121A6
:103CF00080913902813AF9F48091E800877F8093BE
:103D0000E80080913D0290913E02892B61F468E0C9
:103D10008CE192E070E00E9460208091E8008B7757
:103D20008093E800089560E090E080E0F3CF809118
:103D300038028111C3CF089580913902813AD9F7B1
:103D400080913D0290913E02892BA9F78091E80075
:103D5000877F8093E8008091E80080FFFCCF80910E
:103D600026018093F1008091E8008E77BDCF80918D
:103D70003902813201F780913D0290913E02892BF8
:103D8000D1F68091E800877F8093E8000E9451215E
:103D900080913B02809326010C94E11480913902BA
:103DA000813249F68091E800877F8093E8000E9485
:103DB000512180913C02809325020895809139021F
:103DC000813A09F0B8CF8091E800877F8093E800BE
:103DD0008091E80080FFFCCF80912502C2CF9FB781
:103DE000F89410921B029FBF90913802943009F012
:103DF00048C02091E9002F703091EC00932F917012
:103E000030FD90E8922B23E02093E9002091EB0015
:103E100020FF34C02091EE0027FF30C0209119020E
:103E2000222321F02091E80025FF28C010921902DA
:103E300026E03091E80035FF14C08093F1008091B6
:103E4000E80085FD27C08091E80080FFFCCF8091CD
:103E5000E8008E778093E8009F709093E90080E0FF
:103E6000089530913802343049F43091EB0035FD3B
:103E700005C0215041F481E0809319029F70909316
:103E8000E9008FEF0895EFE9FFE03197F1F700C007
:103E90000000CFCF8FB7F89421E020931B028FBF93
:103EA000DBCF84B7877F84BF0FB6F894A895809145
:103EB0006000886180936000109260000FBE80E80F
:103EC00090E00FB6F89480936100909361000FBE6C
:103ED0000E9460100E94A1210E94FE218091E200B8
:103EE00084608093E20078940E9486240E9474107B
:103EF0008CE191E00E94B60F85E896E00E944004B4
:103F000080913802853051F481E896E00E944004A7
:103F100080913802853039F00E94BE1C0E94A210A8
:103F20000E947010EDCF0E94781C80913602882389
:103F300079F30E94A71C882359F30E94FB1F0E945B
:103F4000E114E6CF0C94A41F292F33272330310529
:103F500021F168F42130310509F443C022303105E4
:103F600009F444C090E080E030E020E026C0213237
:103F7000310551F122323105A9F76330710590F70F
:103F8000FB01EE0FFF1FED56FE4F20813181605780
:103F90007E4FFB01808190E010C099278130910510
:103FA00081F0009729F00297E9F6EAEAF6E002C00C
:103FB000E0EDF6E0849190E09F01FA0131832083E7
:103FC0000895EAEBF6E0F6CF6330710558F6660F18
:103FD000771FFB01E756FE4F2081318189E090E099
:103FE000ECCF82E190E02FE237E0E7CF8BE590E085
:103FF00024ED36E0E2CF80E189BD82E189BD09B4DC
:1040000000FEFDCF8091D8008F7D8093D8008091F5
:10401000E00082608093E0008091E00081FDFCCFB1
:104020000895AF92BF92CF92DF92FF920F931F93AA
:10403000CF93DF936C01EB018A010E947021F82E6F
:10404000811123C00115110539F0F801808191819A
:10405000C81BD90BC80ED91EB12CA12C2097A9F0D2
:104060008091E80085FD22C08091E8008E778093E2
:10407000E80001151105A1F0F80180819181A80ED9
:10408000B91EB182A08285E0F82E8F2DDF91CF91ED
:104090001F910F91FF90DF90CF90BF90AF90089548
:1040A0000E9470218823D1F2F82EEFCFF601819182
:1040B0006F018093F1002197FFEFAF1ABF0ACECFB7
:1040C000FC0180913F029091400286179707A0F073
:1040D0006115710529F49091E8009E779093E800AE
:1040E00090E06115710551F4911108C08091E800CC
:1040F00082FF34C080E00895BC01F2CF8091380285
:104100008823C1F18530C1F18091E80083FD30C082
:104110008091E80082FDEACF8091E80080FFE1CF46
:104120008091F3002091F200382F6115710519F08C
:104130002830310558F091E02830310509F090E041
:104140002091E8002E772093E800CBCF81918093D7
:10415000F100615071092F5F3F4FE7CF8091380226
:10416000882341F0853041F08091E80083FFBECF85
:1041700081E0089582E0089583E00895FC01809134
:104180003F029091400286179707A0F061157105D4
:1041900029F48091E8008E778093E80090E0611523
:1041A000710551F4911108C08091E80082FF35C07B
:1041B00080E00895BC01F2CF809138028823C9F1D4
:1041C0008530C9F18091E80083FD31C08091E8001D
:1041D00082FDEACF8091E80080FFE1CF8091F3007B
:1041E0002091F200382F6115710519F02830310542
:1041F00058F091E02830310509F090E08091E80016
:104200008E778093E800CBCF84918093F100319634
:10421000615071092F5F3F4FE6CF809138028823AC
:1042200041F0853041F08091E80083FFBDCF81E00F
:10423000089582E0089583E00895982F973028F03C
:104240008F708093E90081E008959093E900242F16
:10425000762F50E0981731F07091EC002091ED002E
:104260005091F00021FD02C09F5FE8CF3091EB003C
:104270003E7F3093EB003091ED003D7F3093ED00B9
:104280003091EB0031603093EB007093EC002093A1
:10429000ED005093F0002091EE0027FDE5CF80E087
:1042A00008958091390287FF13C08091E80082FF52
:1042B00006C08091E8008B778093E80004C080916D
:1042C00038028111F2CF0895809138028823D9F302
:1042D0008091E80080FFF8CF8091E8008E77ECCFE6
:1042E0002091E4003091E50095E6A9012091EC00D1
:1042F000822F817020FF06C08091E80080FF06C0F9
:1043000080E008952091E80022FD1AC080913802D3
:10431000882389F0853089F08091EB0085FD0FC0FE
:104320002091E4003091E50042175307F9F29150D3
:10433000E1F684E0089582E0089583E0089581E045
:1043400008950E940F220E941722E0EEF0E0808183
:1043500081608083E8EDF0E080818F77808319BCF5
:10436000A7EDB0E08C918E7F8C9380818F7E8083CF
:104370001092370208950F931F93CF93DF930E94FB
:104380000F220E941722C8EDD0E088818F778883A2
:1043900088818068888388818F7D888319BC10928A
:1043A000380210923402109236021092350200EE5A
:1043B00010E0F80180818B7F808388818160888311
:1043C00042E060E080E00E941D21E1EEF0E08081AB
:1043D0008E7F8083E2EEF0E0808181608083808147
:1043E00088608083F80180818E7F808388818061EE
:1043F0008883DF91CF911F910F910895E8EDF0E050
:1044000080818F7E8083E7EDF0E080818160808312
:1044100084E082BF81E0809337020C94BB21E8EDF9
:10442000F0E080818E7F80831092E20008951092E8
:10443000DA001092E10008951F920F920FB60F92CA
:1044400011242F933F934F935F936F937F938F9399
:104450009F93AF93BF93EF93FF938091E10082FF0F
:104460000BC08091E20082FF07C08091E1008B7F4A
:104470008093E1000E94E81D8091DA0080FF19C05E
:104480008091D80080FF15C08091DA008E7F8093E4
:10449000DA008091D90080FF96C080E189BD82E179
:1044A00089BD09B400FEFDCF81E0809338020E94EF
:1044B000C31D8091E10080FF19C08091E20080FF60
:1044C00015C08091E2008E7F8093E2008091E2002F
:1044D00080618093E2008091D80080628093D80050
:1044E00019BC85E0809338020E94E01D8091E100B4
:1044F00084FF2BC08091E20084FF27C080E189BD4A
:1045000082E189BD89B5982F917080FFFBCF8091A2
:10451000D8008F7D8093D8008091E1008F7E8093BA
:10452000E1008091E2008F7E8093E2008091E200C2
:1045300081608093E20080913402882309F449C0AD
:1045400084E0809338020E94E41D8091E10083FFA3
:1045500029C08091E20083FF25C08091E100877F20
:104560008093E10082E080933802109234028091BF
:10457000E1008E7F8093E1008091E2008E7F809346
:10458000E2008091E20080618093E20042E060E01E
:1045900080E00E941D218091F00088608093F000EF
:1045A0000E94DC1DFF91EF91BF91AF919F918F9180
:1045B0007F916F915F914F913F912F910F900FBE1F
:1045C0000F901F90189519BC109238020E94D51DAB
:1045D00070CF8091E30087FD93E090933802B3CFD2
:1045E0001F920F920FB60F9211242F933F934F9368
:1045F0005F936F937F938F939F93AF93BF93CF936B
:10460000DF93EF93FF93D091E900DF708091EC008E
:10461000C82FC17080FDC0E81092E9008091F000C1
:10462000877F8093F00078940E9434231092E900F1
:104630008091F00088608093F000CD2BCF70C09304
:10464000E900FF91EF91DF91CF91BF91AF919F91E1
:104650008F917F916F915F914F913F912F910F902B
:104660000FBE0F901F9018951F93CF93DF93CDB778
:10467000DEB7AA970FB6F894DEBF0FBECDBF89E3B1
:1046800092E02091F100FC012193CF01F2E081340E
:104690009F07B9F70E94381E8091E80083FF1EC172
:1046A0008091390290913A029A3008F017C1E92FAF
:1046B000F0E0EB5EFA4D0C94AD24803899F082382E
:1046C00009F00CC180913D028F70873008F006C15F
:1046D0008093E9008091EB0085FB882780F9109298
:1046E000E90006C0809135029091360291118260F6
:1046F0009091E800977F9093E8008093F1001092EA
:10470000F1008091E8008E77E5C0882309F4D3C0DA
:10471000823009F0E3C080913B028111D6C08091C4
:104720003D028F702FEF280F263008F0D7C08093FE
:10473000E9002091EB0020FFC8C0933031F4809154
:10474000EB0080628093EB00C0C09091EB00906121
:104750009093EB0021E030E001C0220F8A95EAF748
:104760002093EA001092EA008091EB008860EACF83
:104770008111B4C010913B021F778091E3008078D3
:10478000812B8093E3008091E800877F8093E8008D
:104790000E9451218091E80080FFFCCF8091E300CE
:1047A00080688093E30082E0111183E080933802F7
:1047B00095C08058823008F091C080913B02909162
:1047C0003C028C3D23E09207A1F583E08A838AE2D4
:1047D00089834FB7F894DE01139620E03EE051E262
:1047E000E32FF0E050935700E49120FF03C0E295DF
:1047F000EF703F5FEF708E2F90E0EA30C0F0C79609
:104800008D939D932F5F243159F74FBF8091E8001E
:10481000877F8093E8006AE270E0CE0101960E94F3
:1048200060208091E8008B778093E80057C0C096A5
:10483000E7CF60913D0270913E02AE014F5F5F4F46
:104840000E94A21FBC01892B09F448C09091E80086
:10485000977F9093E80089819A810E94BE20E1CFE2
:104860008038E1F58091E800877F8093E8008091AF
:1048700034028093F10045CF811130C090913B020A
:10488000923060F58091E800877F8093E8009093F4
:1048900034020E94512180913402882311F084E077
:1048A00005C08091E30087FDFACF81E08093380254
:1048B0000E94291E13C080913B02813079F481E06F
:1048C000933009F080E0809336021092E9008091E5
:1048D000E800877F8093E8000E9451218091E800E2
:1048E00083FF0AC08091E800877F8093E800809171
:1048F000EB0080628093EB00AA960FB6F894DEBFBF
:104900000FBECDBFDF91CF911F910895CF938091BE
:1049100038028823A1F0C091E900CF709091EC009B
:10492000892F817090FD80E8C82B1092E90080915A
:10493000E80083FD0E943423CF70C093E900CF913B
:104940000895991B79E004C0991F961708F0961BEB
:10495000881F7A95C9F780950895EE0FFF1F05907F
:10496000F491E02D0994F999FECF92BD81BDF89A9A
:10497000992780B50895A8E1B0E042E050E00C949A
:10498000E724262FF999FECF92BD81BDF89A0197B1
:1049900000B4021639F01FBA20BD0FB6F894FA9A87
:1049A000F99A0FBE08950396272F0E94C2240E94F1
:1049B000C124252F0E94C224242F0C94C2240196C6
:1049C000272F0E94C2240C94C124DC01CB01FC01DE
:1049D000F999FECF06C0F2BDE1BDF89A319600B458
:1049E0000D9241505040B8F70895F894FFCFB91296
:1049F000B912111311136313E612E612E6127F13B4
:104A00000B141A141A147614E612E6127F14F0141A
:104A1000F014F914F914FB14F914F914F914F0143E
:104A2000F0140015F914F91400155D2385236E2484
:0E4A300085236E24B823D9236E2430243C2421
:104A3E0000000405E6040000000000000000000075
:104A4E00000013010000010000FF0C02571D961D0F
:104A5E005A1D921D8E1D01E200E900EA00B500B656
:104A6E0000B700CD008301CC008A01920194012190
:104A7E0002230224022502260227022A02B300B4D0
:104A8E00006F00700081828394C63136323334E277
:104A9E0000E900EA00B500B600B700CD008301CCF6
:104AAE00008A01920194012102230224022502268A
:104ABE000227022A02B300B4006F007000818283C5
:104ACE00403222950763074107E606FF06180700E6
:00000001FF
