:100000000C94B9020C9400030C9400030C940003AC
:100010000C9400030C9400030C9400030C94000354
:100020000C9400030C9400030C94E0250C94B4266B
:100030000C9417210C9400030C9400030C940003FF
:100040000C9400030C9400030C9400030C94000324
:100050000C9400030C946E210C9400030C94000388
:100060000C9400030C9400030C9400030C94000304
:100070000C9400030C9400030C9400030C940003F4
:100080000C9400030C9400030C9400030C940003E4
:100090000C9400030C9400030C9400030C940003D4
:1000A0000C9400030C9400030C94000314001A0039
:1000B0000800150017001C0018000C0012001300A7
:1000C00004001600070009000A000B000D000E00D6
:1000D0000F0028001D001B0006001900050011007C
:1000E0001000360037002A00E000E2000151E10074
:1000F000AE002C002C000251E600E4001E001F00A0
:1001000020002100220023002400250026002700D3
:1001100029005000510052004F002D002E003400E5
:10012000330001002B004C0046002F00300031004E
:100130003800010001000100010001000100010080
:1001400001000100010001000100010001000100A7
:100150000100010001000100010001000100010097
:100160000100010001000100010001000100010087
:100170000100010001000100010001000100010077
:100180000100010001000100010001000100010067
:100190000100010001000100010001000100010057
:1001A0000100010001000100010001000100010047
:1001B0000100010001000100010001000100010037
:1001C0000100010001000100010001000100010027
:1001D0000100010001000100010001000100010017
:1001E0000100010001000100010001001E0F0500D7
:1001F000047F3F1F643214643214783C1E1E140ABC
:10020000052223252628292A2C2D2F303233353656
:10021000383A3B3D3E4042434547494A4C4E505197
:10022000535557595A5C5E6062646668696B6D6FBE
:1002300071737577797B7D7F81838587898A8C8EC1
:1002400090929496989A9C9E9FA1A3A5A7A8AAACC9
:10025000AEAFB1B3B4B6B8B9BBBCBEBFC1C2C3C503
:10026000C6C7C9CACBCCCDCED0D1D2D2D3D4D5D6A5
:10027000D7D7D8D9D9DADADBDBDBDCDCDCDCDCDDD8
:10028000DDDDDDDCDCDCDCDCDBDBDBDADAD9D9D8BC
:10029000D7D7D6D5D4D3D2D2D1D0CECDCCCBCAC954
:1002A000C7C6C5C3C2C1BFBEBCBBB9B8B6B4B3B183
:1002B000AFAEACAAA8A7A5A3A19F9E9C9A9896941E
:1002C00092908E8C8A89878583817F7D7B797775F3
:1002D00073716F6D6B6968666462605E5C5A5957D2
:1002E000555351504E4C4A4947454342403E3D3B91
:1002F0003A3836353332302F2D2C2A29282625231B
:1003000022FFAA7F55400001010101010101010105
:1003100002020202020202020203030303030303B6
:100320000304040404040404050505050506060683
:100330000606070707070708080808090909090A40
:100340000A0A0B0B0B0C0C0C0D0D0D0E0E0E0F0FE5
:100350000F10101111111212131314141515161673
:100360001717181819191A1A1B1B1C1D1D1E1E1FE2
:100370002020212222232424252626272829292A31
:100380002B2C2D2D2E2F3031323233343536373859
:10039000393A3B3C3D3E3F40414243444546474855
:1003A000494A4C4D4E4F50515354555658595A5B2B
:1003B0005D5E5F616264656668696B6C6D6F7072CB
:1003C000737577787A7B7D7E8082838587888A8C37
:1003D0008E8F91939596989A9C9EA0A2A3A5A7A96B
:1003E000ABADAFB1B3B5B7BABCBEC0C2C4C6C9CB62
:1003F000CDCFD1D4D6D8DBDDDFE2E4E7E9EBEEF018
:10040000F3F5F8FAFDFF0C03790061007300750045
:100410006900000014037200610069006E006B0047
:10042000650065006200730000000403090409020E
:100430003B00020100A0FA090400000103010100D1
:100440000921110100012240000705810308000A6B
:10045000090401000103000000092111010001222B
:10046000B6000705820320000A12011001000000F7
:10047000086B72737901000102000105010902A1F4
:100480000185020901A100050919012908150025A6
:100490000195087501810205010930093115812591
:1004A0007F95027508810609381581257F950175AC
:1004B000088106050C0A38021581257F950175080B
:1004C0008106C0C005010980A101850319012AB771
:1004D00000150126B700950175108100C0050C09B3
:1004E00001A101850419012AA002150126A0029587
:1004F0000175108100C005010906A10185050507E8
:1005000019E029E715002501950875018102050705
:10051000190029EF1500250195F0750181020508E4
:100520001901290595057501910295017503910140
:10053000C005010906A101050719E029E7150025F5
:10054000019508750181029501750881010507195A
:100550000029FF150026FF00950675088100050893
:100560001901290595057501910295017503910100
:10057000C00011241FBECFEFDAE0DEBFCDBF04B64E
:1005800003FE27C080911C0390911D03A0911E03C0
:10059000B0911F038730904BA740B04BD1F410921D
:1005A0001C0310921D0310921E0310921F0314BE11
:1005B00084B7877F84BF0FB6F894A89580916000B8
:1005C000886180936000109260000FBEE0E0F8E365
:1005D000099511E0A0E0B1E0E6EFF3E502C0059077
:1005E0000D92A83CB107D9F723E0A8ECB1E001C017
:1005F0001D92AC31B207E1F70E941C230C94D12963
:100600000C94000081E0089581E008950C940403A7
:1006100008950C9408031F93CF93DF9300D000D06C
:100620000F92CDB7DEB749835A836B833091330283
:1006300089819A8131111DC06623B9F02223A9F066
:100640000E94E11D182F682F89819A810E948D1DBB
:1006500069817A81812F0F900F900F900F900F90EA
:10066000DF91CF911F910C94D3030E94B91D182FD5
:10067000EFCF0E94E11D69817A81EDCFFC01262F29
:10068000408151816281738184810C940B03CF93EB
:10069000DF93EC0160E00E943E03BE01DF91CF9149
:1006A0000C9409030E94F9050C941E060C94210673
:1006B00008950E94F7180E9458032FEF84E39CE0EE
:1006C000215080409040E1F700C000000C9492213E
:1006D0000F931F93CF93DF938C0161E00E943E0341
:1006E000EC01B8010E9406038823D9F1B801CE01BC
:1006F0000E944B128823A9F1B801CE010E949D12DD
:10070000882379F1B801CE010E94C013882349F1F2
:10071000B801CE010E94E610882319F1F801828108
:10072000882361F0CB35FDE5DF0721F170F4C115B9
:10073000ECE5DE07A1F0CF3DDC45C9F0C801DF9153
:10074000CF911F910F910C940203CC358DE5D80702
:10075000A1F0CD35DD4591F70E94881EEFCF0E94B4
:10076000590380E0DF91CF911F910F9108950E946E
:100770000120F7CF0E94911EE1CF0E94941EDECF90
:1007800008950C94C00381E008950C94C303CF93A3
:10079000C82F0E94C1038C2FCF910C94C50390E009
:1007A00080E008950895972F70E02AE0929F600DF1
:1007B000711D1124FB0198E2899FE00DF11D1124A8
:1007C000EE0FFF1FE455FF4F859194910895FC01B2
:1007D000EE0FFF1FE451FE4F859194910895CF9342
:1007E000DF930E94D3030E940405EC01811520E5EC
:1007F000920708F042C0811530E4930708F0BDC0AD
:10080000883E910528F5803E910508F09DC0883A04
:10081000910588F4853A910508F08FC081309105E3
:1008200009F492C0009709F48FC0049708F08CC0B7
:10083000D0E0C0E089C08F3B910508F489C0805C9E
:100840009109C03CD105A0F30E94E703EC017CC0F4
:100850008115904250F4C11581E0D80708F074C0AA
:10086000CD3ED10528F3D0656FC0C11590E3D907FF
:1008700008F079C0CE019F70E7CF811525E592077A
:1008800058F5811534E5930708F0A6C0811542E5B7
:10089000940750F4C11581E5D80708F471C0DC2F26
:1008A000CC27C16FD06A50C0982F969596959E011F
:1008B00023703327C115D34508F07FC0C1E0D0E0D5
:1008C00002C0CC0FDD1F2A95E2F720E2929FC00103
:1008D0001124C82BD92B6FC0C11589E5D807A8F4FE
:1008E000C11598E5D90708F07CC0C11526E5D207E7
:1008F00008F09ECF8C2F0E949B05C82FD0E0DC2FE4
:10090000CC27CC27DF71D0621FC0C1153AE5D307D1
:1009100008F46CC0CE0190568115904208F088CF43
:100920008D2F8F710E949B0590E0982F8827882734
:100930009F719C012C2BE901E6CFC55AD0E0C65A25
:10094000DE4FC881D0E0D064CE01DF91CF91089511
:10095000C85AD0E0CC0FDD1FC45DDE4F0990D881AE
:10096000C02DD464F1CFCE019927D3FF03C0EC0191
:10097000D86CEACFEC01D06CE7CFDF70D06AE4CF5F
:10098000CE01E4E096958795EA95E1F783702C2FE8
:1009900026952695237090E2299F90011124382BEB
:1009A0008C2F8370C1E0D0E002C0CC0FDD1F8A9590
:1009B000E2F7C22BD32BDC68C7CFC1E0D0E002C086
:1009C000CC0FDD1F2A95E2F730E2939FC00111247E
:1009D000C82BD92BDA68B8CFD82FCC27C46FD06AF0
:1009E000B3CFDC2FCC27C06FD06AAECF8C2F8F70E7
:1009F0000E949B0534E0D695C7953A95E1F7CF70F4
:100A00009C2FEC01D069A0CF82389105B1F1B0F4F0
:100A10008133910509F475C048F48932910509F4D0
:100A200069C08A32910509F473C008958533910530
:100A300009F459C08933910501F10895833E910568
:100A4000A9F138F4803E9105F9F0823E910549F113
:100A50000895863E9105A9F1873E9105C9F1843E2E
:100A6000910519F52091D70221FF1FC08091D60270
:100A700084FD14C087EE90E008952091D602237083
:100A8000A1F080EE90E008952091D60220FD47C0AD
:100A90003091D70230FF09C024FF44C090E080E0CD
:100AA00004C02091D60222FDF7CF08952091D602EE
:100AB00022FD3BC03091D70230FDE3CF24FFF5CFBC
:100AC000EDCF2091D60223FFF0CF24FDE7CFD2CF88
:100AD0002091D60223FD2CC03091D70231FFEECFFA
:100AE00084EE90E008952091D60225FFDECF89E2C2
:100AF00090E008952091D60225FFD7CF85E390E0BE
:100B000008952091D60226FFD0CF8AE290E0089582
:100B10002091D60226FFC9CF81E390E0089589E3B2
:100B200090E0089583EE90E0089582EE90E00895BD
:100B300086EE90E008959091D60292FF06C0282F8D
:100B400028712830F9F4877F846093FF06C0282F2E
:100B500028712831F1F4877E84612091D70220FF2B
:100B600006C0382F38713830D9F4877F816021FF73
:100B700006C0282F28712831D1F4877E816194FD29
:100B8000877E0895282F24712430F9F68B7F8860A2
:100B9000DCCF282F2471243101F78B7E8861DDCFD3
:100BA000382F3171313019F78E7F8860E0CF282FD0
:100BB0002171213121F78E7E8861E1CF0C94561F7F
:100BC0000E948A062FEF86E791E0215080409040F6
:100BD000E1F700C000000E948A0680E00E94230620
:100BE00080FF04C00E94DE050C94922108950C94AD
:100BF000E0050E945C1F811102C00E9401200E943A
:100C0000671F8093B2020E946F1F9093D702809358
:100C1000D6020E94F7050E946B1F682F70E090E0DB
:100C200080E00E948F1C6091850270918602809105
:100C30008702909188020C94C91C08950C941D069B
:100C400008950C942006E82FF0E0EE0FFF1FE0520D
:100C5000FD4F808191810895089580EA8A95F1F78A
:100C6000089500C008950C942D06F894E82FE2959D
:100C7000EF70F0E031A1282F2F7081E090E001C0EB
:100C8000880F2A95EAF7982F9095932391A392A124
:100C9000892B82A378940895CF93DF9384E90E94EF
:100CA000350686E60E94350685E30E94350686EC09
:100CB0000E943506CDE5D1E089910E94350681E09C
:100CC000C736D807C9F71092D9021092D8021092ED
:100CD000E1021092E0021092DB021092DA0210920E
:100CE000E3021092E2021092DD021092DC021092F6
:100CF000E5021092E4021092DF021092DE021092DE
:100D0000E7021092E60284E00E940A07DF91CF9189
:100D10000C945203AF92BF92DF92EF92FF920F9327
:100D20001F93CF93DF93C7E6D1E008ED12E0D12CFB
:100D3000EE24E394F12C8991F894E82FE295EF707A
:100D4000F0E021A18F70A70102C0440F551F8A95C2
:100D5000E2F7CA01922F982B91A392A18095892343
:100D600082A378940E943106EDE5F1E030E020E0C6
:100D7000B12CA12C4191A42FA295AF70B0E0909618
:100D80008C9190E04F7002C0959587954A95E2F757
:100D900080FD3BC0C701022E02C0880F991F0A9434
:100DA000E2F7A82AB92A2F5F3F4F2A30310511F701
:100DB000FE01319780810E9435060E943306F801BA
:100DC00080819181A816B90619F1B182A08281E0D3
:100DD000D82A0E5F1F4FF1E0CB36DF0709F0ABCF0B
:100DE0002D2D44E060EE72E088ED92E00E940B074A
:100DF0000E9456038D2DDF91CF911F910F91FF908F
:100E0000EF90DF90BF90AF90089590E080E0C9CF61
:100E100080E0DECF0895FF920F931F93CF93DF936F
:100E2000F82E092F162FD72FC42F222349F081E047
:100E30008093CC010E9447219093CB018093CA01FB
:100E40008091CC018823A1F08091CA019091CB01BF
:100E50000E945F21069760F0EF2DF02FA12FBD2F8C
:100E600090E080E0D0E08C179D0744F01092CC0118
:100E7000DF91CF911F910F91FF90089521913191B2
:100E80002D933D930196EFCF8091D30180FF12C047
:100E90006091090185E0689FB001112475956795FF
:100EA0007595679560387105A8F561157105A1F113
:100EB000862F089581FF09C06091090185E0689F30
:100EC000B001112475956795EDCF6091090182FD00
:100ED0000AC08091D2018823D1F0909108016091DD
:100EE0000901891728F085E0689FB0011124DACF45
:100EF000869FB001112485E0869F9001879F300D69
:100F00001124692F70E0C9010E949428CBCF65E0BD
:100F100070E0CECF8FE7089581E008958091D301EE
:100F200080FF0CC06091050170E07595679575951F
:100F300067956115710549F1862F089581FF06C0F7
:100F40006091050170E075956795F3CF609105019B
:100F500082FD0BC09091D1019923A1F06091040111
:100F600080910501961738F0682F70E060387105A0
:100F700000F38FE70895899FC001112470E00E945B
:100F80009428F4CF61E070E0D7CF81E008958D3EE2
:100F900031F40E94440781958093D70108958E3ED5
:100FA00019F40E944407F8CF8F3E31F40E944407A1
:100FB00081958093D6010895803F19F40E944407DB
:100FC000F8CF893F29F40E948E078093D8010895B5
:100FD0008A3F21F40E948E078195F7CF8B3F31F431
:100FE0000E948E0781958093D90108958C3F19F452
:100FF0000E948E07F8CF9FE0980F983070F4815FC1
:10100000990B21E030E001C0220F8A95EAF7809128
:10101000D501822B8093D50108958D3F31F48091C5
:10102000D30181608093D30108958E3F21F4809194
:10103000D3018260F7CF8F3FB9F78091D3018460ED
:10104000F1CF4091D6018D3E59F48091D70187FFB1
:101050000DC01092D70141110BC01092D20108C0EF
:101060008E3E81F48091D70118169CF3442381F0C1
:101070008091D8019091D901892B09F05AC0109222
:10108000D10108958F3E49F447FFF0CF1092D60169
:101090008091D7018111ECCFE0CF803F19F4141675
:1010A000ACF3E4CF9091D801893F29F41916F4F6F6
:1010B0001092D801DBCF8A3F19F497FFD7CFF8CF32
:1010C0009091D9018B3F29F497FFD0CF1092D9018D
:1010D000CDCF8C3F19F41916CCF3C8CF9FE0980FF1
:1010E000983090F4815F990B21E030E0B90102C0A3
:1010F000660F771F8A95E2F7CB0180959091D50115
:1011000089238093D501B2CF8D3F31F48091D301F3
:101110008E7F8093D301AACF8E3F21F48091D3019B
:101120008D7FF7CF8F3F09F0A1CF8091D3018B7FC7
:10113000F0CF08950E9447219C019091D6018091A3
:10114000D701982B21F03093D0012093CF019091BB
:10115000D8018091D901982B21F03093CE012093B2
:10116000CD0184ED91E00C941514EF92FF920F9352
:101170001F93CF93DF9300D000D000D0CDB7DEB760
:1011800086E0E4EDF1E0DE01119601900D928A9582
:10119000E1F7E090D601F090D7010091D8011091CD
:1011A000D9011092D6011092D7011092D801109255
:1011B000D9018E2D8F2991F08091CF019091D0018E
:1011C0000E945F21AC019091D201992309F43FC0A4
:1011D00080910A018417150608F447C0802F812BDF
:1011E00091F08091CD019091CE010E945F21AC01E0
:1011F0009091D101992309F477C080910601841759
:10120000150608F47FC08091D6019091D701892BF3
:101210009091D801892B9091D901892B11F00E94CE
:101220009A0886E0FE013196A4EDB1E001900D929E
:101230008A95E1F726960FB6F894DEBF0FBECDBFB4
:10124000DF91CF911F910F91FF90EF900895209122
:101250000B018AE0289F900111242417350708F01C
:10126000BDCF9F5F9093D20102C09F3FD1F7EE2088
:1012700059F00E9444079FEF1E140CF491E0899FDF
:10128000802D11248093D601FF2059F00E9444073D
:101290009FEF1F140CF491E0899F802D11248093FF
:1012A000D7013091D601332309F498CF2091D7018B
:1012B000222309F493CF45EB3403C0011124992371
:1012C00059F09093D60145EB240390011124332368
:1012D00039F03093D70182CF81E08093D601F3CFEC
:1012E00081E08093D7017ACF209107018AE0289F7F
:1012F000900111242417350708F085CF9F5F909344
:10130000D10102C09F3FD1F7002359F00E948E0700
:101310009FEF10160CF491E0899F802D112480938B
:10132000D801112359F00E948E079FEF11160CF47B
:1013300091E0899F802D11248093D9013091D801AB
:10134000332309F460CF2091D901222309F45BCF24
:1013500045EB3403C0011124992359F09093D8012F
:1013600045EB240390011124332339F03093D90144
:101370004ACF81E08093D801F3CF81E08093D901F7
:1013800042CF86E0E4EDF1E0DF011D928A95E9F7B6
:101390001092D2011092D1011092D3010895EF92D0
:1013A000FF920F931F93CF93DF93EB01E82FD1119F
:1013B00010C0442321F0F0E0EA5FFC4FE4916E2F6F
:1013C0007E2F8E2FDF91CF911F910F91FF90EF9085
:1013D00008950D2F10E0282F30E0442329F02A5FD4
:1013E0003C4FF901249130E0F6E0CF9FC001112479
:1013F000EFEFF0E0BF010E948028AB018C2F90E05E
:10140000880F991FA5E5A49FB001A59F700D112419
:10141000861B970B982F990F980FBF01601B710BBC
:10142000629FD001639FB00D729FB00D11248B2F6E
:101430009D9FB0011124672F7727EF01C61BD70BA3
:10144000BE01629FE001639FD00D729FD00D1124F9
:101450007F01E91AF108E09EB001E19E700DF09E57
:10146000700D1124672F7727E61BF70BE29F800191
:10147000E39F100DF29F100D1124E12F722F4230C7
:10148000510599F048F44115510569F04130510575
:1014900081F0EB2F8D2F07C04430510569F080F0AB
:1014A00046305105B1F76E2F8DCFE22F7B2F812F64
:1014B000FACFE22F7D2FF7CFEB2F822F712FF3CFB3
:1014C0007B2F822FED2FEFCF41E00C94CF090895B1
:1014D0000C94640ACF93DF93762FE901682F842F51
:1014E0000E94680A798368838A83DF91CF91089587
:1014F0008091E802982F9E7F29F48170826080930A
:10150000E80208958635E8F381708465F8CF88E0B5
:1015100090E00C947229CF92DF92EF92FF926B01D0
:101520007C010E94780AB701A60188E090E0FF9054
:10153000EF90DF90CF900C949029E8EEF2E083E0FA
:10154000808311828FEF8283838314826081718113
:10155000828193810C948B0A8091E80280FF02C003
:101560008695089580E008959091EC02933018F4E8
:101570009F5F9093EC02882351F06091E802709194
:10158000E9028091EA029091EB020C948B0A089593
:1015900081E00C94B40A9091EC02992319F09150D7
:1015A0009093EC02882351F06091E8027091E90277
:1015B0008091EA029091EB020C948B0A089581E0ED
:1015C0000C94CB0A70E00C94B311609110018091DF
:1015D000E80280FF0AC080910F0123E0829FC001D2
:1015E000112483519D4F0C94E20A80911101909136
:1015F000120123E0829FF0011124E351FD4F89176E
:1016000050F71182108212828F5F3396F8CF90913B
:10161000E80290FF14C0909111012091120133E073
:10162000939FF0011124E351FD4F921710F00C9499
:10163000E50A8183608342839F5F3396F6CF0895E6
:10164000CF93DF9300D00F92CDB7DEB79091E80231
:1016500090FF0AC09E012F5F3F4F0E946A0A4B8194
:1016600069818A810E94070B0F900F900F90DF9184
:10167000CF910895CF93DF93EC01EC81F0E0EF5F21
:10168000FD4F4491E8EEF2E0628181810E94200BDF
:101690008C818F5F8C83DF91CF910895CF93DF93FF
:1016A000EC01E8EEF2E0438162818C810E94200B24
:1016B0008C818F5F8C83DF91CF9108950F931F935F
:1016C000CF93DF9300D00F92CDB7DEB78C0180911E
:1016D000DA0181110AC09E012F5F3F4F4FEF6FEF7C
:1016E0000E946A0A8A818093DA01F801648161307C
:1016F00069F08091DA0140E0662361F040E06230F9
:1017000011F44091DA0180E060E004C06091DA01F8
:1017100040E080E00E94070BF801848190E0019690
:1017200063E070E00E94942884830F900F900F90E4
:10173000DF91CF911F910F910895AF92BF92CF92F9
:10174000DF92EF92FF920F931F93CF93DF9300D01E
:101750000F92CDB7DEB7182FF62E042FE22E909100
:10176000E80290FF29C0E92FE695AE2FB0E0A55919
:10177000BE4F8C91809316029E7F923059F59E0148
:101780002F5F3F4F812F0E946A0A4B8169818A81B6
:101790000E94070B1093E902F092EA020093EB0219
:1017A000EE2051F06091E8027091E9028091EA0226
:1017B0009091EB020E948B0A0F900F900F90DF9197
:1017C000CF911F910F91FF90EF90DF90CF90BF903E
:1017D000AF900895823019F40091EB02DBCF863090
:1017E00019F41091E902D6CF8930D9F3893191F6F5
:1017F000E9518E2F8170D82EE695F0E0EF5FFC4F17
:10180000A590B490C12CBB2460911301C61618F0AA
:101810000E94E50ABFCF2C2D30E0A29EC001A39EFE
:10182000900DB29E900D112470E00E948028812FAF
:10183000D11013C0860F40911101420F532F511D3B
:101840009A01220F331F240F351F23513D4F402F84
:101850006F2D0E946A0AC394D7CF861BECCFE8EEA7
:10186000F2E09181282F4381628188E0890F0C94F6
:101870009D0B81E00C942F0CE8EEF2E09181282F73
:101880004381628188EF890F0C949D0B81E00C9459
:101890003C0CE8EEF2E0628128E0620F08F46FEFA2
:1018A000282F438181810C949D0B81E00C94490C7D
:1018B000E8EEF2E0628128E0621B08F460E0282F85
:1018C000438181810C949D0B81E00C94580CE8EECF
:1018D000F2E0438128E0420F08F44FEF282F6281A5
:1018E00081810C949D0B81E00C94670CE8EEF2E092
:1018F000438128E0421B08F440E0282F6281818167
:101900000C949D0B81E00C94760C20E00C949D0BC4
:10191000EF92FF921F93CF93DF93EC0110E0EE2440
:10192000EA94F12C60911301161770F00E94E50AF9
:101930009A818C8190FF27C08F5F8C83DF91CF913C
:101940001F91FF90EF90089520911101422F410FB8
:101950005527551FCA019A01220F331F280F391F1F
:1019600023513D4F70E0C7010E949428962F8C812F
:101970004091EB026091EA02199F800D11240E94B0
:101980006A0A1F5FCFCF8150D8CFAF92BF92CF925C
:10199000DF92EF92FF920F931F93CF93DF93FC019F
:1019A00082810FEF80FF01E010E04AE0A42E8091D9
:1019B00013011817C8F00E94E50A8091DC0101307C
:1019C00009F055C0811102C08091130181508093AC
:1019D000DC01DF91CF911F910F91FF90EF90DF908D
:1019E000CF90BF90AF900895C0911101C12ED12C1E
:1019F000CC0DDD2DD11DCE01880F991FC80FD91F29
:101A0000C351DD4F198218821A8234E0E32EF12C83
:101A1000B12C8091DC018B0D8B301CF16A2D0E9462
:101A20007228892F082E000C990BC816D90691F43C
:101A30008091EB028E9DA0018F9D500D1124559534
:101A40004795559547959E016091EA028091E9027C
:101A50000E946A0AB00EF1E0EF1AF108D1F61F5F9A
:101A6000A6CF87FFDFCF90911301890FDBCF90E0E6
:101A700001966091130170E00E949428A8CF0F9303
:101A80001F93CF93DF93809111019091120123E076
:101A9000829FF0011124E351FD4F891740F1C0E00E
:101AA000D3E060911301C61740F10E94E50A20912E
:101AB0000D018091DB01820F8093DB0190910E017B
:101AC000920F90930E01191654F4082E000C990BE6
:101AD000409113014150550B841795071CF0219537
:101AE00020930D01DF91CF911F910F9108951182E5
:101AF000108212828F5F3396D0CF0C2F10E070E0EF
:101B0000C8010E94942820911101820F482F50E0B3
:101B10002091DB01022E000C330B02171307BCF0DF
:101B200020910E01022E000C330B201731077CF0A0
:101B30008D9F9001112423513D4F4091EB02609104
:101B4000EA028091E9020E946A0ACF5FAACFFA01F5
:101B5000EE0FFF1FE40FF51FE351FD4F11821082BE
:101B60001282F3CF8F929F92AF92BF92CF92DF9269
:101B7000EF92FF920F931F93CF93DF93EC014C8171
:101B8000042F10E09801D8010E94D8289B01AC01D5
:101B90000E94EE284B015C01E0E2F0E0E01BF10B5B
:101BA000A5E5B0E0AC019B010E94EE286B017C0131
:101BB0009F01DF010E94D0289B01AC010E94F928FF
:101BC0009B01AC01280D391D4A1D5B1DC701B601E3
:101BD0000E94A828F22E822F90E039E23F1560F192
:101BE00043E0249F9001112435952795122F1095DD
:101BF00000E085E5E82EEF1880911301081758F1F1
:101C00000E94E50A9C8181E0992319F0903219F431
:101C10008FEF80930C0180910C01890F8C83DF91F1
:101C2000CF911F910F91FF90EF90DF90CF90BF90D9
:101C3000AF909F908F90089525E530E0B901681B23
:101C4000790B9B01220F331F260F371F37FFCCCF95
:101C50002F5F3F4FC9CF8E2D01FD8F2D2091110198
:101C6000622F600F7727771F9B01220F331F260FEC
:101C7000371F23513D4F412F6091EA020E946A0AAB
:101C80000F5FBACF0F931F93CF93DF93EC0110E058
:101C900000E0909113019017110609F06CF40E9476
:101CA000E50A8C8190E00196817099278C83DF9101
:101CB000CF911F910F91089520911101A801420F1A
:101CC000511D9A01220F331F240F351F23513D4F01
:101CD0004C816091EA028091E90296959017110675
:101CE00051F04CF0442349F04091EB020E946A0A03
:101CF0000F5F1F4FCECF4423B9F340E0F7CF4F9291
:101D00005F926F927F928F929F92AF92BF92CF928B
:101D1000DF92EF92FF920F931F93CF93DF93FC011B
:101D20006280448081E08483E1E0F2E07490E0E846
:101D3000F2E0E491812C75E0972EF2E0CF2EDD24C5
:101D4000D394AA24AA94B12C55245A94E7190E2F9F
:101D500010E080911301881690F0DF91CF911F91D0
:101D60000F91FF90EF90DF90CF90BF90AF909F903A
:101D70008F907F906F905F904F900C94E50AE82CC5
:101D8000F12C82E0861568F09E9CF0019F9CF00D7E
:101D90001124E352FE4F8091E90280838091EA0290
:101DA0008183411023C09E9CF0019F9CF00D112463
:101DB000E352FE4F1382128220911101C701820F5C
:101DC000911D9C01220F331F280F391F23513D4FB6
:101DD0009E9CF0019F9CF00D1124E352FE4F428126
:101DE000618180810E946A0A8394B3CF9E9CE00146
:101DF0009F9CD00D1124C352DE4F8B818823E9F0C4
:101E000081508B83859DC00111246C8170E00E94FC
:101E10008028FB01FF27EF5FFD4F8491E82FE71932
:101E2000E59DC0011124B8010E9480288091EB0239
:101E3000689FB00111247A83BFCF0E944D29209161
:101E4000EB02269521582C9DA0012D9D500D1124AB
:101E5000452F5527841795070CF0AECF82E08615E5
:101E600088F40E944D29B5010E94942888830E941D
:101E70004D292091EA022695622F70E00E94942855
:101E8000280F29839E9CF0019F9CF00D1124E352A2
:101E9000FE4F12828091EB02893C58F088EC9E9CA8
:101EA000F0019F9CF00D1124E352FE4F8483838345
:101EB00083CF8431A0F784E1F2CFE8EEF2E08081B5
:101EC0008E7F808360817181828193810E948B0AE1
:101ED000109217022FEF80E792E02150804090404F
:101EE000E1F700C000000C94E50A6091E8026695F5
:101EF00070E04BE050E084E191E00E945D29892B85
:101F000019F481E0809317020E94472190931002F8
:101F100080930F0208959091E80290FF35C0917070
:101F2000811128C092609093E802662351F060917D
:101F3000E8027091E9028091EA029091EB020E941E
:101F40008B0A6091E802669570E04BE050E084E116
:101F500091E00E945D29892BA1F01092170281E087
:101F6000809312024091EB026091EA028091E902B3
:101F70000C94850C8B3210F09465D5CF880F982B7C
:101F8000D2CF0E94750FEBCF0895682F9091E80291
:101F9000969581E0890F8B3208F081E00C948B0FCD
:101FA00081E00C94C50F682F9091E80296958FEF11
:101FB000890F09F48AE20C948B0F81E00C94D30F03
:101FC00061E00C948B0FE8EEF2E080818160808309
:101FD00086950C94E00F8091E80280FD0C945D0FD3
:101FE0000C94E30F60E00C948B0F8091150281112B
:101FF0002EC00E945C1F811104C00E9401200E941B
:102000009D0A0E94870A6093E8027093E902809318
:10201000EA029093EB026E7F61F40E949D0A0E9497
:10202000870A6093E8027093E9028093EA02909332
:10203000EB020E94780A109217028091E80280FF5A
:1020400003C086950E94F20F81E0809315020895E7
:102050000F931F93CF93DF9380911702882309F486
:1020600096C080911602E091E802E695E81BE093A5
:102070001102823091F5F0E0E350FE4FE491CE2F53
:10208000D0E00AE31BE080911202882361F01092F5
:1020900012020E9447219093100280930F02109227
:1020A0001402109213020E944721E0910F02F09156
:1020B00010028E1B9F0B8F3F9F4708F068C0EC0FEC
:1020C000FD1FF0931002E0930F028FE092E0F80101
:1020D000DF91CF911F910F910994863049F4F0E080
:1020E000E650FE4FE491CE2FD0E00EE41BE0CBCFC4
:1020F000893051F4E695F0E0E950FE4FE491CE2F9F
:10210000D0E008E81CE0BFCF8F3051F4E695F0E056
:10211000EC50FE4FE491CE2FD0E005EC1CE0B3CFA5
:10212000853149F4F0E0EF50FE4FE491CE2FD0E03E
:102130000FE31DE0A8CFC8E2D0E002EB1DE088313C
:1021400009F4A1CF833239F4EFEEF1E0C591D491D7
:102150000EE51BE098CFC4EFD1E002E41EE084322C
:1021600009F491CFC0EDD7E007E61AE0853209F017
:102170008ACF8E2F63E00E946628E92FF0E0E451B9
:10218000FE4FE491CE2FD0E00FE71EE07CCFDF9131
:10219000CF911F910F910895FA01811101C0FB01A8
:1021A0000994CF93DF93C82FD62F0E94AC0A8C17C7
:1021B00040F00E94AC0A8D1720F4DF91CF910C946F
:1021C000D00F8C2FDF91CF910C94E00F1F93CF9302
:1021D000DF93EC01FB011281112309F4C2C00E94BC
:1021E000971E8272CD3CFCE5DF0709F4A0C008F021
:1021F00044C0C73CECE5DE0709F485C0F0F4C43CFC
:102200009CE5D90709F475C048F4C33CDC4509F4E2
:102210006CC0812FDF91CF911F910895C53C9CE543
:10222000D90709F46BC046E45CE069E37CE0C63C96
:10223000DC4579F70E94CC105AC0CA3CFCE5DF07A8
:1022400009F46BC068F4C83CECE5DE0709F460C033
:1022500045E55CE064E67CE0C93CDC4559F3D9CF58
:10226000CB3C9CE5D90709F45DC04FED5AE068EC22
:102270007AE0CC3CDC45F1F2CCCFC23DFCE5DF0797
:1022800009F464C098F4CF3C9CE5D90709F458C020
:1022900008F452C0C03DFCE5DF0709F454C0C13D5D
:1022A000DC4509F0B6CF6EE089E01CC0C53D9CE579
:1022B000D90709F451C058F4C33DFCE5DF0709F420
:1022C00048C0C43DDC4509F0A4CF88E136C0C63D16
:1022D0009CE5D90709F443C06AE285E2CE35DD45C5
:1022E00009F097CF0E94D11002C00E94EB0F10E0BE
:1022F00090CF4DED5FE060ED7FE09CCF40ED5FE083
:102300006DED7FE097CF49E35CE066E47CE092CF3F
:1023100044E65CE065E57CE08DCF42E85CE063E7A5
:102320007CE088CF43E75CE062E87CE083CF48EC68
:102330005AE06FED7AE07ECF81E00E94E00FD7CFC8
:1023400065E082E0CFCF68E086E0CCCF64E18FE04B
:10235000C9CF67E185E1C6CF62E289E1C3CF83E2FD
:10236000ECCF11E056CF519A4BB14D7F5BB152602B
:10237000EFB7F8949B01220F331F260F371F280F4A
:10238000391F2817390741F4EFBF8FE594E0019713
:10239000F1F700C000000895DC016D91CD0178E0F7
:1023A0005BB9000000C067FF4BB9660F000000C0BA
:1023B00000C000C04BB900C07A9591F7E2CF0F93EF
:1023C0001F93CF93DF93C42FD22FFC0182818823E8
:1023D000C9F040931A020E944721909319028093FA
:1023E000180280E28C0F883008F050C0C77081E07E
:1023F00001C0880FCA95EAF7DF91CF911F910F9125
:102400000C947E1610911A02141335C08091180294
:10241000909119020E945F21883C910560F5C0E20D
:10242000CD0F1D17B9F080E2810F883040F417708E
:1024300081E001C0880F1A95EAF70E948516C8301E
:1024400048F481E09D2F977001C0880F9A95EAF7B4
:102450000E947E16802F0E947616C830B8F4D7707E
:1024600081E001C0880FDA95EAF7DF91CF911F91E3
:102470000F910C94851680E28C0F883038F4C77069
:1024800081E001C0880FCA95EAF7EFCFDF91CF91C5
:102490001F910F9108950F939C01CB01243F4CE5B0
:1024A000340759F1A8F4293DFCE53F0701F12A3D25
:1024B0004CE53407D1F1283D3C4591F406E221EE8C
:1024C00041EE68ED7CE50E94DF1180E00F910895F8
:1024D000263FFCE53F07E9F0B0F0273F3C45F9F027
:1024E000FC018281882339F110921A02EFCF07E2B2
:1024F00025EE45EE69ED7CE5E6CF06E221EE40EE05
:1025000064EF7CE5E0CF07E225EE44EE65EF7CE585
:10251000DACF06E221EE42EE66EF7CE5D4CF07E2A9
:1025200025EE46EE67EF7CE5CECF08E221E045EEF2
:102530006AED7CE5C8CF81E0C9CFCF93DF93EC0192
:10254000FB018281882309F419C1C230FCE5DF0751
:10255000C0F1C6319CE5D90730F09E012B5F3C45A8
:102560002930310570F50E946F1F9093D702809338
:10257000D602C031ECE5DE0709F4CFC008F05BC03D
:10258000C8308CE5D80709F4B6C088F5C430ECE54E
:10259000DE0709F4A8C0C0F4C2308CE5D80709F4FE
:1025A0009CC08091D6028260C330DC4509F498C09B
:1025B0008091D6029091D7020E947D1F0E94F71849
:1025C00080E0DF91CF9108958091D6028061C6307E
:1025D000ECE5DE0709F484C08091D6028860C7303C
:1025E000DC4508F47DC08091D602806279C0CC3091
:1025F0008CE5D80709F489C070F48091D6028C600C
:10260000CA30ECE5DE0709F46BC008F478C08091AD
:10261000D6028E7F65C0CE308CE5D80709F479C02C
:102620008091D6028B7FCF30DC4508F459C0809171
:10263000D6028F7E55C0CC3FECE5DE0709F457C0CB
:1026400030F5C3318CE5D80709F46FC078F4C13197
:10265000ECE5DE0709F465C0C231DC4509F0A8CF1E
:102660000E94F7188091D6028F773AC0C5318CE569
:10267000D80709F462C008F476C08091D70281605F
:10268000CB3FDC4509F094CF8093D70291CFC115A1
:10269000FDE5DF0709F44DC088F48091D7028D7FF6
:1026A000CE3F9CE5D90781F38091D7028E7FCF3F43
:1026B000DC4550F38091D7028360E6CFC230FDE560
:1026C000DF0709F459C008F444C080E0C330DD4599
:1026D00009F06ECF0E9403206BCF8091D6028160FB
:1026E0008093D60265CF8091D6028460F9CF809125
:1026F000D7028260C9CF8091D6028064F1CF0E9458
:10270000F7188091D6028068EBCF8091D6028D7F3A
:10271000E7CF8091D602877FE3CF8091D6028F7D6D
:10272000DFCF8091D6028F7BDBCF8091D602837F73
:10273000D7CF8091D7028C7FA7CF8091D60282FB22
:10274000992790F921E0922790FB82F990FB83F979
:10275000C7CF8091D702982F909591708E7F892B4B
:1027600090FB81F991CF0E94F7189091D602892FA2
:1027700097FB87F98058B4CF81E0ACCF81E021CFBF
:10278000CF93DF93EB0186319C4511F50E94971E94
:102790009A81992399F08A7A91E009F490E09093D4
:1027A0001B02811109C089E20E94511E0E94E71E8E
:1027B00080E0DF91CF91089585E3F6CF80911B02F1
:1027C000811104C089E20E94581EF0CF85E3FBCF3F
:1027D00081E0EFCF90932102809320020895E09151
:1027E0002002F0912102309721F00190F081E02D3C
:1027F000099480E00895E0912002F0912102309741
:1028000099F020912B01222359F02091D60227FF25
:1028100007C0DC012C9111962C93119725E02C9385
:102820000280F381E02D09940895E0912002F09157
:102830002102309739F022E0DC012C930480F581ED
:10284000E02D0994089520911E0230911F0228174F
:10285000390771F090931F0280931E02E0912002CD
:10286000F0912102309721F00680F781E02D099444
:10287000089520911C0230911D022817390771F02C
:1028800090931D0280931C02E0912002F09121029E
:10289000309721F00084F185E02D099408950E947D
:1028A000532160932F0270933002809331029093F2
:1028B000320260932B0270932C0280932D0290932E
:1028C0002E02089585B7806885BF85B7806885BF6B
:1028D0000895089508950C94691408950C946D1446
:1028E0000E94621484E59FE10E94A3210E946A1461
:1028F0000C946B1481E008950C947A140895089553
:102900000E947E140C947F140E943E210E944C066B
:102910000E94F50F0C946E148F929F92AF92BF920B
:10292000CF92DF92EF92FF920F931F93CF93DF939B
:10293000CDB7DEB72A970FB6F894DEBF0FBECDBF76
:102940000E948A0681110E944F1453E2852E52E0A4
:10295000952E10E000E0A02E802F0E9423066C012F
:10296000F401E190F1904F01E816F90609F45EC018
:102970008091B20281FD0E942C06C7018C259D2505
:10298000B12CEE24E394F12C9C012E213F21232B2A
:1029900009F446C00E947C148823A9F0BE82AF824D
:1029A000CE20DF2081E0CD2809F480E088870E94D6
:1029B00047218160782F9A8789874E815F8168855A
:1029C0008A850E944015000F111FF801ED5DFD4F33
:1029D00080819181E826F926F182E0820E94281008
:1029E0000E94B5080E94EF13909122028917A9F165
:1029F0000E94EF13809322022A960FB6F894DEBF4E
:102A00000FBECDBFDF91CF911F910F91FF90EF903F
:102A1000DF90CF90BF90AF909F908F900C94C703A2
:102A2000B394EE0CFF1CFAE0BF12AECF0F5F1F4F46
:102A30000430110509F08FCF8FEF89838A831B82C1
:102A40000E9447218160782F9D838C8349815A8120
:102A50006B818D810E944015C1CF2A960FB6F894E4
:102A6000DEBF0FBECDBFDF91CF911F910F91FF90C1
:102A7000EF90DF90CF90BF90AF909F908F90089590
:102A8000DF92EF92FF920F931F93CF93DF93CDB717
:102A9000DEB72B970FB6F894DEBF0FBECDBF7A8797
:102AA0008B87F42E052F162FE72ED82E61110E944A
:102AB000B71E1E821D827E2DEC82DD824F2D502F8F
:102AC000612F8D2D9E812B960FB6F894DEBF0FBE21
:102AD000CDBFDF91CF911F910F91FF90EF90DF90CD
:102AE0000C946D1BFC01808191810C94231ECF936B
:102AF000C82F882309F48BC08238C1F40E94EF13D9
:102B000081FD85C089E30E94511E0E94E71E2FEFC0
:102B100081EE94E0215080409040E1F700C0000039
:102B200089E30E94581ECF910C94E71E8338A1F4CC
:102B30000E94EF1380FD6BC083E50E94511E0E942E
:102B4000E71E2FEF81EE94E0215080409040E1F7A6
:102B500000C0000083E5E5CF8438A1F40E94EF13A4
:102B600082FD55C087E40E94511E0E94E71E2FEF90
:102B700081EE94E0215080409040E1F700C00000D9
:102B800087E4CFCF8CEF8C0F813A90F46C2F80913B
:102B90001F01909120010E941C20882329F08C2F76
:102BA0000E94581E0E94E71E8C2F0E94511EBBCF10
:102BB00080E28C0F883048F4C77081E001C0880F34
:102BC000CA95EAF70E949A1EAECFEBE5EC0FE33010
:102BD00040F4F0E0EC53FE4F808190E0CF910C94F4
:102BE0002314E8E5EC0FE73150F4F0E0EE0FFF1F9F
:102BF000EA56FE4F80819181CF910C943914CD3EDD
:102C000030F08C2F0E94C707CF910C949A08CF9177
:102C10000895882309F452C0823871F40E94EF139A
:102C200081FF4CC089E30E94511E0E94E71E89E388
:102C30000E94581E0C94E71E833859F40E94EF132B
:102C400080FF3CC083E50E94511E0E94E71E83E581
:102C5000EFCF843859F40E94EF1382FF2FC087E42E
:102C60000E94511E0E94E71E87E4E2CF9CEF980F5E
:102C7000913AF0F290E2980F983050F4877091E01A
:102C800001C0990F8A95EAF7892F0E94A01ED2CF22
:102C90009BE5980F933020F490E080E00C9423148F
:102CA00098E5980F973120F490E080E00C94391467
:102CB0008D3E20F00E9421080C949A0808951F93DD
:102CC000CF93DF93182FEB010E947715209731F4F3
:102CD000812FDF91CF911F910C9409168FE99FE00E
:102CE0000197F1F700C000002197F0CF70E060E09D
:102CF000893311F460E570E00C945F16882321F0AD
:102D00000E949A1E0C94E71E0895882321F00E94C9
:102D1000A01E0C94E71E0895BF92CF92DF92EF920F
:102D2000FF920F931F93CF93DF936C01D62FC72F82
:102D3000FC011281058102950F700E946F1EE82E22
:102D40008823A1F0E12E112389F08C2F807F80341D
:102D500029F080E28D0FE12C883040F082E00E9463
:102D6000381F0E946F1E91E0E82EE926BC2EB29417
:102D70009FE0B922EB2DF0E0ED52F64D0C94CA28FD
:102D80000C2F0F70C07F11F00295007F1123A9F066
:102D9000002359F080E28D0F883010F0D11109C066
:102DA000802F0E949A1E0E94E71E8D2F0E94771589
:102DB00014C0802F0E94AA1EF6CF8D2F0E940916E4
:102DC000002359F080E28D0F883010F0D1112CC013
:102DD000802F0E94A01E0E94E71E2B2D2850330B2F
:102DE0002430310520F40E94EF130E94C703EE2027
:102DF00009F49EC10E946B1E80FD9AC1F6011282E9
:102E00000E94651E0E94F11CC6010E94B9180E9412
:102E1000651EDF91CF911F910F91FF90EF90DF9092
:102E2000CF90BF900C94121D802F0E94B01ED3CF64
:102E3000FC2FFF70FF2EC07FC03219F0F29480EF9C
:102E4000F822DD2369F0D13049F1112391F10023FB
:102E500051F1F601858180FFA8CF8F70858323C053
:102E6000112381F0011106C00E94CA1E8F290E9401
:102E70007E16B3CF0130C1F70E94CA1E8F290E946F
:102E8000D01EABCF011106C00E94DD1E8F2D0E9407
:102E90008516A3CF013009F4A0CFF6CF112329F076
:102EA000063008F09ACF8F2DE2CF053008F095CF8D
:102EB000EDCF002359F3D93349F4FFEF27EE33E088
:102EC000F15020403040E1F700C000008D2F0E94FB
:102ED000091683CF8C2F86958695837069F0813093
:102EE00009F07BCF8D2F9C2F9370111102C090E0C1
:102EF00080E00E94391471CF8D2F9C2F9370111197
:102F000002C090E080E00E94231467CF8D2F112330
:102F100029F00E94C7070E949A085FCF0E942108EB
:102F2000FACF8C2F837009F041C0111156CF4D2F6D
:102F3000429546954770440F440F0D2F0F7010E0D7
:102F400030E020E0042E04C0000F111F221F331FA9
:102F50000A94D2F760E070E0CB01D4FF0FC06FE0BD
:102F600070E080E090E004C0660F771F881F991F13
:102F70004A95D2F76095709580959095C695C695BF
:102F8000C370602B712B822B932BC23049F058F405
:102F9000C13019F00E94A31C20CF0E94911C1DCFAC
:102FA0000E94B51C1ACF0E948F1C17CF8695112343
:102FB00011F08C2F8170882309F40FCF4D2F42958B
:102FC00046954770440F440F0D2F0F7010E030E00E
:102FD00020E0042E04C0000F111F221F331F0A948B
:102FE000D2F760E070E0CB01D4FF0FC06FE070E07B
:102FF00080E090E004C0660F771F881F991F4A95F4
:10300000D2F76095709580959095C695C695C370DA
:10301000602B712B822B932BC23049F058F4C130B6
:1030200019F00E94681DD9CE0E94561DD6CE0E946E
:103030007A1DD3CE0E94CB1CD0CECF70112329F0A5
:103040008C2F0E94F11C8D2F12CF8D2F0E94851680
:103050008C2F0E94121DC1CED23F89F160F4D03F67
:10306000C9F0D13F29F1112309F442C001119DCECD
:103070008C2F8F7121C0D33F39F1D43FA1F7112399
:1030800069F1CF718C2F0E94F11C63E08C2F0E949C
:103090001D1FA3CE112341F0053008F09ECE8C2FCA
:1030A0008F710E94351D99CE063008F096CEF7CF6D
:1030B0008C2F8F71112369F20E94F11C8ECE8C2F00
:1030C0008F711123C9F3C5CF112329F08C2F8F7174
:1030D0000E94DC1C82CE0E94D71C7FCE81E00E9421
:1030E000381F023008F479CE82E00E94381F75CE76
:1030F000002359F0D93309F0E9CE8FEF97EEE3E0E2
:1031000081509040E040E1F7DFCE8C2F8F71A1CF4E
:103110004C2F4F706D2FC6010E94CF030E94071CD9
:103120005CCE4C2F4F706D2FC6010E94D20355CE3E
:10313000DF91CF911F910F91FF90EF90DF90CF9093
:10314000BF9008950F931F93CF93DF93EC01688195
:1031500079818A810E942D1E8C010E948C1D0E9403
:103160008E1CB801CE01DF91CF911F910F910C946D
:103170008C16CF93DF93EC018B819C81892B29F0F6
:103180008881998189238F3F59F4DF91CF910895E8
:10319000CE010E94A218CE01DF91CF910C9447037B
:1031A000CE010E9468038111F3CF0E946F1E882315
:1031B00061F38A81882349F382E0DF91CF910C94F7
:1031C000381F90E080E00E94231490E080E00E948D
:1031D00039140E94B71E0E94C71E0E94E71E0E945B
:1031E000C1090C949A080E945F1E0C94E1180E9479
:1031F000A71E0C94F318E92FE295EF70E250EE3021
:1032000070F4F0E0ED51F64D0C94CA28803F19F0AF
:1032100020F4883E20F481E00895843FE1F380E0CB
:103220000895883EC0F3813FD1F7F5CF93FB8827FF
:1032300080F908950E94231E0C94FB18CF93DF930E
:1032400000D000D00F92CDB7DEB70F900F900F9047
:103250000F900F90DF91CF910895CF93DF9300D01F
:1032600000D000D0CDB7DEB726960FB6F894DEBFFB
:103270000FBECDBFDF91CF9108951F93CF93DF9302
:10328000C091340216E0809135028C1304C0DF91A6
:10329000CF911F910895D0E01C9FF0011D9FF00D6C
:1032A0001124EA5CFD4F40815181628173818481E8
:1032B00095810E942D192196C770E5CF4091660235
:1032C00050916702609168027091690280916A0270
:1032D00090916B020C942D191F93CF93DF938091E3
:1032E0006B02807FA9F480916802882389F0809125
:1032F0003402C09135026091660270916702A0911C
:103300006902B0916A02D62FD72316E0C81304C011
:10331000DF91CF911F91089590E0109711F0DF3F5A
:1033200019F401968770F2CF189F9001199F300D04
:103330001124F901EA5CFD4F41814713F2CF40812E
:103340004613EFCF42814111ECCF438154814A1B98
:103350005B0B483C510528F780916B028F708061B0
:1033600080936B02F901E55CFD4F80818F70806175
:10337000808386E692E00E94B918DF91CF911F9179
:103380000C943D19AF92BF92CF92DF92EF92FF92D1
:103390000F931F93CF93DF93CDB7DEB761970FB62F
:1033A000F894DEBF0FBECDBF8C0185E0F801DE01D1
:1033B0001D9601900D928A95E1F7F80140815181A7
:1033C000E28086E6C82E82E0D82E60916902709174
:1033D0006A026115710509F461C19091660220913C
:1033E0006702892F82238F3F09F458C1A380B480DC
:1033F000F0906802F501E61BF70BFF2009F4FCC012
:1034000080916B02382F307FE83CF10508F0B2C0A4
:10341000311179C0FE2C251323C0941321C0E11073
:103420001FC08F70806180936B020E945E19C6017D
:103430000E94B91880916B02F80185838F2D6196E7
:103440000FB6F894DEBF0FBECDBFDF91CF911F91B5
:103450000F91FF90EF90DF90CF90BF90AF900895C5
:10346000AB2829F0842F85238F3F09F033C180E0FA
:10347000F82FF170DF2E80FF3CC080913402209144
:10348000350236E0821315C04D875E878D859E8597
:103490000E94231E292F22952F702230F0F0243015
:1034A00018F59F70F1F0F8019581907FD1F4D12C3F
:1034B0001EC090E0389FF001399FF00D1124EA5CA6
:1034C000FD4F6181651306C06081641303C0628192
:1034D0006E110FC001968770D5CF9F7011F08823B1
:1034E00031F3805E883018F3C8010E94B918FD2CB2
:1034F000A5CFEE2009F4A2CF80916B02816080936A
:103500006B02F12C9BCF251306C0941304C0F80165
:10351000EE2009F48DC04D875E878D859E850E94C3
:103520001A19882319F1EE2009F180916B0280327B
:1035300070F0209166023091670238872F831986D8
:10354000BB86AA868C87CE0107960E94B91886E0B2
:10355000F801A6E6B2E001900D928A95E1F70E948B
:103560006C190E945E19FF24F39468CFC8010E9471
:10357000B918F9CF311113C07A2DB98AA88A6E2DE6
:1035800089890E941E1986E692E00E94B91886E099
:10359000F60111928A95E9F70E945E19B2CF2513C0
:1035A0000FC094130DC0E1100BC0F8018583C80152
:1035B0000E94B91886E0F60111928A95E9F73ECF8C
:1035C0004D875E878D859E850E941A19882371F22A
:1035D000EE2061F280916B02803208F4B8CF209126
:1035E0006602309167023A8329831B82BD82AC82D6
:1035F0008E83CE010196A9CFE83CF10508F041C0C9
:10360000FE2CEE2009F4B2CF25132AC0941328C053
:1036100080916B0280FD1BC0982F907FC1F0F80154
:103620008583903F31F0982F907F905F8F70892B2A
:103630008583C8010E94B91886E0F801A6E6B2E0C9
:1036400001900D928A95E1F70E945E19F7CE86E00F
:10365000F801A6E6B2E001900D928A95E1F7EECE70
:103660004D875E878D859E850E941A1981116FCFC7
:1036700080916B02816080936B02C8010E94B9182F
:10368000DDCE7A2DB98AA88A6E2D89890E941E19ED
:1036900086E0F60111928A95E9F7D6CFEE2009F47B
:1036A00065CF4D875E878D859E850E941A19F82EFD
:1036B000882309F45BCF86E0F801A6E6B2E001902A
:1036C0000D928A95E1F786E692E00E9472150E94BB
:1036D0006C19BACF81E08E25CBCE1F93CF93DF93A9
:1036E000CDB7DEB72C970FB6F894DEBF0FBECDBFB7
:1036F0004F83588769877A878B879C87CE01079687
:103700000E94C219882369F08A859B85892B39F02C
:103710004F815885842F85238F3F09F071C016E0B3
:103720005FC086E0FE013796DE01119601900D9292
:103730008A95E1F78A859B85892B89F38F81988506
:1037400089238F3F61F32091350230E0C901019652
:1037500087709927409134024817190671F40E9426
:10376000F718109235021092340286E0E6E6F2E095
:10377000DF011D928A95E9F7D2CF96E0929FD001A2
:10378000939FB00D1124AA5CBD4FFE0131960190AC
:103790000D929A95E1F7809335020E943D19BFCFB3
:1037A000819FC00111248A5C9D4F0E94C219882309
:1037B000E9F0E09134021E9FF0011124EA5CFD4F14
:1037C0004081518162817381848195810E942D198C
:1037D0008091340290E0019687709927809334029B
:1037E00080913402909135028913DACF2C960FB66E
:1037F000F894DEBF0FBECDBFDF91CF911F9108952A
:1038000069857A858B859C850E942D1988CFEF92DA
:10381000FF920F931F93CF93DF938C01892B81F03D
:10382000F12CEE24E394E8012196F8018491843789
:1038300070F4843008F05FC08130B1F08230A1F1C3
:10384000DF91CF911F910F91FF90EF9008958537F1
:1038500009F44CC008F43DC09CE7980F903780F7FE
:103860008F770E94091649C00E5F1F4FFE01849199
:1038700090E2980F983060F48770FE2D01C0FF0F22
:103880008A95EAF78F2F0E94BA1E0E94E71E02C097
:103890000E9477158F2D815030F2EFE9FFE03197CC
:1038A000F1F700C00000F7CF0E5F1F4FFE018491BB
:1038B00090E2980F983050F48770FE2D01C0FF0FF2
:1038C0008A95EAF78F2F0E94C01EDFCF0E9409164B
:1038D000E1CF0E5F1F4FFE01C491C150D8F28FE9B6
:1038E0009FE00197F1F700C00000F7CF0E5F1F4F78
:1038F000FE01F490CFCF0E9477158E01CBCF0895B3
:103900000C947F1C0E94801C6093890270938A0231
:1039100080938B0290938C020C94E11808950C9480
:10392000821C0F931F930091890210918A022091AB
:103930008B0230918C02602B712B822B932B1F9169
:103940000F910C94821C0F931F9300918902109188
:103950008A0220918B0230918C0260237123822392
:1039600093231F910F910C94821C0F931F9300912E
:10397000890210918A0220918B0230918C0260277B
:103980007127822793271F910F910C94821C0C940E
:103990007F1C0C94C71C0E94C91C60938502709305
:1039A000860280938702909388020C94E11860E06D
:1039B00070E0CB010C94CB1C0F931F9341E050E0BF
:1039C00060E070E08A019B0104C0000F111F221FFC
:1039D000331F8A95D2F7C901B8011F910F910C943A
:1039E000CB1C0F931F9341E050E060E070E004C0F7
:1039F000440F551F661F771F8A95D2F78091850265
:103A000090918602A0918702B09188028A019B0161
:103A1000082B192B2A2B3B2BC901B8011F910F91A1
:103A20000C94CB1C0F931F9341E050E060E070E0DA
:103A300004C0440F551F661F771F8A95D2F7CB012C
:103A4000BA016095709580959095009185021091CE
:103A5000860220918702309188026023712382239D
:103A600093231F910F910C94CB1C0F931F9341E054
:103A700050E060E070E004C0440F551F661F771FE0
:103A80008A95D2F78091850290918602A091870253
:103A9000B09188028A019B01082719272A273B2712
:103AA000C901B8011F910F910C94CB1C0F931F9368
:103AB0000091850210918602209187023091880240
:103AC000602B712B822B932B1F910F910C94CB1C8D
:103AD0000F931F9300918502109186022091870217
:103AE0003091880260237123822393231F910F91C9
:103AF0000C94CB1C0F931F930091850210918602AA
:103B000020918702309188026027712782279327AE
:103B10001F910F910C94CB1C08952AE0929F800D69
:103B20001124982F977041E001C0440F9A95EAF74D
:103B300086958695869595E0899FF0011124E45934
:103B4000FD4F90E080E070E05191DF0111979B0103
:103B5000082E02C0369527950A94E2F72170219528
:103B60002527242325272C9301968530910561F77D
:103B700008952AE0929F800D1124982F97708695C2
:103B80008695869525E0829FF0011124E459FD4F2A
:103B900050E040E080E0219130E0092E02C03695EF
:103BA00027950A94E2F721703327042E01C0220FD3
:103BB0000A94EAF7822B4F5F5F4F4530510559F762
:103BC0000895BF92CF92DF92EF92FF920F931F93CF
:103BD000CF93DF938C01C0908502D0908602E09055
:103BE0008702F09088028091890290918A02A091C8
:103BF0008B02B0918C02C82AD92AEA2AFB2ACFE18B
:103C0000D0E0BC2ED701C6010C2E04C0B695A795F6
:103C1000979587950A94D2F780FD0EC0219788F773
:103C2000B12C8B2DDF91CF911F910F91FF90EF90D1
:103C3000DF90CF90BF900895B8018C2F0E94EF03C2
:103C4000019761F3EECFCF93DF93EC010E94E11D6A
:103C5000BE01DF91CF910C94EF031F93CF93DF93BD
:103C6000EB0190913302992331F0CB01DF91CF9199
:103C70001F910C94231E882379F0CB010E94E11D33
:103C8000182F682FCE010E948D1DBE01812FDF915C
:103C9000CF911F910C94EF03CB010E94B91D182FF7
:103CA000F4CF682F80911F01909120010C949C20EB
:103CB000682F80911F01909120010C94A720809182
:103CC0001F01909120010C94B22080918D02859566
:103CD00085958595089580918D02877008959091BE
:103CE0008D02977081E009F480E008959091D702E9
:103CF00092FB222720F9281751F080FB92F990932C
:103D0000D7028091D6029091D7020C947D1F08951E
:103D10008091D70282FB882780F991E089270C9453
:103D2000761E81E00C94761E80E00C94761E8091C5
:103D3000B10208959091B102892B8093B102089548
:103D400080959091B10298239093B10208951092BA
:103D5000B10208959091B002892B8093B00208952A
:103D600080959091B00298239093B002089510929C
:103D7000B00208959091AF02892B8093AF0208950D
:103D800080959091AF0298239093AF02089510927E
:103D9000AF02089580918E02089508950C94CD1E6F
:103DA0009091D70292FD08C090918E02981721F051
:103DB00080938E020C94CE1E089580918E028823EB
:103DC00029F010928E0280E00C94CE1E0895E091AE
:103DD0001F01F09120018091B1028083E0911F01C9
:103DE000F091200180819091B002892B8083E09135
:103DF0001F01F091200180819091AF02892B808377
:103E000090918E02992381F0E0911F01F0912001A1
:103E10008081892B808380911F01909120010E94D5
:103E2000082081110E94DD1E80911F0190912001C8
:103E30000C94FB1308950C941A1F9091D70292FDD5
:103E400010C098E0899F90011124622B60938D022D
:103E50000E94F11C80918D028595859585950C9425
:103E60001B1F0C94F11C10928D0280E00C941B1F00
:103E700090918D028095892380938D02282F277041
:103E800039F4282F082E000C330B9217130621F457
:103E90009091D70292FF07C08595859585950E94E0
:103EA000121D0C94331F089580E008956FEF7FEF8B
:103EB00090E080E00C949C2990E080E00E947829BA
:103EC00021E08A3E9E4F09F020E0822F089582E093
:103ED00090E00C946A2983E090E00C946A29CF93D7
:103EE00084E090E00E946A29C82F82E290E00E945C
:103EF0006A29982F8C2FCF910895CF93C92F682FBF
:103F000084E090E00E947E296C2F82E290E0CF91C5
:103F10000C947E29AB01BC018FE090E00C949029B9
:103F2000AB01BC0183E190E00C94902960E070E06B
:103F3000CB010C94901F60E070E0CB010E948A1FBF
:103F40000C94961F6AEE7EEF90E080E00E949C2920
:103F500060E082E090E00E947E2960E083E090E0F3
:103F60000E947E291092890210928A0210928B027E
:103F700010928C0260E084E090E00E947E2960E074
:103F800082E290E00E947E2960E085E090E00E945D
:103F90007E2960E086E090E00E947E296FEF87E056
:103FA00090E00E947E2940E050E0BA0188E090E075
:103FB0000E94902960E08DE090E00E947E2940E020
:103FC00050E0BA0188E190E00E94902960E087E12A
:103FD00090E00E947E2940E050E0BA018CE190E040
:103FE0000E94902970E060E080E290E00E949C29AD
:103FF00040E050E0BA0188E190E00E9490290C94E2
:104000009B1F0C94A21F682F8EE090E00C947E29D9
:10401000FC01329680912B01882321F08091D602F9
:104020009EE187FF96E080E0915008F40895219189
:104030002223D1F38F5FF8CF662301F120912B016A
:104040002223F1F02091D60227FF1AC0462F469571
:10405000469546954E3190F4677021E030E002C0FD
:10406000220F331F6A95E2F7840F911DFC018281B4
:1040700090E02823392381E0232B69F480E0089520
:10408000FC01329608962191261721F0E817F907CE
:10409000D1F7F4CF81E008959C01FC0132969FEFA7
:1040A00080E04191461751F09F3F19F4411101C042
:1040B000982F8F5F8630A9F79F3F09F40895290F45
:1040C000311D97FD3A95F90162830895FC013296FE
:1040D00008962191261303C0DF0111971C92E8175F
:1040E000F907B9F70895E62FE695E695E695EE31DE
:1040F00068F4E80FF92FF11D677021E030E001C08E
:10410000220F6A95EAF78281822B82830895E62F37
:10411000E695E695E695EE3170F4E80FF92FF11D7E
:10412000677021E030E001C0220F6A95EAF7209520
:10413000828128232283089520912B01222329F0B4
:104140002091D60227FD0C9473200C944C202091D2
:104150002B01222329F02091D60227FD0C948720E1
:104160000C946620FC01329680912B01882351F03B
:104170008091D60287FF06C08EE1DF011D928A95ED
:10418000E9F7089586E0F9CF089508950C94C520C5
:1041900080911303843049F10E94C62080E00E9480
:1041A000C7031092B30288E190E020E40FB6F894C0
:1041B000A895809360000FBE2093600083B7817F35
:1041C000846083BF83B7816083BF7894889583B709
:1041D0008E7F83BF0FB6F894A895809160008861A8
:1041E00080936000109260000FBE08950895CF93F1
:1041F0000E94C4200E948A060E94F620C0E08C2FF4
:104200000E942306892B31F4CF5FC430C1F780E0D0
:10421000CF91089581E0FCCF08950C940C210E9469
:10422000F7180E94EF130E94C7030C940D211F92F0
:104230001FB61F9211248F939F93AF93BF938091CA
:10424000B302811113C080910B0390910C03A091D4
:104250000D03B0910E034196A11DB11D80930B0378
:1042600090930C03A0930D03B0930E03BF91AF91F5
:104270009F918F911F901FBE1F90189582E084BD63
:1042800093E095BD9AEF97BD80936E0008952FB788
:10429000F89480910B0390910C03A0910D03B091C1
:1042A0000E032FBF08952FB7F89460910B03709100
:1042B0000C0380910D0390910E032FBF08959C0174
:1042C0004FB7F89480910B0390910C03A0910D03CC
:1042D000B0910E034FBF821B930B089578941F92E9
:1042E0001FB61F9211248F939F93AF93BF9380911A
:1042F0000B0390910C03A0910D03B0910E03019656
:10430000A11DB11D80930B0390930C03A0930D038B
:10431000B0930E03BF91AF919F918F911F901FBEDD
:104320001F90189587E797E79093010880930008FE
:1043300088E19AE00FB6F894A895809360000FBECC
:1043400090936000FFCF9093C9018093C8010895B6
:104350008091D4020895CF93DF9300D00F92CDB710
:10436000DEB790911303943019F589837B836A83B8
:1043700082E08093E9008FEF9091E800815095FDF5
:1043800006C095ED9A95F1F700008111F5CF809167
:10439000E80085FF0DC050E040E063E070E0CE0132
:1043A00001960E94D5238091E8008E778093E800E3
:1043B0000F900F900F90DF91CF910895BC0184E092
:1043C0000C94AB21BC0183E00C94AB219C0182E0F6
:1043D0008093E9009FEF8091E800915085FD06C031
:1043E00085ED8A95F1F700009111F5CF8091E800F5
:1043F00085FF0CC050E040E066E070E0C9010E941B
:10440000D5238091E8008E778093E8000895CF93BC
:10441000DF93EC0180912B018823B1F18091D602CA
:1044200087FF32C060E282E08093E9008FEF9091D5
:10443000E800815095FD06C095ED9A95F1F70000D2
:104440008111F5CF8091E80085FF1BC080912B0181
:1044500070E050E040E0811104C050E040E068E0CE
:1044600070E0CE010E94D5238091E8008E77809382
:10447000E80080E2FE01A4EBB2E001900D928A9583
:10448000E1F7DF91CF91089568E081E0CDCF809191
:104490001203811109C00E9465250E94C2258091E6
:1044A000E20084608093E200089510921203089560
:1044B00008950895089542E061EC81E00E94E124AE
:1044C00042E261EC82E00C94E12480911503833098
:1044D00009F45FC030F48130C1F1823009F49BC02F
:1044E00008958A3009F487C08B3009F46DC0893093
:1044F00009F04EC080911403813209F049C08091C7
:10450000180390911903029708F042C08091E800C7
:10451000877F8093E8008091E80082FF35C090910A
:10452000F3008091F200029729F48091F1008B7FD3
:10453000813021F48091F1008093D4028091E800D1
:104540008B778093E8000C94152580911403813AB1
:10455000F9F48091E800877F8093E8008091180348
:1045600090911903892B61F460E284EB92E070E092
:104570000E9424248091E8008B778093E8000895BE
:1045800060E090E080E0F3CF809113038111C3CF0E
:10459000089580911403813AD9F78091180390917E
:1045A0001903892BA9F78091E800877F8093E800A1
:1045B0008091E80080FFFCCF80912B018093F10077
:1045C0008091E8008E77BDCF80911403813201F78E
:1045D0008091180390911903892BD1F68091E800FE
:1045E000877F8093E8000E941525809116038093B1
:1045F0002B010C94F71880911403813249F68091B5
:10460000E800877F8093E8000E94152580911703BA
:104610008093D502089580911403813A09F0B8CFB0
:104620008091E800877F8093E8008091E80080FF18
:10463000FCCF8091D502C2CF84B7877F84BF0FB6ED
:10464000F894A89580916000886180936000109232
:1046500060000FBE80E890E00FB6F8948093610090
:10466000909361000FBE0E9470140E9465250E9405
:10467000C2258091E20084608093E20078940E94D9
:104680004B280E94841481E291E00E94EA138091F9
:104690001303853099F00E948C140E948014F7CF88
:1046A0000E94C82080911103882341F00E94F720C6
:1046B000882321F00E94BF230E94F71880911303E2
:1046C000853071F30E940F21E6CF0C946723292FC8
:1046D00033272330310519F168F42130310509F40D
:1046E00044C02230310509F445C090E080E030E05C
:1046F00020E025C02132310549F122323105A9F7E8
:1047000080E490E021E335E061157105C1F086EBAE
:1047100090E02BE734E06130710589F0E6CF99270E
:104720008130910581F0009729F00297F1F6E6E0DB
:10473000F4E002C0EAE2F4E0849190E09F01FA0123
:10474000318320830895E4E1F4E0F6CF89E090E03E
:1047500020E434E06115710591F389E090E029E5EA
:1047600034E06130710559F3C0CF82E190E029E671
:1047700034E0E5CF8BE390E02EE234E0E0CF80E15F
:1047800089BD82E189BD09B400FEFDCF8091D800CA
:104790008F7D8093D8008091E00082608093E0005C
:1047A0008091E00081FDFCCF0895AF92BF92CF923F
:1047B000DF92FF920F931F93CF93DF936C01EB0176
:1047C0008A010E943425F82E811123C0011511059C
:1047D00039F0F80180819181C81BD90BC80ED91E10
:1047E000B12CA12C2097A9F08091E80085FD22C072
:1047F0008091E8008E778093E80001151105A1F003
:10480000F80180819181A80EB91EB182A08285E055
:10481000F82E8F2DDF91CF911F910F91FF90DF9098
:10482000CF90BF90AF9008950E9434258823D1F295
:10483000F82EEFCFF60181916F018093F10021975F
:10484000FFEFAF1ABF0ACECFFC0180911A039091FF
:104850001B0386179707A0F06115710529F4909145
:10486000E8009E779093E80090E06115710551F49F
:10487000911108C08091E80082FF34C080E0089563
:10488000BC01F2CF809113038823C1F18530C1F1BF
:104890008091E80083FD30C08091E80082FDEACF7E
:1048A0008091E80080FFE1CF8091F3002091F20039
:1048B000382F6115710519F02830310558F091E055
:1048C0002830310509F090E02091E8002E77209300
:1048D000E800CBCF81918093F100615071092F5F87
:1048E0003F4FE7CF80911303882341F0853041F09B
:1048F0008091E80083FFBECF81E0089582E00895B3
:1049000083E00895FC0180911A0390911B038617A0
:104910009707A0F06115710529F48091E8008E7762
:104920008093E80090E06115710551F4911108C081
:104930008091E80082FF35C080E00895BC01F2CF8D
:10494000809113038823C9F18530C9F18091E80073
:1049500083FD31C08091E80082FDEACF8091E800BC
:1049600080FFE1CF8091F3002091F200382F611594
:10497000710519F02830310558F091E028303105E3
:1049800009F090E08091E8008E778093E800CBCF2B
:1049900084918093F1003196615071092F5F3F4FF0
:1049A000E6CF80911303882341F0853041F0809158
:1049B000E80083FFBDCF81E0089582E0089583E0A1
:1049C0000895982F973028F08F708093E90081E048
:1049D00008959093E900242F762F50E0981731F036
:1049E0007091EC002091ED005091F00021FD02C08B
:1049F0009F5FE8CF3091EB003E7F3093EB0030912A
:104A0000ED003D7F3093ED003091EB00316030934D
:104A1000EB007093EC002093ED005093F000209198
:104A2000EE0027FDE5CF80E008958091140387FF15
:104A300013C08091E80082FF06C08091E8008B7768
:104A40008093E80004C0809113038111F2CF089590
:104A5000809113038823D9F38091E80080FFF8CF79
:104A60008091E8008E77ECCF2091E4003091E50052
:104A700095E6A9012091EC00822F817020FF06C0ED
:104A80008091E80080FF06C080E008952091E80052
:104A900022FD1AC080911303882389F0853089F0A4
:104AA0008091EB0085FD0FC02091E4003091E5007E
:104AB00042175307F9F29150E1F684E0089582E03D
:104AC000089583E0089581E008950E94D3250E940F
:104AD000DB25E0EEF0E0808181608083E8EDF0E0AE
:104AE00080818F77808319BCA7EDB0E08C918E7F99
:104AF0008C9380818F7E80831092120308950F9390
:104B00001F93CF93DF930E94D3250E94DB25C8ED2E
:104B1000D0E088818F7788838881806888838881C6
:104B20008F7D888319BC1092130310920F0310928B
:104B300011031092100300EE10E0F80180818B7FCA
:104B4000808388818160888342E060E080E00E9409
:104B5000E124E1EEF0E080818E7F8083E2EEF0E000
:104B6000808181608083808188608083F80180817A
:104B70008E7F8083888180618883DF91CF911F91B0
:104B80000F910895E8EDF0E080818F7E8083E7ED5E
:104B9000F0E080818160808384E082BF81E0809347
:104BA00012030C947F25E8EDF0E080818E7F8083F6
:104BB0001092E20008951092DA001092E100089538
:104BC0001F920F920FB60F9211242F933F934F9382
:104BD0005F936F937F938F939F93AF93BF93EF9365
:104BE000FF938091E10082FF0BC08091E20082FF81
:104BF00007C08091E1008B7F8093E1000E944A28EA
:104C00008091DA0080FF19C08091D80080FF15C024
:104C10008091DA008E7F8093DA008091D90080FF46
:104C200096C080E189BD82E189BD09B400FEFDCF57
:104C300081E0809313030E9447228091E10080FF6E
:104C400019C08091E20080FF15C08091E2008E7F44
:104C50008093E2008091E20080618093E200809185
:104C6000D80080628093D80019BC85E0809313033C
:104C70000E9459228091E10084FF2BC08091E200C4
:104C800084FF27C080E189BD82E189BD89B5982F65
:104C9000917080FFFBCF8091D8008F7D8093D800EA
:104CA0008091E1008F7E8093E1008091E2008F7E11
:104CB0008093E2008091E20081608093E200809125
:104CC0000F03882309F449C084E0809313030E94F2
:104CD0005A228091E10083FF29C08091E20083FF86
:104CE00025C08091E100877F8093E10082E080937E
:104CF000130310920F038091E1008E7F8093E100F7
:104D00008091E2008E7F8093E2008091E2008061DA
:104D10008093E20042E060E080E00E94E124809124
:104D2000F00088608093F0000E945822FF91EF917C
:104D3000BF91AF919F918F917F916F915F914F91B3
:104D40003F912F910F900FBE0F901F90189519BC97
:104D5000109213030E94552270CF8091E30087FDCB
:104D600093E090931303B3CF1F920F920FB60F925D
:104D700011242F933F934F935F936F937F938F9360
:104D80009F93AF93BF93CF93DF93EF93FF93D09114
:104D9000E900DF708091EC00C82FC17080FDC0E891
:104DA0001092E9008091F000877F8093F000789462
:104DB0000E94F8261092E9008091F00088608093AC
:104DC000F000CD2BCF70C093E900FF91EF91DF9100
:104DD000CF91BF91AF919F918F917F916F915F9193
:104DE0004F913F912F910F900FBE0F901F901895EC
:104DF0001F93CF93DF93CDB7DEB7AA970FB6F89482
:104E0000DEBF0FBECDBF84E193E02091F100FC0135
:104E10002193CF01F3E08C319F07B9F70E946522FF
:104E20008091E80083FF1EC18091140390911503C7
:104E30009A3008F017C1E92FF0E0EF50F64D0C94CE
:104E4000CA28803899F0823809F00CC18091180383
:104E50008F70873008F006C18093E9008091EB00E5
:104E600085FB882780F91092E90006C08091100325
:104E700090911103911182609091E800977F909337
:104E8000E8008093F1001092F1008091E8008E77A5
:104E9000E5C0882309F4D3C0823009F0E3C08091D3
:104EA00016038111D6C0809118038F702FEF280F41
:104EB000263008F0D7C08093E9002091EB0020FF56
:104EC000C8C0933031F48091EB0080628093EB0096
:104ED000C0C09091EB0090619093EB0021E030E036
:104EE00001C0220F8A95EAF72093EA001092EA00A7
:104EF0008091EB008860EACF8111B4C01091160355
:104F00001F778091E3008078812B8093E30080916C
:104F1000E800877F8093E8000E9415258091E800D3
:104F200080FFFCCF8091E30080688093E30082E003
:104F3000111183E08093130395C08058823008F0EC
:104F400091C080911603909117038C3D23E0920746
:104F5000A1F583E08A838AE289834FB7F894DE0162
:104F6000139620E03EE051E2E32FF0E0509357002B
:104F7000E49120FF03C0E295EF703F5FEF708E2F4A
:104F800090E0EA30C0F0C7968D939D932F5F243157
:104F900059F74FBF8091E800877F8093E8006AE26D
:104FA00070E0CE0101960E9424248091E8008B7766
:104FB0008093E80057C0C096E7CF609118037091C6
:104FC0001903AE014F5F5F4F0E946523BC01892B1F
:104FD00009F448C09091E800977F9093E800898198
:104FE0009A810E948224E1CF8038E1F58091E80027
:104FF000877F8093E80080910F038093F10045CF75
:10500000811130C090911603923060F58091E800D4
:10501000877F8093E80090930F030E94152580916D
:105020000F03882311F084E005C08091E30087FD21
:10503000FACF81E0809313030E945B2213C080911A
:105040001603813079F481E0933009F080E0809399
:1050500011031092E9008091E800877F8093E800B7
:105060000E9415258091E80083FF0AC08091E80026
:10507000877F8093E8008091EB0080628093EB0053
:10508000AA960FB6F894DEBF0FBECDBFDF91CF91C9
:105090001F9108950895CF93809113038823A1F061
:1050A000C091E900CF709091EC00892F817090FD44
:1050B00080E8C82B1092E9008091E80083FD0E94EF
:1050C000F826CF70C093E900CF910895991B79E03D
:1050D00004C0991F961708F0961B881F7A95C9F788
:1050E0008095089587FB082E062687FD819567FD2C
:1050F00061950E9466280EF4919507FC81950895AC
:10510000AA1BBB1B51E107C0AA1FBB1FA617B707ED
:1051100010F0A61BB70B881F991F5A95A9F7809509
:105120009095BC01CD01089597FB072E16F40094CD
:1051300007D077FD09D00E94802807FC05D03EF4F7
:10514000909581959F4F0895709561957F4F089533
:10515000A1E21A2EAA1BBB1BFD010DC0AA1FBB1F7B
:10516000EE1FFF1FA217B307E407F50720F0A21BED
:10517000B30BE40BF50B661F771F881F991F1A945A
:1051800069F760957095809590959B01AC01BD0184
:10519000CF010895EE0FFF1F0590F491E02D0994C3
:1051A0000E94D828332312F48A1B9B0B0C94E92805
:1051B000A29FB001B39FC001A39F700D811D112458
:1051C000911DB29F700D811D1124911D08950E94A3
:1051D000D828B7FF0895821B930B08950E94D82802
:1051E000A59F900DB49F900DA49F800D911D11243B
:1051F0000895B7FF0C94EE280E94EE28821B930BB3
:1052000008958F929F92AF92BF92CF92DF92EF92CA
:10521000FF92CF93DF93EC01688179818A819B8132
:10522000611571058105910521F464E279ED8BE545
:1052300097E02DE133EF41E050E00E94B2294901AF
:105240005A019B01AC01A7EAB1E40E94EE286B0170
:105250007C01ACEEB4EFA50194010E94FC28DC01B6
:10526000CB018C0D9D1DAE1DBF1DB7FF03C0019767
:10527000A109B04888839983AA83BB839F77DF9174
:10528000CF91FF90EF90DF90CF90BF90AF909F9025
:105290008F9008950E940129089580E091E00E9476
:1052A00001290895B0E0A0E08093000190930101EE
:1052B000A0930201B09303010895FC0141505040B6
:1052C00030F001900616D1F73197CF010895882765
:1052D00099270895F999FECF92BD81BDF89A992733
:1052E00080B50895A6E1B0E044E050E00C94A42914
:1052F000A8E1B0E042E050E00C94A429262FF999EF
:10530000FECF92BD81BDF89A019700B4021639F024
:105310001FBA20BD0FB6F894FA9AF99A0FBE0895F5
:105320000396272F0E947F290E947E29252F0E9405
:105330007F29242F0C947F290196272F0E947F29F3
:105340000C947E29DC01CB01FC01F999FECF06C04B
:10535000F2BDE1BDF89A319600B40D924150504033
:10536000B8F70895052E97FB1EF400940E94C929F2
:1053700057FD07D00E94A82807FC03D04EF40C94D8
:10538000C92950954095309521953F4F4F4F5F4F1C
:10539000089590958095709561957F4F8F4F9F4FA1
:1053A0000895F894FFCFC016C016181718176A177B
:1053B0008617ED16ED1691171D182C182C18881845
:1053C000ED16ED169118061906190F190F19111976
:1053D0000F190F190F190619061916190F190F1998
:1053E0001619212749273228492732287C279D274B
:0653F0003228F42700281A
:1053F600010000002808641E140A321E0101020082
:105406000A000A0A01191A1B1C1D1E1F2021228FC1
:1054160002A8210722E621E221DE2101E200E900BD
:10542600EA00B500B600B700CD008301CC008A01C2
:105436009201940121022302240225022602270258
:105446002A02B300B4006F0070008182839734365D
:10545600323331F7F6F5F4946635C60001020202DE
:10546600020606060909090909090F0F0F0F0F0F92
:10547600151515181919191919191919191923248E
:10548600252525252525E200E900EA00B500B60018
:10549600B700CD008301CC008A019201940121025C
:1054A600230224022502260227022A02B300B400A0
:0854B6006F0070008182830089
:00000001FF
